:100000000C9472000C9493000C9493000C94930045
:100010000C9493000C9493000C9493000C94930014
:100020000C9493000C9493000C9493000C94930004
:100030000C9493000C94F7240C9493000C9493006C
:100040000C9493000C9493000C9493000C949300E4
:100050000C9493000C9493000C9493000C946822DD
:100060000C9493000C94B6070C94E8070C9493003E
:100070000C9493000C9456230C9493000C949300CE
:100080000C9493000C9493000C9493000C949300A4
:100090000C9458080C948A080C9493000C949300C8
:1000A0000C9493000C9493000C9493000C94930084
:1000B0000C9493000C9493000C9493000C94930074
:1000C0000C9493000C9493000C9493000C940009EE
:1000D0000C9432090C9493000C9493000C949300AC
:1000E0000C94930011241FBECFEFD1E2DEBFCDBF31
:1000F00000E00CBF16E0A0E0B2E0E8E6F8E500E0C2
:100100000BBF02C007900D92AA3EB107D9F72AE0B3
:10011000AAEEB6E001C01D92AE36B207E1F70E942A
:10012000EB270C94322C0C940000CF93C1E06C2F81
:1001300090E080E00E946326CF5FC530C1F761E0A8
:100140008091DE099091DF090E943F2762E0809153
:10015000DA099091DB090E943F2763E08091E20970
:100160009091E3090E943F2764E08091E609909115
:10017000E7090E943F2780E00E94A70C60E070E042
:10018000CB010E94700C83E090E09093EB0680938B
:10019000EA068091BA099091BB099093EF0680938B
:1001A000EE068091B6099091B7099093ED06809381
:1001B000EC068091C2099091C3099093F106809357
:1001C000F0068091C6099091C7099093F306809339
:1001D000F2061092F5061092F4061092F7061092AD
:1001E000F6061092F9061092F8061092FB0610928D
:1001F000FA061092FD061092FC061092FF0610926D
:10020000FE060E94D6226093000770930107809338
:10021000020790930307CF9108951F93CF93DF9325
:100220000E94C50C162FD72FC1E06C2F90E080E004
:100230000E946326CF5FC530C1F761E08091CE098F
:100240009091CF090E943F2762E08091CA09909166
:10025000CB090E943F2763E08091D2099091D30996
:100260000E943F2764E08091D6099091D7090E94AF
:100270003F2780E00E94A70C81E090E09093EB067E
:100280008093EA068091BA099091BB099093EF069A
:100290008093EE068091B6099091B7099093ED0690
:1002A0008093EC068091C2099091C3099093F10666
:1002B0008093F0068091C6099091C7099093F30648
:1002C0008093F206812F9D2F9093F5068093F4067C
:1002D0001092F7061092F6061092F9061092F806A0
:1002E0001092FB061092FA061092FD061092FC0680
:1002F0001092FF061092FE060E94D622609300071D
:1003000070930107809302079093030760E070E009
:10031000CB01DF91CF911F910C94700C0F931F9321
:10032000CF93DF9300D000D0CDB7DEB76150770B0D
:10033000660F771F2EE0269FA001279F500D1124E6
:100340008A010D54164F4250564F5E834D839C01D7
:1003500050E040E029833A834B835C83CA01B901B2
:100360000E94082BED81FE812081318142815381E1
:1003700069837A838B839C8369817A818B819C8159
:100380000E94962BF801E15BFF4F20813181428171
:10039000538169837A838B839C8369817A818B8182
:1003A0009C810E94FB2969837A838B839C8369816A
:1003B0007A818B819C810E94D92ACB0126960FB627
:1003C000F894DEBF0FBECDBFDF91CF911F910F918B
:1003D00008950F931F93CF93DF9300D000D0CDB734
:1003E000DEB76150770B660F771F6F5F7F4F2EE090
:1003F000269FA001279F500D11248A010D54164FEE
:100400004250564F5E834D839C0150E040E029836B
:100410003A834B835C83CA01B9010E94082BED81AA
:10042000FE81208131814281538169837A838B836C
:100430009C8369817A818B819C810E94962BF80133
:10044000E15BFF4F208131814281538169837A834F
:100450008B839C8369817A818B819C810E94FB299B
:1004600069837A838B839C8369817A818B819C8168
:100470000E94D92ACB0126960FB6F894DEBF0FBE94
:10048000CDBFDF91CF911F910F910895FC018FB7E0
:10049000F8941082118212821382148215821682BD
:1004A00017828FBF08950F931F93FC018FB7F894A5
:1004B0000081118122813381448155816681778158
:1004C0008FBF81E0041715072607370709F480E07E
:1004D0001F910F910895EF92FF920F931F93CF9367
:1004E000DF9300D00F92CDB7DEB7FC012FB7F894A1
:1004F000408151816281738184819581A681B78118
:10050000481759076A077B0710F1408151816281C2
:10051000738184819581A681B7817A018B01E81A64
:10052000F90A0A0B1B0BE982FA820B831C832FBF8B
:1005300069817A818B819C810F900F900F900F9031
:10054000DF91CF911F910F91FF90EF9008958081DF
:100550009181A281B3814481558166817781805CDC
:100560009F4FAF4FBF4F7C018D01E41AF50A060B78
:10057000170BD9CFFC012FB7F894408151816281CC
:10058000738184819581A681B781481759076A07CD
:100590007B07D9F084819581A681B7818E0F9F1F3B
:1005A000DC0118968C9144815581668177814F5F7B
:1005B0005F4F6F4F7F4F4F735527662777274483D1
:1005C0005583668377832FBF089580E008950F9346
:1005D0001F93FC019FB7F894008111812281338120
:1005E000448155816681778180E0041715072607CD
:1005F000370739F04481558166817781E40FF51F13
:1006000080859FBF1F910F910895CF92DF92EF9247
:10061000FF921F93CF93DF9300D000D0CDB7DEB70A
:100620008D839E836A017B011FB7F894AD81BE81E3
:100630004D915D916D917C91139714968D919D9143
:100640000D90BC91A02D481759076A077B0781F4CC
:1006500080E01FBF26960FB6F894DEBF0FBECDBF59
:10066000DF91CF911F91FF90EF90DF90CF90089591
:100670008D819E810E946B0269837A838B839C8328
:10068000C616D706E806F90618F7ED81FE818481C3
:100690009581A681B7818C0D9D1DAE1DBF1D8F73E9
:1006A0009927AA27BB27E80FF91F8085D2CF0F9380
:1006B0001F93FC018A019B014FB7F89484819581B7
:1006C000A681B781800F911FA21FB31F8F73992737
:1006D000AA27BB2784839583A683B7834FBF1F9127
:1006E0000F910895CF92DF92EF92FF92FC012FB706
:1006F000F89480819181A281B381C480D580E68005
:10070000F7800196A11DB11D8F739927AA27BB27DA
:100710008C159D05AE05BF05C1F080819181A28138
:10072000B3818E0F9F1FDC0118966C93808191819D
:10073000A281B3810196A11DB11D8F739927AA27AC
:10074000BB2780839183A283B3832FBFFF90EF9059
:10075000DF90CF9008958F929F92AF92BF92CF92E9
:10076000DF92EF92FF920F931F93CF93DF93182F97
:10077000092F69017A01EB01812C912C54018C1411
:100780009D04AE04BF0469F4DF91CF911F910F91D6
:10079000FF90EF90DF90CF90BF90AF909F908F90A1
:1007A00008956991812F902F0E9472038FEF881A0C
:1007B000980AA80AB80AE3CF8F929F92AF92BF928D
:1007C000CF92DF92EF92FF92CF93DF9300D00F9200
:1007D0000F92CDB7DEB76A017B01FC0119821A8244
:1007E0001B821C82812C912C54018C149D04AE041C
:1007F000BF04A1F469817A818B819C810F900F9055
:100800000F900F900F90DF91CF91FF90EF90DF90BE
:10081000CF90BF90AF909F908F90089521912053DB
:100820002D832A3098F4AAE0B0E029813A814B81E7
:100830005C810E94E029DC01CB012D81820F911D9A
:10084000A11DB11D89839A83AB83BC838FEF881A66
:10085000980AA80AB80AC9CFAF92BF92CF92DF9286
:10086000EF92FF920F931F93CF93DF93CDB7DEB735
:100870002E970FB6F894DEBF0FBECDBF6091500922
:1008800070915109E0912D09F0912E0940913109A3
:1008900050913209209135093091360980913909FA
:1008A00090913A096115710509F5F093070AE093F3
:1008B000060A5093230A4093220A30933F0A20935A
:1008C0003E0A90935B0A80935A0A2E960FB6F894CC
:1008D000DEBF0FBECDBFDF91CF911F910F91FF9073
:1008E000EF90DF90CF90BF90AF900895F093090AFA
:1008F000E093080A70930B0A60930A0A5093250A42
:100900004093240A40915D0950915E095093270A53
:100910004093260A3093410A2093400A20916A09A5
:1009200030916B093093430A2093420A90935D0AF9
:1009300080935C0A809177099091780990935F0A7F
:1009400080935E0A2EEF39E03E832D83AD81BE8118
:1009500018968D919C919C0150E040E029833A8348
:100960004B835C83CA01B9010E94082B7B018C0177
:10097000AD81BE811C968D919C919C0150E040E020
:1009800029833A834B835C83CA01B9010E94082BF7
:100990005B016C01AD81BE811A968D919C919C0189
:1009A00050E040E029833A834B835C83CA01B9015C
:1009B0000E94082B9701A80169837A838B839C830B
:1009C00069817A818B819C810E94FA299B01AC010B
:1009D000A982BA82CB82DC8269817A818B819C81F7
:1009E0000E94672A5B016C016983BA828B83DC8277
:1009F00069817A818B819C810E94D92A69837A835B
:100A00008B839C83A981BA81CD01B0E0A0E089836A
:100A10009A83AB83BC83BC01CD010E94082B6F83FA
:100A2000788789879A87ED81FE81608371838283CD
:100A300093839501A601E982FA820B831C83698165
:100A40007A818B819C810E94962B69837A838B8328
:100A50009C8369817A818B819C810E94D92A6983D8
:100A60007A838B839C8349815A819A0150E040E0CC
:100A700029833A834B835C83CA01B9010E94082B06
:100A80006B877C878D879E87AD81BE8114966D9321
:100A90007D938D939C9317975C96BE83AD83AE56E2
:100AA000BA4009F053CF11CF8F929F92AF92BF926D
:100AB000CF92DF92EF92FF920F931F93CF93DF932A
:100AC000CDB7DEB72E970FB6F894DEBF0FBECDBF01
:100AD000F82EE92E4B875C876D877E878B859C85FA
:100AE000AD85BE85892B8A2B8B2BB9F460E38F2DC6
:100AF0009E2D2E960FB6F894DEBF0FBECDBFDF91B0
:100B0000CF911F910F91FF90EF90DF90CF90BF900A
:100B1000AF909F908F900C94720310E08AE0882E23
:100B2000912CA12CB12CDE0111966D016B857C8579
:100B30008D859E85A50194010E94BE29F601E10FD5
:100B4000F11D605D60831F5F8B859C85AD85BE85D3
:100B50002B873C874D875E870A97A105B10530F743
:100B6000F601E10FF11D8F01C016D10699F42E9602
:100B70000FB6F894DEBF0FBECDBFDF91CF911F91AE
:100B80000F91FF90EF90DF90CF90BF90AF909F902C
:100B90008F900895D8016E918D018F2D9E2D0E940A
:100BA0007203E2CFCF92DF92EF92FF926A01FC01D3
:100BB000D901C80ED91E81912D91082E000C990BD8
:100BC0002817190649F4EC15FD05A9F781E0FF90F7
:100BD000EF90DF90CF90089580E0F9CFAF92BF9271
:100BE000CF92DF92EF92FF920F931F93CF93DF93F9
:100BF000CDB7DEB72E970FB6F894DEBF0FBECDBFD0
:100C000060912D0970912E0940913109509132095E
:100C100020913509309136098091390990913A092E
:100C2000E0915009F0915109EF2B09F57093150AE5
:100C30006093140A5093310A4093300A30934D0A5E
:100C400020934C0A9093690A8093680A2E960FB6F7
:100C5000F894DEBF0FBECDBFDF91CF911F910F91F2
:100C6000FF90EF90DF90CF90BF90AF90089570937A
:100C7000170A6093160A6091520970915309709394
:100C8000190A6093180A5093330A4093320A40912C
:100C90005F09509160095093350A4093340A3093AC
:100CA0004F0A20934E0A20916C0930916D093093C0
:100CB000510A2093500A90936B0A80936A0A80919C
:100CC000790990917A0990936D0A80936C0A2CE0CF
:100CD0003AE03E832D83AD81BE8118968D919C9123
:100CE0009C0150E040E029833A834B835C83CA0136
:100CF000B9010E94082B7B018C01AD81BE811C963D
:100D00008D919C919C0150E040E029833A834B8374
:100D10005C83CA01B9010E94082B5B016C01AD81A3
:100D2000BE811A968D919C919C0150E040E02983F0
:100D30003A834B835C83CA01B9010E94082B970157
:100D4000A80169837A838B839C8369817A818B81F3
:100D50009C810E94FA299B01AC01A982BA82CB82B4
:100D6000DC8269817A818B819C810E94672A5B0188
:100D70006C016983BA828B83DC8269817A818B8181
:100D80009C810E94D92A69837A838B839C83A98161
:100D9000BA81CD01B0E0A0E089839A83AB83BC83A4
:100DA000BC01CD010E94082B6F83788789879A87C1
:100DB000ED81FE8160837183828393839501A60117
:100DC000E982FA820B831C8369817A818B819C8101
:100DD0000E94962B69837A838B839C8369817A81B5
:100DE0008B819C810E94D92A69837A838B839C831F
:100DF00049815A819A0150E040E029833A834B832C
:100E00005C83CA01B9010E94082B6B877C878D87A0
:100E10009E87AD81BE8114966D937D938D939C9337
:100E200017975C96BE83AD83AC57BA4009F053CF99
:100E30000DCF4F925F926F927F928F929F92AF925F
:100E4000BF92CF92DF92EF92FF920F931F93CF93B7
:100E5000DF9300D000D0CDB7DEB72C01B62E072F20
:100E600069017A011FB7F8940E946B0269837A8343
:100E70008B839C836C157D058E059F0550F06B2C34
:100E8000702E40E050E0BA01C416D506E606F7061B
:100E9000C1F41FBF26960FB6F894DEBF0FBECDBFBC
:100EA000DF91CF911F910F91FF90EF90DF90CF9046
:100EB000BF90AF909F908F907F906F905F904F907A
:100EC0000895D20114968D909D90AD90BC90179787
:100ED000C401840D951DFC01208514968D919D9172
:100EE0000D90BC91A02D0196A11DB11D8F73992766
:100EF000AA27BB27F20184839583A683B783D301F6
:100F00002D933D014F5F5F4F6F4F7F4FBDCF9FB719
:100F1000F894E0ECF0E0808180648083E1ECF0E024
:100F20008081886280839FBF0895CF93CFB7F89464
:100F30008EE698E00E94460286E298E00E94460211
:100F400010921B0910921A0987E690E09093C50051
:100F50008093C40082E08093C00080E98093C10048
:100F600086E08093C200CFBFCF9108951F920F9269
:100F70000FB60F9211240BB60F922F933F934F93FE
:100F80005F936F937F938F939F93AF93BF93EF93F1
:100F9000FF936091C60086E298E00E94720381E0B0
:100FA00090E090931B0980931A09FF91EF91BF91F4
:100FB000AF919F918F917F916F915F914F913F91F1
:100FC0002F910F900BBE0F900FBE0F901F90189592
:100FD0001F920F920FB60F9211240BB60F922F9300
:100FE0003F934F935F936F937F938F939F93AF93B1
:100FF000BF93EF93FF938EE698E00E9453028130F7
:1010000021F58EE698E00E94BA028093C6008EE633
:1010100098E00E945302813029F08091C100877DC1
:101020008093C100FF91EF91BF91AF919F918F91FC
:101030007F916F915F914F913F912F910F900BBED8
:101040000F900FBE0F901F90189584E28093C600FA
:10105000E4CF9FB7F894E8ECF0E08081806480836F
:10106000E9ECF0E08081886280839FBF0895CF9390
:10107000CFB7F8948EED97E00E94460286E997E09C
:101080000E944602109219091092180987E690E012
:101090009093CD008093CC0082E08093C80080E9DB
:1010A0008093C90086E08093CA00CFBFCF91089596
:1010B0001F920F920FB60F9211240BB60F922F931F
:1010C0003F934F935F936F937F938F939F93AF93D0
:1010D000BF93EF93FF936091CE0086E997E00E9463
:1010E000720381E090E09093190980931809FF91B1
:1010F000EF91BF91AF919F918F917F916F915F9190
:101100004F913F912F910F900BBE0F900FBE0F90FC
:101110001F9018951F920F920FB60F9211240BB6C5
:101120000F922F933F934F935F936F937F938F9380
:101130009F93AF93BF93EF93FF938EED97E00E9441
:101140005302813061F48EED97E00E94BA028093E1
:10115000CE008EED97E00E945302813029F08091FD
:10116000C900877D8093C900FF91EF91BF91AF9136
:101170009F918F917F916F915F914F913F912F91AF
:101180000F900BBE0F900FBE0F901F9018959FB73A
:10119000F894E0EDF0E0808180648083E1EDF0E0A0
:1011A0008081886280839FBF0895CF9310921D092C
:1011B00010921E0910921F091092200910921C090A
:1011C000CFB7F8948EE497E00E94460286E097E05D
:1011D0000E944602109217091092160980E493E0CB
:1011E0009093D5008093D40082E08093D00080E972
:1011F0008093D10086E08093D200CFBFCF91089535
:101200001F920F920FB60F9211240BB60F922F93CD
:101210003F934F935F936F937F938F939F93AF937E
:10122000BF93EF93FF936091D60086E097E00E9412
:10123000720381E090E09093170980931609FF9163
:10124000EF91BF91AF919F918F917F916F915F913E
:101250004F913F912F910F900BBE0F900FBE0F90AB
:101260001F9018951F920F920FB60F9211240BB674
:101270000F922F933F934F935F936F937F938F932F
:101280009F93AF93BF93EF93FF938EE497E00E94F9
:101290005302813021F58EE497E00E94BA028093D8
:1012A000D6008EE497E00E945302813029F08091AD
:1012B000D100877D8093D100FF91EF91BF91AF91D5
:1012C0009F918F917F916F915F914F913F912F915E
:1012D0000F900BBE0F900FBE0F901F90189584E2D9
:1012E0008093D600E4CF8F929F92AF92BF92CF921D
:1012F000DF92EF92FF92CF93DF9300D00F92CDB7A2
:10130000DEB786E097E00E946B02633071058105CD
:10131000910500F50F900F900F900F90DF91CF91F6
:10132000FF90EF90DF90CF90BF90AF909F908F9005
:10133000089586E298E00E946B0264307105810591
:10134000910570F041E050E060E070E086E097E0E9
:101350000E94570386E097E00E94E702843249F733
:1013600086E097E00E946B0265307105810591056A
:1013700088F240E050E0BA0186E097E00E94050361
:10138000843209F4D3C086E097E00E946B02653096
:1013900071058105910508F0C0C086E097E00E94C4
:1013A0006B0269837A838B839C8365307105810529
:1013B000910508F4AFCF86E097E00E946B024B01E5
:1013C0005C0183E0C82ED12CE12CF12CC814D90487
:1013D000EA04FB0408F09ECFB701A60186E097E07F
:1013E0000E9405038A3049F0B701A60186E097E024
:1013F0000E940503843209F0BBC0B701A60186E054
:1014000097E00E9405038A3009F06AC043E050E08B
:1014100060E070E086E097E00E94570346015701C4
:1014200093E0891A9108A108B108B701A6014450B8
:1014300051096109710986E097E00E94050341E0C6
:1014400050E060E070E08D3019F040E050E0BA010B
:10145000841A950AA60AB70AA501940166EB78E0FA
:1014600086E097E00E94190764E28EE698E00E9409
:10147000720364E28EE698E00E94720364E28EE6F4
:1014800098E00E947203A501940166EB78E08EE675
:1014900098E00E94AB036AE08EE698E00E94720337
:1014A00064E28EED97E00E94720364E28EED97E0B5
:1014B0000E94720364E28EED97E00E947203A50120
:1014C000940166EB78E08EED97E00E94AB036AE052
:1014D0008EED97E00E9472030E9487070E94290800
:1014E000B701A60186E097E00E940503843209F067
:1014F00011CFB701A60186E097E00F900F900F90F3
:101500000F90DF91CF91FF90EF90DF90CF90BF9041
:10151000AF909F908F900C94570341E050E060E0B3
:1015200070E086E097E00E94570323CF41E050E04F
:1015300060E070E086E097E00E940503843209F0E5
:1015400022CF42E050E060E070E086E097E00E9449
:101550000503843209F017CF43E050E060E070E00B
:1015600086E097E00E940503843209F40CCF15CF82
:101570008FEFC81AD80AE80AF80A28CFCF92DF926C
:10158000EF92FF920F931F93CF93DF930DE219E039
:10159000C1E0F894F8018081918178946C2F0E94C9
:1015A0008E016C0124E030E040E050E069E273E03D
:1015B0008EE698E00E94AB03D0E3DC0F6D2F8EE641
:1015C00098E00E9472036AE38EE698E00E9472033C
:1015D000F12CE12CB701A6018EE698E00E9454059B
:1015E0006AE08EE698E00E94720324E030E040E07A
:1015F00050E069E273E08EED97E00E94AB036D2F3F
:101600008EED97E00E9472036AE38EED97E00E94F0
:101610007203B701A6018EED97E00E9454056AE0BF
:101620008EED97E00E9472030C5F1F4FCF5FC530B5
:1016300009F0AFCF0E948707DF91CF911F910F91E3
:10164000FF90EF90DF90CF900C942908CF92DF921B
:10165000EF92FF9280911C09882309F452C0C09038
:101660001D09D0901E09E0901F09F09020092BE081
:1016700030E040E050E065EC72E08EE698E00E94D9
:10168000AB03EE24FF24B701A6018EE698E00E948A
:1016900054056AE38EE698E00E947203B701A60142
:1016A0008EE698E00E9454056AE08EE698E00E947B
:1016B00072032BE030E040E050E065EC72E08EED2C
:1016C00097E00E94AB03B701A6018EED97E00E9460
:1016D00054056AE38EED97E00E947203B701A601FC
:1016E0008EED97E00E9454056AE08EED97E00E942F
:1016F00072030E948707FF90EF90DF90CF900C94C9
:1017000029082BE030E040E050E065EC72E08EE626
:1017100098E00E94AB0329E030E040E050E06BEB42
:1017200072E08EE698E00E94AB032BE030E040E0F0
:1017300050E065EC72E08EED97E00E94AB0329E08B
:1017400030E040E050E06BEB72E08EED97E00E94FD
:10175000AB03CFCF2BE030E040E050E06FEA72E027
:101760008EE698E00E94AB030E9487072BE030E0F2
:1017700040E050E06FEA72E08EED97E00E94AB032C
:101780000C9429082AE030E040E050E064EA72E07E
:101790008EE698E00E94AB030E9487072AE030E0C3
:1017A00040E050E064EA72E08EED97E00E94AB0307
:1017B0000C942908CF92DF92EF92FF920F931F9320
:1017C000CF93DF932FE030E040E050E064E972E037
:1017D0008EE698E00E94AB038CEEE82E86E0F82EB1
:1017E000CDE4D9E08E016701F601819191916F01FD
:1017F000892B31F0F8018781908566E4892B09F007
:101800006DE28EE698E00E947203035F1F4FF9E0DD
:1018100001381F0749F76AE08EE698E00E947203DC
:101820000E9487072FE030E040E050E064E972E07A
:101830008EED97E00E94AB03F701819191917F01BA
:10184000892B29F08F81988566E4892B09F06DE258
:101850008EED97E00E9472032D96F9E0C138DF0704
:1018600059F76AE08EED97E00E947203DF91CF9105
:101870001F910F91FF90EF90DF90CF900C9429086B
:1018800027E030E040E050E06CE872E08EE698E05F
:101890000E94AB030E94870727E030E040E050E061
:1018A0006CE872E08EED97E00E94AB030C9429087F
:1018B00026E030E040E050E065E872E08EE497E03A
:1018C0000E94AB030C94C70827E030E040E050E0F2
:1018D0006DE772E08EE497E00E94AB030C94C708BA
:1018E000CF92DF92EF92FF926B017C01C0921D09B3
:1018F000D0921E09E0921F09F092200980911C09E4
:1019000028E030E040E050E064E772E08823A9F08E
:101910008EE497E00E94AB03B701A6018EE497E046
:101920000E9454056AE08EE497E00E947203FF90E3
:10193000EF90DF90CF900C94C7088EE497E00E9460
:10194000AB0360E38EE497E00E947203EBCFCF938A
:10195000DF9300D00F92CDB7DEB780931C09809142
:101960001D0990911E09A0911F09B091200989833A
:101970009A83AB83BC83BC01CD010F900F900F9075
:101980000F90DF91CF910C94700CCF93DF9300D028
:101990000F92CDB7DEB780911D0990911E09A091DD
:1019A0001F09B0912009BC01CD010F900F900F903D
:1019B0000F90DF91CF9108952BE030E040E050E0B0
:1019C00068E672E08EE497E00E94AB030C94C708CF
:1019D00028E030E040E050E06FE572E08EE497E010
:1019E0000E94AB030C94C7082BE030E040E050E0CD
:1019F00063E572E08EE497E00E94AB030C94C708A5
:101A00002BE030E040E050E067E472E08EE497E0E5
:101A10000E94AB030C94C7080F931F93CF93DF93DF
:101A20008B01D82FC92F2BE030E040E050E06BE372
:101A300072E08EE497E00E94AB03A8016D2F7C2F2B
:101A40008EE497E00E9454056AE08EE497E00E94DD
:101A50007203DF91CF911F910F910C94C7082FE073
:101A600030E040E050E06BE272E08EE497E00E94EC
:101A7000AB030C94C70824E130E040E050E060E0A4
:101A800072E0811106C025E130E040E050E065E100
:101A900072E08EE497E00E94AB030C94C7088F922B
:101AA0009F92AF92BF92CF92DF92EF92FF920F93ED
:101AB0001F93CF93DF9300D00F92CDB7DEB786E2AE
:101AC00098E00E946B02633071058105910510F565
:101AD0000F900F900F900F90DF91CF911F910F916A
:101AE000FF90EF90DF90CF90BF90AF909F908F903E
:101AF000089586E298E00E946B02643071058105CA
:101B0000910570F041E050E060E070E086E298E01E
:101B10000E94570386E298E00E94E702843249F768
:101B200086E298E00E946B0265307105810591059F
:101B300078F240E050E0BA0186E298E00E940503A6
:101B4000843209F4BDC086E298E00E946B026530E1
:101B500071058105910508F0AAC086E298E00E940F
:101B60006B0269837A838B839C8365307105810561
:101B7000910508F4ADCF86E298E00E946B026B01FC
:101B80007C0183E0882E912CA12CB12C8C149D0417
:101B9000AE04BF0408F09CCFB501A40186E298E032
:101BA0000E9405038A3049F0B501A40186E298E05D
:101BB0000E940503843209F0A5C0B501A40186E2A4
:101BC00098E00E9405038A3009F052C043E050E0DB
:101BD00060E070E086E298E00E94570375016401BE
:101BE00093E0C91AD108E108F108B501A4014450F5
:101BF00051096109710986E298E00E94050341E0FC
:101C000050E060E070E08D3019F040E050E0BA0143
:101C1000C41AD50AE60AF70AA701960166EF78E02A
:101C200086E298E00E941907A2E0CA16D104E104F6
:101C3000F10409F06DC026EF38E042E050E060E0CA
:101C400070E08FE094E00E94D205813009F0D3C4A7
:101C50002DE130E040E050E066E373E08EE698E08E
:101C60000E94AB030E9487070E94580C0E94640CDC
:101C7000B501A40186E298E00E940503843209F0D0
:101C800027CFB501A40186E298E00F900F900F9046
:101C90000F90DF91CF911F910F91FF90EF90DF9008
:101CA000CF90BF90AF909F908F900C94570341E0DE
:101CB00050E060E070E086E298E00E94570339CF80
:101CC00041E050E060E070E086E298E00E940503A9
:101CD000843209F038CF42E050E060E070E086E204
:101CE00098E00E940503843209F02DCF43E050E0D4
:101CF00060E070E086E298E00E940503843209F417
:101D000022CF2BCF8FEF881A980AA80AB80A3ECFA5
:101D1000B8E0CB16D104E104F10409F0D7C126EFF5
:101D200038E048E050E060E070E082E194E00E943A
:101D3000D205813049F5F89480912D0990912E09B2
:101D4000789461E00E948E0189839A8324E030E0D8
:101D500040E050E069E273E08EE698E00E94AB0359
:101D600061E38EE698E00E9472036AE38EE698E0F3
:101D70000E947203E981FA81AF0170E060E08EE6B3
:101D800098E00E94540564C226EF38E048E050E035
:101D900060E070E08BE194E00E94D205813019F59B
:101DA000F8948091310990913209789462E00E9410
:101DB0008E0189839A8324E030E040E050E069E2BC
:101DC00073E08EE698E00E94AB0362E38EE698E053
:101DD0000E9472036AE38EE698E00E947203898192
:101DE0009A81AC01CACF26EF38E048E050E060E0CD
:101DF00070E084E294E00E94D205813019F5F894F5
:101E00008091350990913609789463E00E948E01A3
:101E100089839A8324E030E040E050E069E273E097
:101E20008EE698E00E94AB0363E38EE698E00E94A2
:101E300072036AE38EE698E00E947203A981BA8178
:101E4000AD019BCF26EF38E048E050E060E070E065
:101E50008DE294E00E94D2058130B9F4F89480912B
:101E6000390990913A09789464E00E948E0189833F
:101E70009A8324E030E040E050E069E273E08EE6CF
:101E800098E00E94AB0364E36CCF26EF38E048E0B3
:101E900050E060E070E086E394E00E94D20581307B
:101EA000B9F4F89480912F0990913009789461E009
:101EB0000E94E90189839A8324E030E040E050E009
:101EC00064E273E08EE698E00E94AB0361E37ECFAC
:101ED00026EF38E048E050E060E070E08FE394E007
:101EE0000E94D2058130B9F4F89480913309909121
:101EF0003409789462E00E94E90189839A8324E09E
:101F000030E040E050E064E273E08EE698E00E944A
:101F1000AB0362E38ACF26EF38E048E050E060E0B0
:101F200070E088E494E00E94D2058130B9F4F8941E
:101F30008091370990913809789463E00E94E90113
:101F400089839A8324E030E040E050E064E273E06B
:101F50008EE698E00E94AB0363E303CF26EF38E000
:101F600048E050E060E070E081E594E00E94D20536
:101F70008130B9F4F89480913B0990913C097894B0
:101F800064E00E94E90189839A8324E030E040E024
:101F900050E064E273E08EE698E00E94AB0364E3F5
:101FA00015CF26EF38E048E050E060E070E08AE5C9
:101FB00094E00E94D205813049F410924F091092AA
:101FC0004E091092EB061092EA0652CE26EF38E048
:101FD00048E050E060E070E083E694E00E94D205C3
:101FE000813039F481E090E090934F0980934E095D
:101FF000E8CF26EF38E048E050E060E070E08CE6A3
:1020000094E00E94D205813029F410925C0910926C
:102010005B09D7CF26EF38E048E050E060E070E0A1
:1020200085E794E00E94D205813039F481E090E0A8
:1020300090935C0980935B09C4CF26EF38E048E0B9
:1020400050E060E070E08EE794E00E94D2058130BD
:1020500029F41092690910926809B3CF26EF38E08D
:1020600048E050E060E070E087E894E00E94D2052C
:10207000813039F481E090E0909369098093680998
:10208000A0CF26EF38E048E050E060E070E080E963
:1020900094E00E94D205813029F4109276091092C2
:1020A0007509E6CD26EF38E048E050E060E070E0EA
:1020B00089E994E00E94D205813009F0D8C081E01E
:1020C00090E09093760980937509D2CD93E0C9167C
:1020D000D104E104F10459F526EF38E043E050E083
:1020E00060E070E083EB94E00E94D205813009F05B
:1020F00082C261E090E080E00E94632662E090E0AE
:1021000080E00E94632663E090E080E00E94632606
:1021100064E090E080E00E94632680E00E94A70CCB
:102120001092EB061092EA060E94400CA1CDA5E0A9
:10213000CA16D104E104F104B1F526EF38E045E018
:1021400050E060E070E084EA94E00E94D2058130C3
:1021500041F462E08091BE099091BF090E9463261C
:1021600087CD26EF38E045E050E060E070E082EA9D
:1021700094E00E94D205813031F462E08091BA0986
:102180009091BB09EBCF26EF38E045E050E060E0EE
:1021900070E08AEA94E00E94D205813009F044C1DF
:1021A0000E94A70C65CDB6E0CB16D104E104F10482
:1021B00089F426EF38E046E050E060E070E080EB24
:1021C00094E00E94D205813009F02EC180E00E9487
:1021D000A70CF7CEE7E0CE16D104E104F10409F034
:1021E0003FC026EF38E047E050E060E070E087EB6A
:1021F00094E00E94D205813009F016C12BE030E056
:1022000040E050E068E173E08EE698E00E94AB03A6
:102210008DE499E09A83898301E819E0A981BA8164
:102220008C916DE2813041F4E981FA81878190855A
:1022300063E4892B09F066E58EE698E00E9472035C
:1022400089819A810D969A8389830817190731F736
:102250006AE08EE698E00E9472030E94870708CD2C
:1022600098E0C916D104E104F10408F4D6C026EFC1
:1022700038E048E050E060E070E08FEB94E00E94CE
:10228000D205813089F4B701A6014850510961098E
:1022900071098EEF98E00E94DC03262F61E0822F07
:1022A000972F0E9463268DCE26EF38E048E050E05D
:1022B00060E070E088EC94E00E94D205813069F41F
:1022C000B701A60148505109610971098EEF98E0E4
:1022D0000E94DC03262F62E0E2CF26EF38E048E0E0
:1022E00050E060E070E081ED94E00E94D205813022
:1022F00069F4B701A60148505109610971098EEFCF
:1023000098E00E94DC03262F63E0C9CF26EF38E077
:1023100048E050E060E070E08AED94E00E94D20571
:10232000813079F4B701A60148505109610971095A
:102330008EEF98E00E94DC03262F64E0822F972F17
:102340000DCF26EF38E048E050E060E070E083EE2B
:1023500094E00E94D205813089F4B701A60148506B
:102360005109610971098EEF98E00E94DC03262F64
:1023700061E0822F972F0E943F2723CE26EF38E07F
:1023800048E050E060E070E08CEE94E00E94D205FE
:10239000813069F4B701A6014850510961097109FA
:1023A0008EEF98E00E94DC03262F62E0E2CF26EF5A
:1023B00038E048E050E060E070E085EF94E00E9493
:1023C000D205813069F4B701A6014850510961096D
:1023D00071098EEF98E00E94DC03262F63E0C9CFDD
:1023E00026EF38E048E050E060E070E08EEF94E0E7
:1023F0000E94D2058130C1F4B701A60148505109AD
:10240000610971098EEF98E00E94DC03262F64E0D9
:10241000822F972F0E943F272BCCA4E0CA16D1040D
:10242000E104F10409F088C026EF38E044E050E010
:1024300060E070E084EA96E00E94D205813019F4F1
:102440000E94E80C15CCB7E0CB16D104E104F104EE
:10245000D0F026EF38E047E050E060E070E087E041
:1024600095E00E94D205813009F08AC5B701A60126
:1024700047505109610971098DEF98E00E94DC0312
:102480000E94700C9ECDE5E0CE16D104E104F1046B
:1024900079F526EF38E045E050E060E070E08FE04D
:1024A00095E00E94D2058130C1F50E949500E0CBF5
:1024B00026EF38E049E050E060E070E085E195E02B
:1024C0000E94D205813009F03EC061E090E080E0DA
:1024D0000E94632662E090E080E00E94632663E051
:1024E00090E080E00E94632664E090E080E0D9CE36
:1024F000F6E0CF16D104E104F104F1F426EF38E060
:1025000046E050E060E070E08FE195E00E94D20587
:102510008130C9F40E940D01ABCB26EF38E045E0D5
:1025200050E060E070E083E395E00E94D2058130E6
:1025300051F40C9400009CCB85E0C816D104E10452
:10254000F10408F444C026EF38E045E050E060E0D4
:1025500070E089E395E00E94D205813011F5B70162
:10256000A60145505109610971098BEF98E00E945D
:10257000DC0369837A838B839C8389819A81AB8115
:10258000BC81892B8A2B8B2B51F081E00E94A70CF8
:1025900069817A818B819C810E94700C69CB80E07B
:1025A000F5CF97E0C916D104E104F10409F0BFC4E6
:1025B00026EF38E047E050E060E070E08FE395E020
:1025C0000E94D205813011F50E94DC0C51CBA4E0B1
:1025D000CA16D104E104F10409F0B0C426EF38E0D2
:1025E00044E050E060E070E087E495E00E94D205AE
:1025F000813009F425CF27E030E040E050E06EE282
:1026000073E08EE698E00E94AB0327CE26EF38E019
:1026100047E050E060E070E08CE495E00E94D20575
:10262000813019F40E94F40C23CB26EF38E047E008
:1026300050E060E070E084E595E00E94D2058130D2
:10264000D1F60E94000D14CBEBE0CE16D104E104CC
:10265000F10481F426EF38E04BE050E060E070E0F8
:1026600085E695E00E94D205813009F037C40E94CA
:102670002F0DFECAFCE0CF16D104E104F10408F4EA
:10268000A2C026EF38E04CE050E060E070E081E767
:1026900095E00E94D205813099F4B701A6014C5013
:1026A00051096109710982E099E00E94DC0360939D
:1026B000B6097093B7098093B8099093B909D8CA3D
:1026C00026EF38E04CE050E060E070E08EE795E007
:1026D0000E94D205813099F4B701A6014C505109EE
:1026E0006109710982E099E00E94DC036093BA09F4
:1026F0007093BB098093BC099093BD09B9CA81E16D
:10270000C816D104E104F104F8F026EF38E041E105
:1027100050E060E070E08BE895E00E94D2058130E7
:1027200099F4B701A601415151096109710982E08B
:1027300099E00E94DC036093BE097093BF09809307
:10274000C0099093C10994CA26EF38E04CE050E0EC
:1027500060E070E08DE995E00E94D205813099F447
:10276000B701A6014C5051096109710982E099E055
:102770000E94DC036093C2097093C3098093C4096B
:102780009093C50975CA26EF38E04CE050E060E050
:1027900070E08AEA95E00E94D205813009F083C09A
:1027A000B701A6014C5051096109710982E099E015
:1027B0000E94DC036093C6097093C7098093C8091F
:1027C0009093C90955CA9AE0C916D104E104F104ED
:1027D00009F067C326EF38E04AE050E060E070E0BF
:1027E00087EB95E00E94D205813009F004CF2BE001
:1027F00030E040E050E06CE073E08EE698E00E944C
:10280000AB036AE38EE698E00E9472034091B6093A
:102810005091B7096091B8097091B9098EE698E0B6
:102820000E9454056AE38EE698E00E94720340918C
:10283000BA095091BB096091BC097091BD098EE63F
:1028400098E00E9454056AE38EE698E00E947203C5
:102850004091BE095091BF096091C0097091C109B2
:102860008EE698E00E9454056AE38EE698E00E94A6
:1028700072034091C2095091C3096091C4097091DB
:10288000C5098EE698E00E9454056AE38EE698E05A
:102890000E9472034091C6095091C7096091C8090E
:1028A0007091C9096CCAAEE0CA16D104E104F10402
:1028B00008F47DC026EF38E04EE050E060E070E0C4
:1028C00082EC95E00E94D205813099F4B701A6010F
:1028D0004E5051096109710984E099E00E94DC03BE
:1028E0006093CA097093CB098093CC099093CD096A
:1028F000BFC926EF38E04EE050E060E070E081EDC7
:1029000095E00E94D205813099F4B701A6014E509E
:1029100051096109710984E099E00E94DC03609328
:10292000CE097093CF098093D0099093D109A0C9A3
:1029300026EF38E04EE050E060E070E080EE95E099
:102940000E94D205813099F4B701A6014E50510979
:102950006109710984E099E00E94DC036093D20967
:102960007093D3098093D4099093D50981C926EF38
:1029700038E04EE050E060E070E08FEE95E00E94BD
:10298000D205813009F072C0B701A6014E5051093D
:102990006109710984E099E00E94DC036093D60923
:1029A0007093D7098093D8099093D90961C9BDE084
:1029B000CB16D104E104F10409F032C126EF38E06E
:1029C0004DE050E060E070E08EEF95E00E94D205AF
:1029D000813009F025C12DE030E040E050E06EEF9D
:1029E00072E08EE698E00E94AB036AE38EE698E020
:1029F0000E9472034091CA095091CB096091CC09A1
:102A00007091CD098EE698E00E9454056AE38EE647
:102A100098E00E9472034091CE095091CF096091D5
:102A2000D0097091D1098EE698E00E9454056AE3BE
:102A30008EE698E00E9472034091D2095091D3092A
:102A40006091D4097091D5098EE698E00E945405F2
:102A50006AE38EE698E00E9472034091D609509195
:102A6000D7096091D8097091D90989C926EF38E052
:102A7000EEE0CE16D104E104F10409F47BC04FE08E
:102A800050E060E070E08CE096E00E94D20581307A
:102A900099F4B701A6014F5051096109710985E008
:102AA00099E00E94DC036093DA097093DB0980935C
:102AB000DC099093DD09DCC826EF38E04FE050E0F8
:102AC00060E070E08CE196E00E94D205813099F4DC
:102AD000B701A6014F5051096109710985E099E0DC
:102AE0000E94DC036093DE097093DF098093E009A4
:102AF0009093E109BDC826EF38E04FE050E060E078
:102B000070E08CE296E00E94D205813099F4B70122
:102B1000A6014F5051096109710985E099E00E94B1
:102B2000DC036093E2097093E3098093E4099093D6
:102B3000E5099EC826EF38E04FE050E060E070E025
:102B40008CE396E00E94D205813009F069C0B7019C
:102B5000A6014F5051096109710985E099E00E9471
:102B6000DC036093E6097093E7098093E80990938A
:102B7000E9097EC84EE050E060E070E08CE496E049
:102B80000E94D205813009F04BC02EE030E040E0D9
:102B900050E06FEE72E08EE698E00E94AB036AE3CD
:102BA0008EE698E00E9472034091DA095091DB09A9
:102BB0006091DC097091DD098EE698E00E94540571
:102BC0006AE38EE698E00E9472034091DE0950911C
:102BD000DF096091E0097091E1098EE698E00E94BA
:102BE00054056AE38EE698E00E9472034091E20980
:102BF0005091E3096091E4097091E5098EE698E04F
:102C00000E9454056AE38EE698E00E9472034091A8
:102C1000E6095091E7096091E8097091E909AFC8A8
:102C200026EF38E04CE050E060E070E08BE596E0A5
:102C30000E94D2058130A1F4B701A6014C50510980
:102C40006109710982E099E00E94DC036093EA095E
:102C50007093EB098093EC099093ED090C94380E76
:102C6000FEE0CF16D104E104F10408F126EF38E0CC
:102C70004EE050E060E070E088E696E00E94D20509
:102C8000813009F051C0B701A6014E5051096109C8
:102C9000710984E099E00E94DC036093EE0970936F
:102CA000EF098093F0099093F1090C94380E8CE0B1
:102CB000C816D104E104F10409F021C126EF38E07F
:102CC0004CE050E060E070E087E796E00E94D205BB
:102CD000813009F09EC02CE030E040E050E062EE30
:102CE00072E08EE698E00E94AB036AE38EE698E01D
:102CF0000E9472034091EA095091EB096091EC093E
:102D00007091ED098EE698E00E9454056AE38EE624
:102D100098E00E9472034091EE095091EF09609192
:102D2000F0097091F1092BC890E1C916D104E104B2
:102D3000F10408F446C026EF38E040E150E060E0DE
:102D400070E084E896E00E94D2058130A1F4B701DA
:102D5000A601405151096109710986E099E00E947C
:102D6000DC036093F2097093F3098093F409909364
:102D7000F5090C94380EA3E1CA16D104E104F1045C
:102D800038F126EF38E043E150E060E070E085E99B
:102D900096E00E94D2058130D9F4B701A6014351D3
:102DA00051096109710989E099E00E94DC0360938F
:102DB000FA097093FB098093FC099093FD090C9428
:102DC000380EBEE0CB16D104E104F10409F497C03B
:102DD00026EF38E04FE050E060E070E089EA96E0EE
:102DE0000E94D205813009F08AC0B701A6014F5078
:102DF00051096109710985E099E00E94DC03609343
:102E0000F6097093F7098093F8099093F9090C94E7
:102E1000380E26EF38E04CE050E060E070E089EBDF
:102E200096E00E94D205813009F0E5CB20E130E048
:102E300040E050E061ED72E08EE698E00E94AB0366
:102E40006AE38EE698E00E9472034091F209509185
:102E5000F3096091F4097091F5098EE698E00E94FB
:102E600054056AE38EE698E00E9472034091FA09E5
:102E70005091FB096091FC097091FD098EE698E084
:102E80000E9454056AE38EE698E00E947203409126
:102E9000F6095091F7096091F8097091F9090C94BD
:102EA000BF0EE8E0CE16D104E104F10489F426EF68
:102EB00038E048E050E060E070E086EC96E00E9488
:102EC000D205813009F097CB0E942C040C94380E67
:102ED000FBE0CF16D104E104F10489F426EF38E0D9
:102EE0004BE050E060E070E08FEC96E00E94D2058D
:102EF000813009F080CB0E94EE050C94380E8DE0F5
:102F0000C816D104E104F10409F075CB26EF38E0CE
:102F10004DE050E060E070E08BED96E00E94D2055D
:102F2000813009F068CB0E94AD270C94380E94E0F4
:102F3000C916D104E104F10409F450CBB8E0CB1672
:102F4000D104E104F10408F495CB26EF38E048E021
:102F500050E060E070E08CE595E00E94D2058130A1
:102F600009F072CBB701A6014850510961097109F6
:102F70008EEF98E00E94DC030E940C0D0C94380E3A
:102F8000A9E0CA16D104E104F10409F491CABCE035
:102F9000CB16D104E104F10409F0D5CA26EF38E0DC
:102FA0004CE050E060E070E086E295E00E94D205DF
:102FB000813009F0C8CA109205071092040780E01A
:102FC0000E943B0D0C94380E8F929F92AF92BF924D
:102FD000CF92DF92EF92FF920F931F93CF93DF93E5
:102FE00000D00F92CDB7DEB786E997E00E946B0262
:102FF000633071058105910510F50F900F900F90CA
:103000000F90DF91CF911F910F91FF90EF90DF9084
:10301000CF90BF90AF909F908F90089586E997E0F2
:103020000E946B02643071058105910570F041E0EA
:1030300050E060E070E086E997E00E94570386E97F
:1030400097E00E94E702843249F786E997E00E9400
:103050006B02653071058105910578F240E050E022
:10306000BA0186E997E00E940503843209F4BDC0E5
:1030700086E997E00E946B02653071058105910534
:1030800008F0AAC086E997E00E946B0269837A8300
:103090008B839C83653071058105910508F4ADCF64
:1030A00086E997E00E946B026B017C0183E0882E29
:1030B000912CA12CB12C8C149D04AE04BF0408F0FB
:1030C0009CCFB501A40186E997E00E9405038A30F0
:1030D00049F0B501A40186E997E00E940503843216
:1030E00009F0A5C0B501A40186E997E00E94050397
:1030F0008A3009F052C043E050E060E070E086E9B9
:1031000097E00E9457037501640193E0C91AD10842
:10311000E108F108B501A4014450510961097109A0
:1031200086E997E00E94050341E050E060E070E02E
:103130008D3019F040E050E0BA01C41AD50AE60A11
:10314000F70AA701960166ED78E086E997E00E940C
:103150001907A2E0CA16D104E104F10409F06DC018
:1031600026ED38E042E050E060E070E08FE094E06F
:103170000E94D205813009F0D3C42DE130E040E057
:1031800050E066E373E08EED97E00E94AB030E948F
:1031900029080E94580C0E94640CB501A40186E91C
:1031A00097E00E940503843209F027CFB501A401FE
:1031B00086E997E00F900F900F900F90DF91CF91DD
:1031C0001F910F91FF90EF90DF90CF90BF90AF9045
:1031D0009F908F900C94570341E050E060E070E0C6
:1031E00086E997E00E94570339CF41E050E060E064
:1031F00070E086E997E00E940503843209F038CF39
:1032000042E050E060E070E086E997E00E9405034C
:10321000843209F02DCF43E050E060E070E086E9B1
:1032200097E00E940503843209F422CF2BCF8FEF61
:10323000881A980AA80AB80A3ECFB8E0CB16D1047B
:10324000E104F10409F0D7C126ED38E048E050E090
:1032500060E070E082E194E00E94D205813049F59F
:10326000F89480912D0990912E09789461E00E9444
:103270008E0189839A8324E030E040E050E069E2E7
:1032800073E08EED97E00E94AB0361E38EED97E073
:103290000E9472036AE38EED97E00E947203E98157
:1032A000FA81AF0170E060E08EED97E00E94540576
:1032B00064C226ED38E048E050E060E070E08BE169
:1032C00094E00E94D205813019F5F894809131097B
:1032D00090913209789462E00E948E0189839A83EA
:1032E00024E030E040E050E069E273E08EED97E0EA
:1032F0000E94AB0362E38EED97E00E9472036AE3E3
:103300008EED97E00E94720389819A81AC01CACF49
:1033100026ED38E048E050E060E070E084E294E0C0
:103320000E94D205813019F5F89480913509909169
:103330003609789463E00E948E0189839A8324E0A1
:1033400030E040E050E069E273E08EED97E00E94EB
:10335000AB0363E38EED97E00E9472036AE38EEDA8
:1033600097E00E947203A981BA81AD019BCF26ED3F
:1033700038E048E050E060E070E08DE294E00E94C8
:10338000D2058130B9F4F8948091390990913A09C5
:10339000789464E00E948E0189839A8324E030E06F
:1033A00040E050E069E273E08EED97E00E94AB03ED
:1033B00064E36CCF26ED38E048E050E060E070E078
:1033C00086E394E00E94D2058130B9F4F8948091AC
:1033D0002F0990913009789461E00E94E901898376
:1033E0009A8324E030E040E050E064E273E08EED48
:1033F00097E00E94AB0361E37ECF26ED38E048E022
:1034000050E060E070E08FE394E00E94D2058130EC
:10341000B9F4F8948091330990913409789462E07A
:103420000E94E90189839A8324E030E040E050E083
:1034300064E273E08EED97E00E94AB0362E38ACF13
:1034400026ED38E048E050E060E070E088E494E089
:103450000E94D2058130B9F4F89480913709909197
:103460003809789463E00E94E90189839A8324E013
:1034700030E040E050E064E273E08EED97E00E94BF
:10348000AB0363E303CF26ED38E048E050E060E0B3
:1034900070E081E594E00E94D2058130B9F4F8949F
:1034A00080913B0990913C09789464E00E94E90185
:1034B00089839A8324E030E040E050E064E273E0E6
:1034C0008EED97E00E94AB0364E315CF26ED38E064
:1034D00048E050E060E070E08AE594E00E94D205A8
:1034E000813049F410924F0910924E091092EB0668
:1034F0001092EA0652CE26ED38E048E050E060E057
:1035000070E083E694E00E94D205813039F481E0D6
:1035100090E090934F0980934E09E8CF26ED38E074
:1035200048E050E060E070E08CE694E00E94D20554
:10353000813029F410925C0910925B09D7CF26EDF7
:1035400038E048E050E060E070E085E794E00E94F9
:10355000D205813039F481E090E090935C0980934A
:103560005B09C4CF26ED38E048E050E060E070E051
:103570008EE794E00E94D205813029F41092690907
:1035800010926809B3CF26ED38E048E050E060E0E3
:1035900070E087E894E00E94D205813039F481E040
:1035A00090E09093690980936809A0CF26ED38E0F8
:1035B00048E050E060E070E080E994E00E94D205CD
:1035C000813029F41092760910927509E6CD26ED26
:1035D00038E048E050E060E070E089E994E00E9463
:1035E000D205813009F0D8C081E090E0909376094F
:1035F00080937509D2CD93E0C916D104E104F1049A
:1036000059F526ED38E043E050E060E070E083EBF0
:1036100094E00E94D205813009F082C261E090E01E
:1036200080E00E94632662E090E080E00E946326D2
:1036300063E090E080E00E94632664E090E080E038
:103640000E94632680E00E94A70C1092EB06109265
:10365000EA060E94400CA1CDA5E0CA16D104E104FF
:10366000F104B1F526ED38E045E050E060E070E0AF
:1036700084EA94E00E94D205813041F462E08091B6
:10368000BE099091BF090E94632687CD26ED38E0E0
:1036900045E050E060E070E082EA94E00E94D205EC
:1036A000813031F462E08091BA099091BB09EBCF8F
:1036B00026ED38E045E050E060E070E08AEA94E012
:1036C0000E94D205813009F044C10E94A70C65CD4B
:1036D000B6E0CB16D104E104F10489F426ED38E01C
:1036E00046E050E060E070E080EB94E00E94D2059C
:1036F000813009F02EC180E00E94A70CF7CEE7E0F0
:10370000CE16D104E104F10409F03FC026ED38E003
:1037100047E050E060E070E087EB94E00E94D20563
:10372000813009F016C12BE030E040E050E068E164
:1037300073E08EED97E00E94AB038DE499E09A83ED
:10374000898301E819E0A981BA818C916DE2813009
:1037500041F4E981FA818781908563E4892B09F03E
:1037600066E58EED97E00E94720389819A810D963D
:103770009A8389830817190731F76AE08EED97E07D
:103780000E9472030E94290808CD98E0C916D1044E
:10379000E104F10408F4D6C026ED38E048E050E03A
:1037A00060E070E08FEB94E00E94D205813089F4F4
:1037B000B701A60148505109610971098EED98E0E1
:1037C0000E94DC03262F61E0822F972F0E94632640
:1037D0008DCE26ED38E048E050E060E070E088EC07
:1037E00094E00E94D205813069F4B701A6014850E7
:1037F0005109610971098EED98E00E94DC03262FC2
:1038000062E0E2CF26ED38E048E050E060E070E0B2
:1038100081ED94E00E94D205813069F4B701A601E0
:1038200048505109610971098EED98E00E94DC034E
:10383000262F63E0C9CF26ED38E048E050E060E095
:1038400070E08AED94E00E94D205813079F4B701EE
:10385000A60148505109610971098EED98E00E9456
:10386000DC03262F64E0822F972F0DCF26ED38E062
:1038700048E050E060E070E083EE94E00E94D20502
:10388000813089F4B701A6014850510961097109D5
:103890008EED98E00E94DC03262F61E0822F972FA7
:1038A0000E943F2723CE26ED38E048E050E060E05C
:1038B00070E08CEE94E00E94D205813069F4B7018B
:1038C000A60148505109610971098EED98E00E94E6
:1038D000DC03262F62E0E2CF26ED38E048E050E03E
:1038E00060E070E085EF94E00E94D205813069F4D9
:1038F000B701A60148505109610971098EED98E0A0
:103900000E94DC03262F63E0C9CF26ED38E048E0B3
:1039100050E060E070E08EEF94E00E94D2058130CC
:10392000C1F4B701A60148505109610971098EED32
:1039300098E00E94DC03262F64E0822F972F0E94DC
:103940003F272BCCA4E0CA16D104E104F10409F00E
:1039500088C026ED38E044E050E060E070E084EAA2
:1039600096E00E94D205813019F40E94E80C15CC33
:10397000B7E0CB16D104E104F104D0F026ED38E035
:1039800047E050E060E070E087E095E00E94D205FB
:10399000813009F079C5B701A60147505109610985
:1039A00071098DED98E00E94DC030E94700C9ECDA1
:1039B000E5E0CE16D104E104F10479F526ED38E016
:1039C00045E050E060E070E08FE095E00E94D205B5
:1039D0008130C1F50E949500E0CB26ED38E049E04A
:1039E00050E060E070E085E195E00E94D205813012
:1039F00009F03EC061E090E080E00E94632662E052
:103A000090E080E00E94632663E090E080E00E9406
:103A1000632664E090E080E0D9CEF6E0CF16D104D2
:103A2000E104F104F1F426ED38E046E050E060E016
:103A300070E08FE195E00E94D2058130C9F40E94C8
:103A40000D01ABCB26ED38E045E050E060E070E0E2
:103A500083E395E00E94D205813051F40C9400007C
:103A60009CCB85E0C816D104E104F10408F444C0FD
:103A700026ED38E045E050E060E070E089E395E055
:103A80000E94D205813011F5B701A60145505109B8
:103A9000610971098BED98E00E94DC0369837A83E8
:103AA0008B839C8389819A81AB81BC81892B8A2BF2
:103AB0008B2B51F081E00E94A70C69817A818B8168
:103AC0009C810E94700C69CB80E0F5CF97E0C9160D
:103AD000D104E104F10409F0AEC426ED38E047E07A
:103AE00050E060E070E08FE395E00E94D205813005
:103AF00011F50E94DC0C51CBA4E0CA16D104E104FC
:103B0000F10409F09FC426ED38E044E050E060E0A5
:103B100070E087E495E00E94D205813009F425CF5A
:103B200027E030E040E050E06EE273E08EED97E099
:103B30000E94AB0327CE26ED38E047E050E060E07E
:103B400070E08CE495E00E94D205813019F40E9467
:103B5000F40C23CB26ED38E047E050E060E070E065
:103B600084E595E00E94D2058130D1F60E94000DD7
:103B700014CBEBE0CE16D104E104F10481F426ED80
:103B800038E04BE050E060E070E085E695E00E94B0
:103B9000D205813009F03EC40E942F0DFECAFCE020
:103BA000CF16D104E104F10408F4A2C026ED38E0F8
:103BB0004CE050E060E070E081E795E00E94D205C3
:103BC000813099F4B701A6014C505109610971097E
:103BD00082EE98E00E94DC036093B6097093B70907
:103BE0008093B8099093B909D8CA26ED38E04CE023
:103BF00050E060E070E08EE795E00E94D2058130F1
:103C000099F4B701A6014C5051096109710982EE7E
:103C100098E00E94DC036093BA097093BB0980931B
:103C2000BC099093BD09B9CA81E1C816D104E10469
:103C3000F104F8F026ED38E041E150E060E070E09A
:103C40008BE895E00E94D205813099F4B701A60176
:103C5000415151096109710982EE98E00E94DC032B
:103C60006093BE097093BF098093C0099093C10906
:103C700094CA26ED38E04CE050E060E070E08DE959
:103C800095E00E94D205813099F4B701A6014C500D
:103C900051096109710982EE98E00E94DC0360938A
:103CA000C2097093C3098093C4099093C50975CA6A
:103CB00026ED38E04CE050E060E070E08AEA95E004
:103CC0000E94D205813009F072C0B701A6014C50A4
:103CD00051096109710982EE98E00E94DC0360934A
:103CE000C6097093C7098093C8099093C90955CA3A
:103CF0009AE0C916D104E104F10409F06DC326ED80
:103D000038E04AE050E060E070E087EB95E00E9428
:103D1000D205813009F004CF2BE030E040E050E0E4
:103D20006CE073E08EED97E00E94AB036AE38EEDEA
:103D300097E00E9472034091B6095091B7096091D3
:103D4000B8097091B9098EED97E00E9454056AE3B5
:103D50008EED97E00E9472034091BA095091BB0921
:103D60006091BC097091BD098EED97E00E945405E9
:103D70006AE38EED97E00E9472034091C209509170
:103D8000C3096091C4097091C5098EED97E00E9446
:103D900054056AE38EED97E00E9472034091C609D4
:103DA0005091C7096091C8097091C9097DCAAEE0F8
:103DB000CA16D104E104F10408F47DC026ED38E010
:103DC0004EE050E060E070E082EC95E00E94D205A9
:103DD000813099F4B701A6014E505109610971096A
:103DE00084EE98E00E94DC036093CA097093CB09CB
:103DF0008093CC099093CD09D0C926ED38E04EE0F0
:103E000050E060E070E081ED95E00E94D2058130E5
:103E100099F4B701A6014E5051096109710984EE68
:103E200098E00E94DC036093CE097093CF098093E1
:103E3000D0099093D109B1C926ED38E04EE050E0A9
:103E400060E070E080EE95E00E94D205813099F448
:103E5000B701A6014E5051096109710984EE98E03D
:103E60000E94DC036093D2097093D3098093D40934
:103E70009093D50992C926ED38E04EE050E060E01D
:103E800070E08FEE95E00E94D205813009F072C09B
:103E9000B701A6014E5051096109710984EE98E0FD
:103EA0000E94DC036093D6097093D7098093D809E8
:103EB0009093D90972C9BDE0CB16D104E104F10495
:103EC00009F032C126ED38E04DE050E060E070E0EE
:103ED0008EEF95E00E94D205813009F025C12DE0DA
:103EE00030E040E050E06EEF72E08EED97E00E942F
:103EF000AB036AE38EED97E00E9472034091CA091A
:103F00005091CB096091CC097091CD098EED97E06D
:103F10000E9454056AE38EED97E00E94720340917F
:103F2000CE095091CF096091D0097091D1098EEDE1
:103F300097E00E9454056AE38EED97E00E947203B9
:103F40004091D2095091D3096091D4097091D5095B
:103F50008EED97E00E9454056AE38EED97E00E9493
:103F600072034091D6095091D7096091D809709198
:103F7000D9099AC926ED38E0EEE0CE16D104E10465
:103F8000F10409F47BC04FE050E060E070E08CE0A9
:103F900096E00E94D205813099F4B701A6014F50F6
:103FA00051096109710985EE98E00E94DC03609374
:103FB000DA097093DB098093DC099093DD09EDC881
:103FC00026ED38E04FE050E060E070E08CE196E0F4
:103FD0000E94D205813099F4B701A6014F505109D2
:103FE0006109710985EE98E00E94DC036093DE09A7
:103FF0007093DF098093E0099093E109CEC826ED24
:1040000038E04FE050E060E070E08CE296E00E9423
:10401000D205813099F4B701A6014F5051096109C9
:10402000710985EE98E00E94DC036093E2097093C9
:10403000E3098093E4099093E509AFC826ED38E0E1
:104040004FE050E060E070E08CE396E00E94D20523
:10405000813009F069C0B701A6014F5051096109CB
:10406000710985EE98E00E94DC036093E609709385
:10407000E7098093E8099093E9098FC84EE050E082
:1040800060E070E08CE496E00E94D205813009F097
:104090004BC02EE030E040E050E06FEE72E08EED7D
:1040A00097E00E94AB036AE38EED97E00E947203F3
:1040B0004091DA095091DB096091DC097091DD09CA
:1040C0008EED97E00E9454056AE38EED97E00E9422
:1040D00072034091DE095091DF096091E00970910F
:1040E000E1098EED97E00E9454056AE38EED97E0BA
:1040F0000E9472034091E2095091E3096091E40942
:104100007091E5098EED97E00E9454056AE38EED0B
:1041100097E00E9472034091E6095091E70960918F
:10412000E8097091E909C0C826ED38E04CE050E09C
:1041300060E070E08BE596E00E94D205813099F452
:10414000B701A6014C5051096109710982EE98E04E
:104150000E94DC036093EA097093EB098093EC09F9
:104160009093ED091AC8FEE0CF16D104E104F104E2
:1041700008F126ED38E04EE050E060E070E088E6BF
:1041800096E00E94D205813009F051C0B701A60126
:104190004E5051096109710984EE98E00E94DC03D8
:1041A0006093EE097093EF098093F0099093F10901
:1041B0000C94CD188CE0C816D104E104F10409F088
:1041C000F3C026ED38E04CE050E060E070E087E7B7
:1041D00096E00E94D205813009F09EC02CE030E0CC
:1041E00040E050E062EE72E08EED97E00E94AB039B
:1041F0006AE38EED97E00E9472034091EA095091C4
:10420000EB096091EC097091ED098EED97E00E9449
:1042100054056AE38EED97E00E9472034091EE0927
:104220005091EF096091F0097091F1093DC890E15A
:10423000C916D104E104F10408F446C026ED38E0C3
:1042400040E150E060E070E084E896E00E94D20532
:104250008130A1F4B701A6014051510961097109EA
:1042600086EE98E00E94DC036093F2097093F309F4
:104270008093F4099093F5090C94CD18A3E1CA1624
:10428000D104E104F10438F126ED38E043E150E0D7
:1042900060E070E085E996E00E94D2058130D9F4B3
:1042A000B701A601435151096109710989EE98E0EE
:1042B0000E94DC036093FA097093FB098093FC0968
:1042C0009093FD090C94CD18BEE0CB16D104E10407
:1042D000F10409F469C026ED38E04FE050E060E0F9
:1042E00070E089EA96E00E94D205813009F05CC056
:1042F000B701A6014F5051096109710985EE98E097
:104300000E94DC036093F6097093F7098093F80923
:104310009093F9090C94CD1826ED38E04CE050E06C
:1043200060E070E089EB96E00E94D205813009F0F0
:10433000F7CB20E130E040E050E061ED72E08EED3F
:1043400097E00E94AB036AE38EED97E00E94720350
:104350004091F2095091F3096091F4097091F509C7
:104360008EED97E00E9454056AE38EED97E00E947F
:1043700072034091FA095091FB096091FC09709118
:10438000FD098EED97E00E9454056AE38EED97E0FB
:104390000E9472034091F6095091F7096091F80963
:1043A0007091F9090C945419EDE0CE16D104E10492
:1043B000F10409F0B5CB26ED38E04DE050E060E0C7
:1043C00070E08BED96E00E94D205813009F0A8CB19
:1043D0000E94AD270C94CD18F8E0CF16D104E1046B
:1043E000F10489F426ED38E048E050E060E070E048
:1043F00086EC96E00E94D205813009F091CB0E94B4
:104400002C040C94CD188BE0C816D104E104F104FF
:1044100009F086CB26ED38E04BE050E060E070E03C
:104420008FEC96E00E94D205813009F079CB0E9492
:10443000EE050C94CD1894E0C916D104E104F10402
:1044400009F461CBB8E0CB16D104E104F10408F41F
:10445000A6CB26ED38E048E050E060E070E08CE567
:1044600095E00E94D205813009F083CBB701A60107
:1044700048505109610971098EED98E00E94DC03F2
:104480000E940C0D0C94CD18A9E0CA16D104E104C9
:10449000F10409F4A2CABCE0CB16D104E104F10492
:1044A00009F0E6CA26ED38E04CE050E060E070E04C
:1044B00086E295E00E94D205813009F0D9CA1092B7
:1044C00005071092040780E00E943B0D0C94CD1864
:1044D0001F921FB61F9211240F931F932F933F9388
:1044E0004F935F936F937F938F939F93AF93BF93FC
:1044F0008091290990912A09A0912B09B0912C094A
:104500000091250910912609209127093091280949
:10451000B901A8014E5E5F4F6F4F7F4F4D37510578
:1045200061057105C0F58A5F9E4FAF4FBF4F009187
:1045300021091091220920912309309124090F5F4C
:104540001F4F2F4F3F4F00932109109322092093B3
:104550002309309324098093290990932A09A09371
:104560002B09B0932C094093250950932609609399
:10457000270970932809BF91AF919F918F917F91E7
:104580006F915F914F913F912F911F910F911F90CC
:104590001FBE1F901895B901A8014B56510961091A
:1045A0007109895F9E4FAF4FBF4FC1CFCF93DF934C
:1045B00000D00F92CDB7DEB72FB7F89480912109C4
:1045C00090912209A0912309B091240946B550E0A9
:1045D00070E060E0A89B08C04F3F51056105710580
:1045E00019F00196A11DB11D2FBFBA2FA92F982F29
:1045F0008827840F951FA61FB71F9C01AD0162E09D
:10460000220F331F441F551F6A95D1F7CA01B90104
:104610000F900F900F900F90DF91CF910895CF9250
:10462000DF92EF92FF92CF93DF9300D000D0CDB70F
:10463000DEB76B017C010E94D6226D837E83C1149C
:10464000D104E104F10469F426960FB6F894DEBFB4
:104650000FBECDBFDF91CF91FF90EF90DF90CF9055
:1046600008950E94D62269837A838B839C838981F3
:104670009A812D813E81821B930B883E9340F8F2F4
:104680008D819E8188519C4F9E838D8391E0C91AB4
:10469000D108E108F108D3CF15BC16BC14BC81E0E9
:1046A00085BB80936E0083E085BD08952F932FB75F
:1046B0002F932BB72F933F934F935F938F939F939A
:1046C000AF93BF93CF93DF93EF93FF93CCE7D0E00B
:1046D0002881ABE7B0E09C91822F8770392F38702A
:1046E000832B815F8F704091780050917900E82F83
:1046F000F0E0EE0FFF1FE35DF64F518340838E5FC6
:10470000382F3770207E232B2883977F8870982B33
:104710009C93FF91EF91DF91CF91BF91AF919F91CA
:104720008F915F914F913F912F912BBF2F912FBF71
:104730002F911895CF93CFB7F89440E250E06FEFE8
:1047400070E08DE299E00E94032CE4E6F0E08081C5
:104750008E7F808380E480937C0010927B00EAE768
:10476000F0E08FEB8083CFBF808180648083CF9126
:10477000089580B1EDE4F9E08695869591E089276A
:10478000817087831086ADE2B9E02D913C9111973D
:104790003287218712962D913C9113973487238776
:1047A00080B1829586958695837089278170848BE8
:1047B000158A14962D913C911597378B268B16965A
:1047C0002D913C911797318F208F86B182958695D8
:1047D00087708927817081A312A218962D913C9130
:1047E000199734A323A31A962D913C911B9736A3B6
:1047F00025A386B186958927817086A717A61C9662
:104800008D919C911D9791AB80AB1E968D919C9143
:1048100093AB82AB08951F93CF93DF9392B188B18E
:1048200070916709A0916809B091690960915A096E
:10483000E0915B09F0915C0930914D0940914E097E
:1048400050914F0910917409C0917509D091760962
:1048500020E0223019F1233061F12130A1F0313014
:1048600071F491604115510561F49D7F2F5F2430F3
:1048700081F792B988B9DF91CF911F9108959E7FFA
:10488000F1CF9260F3CF613029F49061309721F439
:104890009F7DECCF9F7EFACF9062E8CF713029F4F4
:1048A0008068109721F48F7BE1CF8F77FACF8064F7
:1048B000DDCF113029F48860209721F48B7FD6CF8B
:1048C000877FFACF8460D2CF9C0192B188B1223029
:1048D000310581F13CF42115310541F021303105DC
:1048E000C1F0089523303105B1F1089520914D09AB
:1048F000213059F4916020914E0930914F09232BBA
:1049000031F49D7F92B988B908959E7FF4CF92606B
:10491000F9CF20915A09213049F4906120915B0927
:1049200030915C09232B21F49F7DECCF9F7EF6CF45
:104930009062E8CF20916709213049F48068209186
:10494000680930916909232B21F48F7BDBCF8F77A6
:10495000F6CF8064D7CF20917409213049F4886064
:104960002091750930917609232B21F48B7FCACFD2
:10497000877FF6CF8460C6CF2FB7F89483E381B9E1
:1049800082E282B98CEC87B980E488B98FEF80939A
:104990000A0110920B0180E88AB91BB8EDE4F9E036
:1049A000108281E090E092838183148213821682C8
:1049B0001582158697878687118A108A138A128A2C
:1049C000128E948F838F168E158E10A2178E17A2BB
:1049D00011A610A613A612A615A614A62FBF62E054
:1049E00070E080E090E00E940F230C94B9231F92A6
:1049F0000F920FB60F9211240BB60F92CF92DF9247
:104A0000EF92FF921F932F933F934F935F936F9378
:104A10007F938F939F93AF93BF93EF93FF93CF9326
:104A2000DF9300D00F92CDB7DEB7609191097091FE
:104A30009209611528E0720791F16F5F7F4F7093C3
:104A40009209609391098091A3099091A409209102
:104A5000A7093091A8092817390708F479C0281B3D
:104A6000390B2339310508F4A0C09C0150E040E027
:104A700029833A834B835C83CA01B9010E94082BC6
:104A800028E23EE042E153E469837A838B839C838E
:104A900069817A818B819C810E94FB2978C031E8F1
:104AA000E32E39E0F32EE3EAF9E040E05DE011E0C7
:104AB000D7018D919D917D0140FD47C020813181BD
:104AC0006D01B2E0CB1AD108D6018D919C9182176D
:104AD000930740F56901C81AD90ABDE0CB16D10485
:104AE00010F0C9010C9791838083842F869590E004
:104AF000DC01AA0FBB1F9D012D55364FD9012D9109
:104B00003C91589FD001599FB00D1124232BB9F02F
:104B10009D01235B364FD9011C934F5F329647307E
:104B200039F68BCF2817390700F76C01C21AD30A60
:104B3000ADE0CA16D104B8F2C9010C96D4CF9D01DC
:104B4000235B364FD9011C92E8CF91838083E5CF58
:104B5000AC01421B530B4339510538F19C0150E025
:104B600040E029833A834B835C83CA01B9010E94E8
:104B7000082B28E23EE042E153E469837A838B8389
:104B80009C8369817A818B819C810E94FA29698347
:104B90007A838B839C8369817A818B819C810E943B
:104BA000D92A7093A8096093A709E3E9F9E063EAB9
:104BB00079E080E0219131912F5F3F4F33707F0189
:104BC00042E0E41AF108D7012D933C93DB014D91AB
:104BD0005D91BD0190910B0124173507E0F1811122
:104BE00024C09F7790930B018F5F873019F70F9048
:104BF0000F900F900F90DF91CF91FF91EF91BF91A8
:104C0000AF919F918F917F916F915F914F913F9164
:104C10002F911F91FF90EF90DF90CF900F900BBEE0
:104C20000F900FBE0F901F901895813011F49F7B4D
:104C3000D9CF823011F49F7DD5CF833011F49F7E80
:104C4000D1CF843011F4977FCDCF853011F49B7F85
:104C5000C9CF9D7FC7CF811102C09068C3CF81307B
:104C600011F49064BFCF823011F49062BBCF8330D7
:104C700011F49061B7CF843011F49860B3CF8530D0
:104C800011F49460AFCF9260ADCF9FB7F89480E1FC
:104C9000E3E9F9E0DF01282F1D922A95E9F7E1E821
:104CA000F9E0DF011D928A95E9F71092B20082E0E7
:104CB0008093B0008093B3008093700086E080936F
:104CC000B1009FBF0895CF93DF9300D000D0CDB740
:104CD000DEB78D839E83633009F4A1C070F4613028
:104CE000F1F1623009F46BC026960FB6F894DEBF7E
:104CF0000FBECDBFDF91CF9108956430A9F7AD818C
:104D0000BE81CD01B0E0A0E089839A83AB83BC83F0
:104D1000BC01CD010E94082B2DE531E44CE450E4A8
:104D200069837A838B839C8369817A818B819C815F
:104D30000E94672A69837A838B839C8369817A8145
:104D40008B819C810E94D92A70938E0960938D0972
:104D50008D819E819093780980937709C5CFAD812D
:104D6000BE81CD01B0E0A0E089839A83AB83BC8390
:104D7000BC01CD010E94082B27E633EF4AE350E443
:104D800069837A838B839C8369817A818B819C81FF
:104D90000E94672A69837A838B839C8369817A81E5
:104DA0008B819C810E94D92A70938209609381092A
:104DB0008D819E81909351098093500995CFAD814B
:104DC000BE81CD01B0E0A0E089839A83AB83BC8330
:104DD000BC01CD010E94082B26E93FEE48E450E4D7
:104DE00069837A838B839C8369817A818B819C819F
:104DF0000E94672A69837A838B839C8369817A8185
:104E00008B819C810E94D92A7093860960938509C1
:104E10008D819E8190935E0980935D0965CFAD8100
:104E2000BE81CD01B0E0A0E089839A83AB83BC83CF
:104E3000BC01CD010E94082B2DE832ED48E450E47E
:104E400069837A838B839C8369817A818B819C813E
:104E50000E94672A69837A838B839C8369817A8124
:104E60008B819C810E94D92A70938A096093890959
:104E70008D819E8190936B0980936A0935CF1F9332
:104E8000CF93DF9300D000D0CDB7DEB78D839E8364
:104E9000162FAD81BE81CD01B0E0A0E089839A8359
:104EA000AB83BC83BC01CD010E94082B28E93EEDF9
:104EB0004AE75FE369837A838B839C8369817A8184
:104EC0008B819C810E94672A69837A838B839C8370
:104ED00069817A818B819C810E94D92A133091F15A
:104EE00070F41130C9F0123011F126960FB6F89413
:104EF000DEBF0FBECDBFDF91CF911F91089514305B
:104F0000A1F77093900960938F09AD81BE81B09332
:104F10007A09A0937909E9CF709384096093830992
:104F20008D819E819093530980935209DECF7093B7
:104F3000880960938709AD81BE81B0936009A09311
:104F40005F09D3CF70938C0960938B098D819E810B
:104F500090936D0980936C09C8CF1092B309E3EB6D
:104F6000F9E080E0919189279AE0EE36F907D1F7D0
:104F70008093B3094BEB50E070E060E083EB99E085
:104F80000C941A2C8BEBE4E5F3E0A3EBB9E0019071
:104F90000D928A95E1F70C94AD274BEB50E070E051
:104FA00060E083EB99E00E940A2CE3EBF9E080E0FB
:104FB0009191282F89273AE0EE36F307C9F792132B
:104FC00007C08091B4099091B50985359A4A11F0CE
:104FD0000C94C227089500D00F92CDB7DEB7F89495
:104FE00081E090E0909305078093040783E381B903
:104FF00082E282B98CEC87B980E488B98FEF809324
:105000000A0180930B0180E88AB91BB8279A2F9870
:105010000E944C230E94CD270E9495070E943708CA
:105020000E94D50878940E949A230E94BC240E9472
:1050300045261092EB061092EA060E944F0D0E9440
:10504000E4170E9473090E94B9230E940B240E9456
:10505000D6226B017C018091000790910107A091FD
:105060000207B091030746015701881A990AAA0A54
:10507000BB0A8C159D05AE05BF0528F021E0821AFC
:105080009108A108B1082091EA063091EB0621159C
:10509000310509F47DC0C9018D7F019709F078C001
:1050A0008091FE069091FF064091F4065091F5061E
:1050B0004817590709F48EC02130310509F08AC01C
:1050C0004091FA095091FB096091FC097091FD092A
:1050D00084169506A606B70608F45AC0892BF9F47B
:1050E00081E00E94A70C61E08091CE099091CF09E8
:1050F0000E943F2762E08091CA099091CB090E94EB
:105100003F2763E08091D2099091D3090E943F2705
:1051100064E08091D6099091D7090E943F272091A1
:10512000FE063091FF064091EE095091EF09609123
:10513000F0097091F1098091F4069091F506B0E0C4
:10514000A0E04A015B01820E931EA11CB11C898262
:105150009A82AB82BC8288159905AA05BB0520F40A
:1051600089839A83AB83BC83A980BA80B092FF06FF
:10517000A092FE0669817A818B819C810E94700CCD
:10518000C0920007D0920107E0920207F092030755
:105190008091040790910507892B09F44ECFACEE5E
:1051A000B6E0EDE4F9E08D919D91892B09F4DCC026
:1051B00018968D919C911997892B09F4D5C08781F8
:1051C0009085892B09F0D0C00E94DA0B80E00E9404
:1051D000A70C2FCFA091F606B091F706E091F80644
:1051E000F091F9066091FA067091FB064091FC0679
:1051F0005091FD06CD018E2B9F2B862B972B842B58
:10520000952B892BD1F58091F6099091F709A09102
:10521000F809B091F90988169906AA06BB0608F4A0
:10522000B7CF0CEE16E0BB24B394F801228533858A
:105230000E5F1F4F8091EA099091EB09A091EC0954
:10524000B091ED094081518170E060E0820F931FC1
:10525000A11DB11D481759076A077B0708F4CA0149
:10526000F801918780876B2D0E9463260E94BE0AF9
:10527000B394F5E0BF12D9CF83CF8091EC06909123
:10528000ED06A817B907A9F48091EE069091EF06F4
:10529000E817F90771F48091F0069091F10668170C
:1052A000790739F48091F2069091F306481759076F
:1052B000D1F18091F2099091F309A091F409B09194
:1052C000F50988169906AA06BB0608F461CF0CEE0C
:1052D00016E0BB24B394F801228533850E5F1F4F7F
:1052E0008091EA099091EB09A091EC09B091ED0948
:1052F0004081518170E060E0820F931FA11DB11DBC
:10530000481759076A077B0708F4CA01F801918713
:1053100080876B2D0E9463260E94BE0AB394F5E03D
:10532000BF12D9CF2DCF1092EB061092EA06233090
:105330003105B9F461E090E080E00E94632662E00C
:1053400090E080E00E94632663E090E080E00E94AD
:10535000632664E090E080E00E9463260E94AA0B2E
:1053600017CF0E94C20B14CF3D9681E8882E89E0AA
:10537000982E8E169F0609F016CF5FCEA1E21A2E48
:10538000AA1BBB1BFD010DC0AA1FBB1FEE1FFF1FE9
:10539000A217B307E407F50720F0A21BB30BE40B39
:1053A000F50B661F771F881F991F1A9469F7609580
:1053B0007095809590959B01AC01BD01CF0108953A
:1053C0000E94EB29A59F900DB49F900DA49F800D86
:1053D000911D11240895A29FB001B39FC001A39F06
:1053E000700D811D1124911DB29F700D811D11241E
:1053F000911D08955058BB27AA270E94122A0C9489
:105400005C2B0E944E2B38F00E94552B20F039F473
:105410009F3F19F426F40C944B2B0EF4E095E7FB18
:105420000C94452BE92F0E946D2B58F3BA17620795
:1054300073078407950720F079F4A6F50C948F2B59
:105440000EF4E0950B2EBA2FA02D0B01B90190019F
:105450000C01CA01A0011124FF27591B99F0593FE3
:1054600050F4503E68F11A16F040A22F232F342F2B
:105470004427585FF3CF469537952795A795F04079
:105480005395C9F77EF41F16BA0B620B730B840B8E
:10549000BAF09150A1F0FF0FBB1F661F771F881F46
:1054A000C2F70EC0BA0F621F731F841F48F487959E
:1054B00077956795B795F7959E3F08F0B0CF939590
:1054C000880F08F09927EE0F9795879508950E9409
:1054D0007B2A0C945C2B0E94552B58F00E944E2B7B
:1054E00040F029F45F3F29F00C94452B51110C94A6
:1054F000902B0C944B2B0E946D2B68F39923B1F3E6
:10550000552391F3951B550BBB27AA2762177307E9
:10551000840738F09F5F5F4F220F331F441FAA1F7D
:10552000A9F335D00E2E3AF0E0E832D09150504039
:10553000E695001CCAF72BD0FE2F29D0660F771FE7
:10554000881FBB1F261737074807AB07B0E809F0CD
:10555000BB0B802DBF01FF2793585F4F3AF09E3F52
:10556000510578F00C94452B0C94902B5F3FE4F39D
:10557000983ED4F3869577956795B795F7959F5F95
:10558000C9F7880F911D9695879597F90895E1E0E1
:10559000660F771F881FBB1F621773078407BA0740
:1055A00020F0621B730B840BBA0BEE1F88F7E0959B
:1055B00008950E94752B88F09F5798F0B92F99276E
:1055C000B751B0F0E1F0660F771F881F991F1AF0EE
:1055D000BA95C9F714C0B13091F00E948F2BB1E099
:1055E00008950C948F2B672F782F8827B85F39F098
:1055F000B93FCCF3869577956795B395D9F73EF487
:1056000090958095709561957F4F8F4F9F4F08952E
:10561000E89409C097FB3EF490958095709561954C
:105620007F4F8F4F9F4F9923A9F0F92F96E9BB2702
:105630009395F695879577956795B795F111F8CF7E
:10564000FAF4BB0F11F460FF1BC06F5F7F4F8F4FE9
:105650009F4F16C0882311F096E911C0772321F0DF
:105660009EE8872F762F05C0662371F096E8862F77
:1056700070E060E02AF09A95660F771F881FDAF7CE
:10568000880F9695879597F9089597F99F6780E811
:1056900070E060E008959FEF80EC089500240A9484
:1056A0001616170618060906089500240A941216FD
:1056B0001306140605060895092E0394000C11F430
:1056C000882352F0BB0F40F4BF2B11F460FF04C0DD
:1056D0006F5F7F4F8F4F9F4F089557FD9058440F36
:1056E000551F59F05F3F71F04795880F97FB991F41
:1056F00061F09F3F79F087950895121613061406FE
:10570000551FF2CF4695F1DF08C01616170618068A
:10571000991FF1CF86957105610508940895E89465
:10572000BB2766277727CB0197F908950E94A92BFD
:105730000C945C2B0E944E2B38F00E94552B20F0CD
:10574000952311F00C94452B0C944B2B11240C94A5
:10575000902B0E946D2B70F3959FC1F3950F50E035
:10576000551F629FF001729FBB27F00DB11D639F13
:10577000AA27F00DB11DAA1F649F6627B00DA11DB9
:10578000661F829F2227B00DA11D621F739FB00D5F
:10579000A11D621F839FA00D611D221F749F3327CF
:1057A000A00D611D231F849F600D211D822F762F68
:1057B0006A2F11249F5750409AF0F1F088234AF045
:1057C000EE0FFF1FBB1F661F771F881F91505040B1
:1057D000A9F79E3F510580F00C94452B0C94902B1B
:1057E0005F3FE4F3983ED4F3869577956795B79538
:1057F000F795E7959F5FC1F7FE2B880F911D969552
:10580000879597F90895DC0101C06D934150504090
:10581000E0F70895DC01CB01FC01F999FECF06C049
:10582000F2BDE1BDF89A319600B40D92415050405E
:10583000B8F70895DC01CB0103C02D910E94252CFF
:1058400041505040D0F70895262FF999FECF1FBA46
:1058500092BD81BD20BD0FB6F894FA9AF99A0FBE99
:0858600001960895F894FFCFB2
:10586800242424656E61626C6570726F746563745C
:10587800696F6E0A0024242464697361626C657020
:10588800726F74656374696F6E0A002424246164FE
:105898006363616C73746F72650A00242424616405
:1058A8006363616C683A0024242461646363616CF7
:1058B800300A00242424676574616463300A002474
:1058C8002424676574610A00242424676574736559
:1058D80074610A00242424736574613A0024242422
:1058E8007665720A0024242469640A002424246F3B
:1058F80066660A00242424696E73756C6661696C97
:1059080065643A002424246265616D6F6E0A002480
:105918002424696E73756C6F6B0A00646973616225
:105928006C65640A0024242466696C736574613AA2
:105938000024242472616D706475726174696F6EDD
:10594800730024242472616D70737465707300246D
:105958002424696E73756C6375726C696D002424F8
:10596800246265616D6375726C696D002424247608
:10597800746172676574730024242470737573747A
:1059880061746500242424610024242476002424DE
:10599800246572720A00242424656C656374726F2E
:1059A8006E6374726C5F32303232313230365F304F
:1059B80030310A000055AAD0070000E40700000CA7
:1059C800080000C107000000000000E8030000E82C
:1059D800030000E80300000A0000000A0000000AB3
:1059E8000000000A0000000A000000050000000591
:1059F800000000A0BB0D008096980090D00300889E
:105A08002B4E400000000000000000000000401C79
:105A18004100000000000000000000882B4E4000FC
:105A280000000000000000000000401C41000000D1
:105A380000000000000000882B4E4000000000001D
:105A4800000000000000401C4100000000000000B1
:105A5800000000882B4E40000000000000000000FD
:105A68000000401C41000000000000000000006928
:105A78006400707375676574763100707375676557
:105A88007476320070737567657476330070737559
:105A9800676574763400707375676574613100707A
:105AA8007375676574613200707375676574613307
:105AB80000707375676574613400707375706F6C0E
:105AC800317000707375706F6C316E007073757023
