:100000000C948E000C94AF000C94AF000C94AF00D5
:100010000C94AF000C94AF000C94AF000C94AF00A4
:100020000C94AF000C94AF000C94AF000C94AF0094
:100030000C94AF000C94CB1A0C94AF000C94AF004E
:100040000C94AF000C94AF000C94AF000C94AF0074
:100050000C94AF000C94AF000C94AF000C943C18BF
:100060000C94AF000C94D4040C9406050C94AF00CF
:100070000C94AF000C942A190C94AF000C94AF00B0
:100080000C94AF000C94AF000C94AF000C94AF0034
:100090000C9476050C94A8050C94AF000C94AF005A
:1000A0000C94AF000C94AF000C94AF000C94AF0014
:1000B0000C94AF000C94AF000C94AF000C94AF0004
:1000C0000C94AF000C94AF000C94AF000C941E067F
:1000D0000C9450060C94AF000C94AF000C94AF003D
:1000E0000C94AF000C942F1B0C945D1B0C94331BD1
:1000F0000C94691B0C94FD1A0C94591B0C943B1B1B
:100100000C94431B0C946D1B0C94611B0C94371BBB
:100110000C94651B0C943F1B0C94551B11241FBEA3
:10012000CFEFD1E2DEBFCDBF00E00CBF14E0A0E016
:10013000B2E0EEE9FFE300E00BBF02C007900D92D2
:10014000AA3FB107D9F727E1AAEFB4E001C01D9299
:10015000A63DB207E1F70E943B1C0C94BF1F0C9414
:1001600000000F931F93CF930DE717E1C1E0D80173
:100170001C926C2F90E080E00E94971B6C2F8AE00D
:1001800090E00E94E91B035F1F4FCF5FC53079F7F6
:1001900080E00E943E0A60E070E0CB010E94050A08
:1001A00083E090E09093FB048093FA0482EE97E062
:1001B0009093FD048093FC0484EE97E09093FF04F9
:1001C0008093FE048CE098E09093010580930005F5
:1001D0001092030510920205109205051092040575
:1001E0001092070510920605109209051092080555
:1001F00010920B0510920A0510920D0510920C0535
:1002000010920F0510920E050E94AA186093100517
:10021000709311058093120590931305CF911F9150
:100220000F910895EF92FF921F93CF93DF930E9457
:100230005C0A162FD72F8DE7E82E87E1F82EC1E054
:10024000D7011C926C2F90E080E00E94971B6C2FCE
:100250008AE090E00E94E91BBDE0EB0EF11CCF5F4D
:10026000C53071F780E00E943E0A81E090E09093F3
:10027000FB048093FA0482EE97E09093FD04809350
:10028000FC0484EE97E09093FF048093FE048CE0DE
:1002900098E0909301058093000510920305109259
:1002A0000205812F9D2F90930505809304051092E0
:1002B0000705109206051092090510920805109284
:1002C0000B0510920A0510920D0510920C05109264
:1002D0000F0510920E050E94AA18609310057093E6
:1002E0001105809312059093130560E070E0CB0137
:1002F000DF91CF911F91FF90EF900C94050ACF935F
:10030000DF9300D00F92CDB7DEB79C0150E040E004
:1003100029833A834B835C83CA01B9010E94BD1EC5
:100320002AE83FE14BE450E469837A838B839C8322
:1003300069817A818B819C810E944B1F25E83BEE6D
:1003400041E85FE369837A838B839C8369817A8147
:100350008B819C810E944B1F69837A838B839C8352
:1003600069817A818B819C810E948E1ECB010F90C6
:100370000F900F900F90DF91CF910895FC018FB7F0
:10038000F8941082118212821382148215821682CE
:1003900017828FBF08950F931F93FC018FB7F894B6
:1003A0000081118122813381448155816681778169
:1003B0008FBF81E0041715072607370709F480E08F
:1003C0001F910F910895EF92FF920F931F93CF9378
:1003D000DF9300D00F92CDB7DEB7FC012FB7F894B2
:1003E000408151816281738184819581A681B78129
:1003F000481759076A077B0710F1408151816281D4
:10040000738184819581A681B7817A018B01E81A75
:10041000F90A0A0B1B0BE982FA820B831C832FBF9C
:1004200069817A818B819C810F900F900F900F9042
:10043000DF91CF911F910F91FF90EF9008958081F0
:100440009181A281B38144815581668177819E5FCC
:10045000AF4FBF4F7C018D01E41AF50A060B170B55
:10046000DACFFC012FB7F89440815181628173810A
:1004700084819581A681B781481759076A077B0750
:10048000D1F084819581A681B7818E0F9F1FDC01F9
:1004900018968C9144815581668177814F5F5F4FBB
:1004A0006F4F7F4F5170662777274483558366834C
:1004B00077832FBF089580E008950F931F93FC0169
:1004C0009FB7F89400811181228133814481558145
:1004D0006681778180E0041715072607370739F012
:1004E0004481558166817781E40FF51F80859FBF28
:1004F0001F910F910895CF92DF92EF92FF921F9379
:10050000CF93DF9300D000D0CDB7DEB78D839E832D
:100510006A017B011FB7F894AD81BE814D915D9159
:100520006D917C91139714968D919D910D90BC9136
:10053000A02D481759076A077B0781F480E01FBF89
:1005400026960FB6F894DEBF0FBECDBFDF91CF91D8
:100550001F91FF90EF90DF90CF9008958D819E8145
:100560000E94E30169837A838B839C83C616D70636
:10057000E806F90618F7ED81FE8184819581A68150
:10058000B7818C0D9D1DAE1DBF1D9170AA27BB2785
:10059000E80FF91F8085D3CF0F931F93FC018A01C9
:1005A0009B014FB7F89484819581A681B781800F14
:1005B000911FA21FB31F9170AA27BB278483958325
:1005C000A683B7834FBF1F910F910895CF92DF92FB
:1005D000EF92FF92FC012FB7F89480819181A28164
:1005E000B381C480D580E680F7800196A11DB11D3E
:1005F0009170AA27BB278C159D05AE05BF05B9F0E4
:1006000080819181A281B3818E0F9F1FDC0118969A
:100610006C9380819181A281B3810196A11DB11D4E
:100620009170AA27BB2780839183A283B3832FBFB6
:10063000FF90EF90DF90CF9008958F929F92AF92AE
:10064000BF92CF92DF92EF92FF920F931F93CF93BF
:10065000DF93182F092F69017A01EB01812C912C6E
:1006600054018C149D04AE04BF0469F4DF91CF9152
:100670001F910F91FF90EF90DF90CF90BF90AF90C0
:100680009F908F9008956991812F902F0E94E6028C
:100690008FEF881A980AA80AB80AE3CF8F929F9220
:1006A000AF92BF92CF92DF92EF92FF92CF93DF9300
:1006B00000D00F920F92CDB7DEB76A017B01FC012B
:1006C00019821A821B821C82812C912C54018C1459
:1006D0009D04AE04BF04A1F469817A818B819C8161
:1006E0000F900F900F900F900F90DF91CF91FF9090
:1006F000EF90DF90CF90BF90AF909F908F90089534
:10070000219120532D832A3098F4AAE0B0E029816A
:100710003A814B815C810E94021EDC01CB012D815C
:10072000820F911DA11DB11D89839A83AB83BC8368
:100730008FEF881A980AA80AB80AC9CF8F929F9299
:10074000AF92BF92CF92DF92EF92FF920F931F93DF
:10075000CF93DF93CDB7DEB72E970FB6F894DEBFF9
:100760000FBECDBFF82EE92E4B875C876D877E8745
:100770008B859C85AD85BE85892B8A2B8B2BB9F407
:1007800060E38F2D9E2D2E960FB6F894DEBF0FBE20
:10079000CDBFDF91CF911F910F91FF90EF90DF9030
:1007A000CF90BF90AF909F908F900C94E60210E096
:1007B0008AE0882E912CA12CB12CDE0111966D01BE
:1007C0006B857C858D859E85A50194010E94D81D31
:1007D000F601E10FF11D605D60831F5F8B859C85D5
:1007E000AD85BE852B873C874D875E870A97A1051F
:1007F000B10530F7F601E10FF11D8F01C016D106EA
:1008000099F42E960FB6F894DEBF0FBECDBFDF91E0
:10081000CF911F910F91FF90EF90DF90CF90BF90FD
:10082000AF909F908F900895D8016E918D018F2D7C
:100830009E2D0E94E602E2CFCF92DF92EF92FF92CE
:100840006A01FC01D901C80ED91E81912D91082E93
:10085000000C990B2817190649F4EC15FD05A9F7AA
:1008600081E0FF90EF90DF90CF90089580E0F9CF86
:100870004F925F926F927F928F929F92AF92BF92B0
:10088000CF92DF92EF92FF920F931F93CF93DF935C
:1008900000D000D0CDB7DEB72C01B62E072F6901EE
:1008A0007A011FB7F8940E94E30169837A838B83EE
:1008B0009C836C157D058E059F0550F06B2C702E6A
:1008C00040E050E0BA01C416D506E606F706C1F4CA
:1008D0001FBF26960FB6F894DEBF0FBECDBFDF91C7
:1008E000CF911F910F91FF90EF90DF90CF90BF902D
:1008F000AF909F908F907F906F905F904F900895F2
:10090000D20114968D909D90AD90BC901797C40124
:10091000840D951DFC01208514968D919D910D905F
:10092000BC91A02D0196A11DB11D9170AA27BB27D6
:10093000F20184839583A683B783D3012D933D0170
:100940004F5F5F4F6F4F7F4FBECF9FB7F894E0EC84
:10095000F0E0808180648083E1ECF0E08081886257
:1009600080839FBF0895CF93CFB7F8948EE39FE025
:100970000E94BE0186E39DE00E94BE0110924B17CB
:1009800010924A1787E690E09093C5008093C400C8
:1009900082E08093C00080E98093C10086E080936C
:1009A000C200CFBFCF9108951F920F920FB60F9242
:1009B00011240BB60F922F933F934F935F936F9336
:1009C0007F938F939F93AF93BF93EF93FF93609128
:1009D000C60086E39DE00E94E60281E090E09093ED
:1009E0004B1780934A17FF91EF91BF91AF919F9161
:1009F0008F917F916F915F914F913F912F910F90C8
:100A00000BBE0F900FBE0F901F9018951F920F9264
:100A10000FB60F9211240BB60F922F933F934F9363
:100A20005F936F937F938F939F93AF93BF93EF9356
:100A3000FF938EE39FE00E94CB01813021F58EE38E
:100A40009FE00E9431028093C6008EE39FE00E94E7
:100A5000CB01813029F08091C100877D8093C10056
:100A6000FF91EF91BF91AF919F918F917F916F9186
:100A70005F914F913F912F910F900BBE0F900FBE42
:100A80000F901F90189584E28093C600E4CF9FB723
:100A9000F894E8ECF0E0808180648083E9ECF0E099
:100AA0008081886280839FBF0895CF93CFB7F894E9
:100AB0008EE29BE00E94BE0186E299E00E94BE01A8
:100AC000109249171092481787E690E09093CD0056
:100AD0008093CC0082E08093C80080E98093C900B5
:100AE00086E08093CA00CFBFCF9108951F920F92E6
:100AF0000FB60F9211240BB60F922F933F934F9383
:100B00005F936F937F938F939F93AF93BF93EF9375
:100B1000FF936091CE0086E299E00E94E60281E0B8
:100B200090E09093491780934817FF91EF91BF9100
:100B3000AF919F918F917F916F915F914F913F9175
:100B40002F910F900BBE0F900FBE0F901F90189516
:100B50001F920F920FB60F9211240BB60F922F9384
:100B60003F934F935F936F937F938F939F93AF9335
:100B7000BF93EF93FF938EE29BE00E94CB01813005
:100B800061F48EE29BE00E9431028093CE008EE2FF
:100B90009BE00E94CB01813029F08091C900877DC4
:100BA0008093C900FF91EF91BF91AF919F918F9179
:100BB0007F916F915F914F913F912F910F900BBE5D
:100BC0000F900FBE0F901F9018959FB7F894E0ED0F
:100BD000F0E0808180648083E1EDF0E080818862D4
:100BE00080839FBF0895CF9310924D1710924E1798
:100BF00010924F171092501710924C17CFB7F894CD
:100C00008EE197E00E94BE0186E195E00E94BE0160
:100C1000109247171092461780E493E09093D50006
:100C20008093D40082E08093D00080E98093D1004B
:100C300086E08093D200CFBFCF9108951F920F928C
:100C40000FB60F9211240BB60F922F933F934F9331
:100C50005F936F937F938F939F93AF93BF93EF9324
:100C6000FF936091D60086E195E00E94E60281E064
:100C700090E09093471780934617FF91EF91BF91B3
:100C8000AF919F918F917F916F915F914F913F9124
:100C90002F910F900BBE0F900FBE0F901F901895C5
:100CA0001F920F920FB60F9211240BB60F922F9333
:100CB0003F934F935F936F937F938F939F93AF93E4
:100CC000BF93EF93FF938EE197E00E94CB018130B9
:100CD00021F58EE197E00E9431028093D6008EE1EB
:100CE00097E00E94CB01813029F08091D100877D6F
:100CF0008093D100FF91EF91BF91AF919F918F9120
:100D00007F916F915F914F913F912F910F900BBE0B
:100D10000F900FBE0F901F90189584E28093D6001D
:100D2000E4CF8F929F92AF92BF92CF92DF92EF92D9
:100D3000FF92CF93DF9300D00F92CDB7DEB786E15D
:100D400095E00E94E301633071058105910500F58E
:100D50000F900F900F900F90DF91CF91FF90EF9039
:100D6000DF90CF90BF90AF909F908F90089586E3D3
:100D70009DE00E94E301643071058105910570F0EA
:100D800041E050E060E070E086E195E00E94CC0236
:100D900086E195E00E945D02843249F786E195E0A4
:100DA0000E94E301653071058105910588F240E0FC
:100DB00050E0BA0186E195E00E947B02843209F49A
:100DC000D9C086E195E00E94E30165307105810597
:100DD000910508F0C6C086E195E00E94E3016983B1
:100DE0007A838B839C83653071058105910508F4B6
:100DF000AFCF86E195E00E94E3014B015C0183E007
:100E0000C82ED12CE12CF12CC814D904EA04FB041F
:100E100008F09ECFB701A60186E195E00E947B0213
:100E20008A3049F0B701A60186E195E00E947B0275
:100E3000843209F0C1C0B701A60186E195E00E94A5
:100E40007B028A3009F00DC143E050E060E070E0C1
:100E500086E195E00E94CC024601570193E0891A91
:100E60009108A108B108B701A601445051096109D0
:100E7000710986E195E00E947B0241E050E060E06C
:100E800070E08D3019F040E050E0BA01841A950A04
:100E9000A60AB70AA501940166E471E186E195E02E
:100EA0000E943804A3E08A169104A104B10408F456
:100EB00089C026E431E143E050E060E070E089E47D
:100EC00093E00E941C04811190C0B3E08B16910442
:100ED000A104B10451F126E431E144E050E060E0C6
:100EE00070E08DE493E00E941C0481117EC084E0D8
:100EF00088169104A104B104C1F026E431E145E073
:100F000050E060E070E082E593E00E941C048111F3
:100F10006CC026E431E145E050E060E070E088E537
:100F200093E00E941C04811160C026E431E143E09B
:100F300050E060E070E08EE593E00E941C048111B7
:100F400054C0A3E08A169104A104B10409F089C039
:100F500026E431E143E050E060E070E085E693E0B4
:100F600040C041E050E060E070E086E195E00E9422
:100F7000CC021DCF41E050E060E070E086E195E0FA
:100F80000E947B02843209F01CCF42E050E060E016
:100F900070E086E195E00E947B02843209F011CF77
:100FA00043E050E060E070E086E195E00E947B0263
:100FB000843209F406CF0FCF8FEFC81AD80AE80A97
:100FC000F80A22CF92E089169104A104B10409F035
:100FD00048C026E431E142E050E060E070E082E6A3
:100FE00093E00E941C048823E1F164E28EE39FE019
:100FF0000E94E60264E28EE39FE00E94E60264E261
:101000008EE39FE00E94E602A501940166E471E18F
:101010008EE39FE00E941D036AE08EE39FE00E9442
:10102000E60264E28EE29BE00E94E60264E28EE267
:101030009BE00E94E60264E28EE29BE00E94E602F0
:10104000A501940166E471E18EE29BE00E941D031C
:101050006AE08EE29BE00E94E6020E94A5040E94E4
:101060004705B701A60186E195E00E947B02843224
:1010700009F06ECEB701A60186E195E00F900F90C2
:101080000F900F90DF91CF91FF90EF90DF90CF9076
:10109000BF90AF909F908F900C94CC02CF92DF9234
:1010A000EF92FF920F931F93CF930DE517E1C1E3EA
:1010B000F894F8018081918178940E947F016C01FD
:1010C00024E030E040E050E06EE173E08EE39FE02A
:1010D0000E941D036C2F8EE39FE00E94E6026AE3EC
:1010E0008EE39FE00E94E602F12CE12CB701A601FD
:1010F0008EE39FE00E949E036AE08EE39FE00E94E1
:10110000E60224E030E040E050E06EE173E08EE281
:101110009BE00E941D036C2F8EE29BE00E94E60282
:101120006AE38EE29BE00E94E602B701A6018EE22E
:101130009BE00E949E036AE08EE29BE00E94E60232
:101140000C5F1F4FCF5FC53309F0B2CF0E94A504DB
:10115000CF911F910F91FF90EF90DF90CF900C9463
:101160004705CF92DF92EF92FF9280914C17882330
:1011700009F45CC0C0904D17D0904E17E0904F1707
:10118000F09050172BE030E040E050E065EC72E06A
:101190008EE39FE00E941D03EE24FF24B701A60109
:1011A0008EE39FE00E949E036AE38EE39FE00E942D
:1011B000E6022BE030E040E050E065EC72E08EE2C9
:1011C0009BE00E941D03B701A6018EE29BE00E94F6
:1011D0009E036AE38EE29BE00E94E602C0904D17F8
:1011E000D0904E17E0904F17F0905017EE24FF2448
:1011F000B701A6018EE39FE00E949E036AE08EE3A2
:101200009FE00E94E602B701A6018EE29BE00E94E9
:101210009E036AE08EE29BE00E94E6020E94A50423
:10122000FF90EF90DF90CF900C9447052BE030E0DB
:1012300040E050E065EC72E08EE39FE00E941D0309
:1012400029E030E040E050E06BEB72E08EE39FE09D
:101250000E941D032BE030E040E050E065EC72E0BE
:101260008EE29BE00E941D0329E030E040E050E068
:101270006BEB72E08EE29BE00E941D03CFCF2BE070
:1012800030E040E050E06FEA72E08EE39FE00E94C1
:101290001D030E94A5042BE030E040E050E06FEA1F
:1012A00072E08EE29BE00E941D030C9447052AE049
:1012B00030E040E050E064EA72E08EE39FE00E949C
:1012C0001D030E94A5042AE030E040E050E064EAFB
:1012D00072E08EE29BE00E941D030C944705CF92C2
:1012E000DF92EF92FF920F931F93CF93DF932FE044
:1012F00030E040E050E064E972E08EE39FE00E945D
:101300001D038CEFE82E84E0F82ECDE7D7E18E01A7
:101310006701F601819191916F01892B31F0F801FC
:101320008781908566E4892B09F06DE28EE39FE06A
:101330000E94E602035F1F4FF7E1013B1F0749F7D9
:101340006AE08EE39FE00E94E6020E94A5042FE07F
:1013500030E040E050E064E972E08EE29BE00E9401
:101360001D03F701819191917F01892B29F08F81D4
:10137000988566E4892B09F06DE28EE29BE00E947D
:10138000E6022D96F7E1C13BDF0759F76AE08EE2EE
:101390009BE00E94E602DF91CF911F910F91FF9099
:1013A000EF90DF90CF900C94470527E030E040E0CD
:1013B00050E06CE872E08EE39FE00E941D030E9403
:1013C000A50427E030E040E050E06CE872E08EE2F7
:1013D0009BE00E941D030C94470526E030E040E0AE
:1013E00050E065E872E08EE197E00E941D030C94E6
:1013F000E50527E030E040E050E06DE772E08EE187
:1014000097E00E941D030C94E505CF92DF92EF92C6
:10141000FF926B017C01C0924D17D0924E17E09263
:101420004F17F092501780914C1728E030E040E0C1
:1014300050E064E772E08823B9F08EE197E00E9403
:101440001D03B701A6018EE197E00E949E036AE0AA
:101450008EE197E00E94E6020E94E505FF90EF9082
:10146000DF90CF900C94B1088EE197E00E941D03AD
:1014700060E38EE197E00E94E602E9CFCF93DF932D
:1014800000D00F92CDB7DEB780934C1780914D17E7
:1014900090914E17A0914F17B091501789839A835E
:1014A000AB83BC83BC01CD010F900F900F900F90C8
:1014B000DF91CF910C94050ACF93DF9300D00F9268
:1014C000CDB7DEB780914D1790914E17A0914F1771
:1014D000B0915017BC01CD010F900F900F900F905D
:1014E000DF91CF9108952BE030E040E050E068E6D6
:1014F00072E08EE197E00E941D030C94E50528E060
:1015000030E040E050E06FE572E08EE197E00E944D
:101510001D030C94E5052BE030E040E050E063E56E
:1015200072E08EE197E00E941D030C94E5052BE02C
:1015300030E040E050E067E472E08EE197E00E9426
:101540001D030C94E5050F931F93CF93DF938B013D
:10155000D82FC92F2BE030E040E050E06BE372E081
:101560008EE197E00E941D03A8016D2F7C2F8EE174
:1015700097E00E949E036AE08EE197E00E94E602F7
:10158000DF91CF911F910F910C94E5052FE030E092
:1015900040E050E06BE272E08EE197E00E941D03B4
:1015A0000C94E50524E130E040E050E060E072E0BA
:1015B000811106C025E130E040E050E065E172E0D5
:1015C0008EE197E00E941D030C94E5058F929F9297
:1015D000AF92BF92CF92DF92EF92FF920F931F9341
:1015E000CF93DF9300D00F92CDB7DEB786E39DE0B7
:1015F0000E94E301633071058105910510F50F909C
:101600000F900F900F90DF91CF911F910F91FF904E
:10161000EF90DF90CF90BF90AF909F908F90089504
:1016200086E39DE00E94E301643071058105910528
:1016300070F041E050E060E070E086E39DE00E94E1
:10164000CC0286E39DE00E945D02843249F786E386
:101650009DE00E94E301653071058105910578F2F6
:1016600040E050E0BA0186E39DE00E947B028432B4
:1016700009F4BDC086E39DE00E94E3016530710579
:101680008105910508F0AAC086E39DE00E94E30170
:1016900069837A838B839C8365307105810591050D
:1016A00008F4ADCF86E39DE00E94E3016B017C016D
:1016B00083E0882E912CA12CB12C8C149D04AE04B7
:1016C000BF0408F09CCFB501A40186E39DE00E9411
:1016D0007B028A3049F0B501A40186E39DE00E94B7
:1016E0007B02843209F0A5C0B501A40186E39DE028
:1016F0000E947B028A3009F052C043E050E060E073
:1017000070E086E39DE00E94CC027501640193E0E5
:10171000C91AD108E108F108B501A40144505109E2
:101720006109710986E39DE00E947B0241E050E07F
:1017300060E070E08D3019F040E050E0BA01C41A6A
:10174000D50AE60AF70AA701960166E475E186E381
:101750009DE00E943804A2E0CA16D104E104F1041D
:1017600009F06DC026E435E142E050E060E070E051
:1017700089E693E00E941C04813009F04AC52DE1FE
:1017800030E040E050E06BE273E08EE39FE00E94C7
:101790001D030E94A5040E94ED090E94F909B501EC
:1017A000A40186E39DE00E947B02843209F027CFEA
:1017B000B501A40186E39DE00F900F900F900F906C
:1017C000DF91CF911F910F91FF90EF90DF90CF901D
:1017D000BF90AF909F908F900C94CC0241E050E06E
:1017E00060E070E086E39DE00E94CC0239CF41E0EA
:1017F00050E060E070E086E39DE00E947B0284326E
:1018000009F038CF42E050E060E070E086E39DE010
:101810000E947B02843209F02DCF43E050E060E06B
:1018200070E086E39DE00E947B02843209F422CFBF
:101830002BCF8FEF881A980AA80AB80A3ECFB8E0D3
:10184000CB16D104E104F10409F001C226E435E12C
:1018500048E050E060E070E08CE693E00E941C04F9
:10186000813011F5F89480915D1790915E1778940E
:101870000E947F0189839A8324E030E040E050E0B9
:101880006EE173E08EE39FE00E941D0361E38EE34F
:101890009FE00E94E6026AE38EE39FE00E94E60278
:1018A000E981FA81AF012DC026E435E148E050E03E
:1018B00060E070E085E793E00E941C04813079F5D8
:1018C000F894809161179091621778940E947F013B
:1018D00089839A8324E030E040E050E06EE173E0D9
:1018E0008EE39FE00E941D0362E38EE39FE00E946F
:1018F000E6026AE38EE39FE00E94E60289819A8114
:10190000AC0170E060E08EE39FE00E949E036AE01D
:101910008EE39FE00E94E6020E94A50440CF26E4E9
:1019200035E148E050E060E070E08EE793E00E942F
:101930001C04813011F5F894809165179091661719
:1019400078940E947F0189839A8324E030E040E00C
:1019500050E06EE173E08EE39FE00E941D0363E3BD
:101960008EE39FE00E94E6026AE38EE39FE00E941E
:10197000E602A981BA81AD01C4CF26E435E148E091
:1019800050E060E070E087E893E00E941C04813042
:10199000B1F4F8948091691790916A1778940E9435
:1019A0007F0189839A8324E030E040E050E06EE1DB
:1019B00073E08EE39FE00E941D0364E368CF26E49A
:1019C00035E148E050E060E070E080E993E00E949B
:1019D0001C04813009F046C0F89480915F17909103
:1019E00060179A838983789424E030E040E050E0E7
:1019F00069E173E08EE39FE00E941D0361E38EE3E3
:101A00009FE00E94E6026AE38EE39FE00E94E60206
:101A1000A981BA81CD01B0E0A0E089839A83AB832C
:101A2000BC83BC01CD010E94BD1E20E030E44CE12E
:101A300051E469837A838B839C8369817A818B816A
:101A40009C810E944B1F69837A838B839C8369816D
:101A50007A818B819C810E948E1E69837A838B831D
:101A60009C831ECF26E435E148E050E060E070E062
:101A700089E993E00E941C048130A1F4F8948091DC
:101A80006317909164179A838983789424E030E0F7
:101A900040E050E069E173E08EE39FE00E941D03A7
:101AA00062E3ADCF26E435E148E050E060E070E06D
:101AB00082EA93E00E941C048130A1F4F8948091A2
:101AC0006717909168179A838983789424E030E0AF
:101AD00040E050E069E173E08EE39FE00E941D0367
:101AE00063E38DCF26E435E148E050E060E070E04C
:101AF0008BEA93E00E941C048130A1F4F894809159
:101B00006B1790916C179A838983789424E030E066
:101B100040E050E069E173E08EE39FE00E941D0326
:101B200064E36DCF26E435E148E050E060E070E02A
:101B300084EB93E00E941C04813049F410927F17DB
:101B400010927E171092FB041092FA0428CE26E41D
:101B500035E148E050E060E070E08DEB93E00E94FA
:101B60001C04813039F481E090E090937F178093DA
:101B70007E17E8CF26E435E148E050E060E070E011
:101B800086EC93E00E941C04813029F410928C179B
:101B900010928B17D7CF26E435E148E050E060E0A3
:101BA00070E08FEC93E00E941C04813039F481E0F6
:101BB00090E090938C1780938B17C4CF26E435E187
:101BC00048E050E060E070E088ED93E00E941C0483
:101BD000813029F41092991710929817B3CF26E408
:101BE00035E148E050E060E070E081EE93E00E9473
:101BF0001C04813039F481E090E090939917809330
:101C00009817A0CF26E435E148E050E060E070E0AE
:101C10008AEE93E00E941C04813029F41092A617EA
:101C20001092A517BCCD26E435E148E050E060E015
:101C300070E083EF93E00E941C04813009F01AC128
:101C400081E090E09093A6178093A517A8CDF6E0C9
:101C5000CF16D104E104F10479F426E435E146E03D
:101C600050E060E070E08CEF93E00E941C04813053
:101C7000C9F480937D1793CD87E0C816D104E104A1
:101C8000F10409F06BC026E435E147E050E060E084
:101C900070E083E094E00E941C04813091F4109283
:101CA0007D1750CF26E435E146E050E060E070E07B
:101CB0008BE094E00E941C04813091F480938A1799
:101CC0006ECD26E435E147E050E060E070E082E16F
:101CD00094E00E941C04813091F410928A1732CF54
:101CE00026E435E146E050E060E070E08AE194E00F
:101CF0000E941C04813091F48093971750CD26E404
:101D000035E147E050E060E070E081E294E00E945D
:101D10001C04813099F41092971714CF26E435E112
:101D200046E050E060E070E089E294E00E941C042C
:101D3000813009F04FC08093A41731CD26E435E1FE
:101D400047E050E060E070E080E394E00E941C0413
:101D5000813009F050C01092A41721CD93E0C9162C
:101D6000D104E104F104F9F426E435E143E050E064
:101D700060E070E081E494E00E941C04813009F08E
:101D800048C210927D1710928A17109297171092DE
:101D9000A41780E00E943E0A1092FB041092FA04FD
:101DA0000E94D509FCCCA5E0CA16D104E104F104D7
:101DB00009F059C026E435E145E050E060E070E00C
:101DC00088E394E00E941C04813009F032C10E9433
:101DD0003E0AE5CC26E435E146E050E060E070E004
:101DE0008EE394E00E941C04813009F022C180E05F
:101DF0000E943E0AA7CE26E435E147E050E060E0CD
:101E000070E085E494E00E941C04813009F011C167
:101E10002BE030E040E050E06DE073E08EE39FE0C7
:101E20000E941D03EDE7F7E1FA83E98301EB17E177
:101E3000A981BA818C916DE2813041F4E981FA8106
:101E40008781908563E4892B09F066E58EE39FE046
:101E50000E94E60289819A810D969A8389830817E8
:101E6000190731F754CD98E0C916D104E104F10403
:101E700008F4D8C026E435E148E050E060E070E0C6
:101E80008DE494E00E941C04813089F4B701A6011E
:101E900048505109610971098EE495E10E944E0391
:101EA000262F61E0822F972F0E94971B4BCE26E4AE
:101EB00035E148E050E060E070E086E594E00E94A3
:101EC0001C04813069F4B701A60148505109610929
:101ED00071098EE495E10E944E03262F62E0E2CF65
:101EE00026E435E148E050E060E070E08FE594E002
:101EF0000E941C04813069F4B701A60148505109C1
:101F0000610971098EE495E10E944E03262F63E07A
:101F1000C9CF26E435E148E050E060E070E088E6B3
:101F200094E00E941C04813089F4B701A601485056
:101F30005109610971098EE495E10E944E03262F33
:101F400064E0822F972F0E94971B29CC26E435E16D
:101F500048E050E060E070E081E794E00E941C04FB
:101F6000813089F4B701A60148505109610971090E
:101F70008EE495E10E944E03262F61E0822F972F79
:101F80000E94E91BDFCD26E435E148E050E060E047
:101F900070E08AE794E00E941C04813069F4B70184
:101FA000A60148505109610971098EE495E10E942A
:101FB0004E03262F62E0E2CF26E435E148E050E010
:101FC00060E070E083E894E00E941C04813069F4D2
:101FD000B701A60148505109610971098EE495E1E4
:101FE0000E944E03262F63E0C9CF26E435E148E086
:101FF00050E060E070E08CE894E00E941C048130C6
:10200000C1F4B701A60148505109610971098EE474
:1020100095E10E944E03262F64E0822F972F0E94A5
:10202000E91BBDCBA4E0CA16D104E104F10408F415
:1020300091C026E435E144E050E060E070E088E9DA
:1020400094E00E941C04813019F40E947F0AA7CBFF
:10205000B7E0CB16D104E104F104D0F026E435E179
:1020600047E050E060E070E085E994E00E941C04E5
:10207000813009F033C1B701A60147505109610908
:1020800071098DE495E10E944E030E94050A5ACD24
:10209000E5E0CE16D104E104F104C1F526E435E112
:1020A00045E050E060E070E08DE994E00E941C049F
:1020B000813009F040C00E94B10071CB26E435E1C7
:1020C00049E050E060E070E083EA94E00E941C0484
:1020D000813009F046C010927D1710928A17109235
:1020E00097171092A41761E090E080E00E94971B80
:1020F00062E090E080E00E94971B63E090E080E067
:102100000E94971B64E090E080E0CECEF6E0CF1610
:10211000D104E104F104F1F426E435E146E050E0B5
:1021200060E070E08DEA94E00E941C048130C9F404
:102130000E94120134CB26E435E145E050E060E036
:1021400070E081EC94E00E941C04813051F40C9406
:10215000000025CB85E0C816D104E104F10408F4A1
:1021600044C026E435E145E050E060E070E082E5FF
:1021700093E00E941C04813011F5B701A60145507F
:102180005109610971098BE495E10E944E0369834D
:102190007A838B839C8389819A81AB81BC81892BD3
:1021A0008A2B8B2B51F081E00E943E0A69817A8153
:1021B0008B819C810E94050AF2CA80E0F5CF97E0EE
:1021C000C916D104E104F10409F061C026E435E147
:1021D00047E050E060E070E087EC94E00E941C046F
:1021E000813011F50E94730ADACAA4E0CA16D1043C
:1021F000E104F10409F052C026E435E144E050E086
:1022000060E070E08FEC94E00E941C04813009F4DF
:102210001CCF27E030E040E050E063E273E08EE363
:102220009FE00E941D0378CB26E435E147E050E0B3
:1022300060E070E084ED94E00E941C04813019F4A9
:102240000E948B0AACCA26E435E147E050E060E02A
:1022500070E08CED94E00E941C048130D1F60E9465
:10226000970A9DCAEBE0CE16D104E104F10489F689
:1022700026E435E14BE050E060E070E08DEE94E064
:102280000E941C04813029F60E94C60A88CAF4E024
:10229000CF16D104E104F10409F4AECFB8E0CB16B7
:1022A000D104E104F10408F4B4CF26E435E148E0B8
:1022B00050E060E070E084EE94E00E941C04813005
:1022C00089F6B701A60148505109610971098EE4E8
:1022D00095E10E944E030E94A30A61CA89E0C816D4
:1022E000D104E104F10409F4E9CE9CE0C916D1045B
:1022F000E104F10409F035CF26E435E14CE050E08B
:1023000060E070E084EB94E00E941C04813009F0EE
:1023100028CF109215051092140580E00E94D20A71
:102320003ECA8F929F92AF92BF92CF92DF92EF926E
:10233000FF920F931F93CF93DF9300D00F92CDB7EF
:10234000DEB786E299E00E94E30163307105810502
:10235000910510F50F900F900F900F90DF91CF9196
:102360001F910F91FF90EF90DF90CF90BF90AF90B3
:102370009F908F90089586E299E00E94E301643077
:1023800071058105910570F041E050E060E070E07A
:1023900086E299E00E94CC0286E299E00E945D020A
:1023A000843249F786E299E00E94E30165307105C5
:1023B0008105910578F240E050E0BA0186E299E0AB
:1023C0000E947B02843209F4BDC086E299E00E943B
:1023D000E301653071058105910508F0AAC086E228
:1023E00099E00E94E30169837A838B839C83653043
:1023F00071058105910508F4ADCF86E299E00E9450
:10240000E3016B017C0183E0882E912CA12CB12C7F
:102410008C149D04AE04BF0408F09CCFB501A40148
:1024200086E299E00E947B028A3049F0B501A4015E
:1024300086E299E00E947B02843209F0A5C0B501D2
:10244000A40186E299E00E947B028A3009F052C022
:1024500043E050E060E070E086E299E00E94CC0248
:102460007501640193E0C91AD108E108F108B501CA
:10247000A401445051096109710986E299E00E9462
:102480007B0241E050E060E070E08D3019F040E008
:1024900050E0BA01C41AD50AE60AF70AA701960164
:1024A00066E473E186E299E00E943804A2E0CA166D
:1024B000D104E104F10409F06DC026E433E142E007
:1024C00050E060E070E089E693E00E941C048130F7
:1024D00009F04AC52DE130E040E050E06FEE72E0D7
:1024E0008EE29BE00E941D030E9447050E94ED09B9
:1024F0000E94F909B501A40186E299E00E947B02DD
:10250000843209F027CFB501A40186E299E00F904B
:102510000F900F900F90DF91CF911F910F91FF902F
:10252000EF90DF90CF90BF90AF909F908F900C94E2
:10253000CC0241E050E060E070E086E299E00E9469
:10254000CC0239CF41E050E060E070E086E299E0F3
:102550000E947B02843209F038CF42E050E060E014
:1025600070E086E299E00E947B02843209F02DCF70
:1025700043E050E060E070E086E299E00E947B0278
:10258000843209F422CF2BCF8FEF881A980AA80A39
:10259000B80A3ECFB8E0CB16D104E104F10409F04B
:1025A00001C226E433E148E050E060E070E08CE6F0
:1025B00093E00E941C04813011F5F89480915D171E
:1025C00090915E1778940E947F0189839A8324E01A
:1025D00030E040E050E062EE72E08EE29BE00E946C
:1025E0001D0361E38EE29BE00E94E6026AE38EE255
:1025F0009BE00E94E602E981FA81AF012DC026E44A
:1026000033E148E050E060E070E085E793E00E944D
:102610001C04813079F5F8948091611790916217CC
:1026200078940E947F0189839A8324E030E040E01F
:1026300050E062EE72E08EE29BE00E941D0362E3D6
:102640008EE29BE00E94E6026AE38EE29BE00E943B
:10265000E60289819A81AC0170E060E08EE29BE045
:102660000E949E036AE08EE29BE00E94E6020E94C6
:10267000470540CF26E433E148E050E060E070E0F9
:102680008EE793E00E941C04813011F5F89480914C
:1026900065179091661778940E947F0189839A83C9
:1026A00024E030E040E050E062EE72E08EE29BE039
:1026B0000E941D0363E38EE29BE00E94E6026AE350
:1026C0008EE29BE00E94E602A981BA81AD01C4CFEF
:1026D00026E433E148E050E060E070E087E893E012
:1026E0000E941C048130B1F4F89480916917909194
:1026F0006A1778940E947F0189839A8324E030E0EE
:1027000040E050E062EE72E08EE29BE00E941D032A
:1027100064E368CF26E433E148E050E060E070E035
:1027200080E993E00E941C04813009F046C0F894CF
:1027300080915F17909160179A838983789424E041
:1027400030E040E050E06DED72E08EE29BE00E94F0
:102750001D0361E38EE29BE00E94E6026AE38EE2E3
:102760009BE00E94E602A981BA81CD01B0E0A0E021
:1027700089839A83AB83BC83BC01CD010E94BD1EBB
:1027800020E030E44CE151E469837A838B839C83BD
:1027900069817A818B819C810E944B1F69837A8336
:1027A0008B839C8369817A818B819C810E948E1EA0
:1027B00069837A838B839C831ECF26E433E148E0D0
:1027C00050E060E070E089E993E00E941C048130F1
:1027D000A1F4F89480916317909164179A83898388
:1027E000789424E030E040E050E06DED72E08EE25D
:1027F0009BE00E941D0362E3ADCF26E433E148E095
:1028000050E060E070E082EA93E00E941C048130B6
:10281000A1F4F89480916717909168179A8389833F
:10282000789424E030E040E050E06DED72E08EE21C
:102830009BE00E941D0363E38DCF26E433E148E073
:1028400050E060E070E08BEA93E00E941C0481306D
:10285000A1F4F89480916B1790916C179A838983F7
:10286000789424E030E040E050E06DED72E08EE2DC
:102870009BE00E941D0364E36DCF26E433E148E052
:1028800050E060E070E084EB93E00E941C04813033
:1028900049F410927F1710927E171092FB04109249
:1028A000FA0428CE26E433E148E050E060E070E02E
:1028B0008DEB93E00E941C04813039F481E090E0BC
:1028C00090937F1780937E17E8CF26E433E148E0AA
:1028D00050E060E070E086EC93E00E941C048130E0
:1028E00029F410928C1710928B17D7CF26E433E17E
:1028F00048E050E060E070E08FEC93E00E941C0440
:10290000813039F481E090E090938C1780938B179D
:10291000C4CF26E433E148E050E060E070E088EDA9
:1029200093E00E941C04813029F4109299171092B0
:102930009817B3CF26E433E148E050E060E070E060
:1029400081EE93E00E941C04813039F481E090E034
:102950009093991780939817A0CF26E433E148E02D
:1029600050E060E070E08AEE93E00E941C04813049
:1029700029F41092A6171092A517BCCD26E433E1D6
:1029800048E050E060E070E083EF93E00E941C04B8
:10299000813009F02EC181E090E09093A6178093DA
:1029A000A517A8CDF6E0CF16D104E104F10479F41F
:1029B00026E433E146E050E060E070E08CEF93E025
:1029C0000E941C048130C9F480937D1793CD87E069
:1029D000C816D104E104F10409F06BC026E433E128
:1029E00047E050E060E070E083E094E00E941C0467
:1029F000813091F410927D1750CF26E433E146E008
:102A000050E060E070E08BE094E00E941C048130B4
:102A100091F480938A176ECD26E433E147E050E0CD
:102A200060E070E082E194E00E941C04813091F447
:102A300010928A1732CF26E433E146E050E060E09E
:102A400070E08AE194E00E941C04813091F480934C
:102A5000971750CD26E433E147E050E060E070E0A6
:102A600081E294E00E941C04813099F4109297173F
:102A700014CF26E433E146E050E060E070E089E204
:102A800094E00E941C04813009F063C08093A41775
:102A900031CD26E433E147E050E060E070E080E3D0
:102AA00094E00E941C04813009F064C01092A417C5
:102AB00021CD93E0C916D104E104F10499F526E48F
:102AC00033E143E050E060E070E081E494E00E9494
:102AD0001C04813009F048C210927D1710928A17A9
:102AE000109297171092A41761E090E080E00E9486
:102AF000971B62E090E080E00E94971B63E090E00B
:102B000080E00E94971B64E090E080E00E94971BA9
:102B100080E00E943E0A1092FB041092FA040E9488
:102B2000D509E8CCA5E0CA16D104E104F10409F006
:102B300059C026E433E145E050E060E070E088E30E
:102B400094E00E941C04813009F032C10E943E0AC8
:102B5000D1CC26E433E146E050E060E070E08EE363
:102B600094E00E941C04813009F022C180E00E94A0
:102B70003E0A93CE26E433E147E050E060E070E0A7
:102B800085E494E00E941C04813009F011C12BE01F
:102B900030E040E050E061ED72E08EE29BE00E94A8
:102BA0001D03EDE7F7E1FA83E98301EB17E1A98162
:102BB000BA818C916DE2813041F4E981FA8187819B
:102BC000908563E4892B09F066E58EE29BE00E9424
:102BD000E60289819A810D969A83898308171907DD
:102BE00031F740CD98E0C916D104E104F10408F4AE
:102BF000D8C026E433E148E050E060E070E08DE4C6
:102C000094E00E941C04813089F4B701A601485069
:102C10005109610971098EE493E10E944E03262F48
:102C200061E0822F972F0E94971B37CE26E433E175
:102C300048E050E060E070E086E594E00E941C040B
:102C4000813069F4B701A601485051096109710941
:102C50008EE493E10E944E03262F62E0E2CF26E449
:102C600033E148E050E060E070E08FE594E00E94DE
:102C70001C04813069F4B701A6014850510961096B
:102C800071098EE493E10E944E03262F63E0C9CFC1
:102C900026E433E148E050E060E070E088E694E04C
:102CA0000E941C04813089F4B701A60148505109E3
:102CB000610971098EE493E10E944E03262F64E0BE
:102CC000822F972F0E94971B15CC26E433E148E012
:102CD00050E060E070E081E794E00E941C048130E5
:102CE00089F4B701A60148505109610971098EE4C0
:102CF00093E10E944E03262F61E0822F972F0E94BE
:102D0000E91BCBCD26E433E148E050E060E070E021
:102D10008AE794E00E941C04813069F4B701A6019F
:102D200048505109610971098EE493E10E944E03F4
:102D3000262F62E0E2CF26E433E148E050E060E095
:102D400070E083E894E00E941C04813069F4B701CC
:102D5000A60148505109610971098EE493E10E946E
:102D60004E03262F63E0C9CF26E433E148E050E06C
:102D700060E070E08CE894E00E941C048130C1F4B3
:102D8000B701A60148505109610971098EE493E128
:102D90000E944E03262F64E0822F972F0E94E91B8A
:102DA000A9CBA4E0CA16D104E104F10408F47DC063
:102DB00026E433E144E050E060E070E088E994E02C
:102DC0000E941C04813019F40E947F0A93CBB7E063
:102DD000CB16D104E104F104D0F026E433E147E05E
:102DE00050E060E070E085E994E00E941C048130CE
:102DF00009F01FC1B701A6014750510961097109C6
:102E00008DE493E10E944E030E94050A46CDE5E061
:102E1000CE16D104E104F10421F526E433E145E0C6
:102E200050E060E070E08DE994E00E941C04813085
:102E300069F50E94B1005ECB26E433E149E050E041
:102E400060E070E083EA94E00E941C048130A1F508
:102E500010927D1710928A17109297171092A4174C
:102E60001CCDF6E0CF16D104E104F104F1F426E420
:102E700033E146E050E060E070E08DEA94E00E94CB
:102E80001C048130C9F40E94120134CB26E433E1E2
:102E900045E050E060E070E081EC94E00E941C04AA
:102EA000813051F40C94000025CB85E0C816D10484
:102EB000E104F10408F444C026E433E145E050E0C5
:102EC00060E070E082E593E00E941C04813011F51F
:102ED000B701A60145505109610971098BE493E1DD
:102EE0000E944E0369837A838B839C8389819A81B4
:102EF000AB81BC81892B8A2B8B2B51F081E00E9406
:102F00003E0A69817A818B819C810E94050AF2CAFE
:102F100080E0F5CF97E0C916D104E104F10409F08F
:102F200061C026E433E147E050E060E070E087EC08
:102F300094E00E941C04813011F50E94730ADACAE1
:102F4000A4E0CA16D104E104F10409F052C026E459
:102F500033E144E050E060E070E08FEC94E00E94E8
:102F60001C04813009F430CF27E030E040E050E02D
:102F700067EE72E08EE29BE00E941D0378CB26E4B0
:102F800033E147E050E060E070E084ED94E00E94BF
:102F90001C04813019F40E948B0AACCA26E433E188
:102FA00047E050E060E070E08CED94E00E941C048B
:102FB0008130D1F60E94970A9DCAEBE0CE16D1046B
:102FC000E104F10489F626E433E14BE050E060E0EF
:102FD00070E08DEE94E00E941C04813029F60E947E
:102FE000C60A88CAF4E0CF16D104E104F10409F45A
:102FF000AECFB8E0CB16D104E104F10408F4B4CFAD
:1030000026E433E148E050E060E070E084EE94E0D4
:103010000E941C04813089F6B701A601485051096D
:10302000610971098EE493E10E944E030E94A30A94
:1030300061CA89E0C816D104E104F10409F4FCCEA8
:103040009CE0C916D104E104F10409F035CF26E46F
:1030500033E14CE050E060E070E084EB94E00E94EB
:103060001C04813009F028CF109215051092140528
:1030700080E00E94D20A3ECA1F921FB61F921124FE
:103080000F931F932F933F934F935F936F937F9370
:103090008F939F93AF93BF938091591790915A1735
:1030A000A0915B17B0915C170091551710915617BE
:1030B0002091571730915817B901A8014E5E5F4F04
:1030C0006F4F7F4F4D37510561057105C0F58A5F20
:1030D0009E4FAF4FBF4F0091511710915217209143
:1030E0005317309154170F5F1F4F2F4F3F4F0093CF
:1030F00051171093521720935317309354178093FE
:10310000591790935A17A0935B17B0935C1740938D
:103110005517509356176093571770935817BF91D0
:10312000AF919F918F917F916F915F914F913F915F
:103130002F911F910F911F901FBE1F901895B901DD
:10314000A8014B56510961097109895F9E4FAF4F24
:10315000BF4FC1CFCF93DF9300D00F92CDB7DEB773
:103160002FB7F8948091511790915217A09153174F
:10317000B091541746B550E070E060E0A89B08C0DD
:103180004F3F51056105710519F00196A11DB11D53
:103190002FBFBA2FA92F982F8827840F951FA61FFE
:1031A000B71F9C01AD0162E0220F331F441F551F62
:1031B0006A95D1F7CA01B9010F900F900F900F9047
:1031C000DF91CF910895CF92DF92EF92FF92CF934C
:1031D000DF9300D000D0CDB7DEB76B017C010E9439
:1031E000AA186D837E83C114D104E104F10469F44B
:1031F00026960FB6F894DEBF0FBECDBFDF91CF91FC
:10320000FF90EF90DF90CF9008950E94AA186983F5
:103210007A838B839C8389819A812D813E81821B55
:10322000930B883E9340F8F28D819E8188519C4F8C
:103230009E838D8391E0C91AD108E108F108D3CFAC
:1032400015BC16BC14BC81E085BB80936E0083E086
:1032500085BD08952F932FB72F932BB72F933F93AF
:103260004F935F938F939F93AF93BF93CF93DF93CE
:10327000EF93FF93CCE7D0E02881ABE7B0E09C91DF
:10328000822F8770392F3870832B815F8F70409128
:10329000780050917900E82FF0E0EE0FFF1FE35A1D
:1032A000F84E518340838E5F382F3770207E232B5A
:1032B0002883977F8870982B9C93FF91EF91DF91E3
:1032C000CF91BF91AF919F918F915F914F913F911E
:1032D0002F912BBF2F912FBF2F911895CF93CFB741
:1032E000F89440E250E06FEF70E08DE597E10E94C6
:1032F000B81FE4E6F0E080818E7F808380E48093D5
:103300007C0010927B00EAE7F0E08FEB8083CFBF78
:10331000808180648083CF91089580B1EDE7F7E1EB
:103320008695869591E08927817087831086ADE523
:10333000B7E12D913C9111973287218712962D91FB
:103340003C9113973487238780B182958695869523
:10335000837089278170848B158A14962D913C91F6
:103360001597378B268B16962D913C911797318F99
:10337000208F86B18295869587708927817081A379
:1033800012A218962D913C91199734A323A31A9653
:103390002D913C911B9736A325A386B1869589274D
:1033A000817086A717A61C968D919C911D9791AB55
:1033B00080AB1E968D919C9193AB82AB08951F9329
:1033C000CF93DF9392B188B170919717A09198171E
:1033D000B091991760918A17E0918B17F0918C1733
:1033E00030917D1740917E1750917F171091A4174F
:1033F000C091A517D091A61720E0223019F12330F3
:1034000061F12130A1F0313071F491604115510525
:1034100061F49D7F2F5F243081F792B988B9DF91E5
:10342000CF911F9108959E7FF1CF9260F3CF6130CD
:1034300029F49061309721F49F7DECCF9F7EFACFE5
:103440009062E8CF713029F48068109721F48F7B67
:10345000E1CF8F77FACF8064DDCF113029F4886017
:10346000209721F48B7FD6CF877FFACF8460D2CF8D
:103470009C0192B188B12230310581F13CF42115D3
:10348000310541F021303105C1F008952330310577
:10349000B1F1089520917D17213059F49160209168
:1034A0007E1730917F17232B31F49D7F92B988B915
:1034B00008959E7FF4CF9260F9CF20918A17213032
:1034C00049F4906120918B1730918C17232B21F4B4
:1034D0009F7DECCF9F7EF6CF9062E8CF209197172B
:1034E000213049F480682091981730919917232B47
:1034F00021F48F7BDBCF8F77F6CF8064D7CF2091FD
:10350000A417213049F488602091A5173091A6179F
:10351000232B21F48B7FCACF877FF6CF8460C6CF61
:103520002FB7F89483E381B982E282B98CEC87B932
:1035300080E488B98FEF80930A0110920B0180E834
:103540008AB91BB8EDE7F7E1108281E090E0928341
:103550008183148213821682158215869787868747
:10356000118A108A138A128A128E948F838F168E74
:10357000158E10A2178E17A211A610A613A612A6BA
:1035800015A614A62FBF62E070E080E090E00E94D4
:10359000E3180C948D191F920F920FB60F921124FD
:1035A0000BB60F922F933F934F935F938F939F93FD
:1035B000AF93BF93CF93DF93EF93FF93A4ECB7E167
:1035C000C1EBD7E190E02D913D912F5F3F4F3370DC
:1035D000FD01329731832083499159912417350792
:1035E00008F459C0973008F052C0E92FF0E088275E
:1035F000EF53F04E8F4F0C94FA1D80910B018F7793
:1036000080930B019F5F9830F1F68091D4179091D1
:10361000D51701968F7799279093D5178093D41754
:103620002091C1173091C2178217930720F480911F
:10363000C31781115AC05F98FF91EF91DF91CF912D
:10364000BF91AF919F918F915F914F913F912F913A
:103650000F900BBE0F900FBE0F901F90189580918A
:103660000B018F7BCDCF80910B018F7DC9CF8091D6
:103670000B018F7EC5CF80910B01877FC1CF8091D9
:103680000B018B7FBDCF80910B018D7FB9CF8091D6
:103690000B018E7FB5CF973020F5E92FF0E088271A
:1036A000E853F04E8F4F0C94FA1D80910B01806807
:1036B000A7CF80910B018064A3CF80910B01806222
:1036C0009FCF80910B0180619BCF80910B0188601F
:1036D00097CF80910B01846093CF80910B01826022
:1036E0008FCF80910B0181608BCF5F9AA5CF9FB761
:1036F000F89482E1E4ECF7E1DF01282F1D922A958E
:10370000E9F7E1EBF7E1DF011D928A95E9F7109205
:10371000C3171092B20082E08093B0008093B30090
:103720008093700086E08093B1009FBF0895CF938F
:10373000DF9300D00F920F92CDB7DEB76D839C015F
:1037400050E040E029833A834B835C83CA01B9018E
:103750000E94BD1E2DE531E44CE450E469837A8378
:103760008B839C8369817A818B819C810E941C1E42
:1037700069837A838B839C8369817A818B819C8125
:103780000E948E1E3D813330F9F060F4313091F0AB
:103790003230A9F00F900F900F900F900F90DF91A3
:1037A000CF9108954D814430A9F77093BE1760936F
:1037B000BD17F0CF7093B2176093B117EBCF709332
:1037C000B6176093B517E6CF7093BA176093B91721
:1037D000E1CFCF93DF9300D00F920F92CDB7DEB73A
:1037E0006D839C0150E040E029833A834B835C83E6
:1037F000CA01B9010E94BD1E28E93EED4AE75FE318
:1038000069837A838B839C8369817A818B819C8194
:103810000E941C1E69837A838B839C8369817A81D1
:103820008B819C810E948E1E3D813330F9F060F4C3
:10383000313091F03230A9F00F900F900F900F902F
:103840000F90DF91CF9108954D814430A9F7709387
:10385000C0176093BF17F0CF7093B4176093B3177E
:10386000EBCF7093B8176093B717E6CF7093BC1780
:103870006093BB17E1CF00D00F92CDB7DEB7F894BD
:1038800081E090E0909315058093140583E381B95E
:1038900082E282B98CEC87B980E488B98FEF80939B
:1038A0000A0180930B0180E88AB91BB8279A2F98E8
:1038B0000E9420190E94B3040E9455050E94F3053E
:1038C00078940E946E190E94901A0E94771B1092A1
:1038D000FB041092FA040E94E60A0E9491110E94D1
:1038E00091060E948D190E94DF190E94AA186B018F
:1038F0007C018091100590911105A0911205B09165
:10390000130546015701881A990AAA0ABB0A8C15A1
:103910009D05AE05BF0528F021E0821A9108A10897
:10392000B1082091FA043091FB042115310509F406
:1039300044C0C9018D7F019709F03FC080910E05F9
:1039400090910F05409104055091050548175907BE
:1039500009F475C02130310509F071C030E98316D2
:1039600030ED930633E0A306B10438F1892B09F456
:103970004EC080910E0590910F0520910405309165
:10398000050505962817390708F4C90190930F0516
:1039900080930E059C0150E040E029833A834B83DD
:1039A0005C83CA01B9010E94050AC0921005D09239
:1039B0001105E0921205F092130580911405909183
:1039C0001505892B09F487CFACEFB4E0EDE7F7E1FB
:1039D0008D919D91892B09F4E3C018968D919C914E
:1039E0001997892B09F4DCC087819085892B09F010
:1039F000D7C00E946F0910927D1710928A171092FB
:103A000097171092A41780E00E943E0A60CF81E0D1
:103A10000E943E0A61E084E893E00E94E91B62E0B4
:103A200084E893E00E94E91B63E084E893E00E944D
:103A3000E91B64E084E893E00E94E91B9ACFA0911F
:103A40000605B0910705E0910805F0910905609120
:103A50000A0570910B0540910C0550910D05CD01A3
:103A60008E2B9F2B862B972B842B952B892BB9F58F
:103A700030E8831636E9930638E9A306B10408F462
:103A80009CCF0CEF14E09DE7A92E97E1B92E992465
:103A90009394F801828593850E5F1F4F20813181B9
:103AA00005962817390708F4C901F801918780871E
:103AB000692D0E94971B81E0F801329720813181A6
:103AC000232B09F480E0F50180830E944E08939433
:103AD000FDE0AF0EB11C25E09212DBCF66CF8091E6
:103AE000FC049091FD04A817B907A9F48091FE0485
:103AF0009091FF04E817F90771F480910005909107
:103B000001056817790739F4809102059091030542
:103B10004817590731F130E983163FE5930631E044
:103B2000A306B10408F449CF0CEF14E0BB24B3940E
:103B3000F801828593850E5F1F4F208131810596A4
:103B40002817390708F4C901F801918780876B2D80
:103B50000E94971B0E944E08B394F5E0BF12E8CF75
:103B600024CF1092FB041092FA0423303105A9F4FB
:103B70008DE7E82E87E1F82E11E0612F90E080E0DC
:103B80000E94971BF70110821F5FFDE0EF0EF11CF2
:103B9000153099F70E943F0910CF0E9457090DCFA9
:103BA0003D9621EB37E12E173F0709F011CF93CE59
:103BB000A1E21A2EAA1BBB1BFD010DC0AA1FBB1F31
:103BC000EE1FFF1FA217B307E407F50720F0A21BA3
:103BD000B30BE40BF50B661F771F881F991F1A9410
:103BE00069F760957095809590959B01AC01BD013A
:103BF000CF010895EE0FFF1F881F8BBF0790F6912E
:103C0000E02D19940E940D1EA59F900DB49F900D5C
:103C1000A49F800D911D11240895A29FB001B39F10
:103C2000C001A39F700D811D1124911DB29F700DC5
:103C3000811D1124911D08950E94301E0C94111FA6
:103C40000E940A1F58F00E94031F40F029F45F3FB2
:103C500029F00C94FA1E51110C94451F0C94001F6E
:103C60000E94221F68F39923B1F3552391F3951B0A
:103C7000550BBB27AA2762177307840738F09F5F8D
:103C80005F4F220F331F441FAA1FA9F335D00E2EFA
:103C90003AF0E0E832D091505040E695001CCAF767
:103CA0002BD0FE2F29D0660F771F881FBB1F26172A
:103CB00037074807AB07B0E809F0BB0B802DBF0101
:103CC000FF2793585F4F3AF09E3F510578F00C94D0
:103CD000FA1E0C94451F5F3FE4F3983ED4F386959B
:103CE00077956795B795F7959F5FC9F7880F911DF1
:103CF0009695879597F90895E1E0660F771F881FDD
:103D0000BB1F621773078407BA0720F0621B730B8F
:103D1000840BBA0BEE1F88F7E09508950E942A1FC6
:103D200088F09F5798F0B92F9927B751B0F0E1F07C
:103D3000660F771F881F991F1AF0BA95C9F714C02C
:103D4000B13091F00E94441FB1E008950C94441FDB
:103D5000672F782F8827B85F39F0B93FCCF3869565
:103D600077956795B395D9F73EF4909580957095C2
:103D700061957F4F8F4F9F4F0895E89409C097FB3F
:103D80003EF490958095709561957F4F8F4F9F4F32
:103D90009923A9F0F92F96E9BB279395F695879576
:103DA00077956795B795F111F8CFFAF4BB0F11F439
:103DB00060FF1BC06F5F7F4F8F4F9F4F16C08823E0
:103DC00011F096E911C0772321F09EE8872F762F16
:103DD00005C0662371F096E8862F70E060E02AF057
:103DE0009A95660F771F881FDAF7880F9695879543
:103DF00097F9089597F99F6780E870E060E008956B
:103E00009FEF80EC089500240A94161617061806F2
:103E10000906089500240A941216130614060506CE
:103E20000895092E0394000C11F4882352F0BB0F5F
:103E300040F4BF2B11F460FF04C06F5F7F4F8F4FC2
:103E40009F4F089557FD9058440F551F59F05F3FFD
:103E500071F04795880F97FB991F61F09F3F79F0AC
:103E600087950895121613061406551FF2CF46952E
:103E7000F1DF08C0161617061806991FF1CF8695B0
:103E80007105610508940895E894BB276627772794
:103E9000CB0197F908950E945E1F0C94111F0E9498
:103EA000031F38F00E940A1F20F0952311F00C9494
:103EB000FA1E0C94001F11240C94451F0E94221F0F
:103EC00070F3959FC1F3950F50E0551F629FF0016D
:103ED000729FBB27F00DB11D639FAA27F00DB11D86
:103EE000AA1F649F6627B00DA11D661F829F22270F
:103EF000B00DA11D621F739FB00DA11D621F839F96
:103F0000A00D611D221F749F3327A00D611D231F6B
:103F1000849F600D211D822F762F6A2F11249F57B9
:103F200050409AF0F1F088234AF0EE0FFF1FBB1FBC
:103F3000661F771F881F91505040A9F79E3F51057B
:103F400080F00C94FA1E0C94451F5F3FE4F3983EFA
:103F5000D4F3869577956795B795F795E7959F5F25
:103F6000C1F7FE2B880F911D9695879597F90895B7
:103F7000DC0101C06D9341505040E0F70895F89482
:103F8000FFCFFD1A2F1B331B371B3B1B3F1B431B54
:0E3F9000551B591B5D1B611B651B691B6D1BBF
:103F9E00242424656E61626C6570726F746563743F
:103FAE00696F6E0A0024242464697361626C657003
:103FBE00726F74656374696F6E0A002424246164E1
:103FCE006363616C73746F72650A002424246164E8
:103FDE006363616C683A0024242461646363616CDA
:103FEE00300A00242424676574616463300A002457
:103FFE002424676574610A0024242467657473653C
:10400E0074610A00242424736574613A0024242404
:10401E007665720A0024242469640A002424246F1D
:10402E0066660A00242424696E73756C6661696C79
:10403E0065643A002424246265616D6F6E0A002463
:10404E002424696E73756C6F6B0A00646973616208
:10405E006C65640A0024242466696C736574613A85
:10406E0000242424707375737461746500242424F1
:10407E00610024242476002424246572720A00240C
:10408E002424656C656374726F6E6374726C5F3238
:10409E00303232313032315F3030310A0024242454
:1040AE007073757374617465002424246100242474
:1040BE002476002424246572720A00242424656C5C
:1040CE00656374726F6E6374726C5F32303232314C
:1040DE003032315F3030310A0069643A00766572F1
:1040EE003A00736574613A00616463303A0072613C
:1040FE003A006F6B006572720069640070737567C9
:10410E0065747631007073756765747632007073FE
:10411E0075676574763300707375676574763400F1
:10412E00707375676574613100707375676574615E
:10413E0032007073756765746133007073756765EF
:10414E0074613400707375706F6C317000707375BC
:10415E00706F6C316E00707375706F6C32700070B2
:10416E007375706F6C326E00707375706F6C337028
:10417E0000707375706F6C336E00707375706F6C4A
:10418E00347000707375706F6C346E007073756F71
:10419E006E31007073756F666631007073756F6E79
:1041AE0032007073756F666632007073756F6E33A2
:1041BE00007073756F666633007073756F6E3400C2
:1041CE007073756F6666340066696C6F6E00666933
:1041DE006C6F6666007073756D6F646500707375D5
:1041EE007365747631007073757365747632007012
:1041FE007375736574763300707375736574763486
:10420E0000707375736574613100707375736574C6
:10421E0061320070737573657461330070737573FA
:10422E00657461340073657466696C6100696E73E0
:10423E00756C006265616D68766F666600626561B9
:10424E006D6F6E006E6F70726F74656374696F6EF2
:10425E0000726573657400676574736574610067D9
:10426E0065746100676574616463300061646363E3
:10427E00616C300061646363616C683A0061646311
:0A428E0063616C73746F72650000C9
:00000001FF
