:100000000C948E000C94AF000C94AF000C94AF00D5
:100010000C94AF000C94AF000C94AF000C94AF00A4
:100020000C94AF000C94AF000C94AF000C94AF0094
:100030000C94AF000C949D1A0C94AF000C94AF007C
:100040000C94AF000C94AF000C94AF000C94AF0074
:100050000C94AF000C94AF000C94AF000C940E18ED
:100060000C94AF000C94D4040C9406050C94AF00CF
:100070000C94AF000C94FC180C94AF000C94AF00DF
:100080000C94AF000C94AF000C94AF000C94AF0034
:100090000C9476050C94A8050C94AF000C94AF005A
:1000A0000C94AF000C94AF000C94AF000C94AF0014
:1000B0000C94AF000C94AF000C94AF000C94AF0004
:1000C0000C94AF000C94AF000C94AF000C941E067F
:1000D0000C9450060C94AF000C94AF000C94AF003D
:1000E0000C94AF000C94011B0C942F1B0C94051B5B
:1000F0000C943B1B0C94CF1A0C942B1B0C940D1BD3
:100100000C94151B0C943F1B0C94331B0C94091B73
:100110000C94371B0C94111B0C94271B11241FBE2D
:10012000CFEFD1E2DEBFCDBF00E00CBF14E0A0E016
:10013000B2E0E2E4FFE300E00BBF02C007900D92E3
:10014000A03FB107D9F727E1A0EFB4E001C01D92AD
:10015000AC3CB207E1F70E940D1C0C94911F0C946B
:1001600000000F931F93CF9303E717E1C1E0D8017D
:100170001C926C2F90E080E00E94691B6C2F8AE03B
:1001800090E00E94BB1B035F1F4FCF5FC53079F724
:1001900080E00E94100A60E070E0CB010E94D70965
:1001A00083E090E09093F1048093F00482EE97E076
:1001B0009093F3048093F20484EE97E09093F50417
:1001C0008093F4048CE098E09093F7048093F60415
:1001D0001092F9041092F8041092FB041092FA04A1
:1001E0001092FD041092FC041092FF041092FE0481
:1001F000109201051092000510920305109202055D
:1002000010920505109204050E947C186093060563
:10021000709307058093080590930905CF911F916E
:100220000F910895EF92FF921F93CF93DF930E9457
:100230002E0A162FD72F83E7E82E87E1F82EC1E08C
:10024000D7011C926C2F90E080E00E94691B6C2FFC
:100250008AE090E00E94BB1BBDE0EB0EF11CCF5F7B
:10026000C53071F780E00E94100A81E090E0909321
:10027000F1048093F00482EE97E09093F30480936E
:10028000F20484EE97E09093F5048093F4048CE0FC
:1002900098E09093F7048093F6041092F90410927A
:1002A000F804812F9D2F9093FB048093FA04109201
:1002B000FD041092FC041092FF041092FE041092B0
:1002C000010510920005109203051092020510928C
:1002D0000505109204050E947C1860930605709332
:1002E0000705809308059093090560E070E0CB0155
:1002F000DF91CF911F91FF90EF900C94D709CF938E
:10030000DF9300D00F92CDB7DEB79C0150E040E004
:1003100029833A834B835C83CA01B9010E948F1EF3
:100320002AE83FE14BE450E469837A838B839C8322
:1003300069817A818B819C810E941D1F25E83BEE9B
:1003400041E85FE369837A838B839C8369817A8147
:100350008B819C810E941D1F69837A838B839C8380
:1003600069817A818B819C810E94601ECB010F90F4
:100370000F900F900F90DF91CF910895FC018FB7F0
:10038000F8941082118212821382148215821682CE
:1003900017828FBF08950F931F93FC018FB7F894B6
:1003A0000081118122813381448155816681778169
:1003B0008FBF81E0041715072607370709F480E08F
:1003C0001F910F910895EF92FF920F931F93CF9378
:1003D000DF9300D00F92CDB7DEB7FC012FB7F894B2
:1003E000408151816281738184819581A681B78129
:1003F000481759076A077B0710F1408151816281D4
:10040000738184819581A681B7817A018B01E81A75
:10041000F90A0A0B1B0BE982FA820B831C832FBF9C
:1004200069817A818B819C810F900F900F900F9042
:10043000DF91CF911F910F91FF90EF9008958081F0
:100440009181A281B38144815581668177819E5FCC
:10045000AF4FBF4F7C018D01E41AF50A060B170B55
:10046000DACFFC012FB7F89440815181628173810A
:1004700084819581A681B781481759076A077B0750
:10048000D1F084819581A681B7818E0F9F1FDC01F9
:1004900018968C9144815581668177814F5F5F4FBB
:1004A0006F4F7F4F5170662777274483558366834C
:1004B00077832FBF089580E008950F931F93FC0169
:1004C0009FB7F89400811181228133814481558145
:1004D0006681778180E0041715072607370739F012
:1004E0004481558166817781E40FF51F80859FBF28
:1004F0001F910F910895CF92DF92EF92FF921F9379
:10050000CF93DF9300D000D0CDB7DEB78D839E832D
:100510006A017B011FB7F894AD81BE814D915D9159
:100520006D917C91139714968D919D910D90BC9136
:10053000A02D481759076A077B0781F480E01FBF89
:1005400026960FB6F894DEBF0FBECDBFDF91CF91D8
:100550001F91FF90EF90DF90CF9008958D819E8145
:100560000E94E30169837A838B839C83C616D70636
:10057000E806F90618F7ED81FE8184819581A68150
:10058000B7818C0D9D1DAE1DBF1D9170AA27BB2785
:10059000E80FF91F8085D3CF0F931F93FC018A01C9
:1005A0009B014FB7F89484819581A681B781800F14
:1005B000911FA21FB31F9170AA27BB278483958325
:1005C000A683B7834FBF1F910F910895CF92DF92FB
:1005D000EF92FF92FC012FB7F89480819181A28164
:1005E000B381C480D580E680F7800196A11DB11D3E
:1005F0009170AA27BB278C159D05AE05BF05B9F0E4
:1006000080819181A281B3818E0F9F1FDC0118969A
:100610006C9380819181A281B3810196A11DB11D4E
:100620009170AA27BB2780839183A283B3832FBFB6
:10063000FF90EF90DF90CF9008958F929F92AF92AE
:10064000BF92CF92DF92EF92FF920F931F93CF93BF
:10065000DF93182F092F69017A01EB01812C912C6E
:1006600054018C149D04AE04BF0469F4DF91CF9152
:100670001F910F91FF90EF90DF90CF90BF90AF90C0
:100680009F908F9008956991812F902F0E94E6028C
:100690008FEF881A980AA80AB80AE3CF8F929F9220
:1006A000AF92BF92CF92DF92EF92FF92CF93DF9300
:1006B00000D00F920F92CDB7DEB76A017B01FC012B
:1006C00019821A821B821C82812C912C54018C1459
:1006D0009D04AE04BF04A1F469817A818B819C8161
:1006E0000F900F900F900F900F90DF91CF91FF9090
:1006F000EF90DF90CF90BF90AF909F908F90089534
:10070000219120532D832A3098F4AAE0B0E029816A
:100710003A814B815C810E94D41DDC01CB012D818B
:10072000820F911DA11DB11D89839A83AB83BC8368
:100730008FEF881A980AA80AB80AC9CF8F929F9299
:10074000AF92BF92CF92DF92EF92FF920F931F93DF
:10075000CF93DF93CDB7DEB72E970FB6F894DEBFF9
:100760000FBECDBFF82EE92E4B875C876D877E8745
:100770008B859C85AD85BE85892B8A2B8B2BB9F407
:1007800060E38F2D9E2D2E960FB6F894DEBF0FBE20
:10079000CDBFDF91CF911F910F91FF90EF90DF9030
:1007A000CF90BF90AF909F908F900C94E60210E096
:1007B0008AE0882E912CA12CB12CDE0111966D01BE
:1007C0006B857C858D859E85A50194010E94AA1D5F
:1007D000F601E10FF11D605D60831F5F8B859C85D5
:1007E000AD85BE852B873C874D875E870A97A1051F
:1007F000B10530F7F601E10FF11D8F01C016D106EA
:1008000099F42E960FB6F894DEBF0FBECDBFDF91E0
:10081000CF911F910F91FF90EF90DF90CF90BF90FD
:10082000AF909F908F900895D8016E918D018F2D7C
:100830009E2D0E94E602E2CFCF92DF92EF92FF92CE
:100840006A01FC01D901C80ED91E81912D91082E93
:10085000000C990B2817190649F4EC15FD05A9F7AA
:1008600081E0FF90EF90DF90CF90089580E0F9CF86
:100870004F925F926F927F928F929F92AF92BF92B0
:10088000CF92DF92EF92FF920F931F93CF93DF935C
:1008900000D000D0CDB7DEB72C01B62E072F6901EE
:1008A0007A011FB7F8940E94E30169837A838B83EE
:1008B0009C836C157D058E059F0550F06B2C702E6A
:1008C00040E050E0BA01C416D506E606F706C1F4CA
:1008D0001FBF26960FB6F894DEBF0FBECDBFDF91C7
:1008E000CF911F910F91FF90EF90DF90CF90BF902D
:1008F000AF909F908F907F906F905F904F900895F2
:10090000D20114968D909D90AD90BC901797C40124
:10091000840D951DFC01208514968D919D910D905F
:10092000BC91A02D0196A11DB11D9170AA27BB27D6
:10093000F20184839583A683B783D3012D933D0170
:100940004F5F5F4F6F4F7F4FBECF9FB7F894E0EC84
:10095000F0E0808180648083E1ECF0E08081886257
:1009600080839FBF0895CF93CFB7F89484E39FE02F
:100970000E94BE018CE29DE00E94BE0110924117D0
:100980001092401787E690E09093C5008093C400D2
:1009900082E08093C00080E98093C10086E080936C
:1009A000C200CFBFCF9108951F920F920FB60F9242
:1009B00011240BB60F922F933F934F935F936F9336
:1009C0007F938F939F93AF93BF93EF93FF93609128
:1009D000C6008CE29DE00E94E60281E090E09093E8
:1009E000411780934017FF91EF91BF91AF919F9175
:1009F0008F917F916F915F914F913F912F910F90C8
:100A00000BBE0F900FBE0F901F9018951F920F9264
:100A10000FB60F9211240BB60F922F933F934F9363
:100A20005F936F937F938F939F93AF93BF93EF9356
:100A3000FF9384E39FE00E94CB01813021F584E3A2
:100A40009FE00E9431028093C60084E39FE00E94F1
:100A5000CB01813029F08091C100877D8093C10056
:100A6000FF91EF91BF91AF919F918F917F916F9186
:100A70005F914F913F912F910F900BBE0F900FBE42
:100A80000F901F90189584E28093C600E4CF9FB723
:100A9000F894E8ECF0E0808180648083E9ECF0E099
:100AA0008081886280839FBF0895CF93CFB7F894E9
:100AB00084E29BE00E94BE018CE199E00E94BE01AD
:100AC00010923F1710923E1787E690E09093CD006A
:100AD0008093CC0082E08093C80080E98093C900B5
:100AE00086E08093CA00CFBFCF9108951F920F92E6
:100AF0000FB60F9211240BB60F922F933F934F9383
:100B00005F936F937F938F939F93AF93BF93EF9375
:100B1000FF936091CE008CE199E00E94E60281E0B3
:100B200090E090933F1780933E17FF91EF91BF9114
:100B3000AF919F918F917F916F915F914F913F9175
:100B40002F910F900BBE0F900FBE0F901F90189516
:100B50001F920F920FB60F9211240BB60F922F9384
:100B60003F934F935F936F937F938F939F93AF9335
:100B7000BF93EF93FF9384E29BE00E94CB0181300F
:100B800061F484E29BE00E9431028093CE0084E213
:100B90009BE00E94CB01813029F08091C900877DC4
:100BA0008093C900FF91EF91BF91AF919F918F9179
:100BB0007F916F915F914F913F912F910F900BBE5D
:100BC0000F900FBE0F901F9018959FB7F894E0ED0F
:100BD000F0E0808180648083E1EDF0E080818862D4
:100BE00080839FBF0895CF931092431710924417AC
:100BF000109245171092461710924217CFB7F894EB
:100C000084E197E00E94BE018CE095E00E94BE0165
:100C100010923D1710923C1780E493E09093D5001A
:100C20008093D40082E08093D00080E98093D1004B
:100C300086E08093D200CFBFCF9108951F920F928C
:100C40000FB60F9211240BB60F922F933F934F9331
:100C50005F936F937F938F939F93AF93BF93EF9324
:100C6000FF936091D6008CE095E00E94E60281E05F
:100C700090E090933D1780933C17FF91EF91BF91C7
:100C8000AF919F918F917F916F915F914F913F9124
:100C90002F910F900BBE0F900FBE0F901F901895C5
:100CA0001F920F920FB60F9211240BB60F922F9333
:100CB0003F934F935F936F937F938F939F93AF93E4
:100CC000BF93EF93FF9384E197E00E94CB018130C3
:100CD00021F584E197E00E9431028093D60084E1FF
:100CE00097E00E94CB01813029F08091D100877D6F
:100CF0008093D100FF91EF91BF91AF919F918F9120
:100D00007F916F915F914F913F912F910F900BBE0B
:100D10000F900FBE0F901F90189584E28093D6001D
:100D2000E4CF8F929F92AF92BF92CF92DF92EF92D9
:100D3000FF92CF93DF9300D00F92CDB7DEB78CE058
:100D400095E00E94E301633071058105910500F58E
:100D50000F900F900F900F90DF91CF91FF90EF9039
:100D6000DF90CF90BF90AF909F908F9008958CE2CE
:100D70009DE00E94E301643071058105910570F0EA
:100D800041E050E060E070E08CE095E00E94CC0231
:100D90008CE095E00E945D02843249F78CE095E09A
:100DA0000E94E301653071058105910588F240E0FC
:100DB00050E0BA018CE095E00E947B02843209F495
:100DC000D9C08CE095E00E94E30165307105810592
:100DD000910508F0C6C08CE095E00E94E3016983AC
:100DE0007A838B839C83653071058105910508F4B6
:100DF000AFCF8CE095E00E94E3014B015C0183E002
:100E0000C82ED12CE12CF12CC814D904EA04FB041F
:100E100008F09ECFB701A6018CE095E00E947B020E
:100E20008A3049F0B701A6018CE095E00E947B0270
:100E3000843209F0C1C0B701A6018CE095E00E94A0
:100E40007B028A3009F00DC143E050E060E070E0C1
:100E50008CE095E00E94CC024601570193E0891A8C
:100E60009108A108B108B701A601445051096109D0
:100E700071098CE095E00E947B0241E050E060E067
:100E800070E08D3019F040E050E0BA01841A950A04
:100E9000A60AB70AA50194016CE371E18CE095E024
:100EA0000E943804A3E08A169104A104B10408F456
:100EB00089C02CE331E143E050E060E070E08FE373
:100EC00093E00E941C04811190C0B3E08B16910442
:100ED000A104B10451F12CE331E144E050E060E0C1
:100EE00070E083E493E00E941C0481117EC084E0E2
:100EF00088169104A104B104C1F02CE331E145E06E
:100F000050E060E070E088E493E00E941C048111EE
:100F10006CC02CE331E145E050E060E070E08EE42D
:100F200093E00E941C04811160C02CE331E143E096
:100F300050E060E070E084E593E00E941C048111C1
:100F400054C0A3E08A169104A104B10409F089C039
:100F50002CE331E143E050E060E070E08BE593E0AA
:100F600040C041E050E060E070E08CE095E00E941D
:100F7000CC021DCF41E050E060E070E08CE095E0F5
:100F80000E947B02843209F01CCF42E050E060E016
:100F900070E08CE095E00E947B02843209F011CF72
:100FA00043E050E060E070E08CE095E00E947B025E
:100FB000843209F406CF0FCF8FEFC81AD80AE80A97
:100FC000F80A22CF92E089169104A104B10409F035
:100FD00048C02CE331E142E050E060E070E088E599
:100FE00093E00E941C048823E1F164E284E39FE023
:100FF0000E94E60264E284E39FE00E94E60264E26B
:1010000084E39FE00E94E602A50194016CE371E194
:1010100084E39FE00E941D036AE084E39FE00E9456
:10102000E60264E284E29BE00E94E60264E284E27B
:101030009BE00E94E60264E284E29BE00E94E602FA
:10104000A50194016CE371E184E29BE00E941D0321
:101050006AE084E29BE00E94E6020E94A5040E94EE
:101060004705B701A6018CE095E00E947B0284321F
:1010700009F06ECEB701A6018CE095E00F900F90BD
:101080000F900F90DF91CF91FF90EF90DF90CF9076
:10109000BF90AF909F908F900C94CC02CF92DF9234
:1010A000EF92FF920F931F93CF9303E517E1C1E3F4
:1010B000F894F8018081918178940E947F016C01FD
:1010C00024E030E040E050E064E173E084E39FE03E
:1010D0000E941D036C2F84E39FE00E94E6026AE3F6
:1010E00084E39FE00E94E602F12CE12CB701A60107
:1010F00084E39FE00E949E036AE084E39FE00E94F5
:10110000E60224E030E040E050E064E173E084E295
:101110009BE00E941D036C2F84E29BE00E94E6028C
:101120006AE384E29BE00E94E602B701A60184E242
:101130009BE00E949E036AE084E29BE00E94E6023C
:101140000C5F1F4FCF5FC53309F0B2CF0E94A504DB
:10115000CF911F910F91FF90EF90DF90CF900C9463
:101160004705CF92DF92EF92FF92C0904317D09045
:101170004417E0904517F09046172BE030E040E030
:1011800050E06BEB72E084E39FE00E941D03EE24CD
:10119000FF24B701A60184E39FE00E949E036AE357
:1011A00084E39FE00E94E6022BE030E040E050E064
:1011B0006BEB72E084E29BE00E941D03B701A60185
:1011C00084E29BE00E949E036AE384E29BE00E942B
:1011D000E602C0904317D0904417E0904517F09076
:1011E0004617EE24FF24B701A60184E39FE00E9486
:1011F0009E036AE084E39FE00E94E602B701A60135
:1012000084E29BE00E949E036AE084E29BE00E94ED
:10121000E6020E94A504FF90EF90DF90CF900C941F
:1012200047052BE030E040E050E06FEA72E084E3F5
:101230009FE00E941D030E94A5042BE030E040E0E7
:1012400050E06FEA72E084E29BE00E941D030C9480
:1012500047052AE030E040E050E064EA72E084E3D1
:101260009FE00E941D030E94A5042AE030E040E0B8
:1012700050E064EA72E084E29BE00E941D030C945B
:101280004705CF92DF92EF92FF920F931F93CF9378
:10129000DF932FE030E040E050E064E972E084E367
:1012A0009FE00E941D0382EFE82E84E0F82EC3E742
:1012B000D7E18E016701F601819191916F01892B30
:1012C00031F0F8018781908566E4892B09F06DE2A1
:1012D00084E39FE00E94E602035F1F4FF7E1073AB5
:1012E0001F0749F76AE084E39FE00E94E6020E943C
:1012F000A5042FE030E040E050E064E972E084E2D1
:101300009BE00E941D03F701819191917F01892B40
:1013100029F08F81988566E4892B09F06DE284E2DB
:101320009BE00E94E6022D96F7E1C73ADF0759F7E6
:101330006AE084E29BE00E94E602DF91CF911F9178
:101340000F91FF90EF90DF90CF900C94470527E02E
:1013500030E040E050E06CE872E084E39FE00E94FF
:101360001D030E94A50427E030E040E050E06CE857
:1013700072E084E29BE00E941D030C94470526E086
:1013800030E040E050E065E872E084E197E00E94E0
:101390001D030C94E50527E030E040E050E06DE7E8
:1013A00072E084E197E00E941D030C94E505CF9262
:1013B000DF92EF92FF926B017C01C0924317D092B3
:1013C0004417E0924517F09246178091421728E0A3
:1013D00030E040E050E064E772E08823B9F084E157
:1013E00097E00E941D03B701A60184E197E00E94E7
:1013F0009E036AE084E197E00E94E6020E94E50510
:10140000FF90EF90DF90CF900C94B10884E197E0CB
:101410000E941D0360E384E197E00E94E602E9CFA9
:10142000CF93DF9300D00F92CDB7DEB780934217F2
:101430008091431790914417A0914517B09146179A
:1014400089839A83AB83BC83BC01CD010F900F903D
:101450000F900F90DF91CF910C94D709CF93DF932A
:1014600000D00F92CDB7DEB780914317909144170B
:10147000A0914517B0914617BC01CD010F900F9078
:101480000F900F90DF91CF9108952BE030E040E076
:1014900050E068E672E084E197E00E941D030C943E
:1014A000E50528E030E040E050E06FE572E084E1DF
:1014B00097E00E941D030C94E5052BE030E040E02E
:1014C00050E063E572E084E197E00E941D030C9414
:1014D000E5052BE030E040E050E067E472E084E1B5
:1014E00097E00E941D030C94E5050F931F93CF9383
:1014F000DF938B01D82FC92F2BE030E040E050E084
:101500006BE372E084E197E00E941D03A8016D2F58
:101510007C2F84E197E00E949E036AE084E197E0DB
:101520000E94E602DF91CF911F910F910C94E50587
:101530002FE030E040E050E06BE272E084E197E0C1
:101540000E941D030C94E50524E130E040E050E0EA
:1015500060E072E0811106C025E130E040E050E03B
:1015600065E172E084E197E00E941D030C94E505BB
:101570008F929F92AF92BF92CF92DF92EF92FF92A3
:101580000F931F93CF93DF9300D00F92CDB7DEB7A9
:101590008CE29DE00E94E3016330710581059105B5
:1015A00010F50F900F900F900F90DF91CF911F913A
:1015B0000F91FF90EF90DF90CF90BF90AF909F90F2
:1015C0008F9008958CE29DE00E94E30164307105E4
:1015D0008105910570F041E050E060E070E08CE240
:1015E0009DE00E94CC028CE29DE00E945D0284326C
:1015F00049F78CE29DE00E94E301653071058105A9
:10160000910578F240E050E0BA018CE29DE00E9442
:101610007B02843209F4BDC08CE29DE00E94E301AC
:10162000653071058105910508F0AAC08CE29DE046
:101630000E94E30169837A838B839C836530710503
:101640008105910508F4ADCF8CE29DE00E94E30195
:101650006B017C0183E0882E912CA12CB12C8C1481
:101660009D04AE04BF0408F09CCFB501A4018CE238
:101670009DE00E947B028A3049F0B501A4018CE212
:101680009DE00E947B02843209F0A5C0B501A4014F
:101690008CE29DE00E947B028A3009F052C043E058
:1016A00050E060E070E08CE29DE00E94CC027501A9
:1016B000640193E0C91AD108E108F108B501A40159
:1016C00044505109610971098CE29DE00E947B023E
:1016D00041E050E060E070E08D3019F040E050E013
:1016E000BA01C41AD50AE60AF70AA70196016CE303
:1016F00075E18CE29DE00E943804A2E0CA16D10494
:10170000E104F10409F06DC02CE335E142E050E062
:1017100060E070E08FE593E00E941C04813009F0E6
:101720004AC52DE130E040E050E061E273E084E33F
:101730009FE00E941D030E94A5040E94BF090E9411
:10174000CB09B501A4018CE29DE00E947B028432AA
:1017500009F027CFB501A4018CE29DE00F900F9016
:101760000F900F90DF91CF911F910F91FF90EF900D
:10177000DF90CF90BF90AF909F908F900C94CC0251
:1017800041E050E060E070E08CE29DE00E94CC021D
:1017900039CF41E050E060E070E08CE29DE00E94D3
:1017A0007B02843209F038CF42E050E060E070E024
:1017B0008CE29DE00E947B02843209F02DCF43E051
:1017C00050E060E070E08CE29DE00E947B02843299
:1017D00009F422CF2BCF8FEF881A980AA80AB80AEB
:1017E0003ECFB8E0CB16D104E104F10409F001C208
:1017F0002CE335E148E050E060E070E082E693E001
:101800000E941C04813011F5F89480915317909137
:10181000541778940E947F0189839A8324E030E0F2
:1018200040E050E064E173E084E39FE00E941D0328
:1018300061E384E39FE00E94E6026AE384E39FE0C1
:101840000E94E602E981FA81AF012DC02CE335E167
:1018500048E050E060E070E08BE693E00E941C04FA
:10186000813079F5F89480915717909158177894B2
:101870000E947F0189839A8324E030E040E050E0B9
:1018800064E173E084E39FE00E941D0362E384E36C
:101890009FE00E94E6026AE384E39FE00E94E60282
:1018A00089819A81AC0170E060E084E39FE00E944E
:1018B0009E036AE084E39FE00E94E6020E94A50482
:1018C00040CF2CE335E148E050E060E070E084E791
:1018D00093E00E941C04813011F5F89480915B170D
:1018E00090915C1778940E947F0189839A8324E009
:1018F00030E040E050E064E173E084E39FE00E9468
:101900001D0363E384E39FE00E94E6026AE384E34D
:101910009FE00E94E602A981BA81AD01C4CF2CE309
:1019200035E148E050E060E070E08DE793E00E9430
:101930001C048130B1F4F89480915F179091601786
:1019400078940E947F0189839A8324E030E040E00C
:1019500050E064E173E084E39FE00E941D0364E3D0
:1019600068CF2CE335E148E050E060E070E086E8C5
:1019700093E00E941C04813009F046C0F8948091E5
:101980005517909156179A838983789424E030E014
:1019900040E050E06FE073E084E39FE00E941D03AD
:1019A00061E384E39FE00E94E6026AE384E39FE050
:1019B0000E94E602A981BA81CD01B0E0A0E089834E
:1019C0009A83AB83BC83BC01CD010E948F1E20E0B3
:1019D00030E44CE151E469837A838B839C83698191
:1019E0007A818B819C810E941D1F69837A838B83FE
:1019F0009C8369817A818B819C810E94601E6983AE
:101A00007A838B839C831ECF2CE335E148E050E042
:101A100060E070E08FE893E00E941C048130A1F444
:101A2000F8948091591790915A179A8389837894E2
:101A300024E030E040E050E06FE073E084E39FE0BA
:101A40000E941D0362E3ADCF2CE335E148E050E096
:101A500060E070E088E993E00E941C048130A1F40A
:101A6000F89480915D1790915E179A83898378949A
:101A700024E030E040E050E06FE073E084E39FE07A
:101A80000E941D0363E38DCF2CE335E148E050E075
:101A900060E070E081EA93E00E941C048130A1F4D0
:101AA000F89480916117909162179A838983789452
:101AB00024E030E040E050E06FE073E084E39FE03A
:101AC0000E941D0364E36DCF2CE335E148E050E054
:101AD00060E070E08AEA93E00E941C04813049F4DF
:101AE00010927517109274171092F1041092F0046E
:101AF00028CE2CE335E148E050E060E070E083EB75
:101B000093E00E941C04813039F481E090E09093CE
:101B1000751780937417E8CF2CE335E148E050E067
:101B200060E070E08CEB93E00E941C04813029F4AB
:101B30001092821710928117D7CF2CE335E148E03D
:101B400050E060E070E085EC93E00E941C0481307E
:101B500039F481E090E09093821780938117C4CF8D
:101B60002CE335E148E050E060E070E08EEC93E07B
:101B70000E941C04813029F410928F1710928E1746
:101B8000B3CF2CE335E148E050E060E070E087ED52
:101B900093E00E941C04813039F481E090E090933E
:101BA0008F1780938E17A0CF2CE335E148E050E0EB
:101BB00060E070E080EE93E00E941C04813029F424
:101BC00010929C1710929B17BCCD2CE335E148E096
:101BD00050E060E070E089EE93E00E941C048130E8
:101BE00009F01AC181E090E090939C1780939B17B5
:101BF000A8CDF6E0CF16D104E104F10479F42CE38A
:101C000035E146E050E060E070E082EF93E00E9452
:101C10001C048130C9F48093731793CD87E0C816F4
:101C2000D104E104F10409F06BC02CE335E147E095
:101C300050E060E070E089EF93E00E941C04813086
:101C400091F41092731750CF2CE335E146E050E049
:101C500060E070E081E094E00E941C04813091F427
:101C6000809380176ECD2CE335E147E050E060E0D3
:101C700070E088E094E00E941C04813091F410929E
:101C8000801732CF2CE335E146E050E060E070E0B1
:101C900080E194E00E941C04813091F480938D17C0
:101CA00050CD2CE335E147E050E060E070E087E1A3
:101CB00094E00E941C04813099F410928D1714CF87
:101CC0002CE335E146E050E060E070E08FE194E025
:101CD0000E941C04813009F04FC080939A1731CDC7
:101CE0002CE335E147E050E060E070E086E294E00C
:101CF0000E941C04813009F050C010929A1721CD27
:101D000093E0C916D104E104F104F9F42CE335E1C0
:101D100043E050E060E070E087E394E00E941C0440
:101D2000813009F048C210927317109280171092F8
:101D30008D1710929A1780E00E94100A1092F104F9
:101D40001092F0040E94A709FCCCA5E0CA16D104A9
:101D5000E104F10409F059C02CE335E145E050E01D
:101D600060E070E08EE294E00E941C04813009F093
:101D700032C10E94100AE5CC2CE335E146E050E088
:101D800060E070E084E394E00E941C04813009F07C
:101D900022C180E00E94100AA7CE2CE335E147E083
:101DA00050E060E070E08BE394E00E941C0481301E
:101DB00009F011C12BE030E040E050E063E073E057
:101DC00084E39FE00E941D03E3E7F7E1FA83E983E0
:101DD00007EA17E1A981BA818C916DE2813041F463
:101DE000E981FA818781908563E4892B09F066E5B2
:101DF00084E39FE00E94E60289819A810D969A838E
:101E000089830817190731F754CD98E0C916D10412
:101E1000E104F10408F4D8C02CE335E148E050E0D7
:101E200060E070E083E494E00E941C04813089F457
:101E3000B701A601485051096109710984E495E18F
:101E40000E944E03262F61E0822F972F0E94691B6C
:101E50004BCE2CE335E148E050E060E070E08CE4EC
:101E600094E00E941C04813069F4B701A601485037
:101E700051096109710984E495E10E944E03262FFE
:101E800062E0E2CF2CE335E148E050E060E070E052
:101E900085E594E00E941C04813069F4B701A60135
:101EA000485051096109710984E495E10E944E038B
:101EB000262F63E0C9CF2CE335E148E050E060E035
:101EC00070E08EE594E00E941C04813089F4B70133
:101ED000A601485051096109710984E495E10E9405
:101EE0004E03262F64E0822F972F0E94691B29CC76
:101EF0002CE335E148E050E060E070E087E694E0F4
:101F00000E941C04813089F4B701A6014850510990
:101F10006109710984E495E10E944E03262F61E076
:101F2000822F972F0E94BB1BDFCD2CE335E148E0C9
:101F300050E060E070E080E794E00E941C04813093
:101F400069F4B701A601485051096109710984E497
:101F500095E10E944E03262F62E0E2CF2CE335E1AB
:101F600048E050E060E070E089E794E00E941C04E3
:101F7000813069F4B701A60148505109610971091E
:101F800084E495E10E944E03262F63E0C9CF2CE341
:101F900035E148E050E060E070E082E894E00E94C3
:101FA0001C048130C1F4B701A601485051096109F0
:101FB000710984E495E10E944E03262F64E0822F8C
:101FC000972F0E94BB1BBDCBA4E0CA16D104E1042D
:101FD000F10408F491C02CE335E144E050E060E006
:101FE00070E08EE894E00E941C04813019F40E9495
:101FF000510AA7CBB7E0CB16D104E104F104D0F02D
:102000002CE335E147E050E060E070E08BE894E0DD
:102010000E941C04813009F033C1B701A60147506A
:1020200051096109710983E495E10E944E030E9400
:10203000D7095ACDE5E0CE16D104E104F104C1F58B
:102040002CE335E145E050E060E070E083E994E0A6
:102050000E941C04813009F040C00E94B10071CB85
:102060002CE335E149E050E060E070E089E994E07C
:102070000E941C04813009F046C010927317109220
:10208000801710928D1710929A1761E090E080E00F
:102090000E94691B62E090E080E00E94691B63E09F
:1020A00090E080E00E94691B64E090E080E0CECE8A
:1020B000F6E0CF16D104E104F104F1F42CE335E1AC
:1020C00046E050E060E070E083EA94E00E941C0487
:1020D0008130C9F40E94120134CB2CE335E145E094
:1020E00050E060E070E087EB94E00E941C048130D7
:1020F00051F40C94000025CB85E0C816D104E1040E
:10210000F10408F444C02CE335E145E050E060E020
:1021100070E088E493E00E941C04813011F5B7015F
:10212000A601455051096109710981E495E10E94B8
:102130004E0369837A838B839C8389819A81AB81E7
:10214000BC81892B8A2B8B2B51F081E00E94100AD5
:1021500069817A818B819C810E94D709F2CA80E0D3
:10216000F5CF97E0C916D104E104F10409F061C08C
:102170002CE335E147E050E060E070E08DEB94E067
:102180000E941C04813011F50E94450ADACAA4E0BD
:10219000CA16D104E104F10409F052C02CE335E180
:1021A00044E050E060E070E085EC94E00E941C04A4
:1021B000813009F41CCF27E030E040E050E069E1D5
:1021C00073E084E39FE00E941D0378CB2CE335E1AC
:1021D00047E050E060E070E08AEC94E00E941C046C
:1021E000813019F40E945D0AACCA2CE335E147E066
:1021F00050E060E070E082ED94E00E941C048130C9
:10220000D1F60E94690A9DCAEBE0CE16D104E10422
:10221000F10489F62CE335E14BE050E060E070E03A
:1022200083EE94E00E941C04813029F60E94980AF3
:1022300088CAF4E0CF16D104E104F10409F4AECF6A
:10224000B8E0CB16D104E104F10408F4B4CF2CE3D8
:1022500035E148E050E060E070E08AED94E00E94F3
:102260001C04813089F6B701A60148505109610963
:10227000710984E495E10E944E030E94750A61CAC7
:1022800089E0C816D104E104F10409F4E9CE9CE028
:10229000C916D104E104F10409F035CF2CE335E18E
:1022A0004CE050E060E070E08AEA94E00E941C0498
:1022B000813009F028CF10920B0510920A0580E0BA
:1022C0000E94A40A3ECA8F929F92AF92BF92CF9271
:1022D000DF92EF92FF920F931F93CF93DF9300D083
:1022E0000F92CDB7DEB78CE199E00E94E301633035
:1022F00071058105910510F50F900F900F900F90CB
:10230000DF91CF911F910F91FF90EF90DF90CF90D1
:10231000BF90AF909F908F9008958CE199E00E94BC
:10232000E301643071058105910570F041E050E0F2
:1023300060E070E08CE199E00E94CC028CE199E0D1
:102340000E945D02843249F78CE199E00E94E3012A
:10235000653071058105910578F240E050E0BA01E1
:102360008CE199E00E947B02843209F4BDC08CE1CB
:1023700099E00E94E301653071058105910508F03F
:10238000AAC08CE199E00E94E30169837A838B8380
:102390009C83653071058105910508F4ADCF8CE112
:1023A00099E00E94E3016B017C0183E0882E912C6F
:1023B000A12CB12C8C149D04AE04BF0408F09CCF5A
:1023C000B501A4018CE199E00E947B028A3049F0BA
:1023D000B501A4018CE199E00E947B02843209F0EE
:1023E000A5C0B501A4018CE199E00E947B028A306E
:1023F00009F052C043E050E060E070E08CE199E009
:102400000E94CC027501640193E0C91AD108E10869
:10241000F108B501A40144505109610971098CE129
:1024200099E00E947B0241E050E060E070E08D3076
:1024300019F040E050E0BA01C41AD50AE60AF70ADA
:10244000A70196016CE373E18CE199E00E943804E6
:10245000A2E0CA16D104E104F10409F06DC02CE336
:1024600033E142E050E060E070E08FE593E00E94ED
:102470001C04813009F04AC52DE130E040E050E015
:1024800065EE72E084E29BE00E941D030E94470516
:102490000E94BF090E94CB09B501A4018CE199E01B
:1024A0000E947B02843209F027CFB501A4018CE1A0
:1024B00099E00F900F900F900F90DF91CF911F91A7
:1024C0000F91FF90EF90DF90CF90BF90AF909F90D3
:1024D0008F900C94CC0241E050E060E070E08CE121
:1024E00099E00E94CC0239CF41E050E060E070E01A
:1024F0008CE199E00E947B02843209F038CF42E0FF
:1025000050E060E070E08CE199E00E947B02843250
:1025100009F02DCF43E050E060E070E08CE199E0FD
:102520000E947B02843209F422CF2BCF8FEF881ACE
:10253000980AA80AB80A3ECFB8E0CB16D104E10445
:10254000F10409F001C22CE333E148E050E060E01F
:1025500070E082E693E00E941C04813011F5F8944B
:10256000809153179091541778940E947F0189832A
:102570009A8324E030E040E050E068ED72E084E2CD
:102580009BE00E941D0361E384E29BE00E94E6025F
:102590006AE384E29BE00E94E602E981FA81AF01EE
:1025A0002DC02CE333E148E050E060E070E08BE6C2
:1025B00093E00E941C04813079F5F89480915717BC
:1025C0009091581778940E947F0189839A8324E020
:1025D00030E040E050E068ED72E084E29BE00E9471
:1025E0001D0362E384E29BE00E94E6026AE384E268
:1025F0009BE00E94E60289819A81AC0170E060E074
:1026000084E29BE00E949E036AE084E29BE00E94D9
:10261000E6020E94470540CF2CE333E148E050E05A
:1026200060E070E084E793E00E941C04813011F5C3
:10263000F89480915B1790915C1778940E947F01C9
:1026400089839A8324E030E040E050E068ED72E056
:1026500084E29BE00E941D0363E384E29BE00E940E
:10266000E6026AE384E29BE00E94E602A981BA8165
:10267000AD01C4CF2CE333E148E050E060E070E00E
:102680008DE793E00E941C048130B1F4F8948091AE
:102690005F179091601778940E947F0189839A83D5
:1026A00024E030E040E050E068ED72E084E29BE03E
:1026B0000E941D0364E368CF2CE333E148E050E05F
:1026C00060E070E086E893E00E941C04813009F02D
:1026D00046C0F89480915517909156179A83898334
:1026E000789424E030E040E050E063ED72E084E272
:1026F0009BE00E941D0361E384E29BE00E94E602EE
:102700006AE384E29BE00E94E602A981BA81CD01DE
:10271000B0E0A0E089839A83AB83BC83BC01CD0188
:102720000E948F1E20E030E44CE151E469837A83FB
:102730008B839C8369817A818B819C810E941D1F80
:1027400069837A838B839C8369817A818B819C8165
:102750000E94601E69837A838B839C831ECF2CE347
:1027600033E148E050E060E070E08FE893E00E94E1
:102770001C048130A1F4F8948091591790915A1754
:102780009A838983789424E030E040E050E063ED60
:1027900072E084E29BE00E941D0362E3ADCF2CE374
:1027A00033E148E050E060E070E088E993E00E94A7
:1027B0001C048130A1F4F89480915D1790915E170C
:1027C0009A838983789424E030E040E050E063ED20
:1027D00072E084E29BE00E941D0363E38DCF2CE353
:1027E00033E148E050E060E070E081EA93E00E946D
:1027F0001C048130A1F4F8948091611790916217C4
:102800009A838983789424E030E040E050E063EDDF
:1028100072E084E29BE00E941D0364E36DCF2CE331
:1028200033E148E050E060E070E08AEA93E00E9423
:102830001C04813049F4109275171092741710928D
:10284000F1041092F00428CE2CE333E148E050E08C
:1028500060E070E083EB93E00E941C04813039F467
:1028600081E090E09093751780937417E8CF2CE384
:1028700033E148E050E060E070E08CEB93E00E94D0
:102880001C04813029F41092821710928117D7CF3F
:102890002CE333E148E050E060E070E085EC93E049
:1028A0000E941C04813039F481E090E090938217FB
:1028B00080938117C4CF2CE333E148E050E060E01F
:1028C00070E08EEC93E00E941C04813029F4109299
:1028D0008F1710928E17B3CF2CE333E148E050E00E
:1028E00060E070E087ED93E00E941C04813039F4D1
:1028F00081E090E090938F1780938E17A0CF2CE308
:1029000033E148E050E060E070E080EE93E00E9448
:102910001C04813029F410929C1710929B17BCCD97
:102920002CE333E148E050E060E070E089EE93E0B2
:102930000E941C04813009F02EC181E090E0909348
:102940009C1780939B17A8CDF6E0CF16D104E10425
:10295000F10479F42CE333E146E050E060E070E00C
:1029600082EF93E00E941C048130C9F480937317B6
:1029700093CD87E0C816D104E104F10409F06BC0DF
:102980002CE333E147E050E060E070E089EF93E052
:102990000E941C04813091F41092731750CF2CE3E5
:1029A00033E146E050E060E070E081E094E00E94B6
:1029B0001C04813091F4809380176ECD2CE333E1B9
:1029C00047E050E060E070E088E094E00E941C0482
:1029D000813091F41092801732CF2CE333E146E03E
:1029E00050E060E070E080E194E00E941C048130DF
:1029F00091F480938D1750CD2CE333E147E050E004
:102A000060E070E087E194E00E941C04813099F45A
:102A100010928D1714CF2CE333E146E050E060E0D4
:102A200070E08FE194E00E941C04813009F063C0E3
:102A300080939A1731CD2CE333E147E050E060E01A
:102A400070E086E294E00E941C04813009F064C0CA
:102A500010929A1721CD93E0C916D104E104F10434
:102A600099F52CE333E143E050E060E070E087E368
:102A700094E00E941C04813009F048C21092731740
:102A80001092801710928D1710929A1761E090E0C3
:102A900080E00E94691B62E090E080E00E94691B78
:102AA00063E090E080E00E94691B64E090E080E0D9
:102AB0000E94691B80E00E94100A1092F10410929B
:102AC000F0040E94A709E8CCA5E0CA16D104E104ED
:102AD000F10409F059C02CE333E145E050E060E037
:102AE00070E08EE294E00E941C04813009F032C153
:102AF0000E94100AD1CC2CE333E146E050E060E0C4
:102B000070E084E394E00E941C04813009F022C14B
:102B100080E00E94100A93CE2CE333E147E050E0BE
:102B200060E070E08BE394E00E941C04813009F0C7
:102B300011C12BE030E040E050E067EC72E084E24D
:102B40009BE00E941D03E3E7F7E1FA83E98307EACC
:102B500017E1A981BA818C916DE2813041F4E9815C
:102B6000FA818781908563E4892B09F066E584E228
:102B70009BE00E94E60289819A810D969A8389835F
:102B80000817190731F740CD98E0C916D104E104C0
:102B9000F10408F4D8C02CE333E148E050E060E0F1
:102BA00070E083E494E00E941C04813089F4B70152
:102BB000A601485051096109710984E493E10E941A
:102BC0004E03262F61E0822F972F0E94691B37CE7C
:102BD0002CE333E148E050E060E070E08CE494E006
:102BE0000E941C04813069F4B701A60148505109C4
:102BF0006109710984E493E10E944E03262F62E08B
:102C0000E2CF2CE333E148E050E060E070E085E59E
:102C100094E00E941C04813069F4B701A601485079
:102C200051096109710984E493E10E944E03262F42
:102C300063E0C9CF2CE333E148E050E060E070E0AE
:102C40008EE594E00E941C04813089F4B701A6014E
:102C5000485051096109710984E493E10E944E03CF
:102C6000262F64E0822F972F0E94691B15CC2CE33E
:102C700033E148E050E060E070E087E694E00E94D5
:102C80001C04813089F4B701A6014850510961093B
:102C9000710984E493E10E944E03262F61E0822FA4
:102CA000972F0E94BB1BCBCD2CE333E148E050E0D3
:102CB00060E070E080E794E00E941C04813069F4D9
:102CC000B701A601485051096109710984E493E1F3
:102CD0000E944E03262F62E0E2CF2CE333E148E06E
:102CE00050E060E070E089E794E00E941C048130CD
:102CF00069F4B701A601485051096109710984E4DA
:102D000093E10E944E03262F63E0C9CF2CE333E109
:102D100048E050E060E070E082E894E00E941C042B
:102D20008130C1F4B701A601485051096109710908
:102D300084E493E10E944E03262F64E0822F972FB4
:102D40000E94BB1BA9CBA4E0CA16D104E104F10484
:102D500008F47DC02CE333E144E050E060E070E033
:102D60008EE894E00E941C04813019F40E94510AFC
:102D700093CBB7E0CB16D104E104F104D0F02CE3FF
:102D800033E147E050E060E070E08BE894E00E94BF
:102D90001C04813009F01FC1B701A6014750510939
:102DA0006109710983E493E10E944E030E94D709EF
:102DB00046CDE5E0CE16D104E104F10421F52CE383
:102DC00033E145E050E060E070E083E994E00E9488
:102DD0001C04813069F50E94B1005ECB2CE333E125
:102DE00049E050E060E070E089E994E00E941C0452
:102DF0008130A1F5109273171092801710928D17E1
:102E000010929A171CCDF6E0CF16D104E104F1041C
:102E1000F1F42CE333E146E050E060E070E083EA57
:102E200094E00E941C048130C9F40E94120134CB4A
:102E30002CE333E145E050E060E070E087EB94E0A4
:102E40000E941C04813051F40C94000025CB85E0D5
:102E5000C816D104E104F10408F444C02CE333E1C2
:102E600045E050E060E070E088E493E00E941C04DC
:102E7000813011F5B701A601455051096109710969
:102E800081E493E10E944E0369837A838B839C8360
:102E900089819A81AB81BC81892B8A2B8B2B51F044
:102EA00081E00E94100A69817A818B819C810E9455
:102EB000D709F2CA80E0F5CF97E0C916D104E10442
:102EC000F10409F061C02CE333E147E050E060E039
:102ED00070E08DEB94E00E941C04813011F50E949B
:102EE000450ADACAA4E0CA16D104E104F10409F0E3
:102EF00052C02CE333E144E050E060E070E085EC48
:102F000094E00E941C04813009F430CF27E030E0C7
:102F100040E050E06DED72E084E29BE00E941D0312
:102F200078CB2CE333E147E050E060E070E08AECDE
:102F300094E00E941C04813019F40E945D0AACCA1E
:102F40002CE333E147E050E060E070E082ED94E094
:102F50000E941C048130D1F60E94690A9DCAEBE0F0
:102F6000CE16D104E104F10489F62CE333E14BE001
:102F700050E060E070E083EE94E00E941C04813039
:102F800029F60E94980A88CAF4E0CF16D104E10419
:102F9000F10409F4AECFB8E0CB16D104E104F1049A
:102FA00008F4B4CF2CE333E148E050E060E070E097
:102FB0008AED94E00E941C04813089F6B701A601D5
:102FC000485051096109710984E493E10E944E035C
:102FD0000E94750A61CA89E0C816D104E104F104AF
:102FE00009F4FCCE9CE0C916D104E104F10409F017
:102FF00035CF2CE333E14CE050E060E070E08AEA4A
:1030000094E00E941C04813009F028CF10920B0537
:1030100010920A0580E00E94A40A3ECA1F921FB6C1
:103020001F9211240F931F932F933F934F935F93FE
:103030006F937F938F939F93AF93BF9380914F171D
:1030400090915017A0915117B091521700914B17C2
:1030500010914C1720914D1730914E17B901A801CE
:103060004E5E5F4F6F4F7F4F4D37510561057105C4
:10307000C0F58A5F9E4FAF4FBF4F00914717109129
:1030800048172091491730914A170F5F1F4F2F4F54
:103090003F4F0093471710934817209349173093D9
:1030A0004A1780934F1790935017A0935117B093DE
:1030B000521740934B1750934C1760934D177093D2
:1030C0004E17BF91AF919F918F917F916F915F91BB
:1030D0004F913F912F911F910F911F901FBE1F90F5
:1030E0001895B901A8014B56510961097109895F09
:1030F0009E4FAF4FBF4FC1CFCF93DF9300D00F9202
:10310000CDB7DEB72FB7F894809147179091481745
:10311000A0914917B0914A1746B550E070E060E0C1
:10312000A89B08C04F3F51056105710519F0019634
:10313000A11DB11D2FBFBA2FA92F982F8827840F4B
:10314000951FA61FB71F9C01AD0162E0220F331F20
:10315000441F551F6A95D1F7CA01B9010F900F900E
:103160000F900F90DF91CF910895CF92DF92EF9261
:10317000FF92CF93DF9300D000D0CDB7DEB76B01C5
:103180007C010E947C186D837E83C114D104E1040C
:10319000F10469F426960FB6F894DEBF0FBECDBFDA
:1031A000DF91CF91FF90EF90DF90CF9008950E9434
:1031B0007C1869837A838B839C8389819A812D8192
:1031C0003E81821B930B883E9340F8F28D819E8155
:1031D00088519C4F9E838D8391E0C91AD108E108E4
:1031E000F108D3CF15BC16BC14BC81E085BB80931D
:1031F0006E0083E085BD08952F932FB72F932BB7D3
:103200002F933F934F935F938F939F93AF93BF936E
:10321000CF93DF93EF93FF93CCE7D0E02881ABE728
:10322000B0E09C91822F8770392F3870832B815F9B
:103230008F704091780050917900E82FF0E0EE0F08
:10324000FF1FED5AF84E518340838E5F382F377041
:10325000207E232B2883977F8870982B9C93FF9147
:10326000EF91DF91CF91BF91AF919F918F915F913E
:103270004F913F912F912BBF2F912FBF2F911895D9
:10328000CF93CFB7F89440E250E06FEF70E083E562
:1032900097E10E948A1FE4E6F0E080818E7F8083C0
:1032A00080E480937C0010927B00EAE7F0E08FEBF3
:1032B0008083CFBF808180648083CF91089580B167
:1032C000E3E7F7E18695869591E08927817087830A
:1032D0001086A3E5B7E12D913C91119732872187A4
:1032E00012962D913C9113973487238780B1829554
:1032F00086958695837089278170848B158A1496AC
:103300002D913C911597378B268B16962D913C91DC
:103310001797318F208F86B1829586958770892780
:10332000817081A312A218962D913C91199734A314
:1033300023A31A962D913C911B9736A325A386B102
:1033400086958927817086A717A61C968D919C91DA
:103350001D9791AB80AB1E968D919C9193AB82ABE8
:1033600008951F93CF93DF9392B188B170918D1719
:10337000A0918E17B0918F1760918017E0918117FF
:10338000F09182173091731740917417509175170F
:1033900010919A17C0919B17D0919C1720E0223072
:1033A00019F1233061F12130A1F0313071F49160D5
:1033B0004115510561F49D7F2F5F243081F792B94B
:1033C00088B9DF91CF911F9108959E7FF1CF9260D0
:1033D000F3CF613029F49061309721F49F7DECCFD9
:1033E0009F7EFACF9062E8CF713029F48068109701
:1033F00021F48F7BE1CF8F77FACF8064DDCF11305E
:1034000029F48860209721F48B7FD6CF877FFACF6D
:103410008460D2CF9C0192B188B12230310581F114
:103420003CF42115310541F021303105C1F00895FA
:1034300023303105B1F1089520917317213059F4EB
:1034400091602091741730917517232B31F49D7F73
:1034500092B988B908959E7FF4CF9260F9CF2091F8
:103460008017213049F490612091811730918217A3
:10347000232B21F49F7DECCF9F7EF6CF9062E8CF87
:1034800020918D17213049F4806820918E1730915A
:103490008F17232B21F48F7BDBCF8F77F6CF8064C0
:1034A000D7CF20919A17213049F4886020919B173B
:1034B00030919C17232B21F48B7FCACF877FF6CFC7
:1034C0008460C6CF2FB7F89483E381B982E282B9D2
:1034D0008CEC87B980E488B98FEF80930A01109251
:1034E0000B0180E88AB91BB8E3E7F7E1108281E0BD
:1034F00090E092838183148213821682158215864E
:1035000097878687118A108A138A128A128E948F5F
:10351000838F168E158E10A2178E17A211A610A6D5
:1035200013A612A615A614A62FBF62E070E080E0D5
:1035300090E00E94B5180C945F191F920F920FB67D
:103540000F9211240BB60F922F933F934F935F93DB
:103550008F939F93AF93BF93CF93DF93EF93FF939B
:10356000AAEBB7E1C7EAD7E190E02D913D912F5F3B
:103570003F4F3370FD013297318320834991599138
:103580002417350708F459C0973008F052C0E92FC6
:10359000F0E08827ED56F04E8F4F0C94CC1D8091B3
:1035A0000B018F7780930B019F5F9830F1F680912C
:1035B000CA179091CB1701968F7799279093CB17C5
:1035C0008093CA172091B7173091B81782179307C5
:1035D00020F48091B91781115AC05F98FF91EF9143
:1035E000DF91CF91BF91AF919F918F915F914F915B
:1035F0003F912F910F900BBE0F900FBE0F901F9019
:10360000189580910B018F7BCDCF80910B018F7D21
:10361000C9CF80910B018F7EC5CF80910B01877F31
:10362000C1CF80910B018B7FBDCF80910B018D7F2E
:10363000B9CF80910B018E7FB5CF973020F5E92F60
:10364000F0E08827E656F04E8F4F0C94CC1D809109
:103650000B018068A7CF80910B018064A3CF80917C
:103660000B0180629FCF80910B0180619BCF809185
:103670000B01886097CF80910B01846093CF80917C
:103680000B0182608FCF80910B0181608BCF5F9A9D
:10369000A5CF9FB7F89482E1EAEBF7E1DF01282F8D
:1036A0001D922A95E9F7E7EAF7E1DF011D928A9575
:1036B000E9F71092B9171092B20082E08093B0003F
:1036C0008093B3008093700086E08093B1009FBF29
:1036D0000895CF93DF9300D00F920F92CDB7DEB74E
:1036E0006D839C0150E040E029833A834B835C83E7
:1036F000CA01B9010E948F1E2DE531E44CE450E46B
:1037000069837A838B839C8369817A818B819C8195
:103710000E94EE1D69837A838B839C8369817A8101
:103720008B819C810E94601E3D813330F9F060F4F2
:10373000313091F03230A9F00F900F900F900F9030
:103740000F90DF91CF9108954D814430A9F7709388
:10375000B4176093B317F0CF7093A8176093A717AF
:10376000EBCF7093AC176093AB17E6CF7093B017A5
:103770006093AF17E1CFCF93DF9300D00F920F92FA
:10378000CDB7DEB76D839C0150E040E029833A83DA
:103790004B835C83CA01B9010E948F1E28E93EED6C
:1037A0004AE75FE369837A838B839C8369817A81AB
:1037B0008B819C810E94EE1D69837A838B839C831D
:1037C00069817A818B819C810E94601E3D813330AA
:1037D000F9F060F4313091F03230A9F00F900F9091
:1037E0000F900F900F90DF91CF9108954D8144304D
:1037F000A9F77093B6176093B517F0CF7093AA1717
:103800006093A917EBCF7093AE176093AD17E6CF17
:103810007093B2176093B117E1CF00D00F92CDB77C
:10382000DEB7F89481E090E090930B0580930A0551
:1038300083E381B982E282B98CEC87B980E488B9EC
:103840008FEF80930A0180930B0180E88AB91BB83F
:10385000279A2F980E94F2180E94B3040E945505DF
:103860000E94F30578940E9440190E94621A0E94F7
:10387000491B1092F1041092F0040E94B80A0E94B1
:1038800063110E9491060E945F190E94B1190E9463
:103890007C186B017C018091060590910705A09131
:1038A0000805B091090546015701881A990AAA0A24
:1038B000BB0A8C159D05AE05BF0528F021E0821AD4
:1038C0009108A108B1082091F0043091F10421156C
:1038D000310509F444C0C9018D7F019709F03FC04B
:1038E00080910405909105054091FA045091FB04E4
:1038F0004817590709F475C02130310509F071C026
:1039000030E9831630ED930633E0A306B10438F1B5
:10391000892B09F44EC080910405909105052091F2
:10392000FA043091FB0405962817390708F4C901F9
:1039300090930505809304059C0150E040E02983A5
:103940003A834B835C83CA01B9010E94D709C092B4
:103950000605D0920705E0920805F09209058091CE
:103960000A0590910B05892B09F487CFA2EFB4E0EB
:10397000E3E7F7E18D919D91892B09F4E3C0189657
:103980008D919C911997892B09F4DCC087819085D2
:10399000892B09F0D7C00E94410910927317109229
:1039A000801710928D1710929A1780E00E94100ACB
:1039B00060CF81E00E94100A61E084E893E00E94F9
:1039C000BB1B62E084E893E00E94BB1B63E084E8D9
:1039D00093E00E94BB1B64E084E893E00E94BB1B61
:1039E0009ACFA091FC04B091FD04E091FE04F09107
:1039F000FF0460910005709101054091020550910E
:103A00000305CD018E2B9F2B862B972B842B952B7B
:103A1000892BB9F530E8831636E9930638E9A30611
:103A2000B10408F49CCF02EF14E093E7A92E97E1CC
:103A3000B92E99249394F801828593850E5F1F4FC8
:103A40002081318105962817390708F4C901F8014A
:103A500091878087692D0E94691B81E0F801329768
:103A600020813181232B09F480E0F50180830E94BD
:103A70004E089394FDE0AF0EB11C25E09212DBCF0F
:103A800066CF8091F2049091F304A817B907A9F4C6
:103A90008091F4049091F504E817F90771F480918E
:103AA000F6049091F7046817790739F48091F804C7
:103AB0009091F9044817590731F130E983163FE531
:103AC000930631E0A306B10408F449CF02EF14E0F5
:103AD000BB24B394F801828593850E5F1F4F20812C
:103AE000318105962817390708F4C901F801918733
:103AF00080876B2D0E94691B0E944E08B394F5E0ED
:103B0000BF12E8CF24CF1092F1041092F0042330BA
:103B10003105A9F483E7E82E87E1F82E11E0612F43
:103B200090E080E00E94691BF70110821F5FFDE0BA
:103B3000EF0EF11C153099F70E94110910CF0E9469
:103B400029090DCF3D9627EA37E12E173F0709F0E7
:103B500011CF93CEA1E21A2EAA1BBB1BFD010DC0F3
:103B6000AA1FBB1FEE1FFF1FA217B307E407F5072D
:103B700020F0A21BB30BE40BF50B661F771F881F09
:103B8000991F1A9469F760957095809590959B019F
:103B9000AC01BD01CF010895EE0FFF1F881F8BBF41
:103BA0000790F691E02D19940E94DF1DA59F900DBE
:103BB000B49F900DA49F800D911D11240895A29F84
:103BC000B001B39FC001A39F700D811D1124911DF1
:103BD000B29F700D811D1124911D08950E94021E37
:103BE0000C94E31E0E94DC1E58F00E94D51E40F08B
:103BF00029F45F3F29F00C94CC1E51110C94171F2F
:103C00000C94D21E0E94F41E68F39923B1F355233D
:103C100091F3951B550BBB27AA27621773078407DF
:103C200038F09F5F5F4F220F331F441FAA1FA9F375
:103C300035D00E2E3AF0E0E832D091505040E69563
:103C4000001CCAF72BD0FE2F29D0660F771F881FC4
:103C5000BB1F261737074807AB07B0E809F0BB0BB7
:103C6000802DBF01FF2793585F4F3AF09E3F5105CB
:103C700078F00C94CC1E0C94171F5F3FE4F3983E31
:103C8000D4F3869577956795B795F7959F5FC9F7B4
:103C9000880F911D9695879597F90895E1E0660F35
:103CA000771F881FBB1F621773078407BA0720F0AE
:103CB000621B730B840BBA0BEE1F88F7E095089517
:103CC0000E94FC1E88F09F5798F0B92F9927B75192
:103CD000B0F0E1F0660F771F881F991F1AF0BA95B0
:103CE000C9F714C0B13091F00E94161FB1E00895D9
:103CF0000C94161F672F782F8827B85F39F0B93FCB
:103D0000CCF3869577956795B395D9F73EF4909562
:103D10008095709561957F4F8F4F9F4F0895E894E0
:103D200009C097FB3EF490958095709561957F4F03
:103D30008F4F9F4F9923A9F0F92F96E9BB279395B1
:103D4000F695879577956795B795F111F8CFFAF4C1
:103D5000BB0F11F460FF1BC06F5F7F4F8F4F9F4FF2
:103D600016C0882311F096E911C0772321F09EE850
:103D7000872F762F05C0662371F096E8862F70E0B6
:103D800060E02AF09A95660F771F881FDAF7880F90
:103D90009695879597F9089597F99F6780E870E061
:103DA00060E008959FEF80EC089500240A941616B1
:103DB000170618060906089500240A941216130619
:103DC000140605060895092E0394000C11F48823A7
:103DD00052F0BB0F40F4BF2B11F460FF04C06F5FC3
:103DE0007F4F8F4F9F4F089557FD9058440F551F99
:103DF00059F05F3F71F04795880F97FB991F61F06D
:103E00009F3F79F087950895121613061406551FE3
:103E1000F2CF4695F1DF08C0161617061806991F4F
:103E2000F1CF86957105610508940895E894BB2744
:103E300066277727CB0197F908950E94301F0C94CD
:103E4000E31E0E94D51E38F00E94DC1E20F0952350
:103E500011F00C94CC1E0C94D21E11240C94171F3C
:103E60000E94F41E70F3959FC1F3950F50E0551F0B
:103E7000629FF001729FBB27F00DB11D639FAA27BF
:103E8000F00DB11DAA1F649F6627B00DA11D661F0E
:103E9000829F2227B00DA11D621F739FB00DA11D2F
:103EA000621F839FA00D611D221F749F3327A00DE9
:103EB000611D231F849F600D211D822F762F6A2F85
:103EC00011249F5750409AF0F1F088234AF0EE0FEA
:103ED000FF1FBB1F661F771F881F91505040A9F717
:103EE0009E3F510580F00C94CC1E0C94171F5F3F31
:103EF000E4F3983ED4F3869577956795B795F79553
:103F0000E7959F5FC1F7FE2B880F911D96958795CA
:103F100097F90895DC0101C06D9341505040E0F7DE
:103F20000895F894FFCFCF1A011B051B091B0D1B29
:103F3000111B151B271B2B1B2F1B331B371B3B1B5D
:023F40003F1B25
:103F4200242424656E61626C6570726F746563749B
:103F5200696F6E0A0024242464697361626C65705F
:103F6200726F74656374696F6E0A0024242461643D
:103F72006363616C73746F72650A00242424616444
:103F82006363616C683A0024242461646363616C36
:103F9200300A00242424676574616463300A0024B3
:103FA2002424676574610A00242424676574736598
:103FB20074610A00242424736574613A0024242461
:103FC2007665720A0024242469640A002424246F7A
:103FD20066660A00242424696E73756C6661696CD6
:103FE20065643A002424246265616D6F6E0A0024C0
:103FF2002424696E73756C6F6B0A0024242466692D
:104002006C736574613A002424247073757374614F
:1040120074650024242461002424247600242424AA
:104022006572720A00242424656C656374726F6E73
:104032006374726C5F32303232313032315F303021
:10404200310A00242424707375737461746500242A
:104052002424610024242476002424246572720A14
:1040620000242424656C656374726F6E6374726CD1
:104072005F32303232313032315F3030310A0069F2
:10408200643A007665723A00736574613A0061645D
:1040920063303A0072613A006F6B006572720069B8
:1040A2006400707375676574763100707375676547
:1040B2007476320070737567657476330070737549
:1040C200676574763400707375676574613100706A
:1040D20073756765746132007073756765746133F7
:1040E20000707375676574613400707375706F6CFE
:1040F200317000707375706F6C316E007073757013
:104102006F6C327000707375706F6C326E0070730A
:1041120075706F6C337000707375706F6C336E00F6
:10412200707375706F6C347000707375706F6C346F
:104132006E007073756F6E31007073756F666631E5
:10414200007073756F6E32007073756F6666320041
:104152007073756F6E33007073756F6666330070BF
:1041620073756F6E34007073756F666634006669BE
:104172006C6F6E0066696C6F6666007073756D6F4A
:10418200646500707375736574763100707375734E
:10419200657476320070737573657476330070736C
:1041A200757365747634007073757365746131006C
:1041B20070737573657461320070737573657461C1
:1041C2003300707375736574613400736574666966
:1041D2006C6100696E73756C006265616D68766F03
:1041E2006666006265616D6F6E006E6F70726F74ED
:1041F200656374696F6E00726573657400676574D8
:1042020073657461006765746100676574616463F6
:10421200300061646363616C300061646363616C8C
:10422200683A0061646363616C73746F7265000065
:00000001FF
