:100000000C9472000C9493000C9493000C94930045
:100010000C9493000C9493000C9493000C94930014
:100020000C9493000C9493000C9493000C94930004
:100030000C9493000C94420D0C9493000C94930038
:100040000C9493000C9493000C9493000C949300E4
:100050000C9493000C9493000C9493000C94B20AAB
:100060000C9493000C9466030C9498030C949300E6
:100070000C9493000C94A00B0C9493000C9493009C
:100080000C9493000C9493000C9493000C949300A4
:100090000C9493000C9493000C9493000C94930094
:1000A0000C9493000C9493000C9493000C94930084
:1000B0000C9493000C9493000C9493000C94930074
:1000C0000C9493000C9493000C9493000C94930064
:1000D0000C9493000C9493000C9493000C94930054
:1000E0000C94930011241FBECFEFD1E2DEBFCDBF31
:1000F00000E00CBF13E0A0E0B2E0EEECF3E200E0C1
:100100000BBF02C007900D92A43AB107D9F720E1C6
:10011000A4EAB3E001C01D92A535B207E1F70E9441
:10012000A60E0C94E5110C9400000F931F93CF932F
:100130000FE010E1C1E0D8011C926C2F90E080E04C
:100140000E94F30D6C2F85E090E00E94450E035F46
:100150001F4FCF5FC53079F780E00E94A30E90E07B
:1001600080E00E94970E83E090E09093C607809312
:10017000C50782EE97E09093C8078093C70784EE87
:1001800097E09093CA078093C90780E197E0909326
:10019000CC078093CB071092CE071092CD07109218
:1001A000D0071092CF071092D2071092D107109269
:1001B000D4071092D3071092D6071092D507109249
:1001C000D8071092D7071092DA071092D9070E9429
:1001D000200B6093DB077093DC078093DD0790931F
:1001E000DE07CF911F910F9108950F931F93CF9327
:1001F0000FE010E1C1E0D8011C926C2F90E080E08C
:100200000E94F30D6C2F85E090E00E94450E035F85
:100210001F4FCF5FC53079F780E00E94A30E81E0C9
:1002200090E09093C6078093C50782EE97E0909385
:10023000C8078093C70784EE97E09093CA0780931E
:10024000C90780E197E09093CC078093CB07109289
:10025000CE071092CD078FE090E09093D007809367
:10026000CF071092D2071092D1071092D4071092A4
:10027000D3071092D6071092D5071092D807109284
:10028000D7071092DA071092D9070E94200B6093CB
:10029000DB077093DC078093DD079093DE0790E027
:1002A00080E0CF911F910F910C94970E0F931F93A5
:1002B000FC0180819181A281B38104811581268115
:1002C00037810196A11DB11D9370AA27BB27801706
:1002D0009107A207B307B9F080819181A281B38110
:1002E0008E0F9F1FDC0118966C9380819181A281F3
:1002F000B3810196A11DB11D9370AA27BB278083EE
:100300009183A283B3831F910F9108958F929F923F
:10031000AF92BF92CF92DF92EF92FF92CF93DF9393
:1003200000D00F920F92CDB7DEB76A017B01FC01BE
:1003300019821A821B821C82812C912C54018C14EC
:100340009D04AE04BF04A1F469817A818B819C81F4
:100350000F900F900F900F900F90DF91CF91FF9023
:10036000EF90DF90CF90BF90AF909F908F900895C7
:10037000219120532D832A3098F4AAE0B0E02981FE
:100380003A814B815C810E942F10DC01CB012D81D1
:10039000820F911DA11DB11D89839A83AB83BC83FC
:1003A0008FEF881A980AA80AB80AC9CF0F931F932B
:1003B0008A01FC01A4EAB3E0080F191F81912D9175
:1003C000082E000C990B2817190639F4E017F107CD
:1003D000A9F781E01F910F91089580E0FBCF8F92E4
:1003E0009F92AF92BF92CF92DF92EF92FF920F93C4
:1003F0001F93CF93DF93CDB7DEB72E970FB6F89448
:10040000DEBF0FBECDBF6B877C878D879E878B85B8
:100410009C85AD85BE85892B8A2B8B2BB9F460E337
:1004200087EE9BE02E960FB6F894DEBF0FBECDBFD1
:10043000DF91CF911F910F91FF90EF90DF90CF90C0
:10044000BF90AF909F908F900C94560100E0DE011A
:1004500011967D018AE0882E912CA12CB12C670188
:10046000C00ED11C6B857C858D859E85A501940170
:100470000E940D10605DF60160830F5F8B859C8587
:10048000AD85BE852B873C874D875E870A97A10582
:10049000B10528F70E0D1F2D111DE016F10699F478
:1004A0002E960FB6F894DEBF0FBECDBFDF91CF9171
:1004B0001F910F91FF90EF90DF90CF90BF90AF9082
:1004C0009F908F900895D8016E918D0187EE9BE0EB
:1004D0000E945601E2CF0F931F93CF93DF938A01BF
:1004E000EC01080F191F699187EE9BE00E945601ED
:1004F000C017D107C1F7DF91CF911F910F910895D8
:100500000F931F93CF93DF9300D00F92CDB7DEB739
:100510004091DF075091E0076091E1077091E20799
:100520008091E3079091E407A091E507B091E60779
:10053000481759076A077B0738F14091DF07509148
:10054000E0076091E1077091E2078091E3079091E5
:10055000E407A091E507B091E6078A019B01081B1B
:10056000190B2A0B3B0B09831A832B833C8369816C
:100570007A818B819C810F900F900F900F90DF916B
:10058000CF911F910F9108958091DF079091E0071F
:10059000A091E107B091E2074091E3075091E40791
:1005A0006091E5077091E6079C5FAF4FBF4F8C01EC
:1005B0009D01041B150B260B370BD5CFCF92DF9275
:1005C000EF92FF92CF93DF9300D00F92CDB7DEB7BB
:1005D0006B017C014091DF075091E0076091E107DA
:1005E0007091E2078091E3079091E407A091E507FD
:1005F000B091E607481759076A077B0761F480E066
:100600000F900F900F900F90DF91CF91FF90EF9090
:10061000DF90CF9008950E94800269837A838B8354
:100620009C83C616D706E806F90648F78091E307CB
:100630009091E407A091E507B091E6078C0D9D1D10
:10064000AE1DBF1D6C017D0123E0D222EE24FF24EC
:10065000F601E152F84F8085D3CF9FB7F894E0ECD4
:10066000F0E0808180648083E1ECF0E0808188624A
:1006700080839FBF08958FB7F894E7EEFBE0108268
:100680001182128213821482158216821782EFED74
:10069000F7E0108211821282138214821582168270
:1006A00017821092A5071092A40727E630E0309336
:1006B000C5002093C40092E09093C00090E990930D
:1006C000C10096E09093C2008FBF08951F920F92D1
:1006D0000FB60F9211240BB60F922F933F934F93A7
:1006E0005F936F937F938F939F93AF93BF93EF939A
:1006F000FF936091C6008FED97E00E94560181E064
:1007000090E09093A5078093A407FF91EF91BF918C
:10071000AF919F918F917F916F915F914F913F9199
:100720002F910F900BBE0F900FBE0F901F9018953A
:100730001F921FB61F9211242F932BB72F934F9305
:100740005F936F937F938F939F93AF93BF93EF9339
:10075000FF934091E70B5091E80B6091E90B70918A
:10076000EA0B8091EB0B9091EC0BA091ED0BB0910B
:10077000EE0B481759076A077B0709F44BC04091F5
:10078000E70B5091E80B6091E90B7091EA0B8091B7
:10079000EB0B9091EC0BA091ED0BB091EE0B20E0E8
:1007A000481759076A077B0711F18091EB0B90916D
:1007B000EC0BA091ED0BB091EE0B8951944FFC0125
:1007C00020858091EB0B9091EC0BA091ED0BB091FB
:1007D000EE0B0196A11DB11D9370AA27BB27809334
:1007E000EB0B9093EC0BA093ED0BB093EE0B2093DF
:1007F000C600FF91EF91BF91AF919F918F917F9133
:100800006F915F914F912F912BBF2F911F901FBE22
:100810001F9018958091C100877D8093C100E9CF1A
:10082000CF92DF92EF92FF920F931F93CF93DF93BC
:1008300000D000D00F920F92CDB7DEB70E94800299
:100840006D837E838F839887633071058105910561
:1008500080F528960FB6F894DEBF0FBECDBFDF91AE
:10086000CF911F910F91FF90EF90DF90CF9008955F
:100870000E9480026D837E838F8398876430710528
:1008800081059105D8F18091E3079091E407A0914B
:10089000E507B091E6070196A11DB11D9370AA2747
:1008A000BB278093E3079093E407A093E507B093F9
:1008B000E6074091DF075091E0076091E1077091F2
:1008C000E2078091E3079091E407A091E507B091DA
:1008D000E607481759076A077B0751F28091E3073B
:1008E0009091E407A091E507B091E6078152984FF7
:1008F000DC0118968C91843209F0BACF0E948002F4
:10090000653071058105910508F4A3CF60E070E0C2
:10091000CB010E94DE02843209F4C1C00E94800231
:100920006D837E838F83988765307105810591057E
:1009300008F09EC00E948002653071058105910516
:1009400008F487CF0E9480026B017C0123E030E035
:1009500040E050E02D833E834F8358872D813E81B8
:100960004F8158852C153D054E055F0508F071CF68
:10097000CA01B9010E94DE028A3049F06D817E8190
:100980008F8198850E94DE02843209F0A4C06D81B7
:100990007E818F8198850E94DE028A3009F034C200
:1009A0008091E3079091E407A091E507B091E607F5
:1009B0000396A11DB11D9370AA27BB278093E3075F
:1009C0009093E407A093E507B093E607CD80DE801F
:1009D000EF80F88433E0C31AD108E108F1088D8173
:1009E0009E81AF81B8850497A109B109BC01CD01F1
:1009F0000E94DE0241E050E060E070E08D3019F0CE
:100A000040E050E0BA01C41AD50AE60AF70A0E948B
:100A1000800269837A838B839C836C157D058E05A8
:100A20009F0558F0E4EAF3E040E050E0BA01C41654
:100A3000D506E606F70609F05AC092E0C916D104B9
:100A4000E104F10409F07CC042E050E060E070E0B5
:100A500088E592E00E94D601813009F05EC44DE144
:100A600050E060E070E08AE392E00E946B02DDC03B
:100A70008091E3079091E407A091E507B091E60724
:100A80000196A11DB11D9370AA27BB278093E30790
:100A90009093E407A093E507B093E60737CF61E0B2
:100AA00070E080E090E00E94DE02843209F036CFF0
:100AB00062E070E080E090E00E94DE02843209F0A3
:100AC0002DCF63E070E080E090E00E94DE0284328F
:100AD00009F424CF2FCF8D819E81AF81B8850196F7
:100AE000A11DB11D8D839E83AF83B88737CF8091C1
:100AF000E3079091E407A091E507B091E6078152E2
:100B0000984FDC0118962C918091E3079091E407AF
:100B1000A091E507B091E6070196A11DB11D937064
:100B2000AA27BB278093E3079093E407A093E507E8
:100B3000B093E60721934F5F5F4F6F4F7F4F77CFA3
:100B4000B8E0CB16D104E104F10409F0F4C148E0A7
:100B500050E060E070E08BE592E00E94D6018130C9
:100B600009F066C0F894E091EF0FF091F00FFA836E
:100B7000E983789444E050E060E070E08DE292E038
:100B80000E946B0261E387EE9BE00E9456016AE3DC
:100B900087EE9BE00E94560149815A819A0150E0FC
:100BA00040E029833A834B835C83CA01B9010E94E8
:100BB000EA102AE83FE14BE450E469837A838B83AF
:100BC0009C8369817A818B819C810E94781125E8C0
:100BD0003BEE41E85FE369837A838B839C83698181
:100BE0007A818B819C810E94781169837A838B83BF
:100BF0009C8369817A818B819C810E94BB1069836F
:100C00007A838B839C83A981BA81CD01B0E0A0E077
:100C100089839A83AB83BC83BC01CD010E94EF0121
:100C20006AE087EE9BE00E9456010E942D03ECC013
:100C300048E050E060E070E084E692E00E94D60177
:100C4000813091F4F894E091F30FF091F40FFA836E
:100C5000E983789444E050E060E070E08DE292E057
:100C60000E946B0262E38FCF48E050E060E070E0EA
:100C70008DE692E00E94D601813091F4F894E091E3
:100C8000F70FF091F80FFA83E983789444E050E08D
:100C900060E070E08DE292E00E946B0263E373CF4C
:100CA00048E050E060E070E086E792E00E94D60104
:100CB000813091F4F894E091FB0FF091FC0FFA83EE
:100CC000E983789444E050E060E070E08DE292E0E7
:100CD0000E946B0264E357CF48E050E060E070E0B0
:100CE0008FE792E00E94D601813061F5F894E0919F
:100CF000F10FF091F20FFA83E983789444E050E029
:100D000060E070E088E292E00E946B0261E387EEAF
:100D10009BE00E9456016AE387EE9BE00E94560129
:100D200049815A819A0150E040E029833A834B83FC
:100D30005C83CA01B9010E94EA1020E030E44CE172
:100D400051E449CF48E050E060E070E088E892E08C
:100D50000E94D601813091F4F894E091F50FF09162
:100D6000F60FFA83E983789444E050E060E070E0A5
:100D700088E292E00E946B0262E3C9CF48E050E053
:100D800060E070E081E992E00E94D601813091F448
:100D9000F894E091F90FF091FA0FFA83E9837894CF
:100DA00044E050E060E070E088E292E00E946B0274
:100DB00063E3ADCF48E050E060E070E08AE992E0A4
:100DC0000E94D601813091F4F894E091FD0FF091EA
:100DD000FE0FFA83E983789444E050E060E070E02D
:100DE00088E292E00E946B0264E391CF48E050E019
:100DF00060E070E083EA92E00E94D601813049F51C
:100E000010921110109210106D817E818F81988543
:100E10000E94DE02843209F01CCD8091E30790919C
:100E2000E407A091E507B091E6072D813E814F814F
:100E30005885820F931FA41FB51F9370AA27BB2745
:100E40008093E3079093E407A093E507B093E60748
:100E500000CD48E050E060E070E08CEA92E00E9453
:100E6000D601813039F481E090E0909311108093A5
:100E70001010CACF48E050E060E070E085EB92E0EF
:100E80000E94D601813029F410921E1010921D107C
:100E9000BBCF48E050E060E070E08EEB92E00E9453
:100EA000D601813039F481E090E090931E10809358
:100EB0001D10AACF48E050E060E070E087EC92E0BF
:100EC0000E94D601813029F410922B1010922A1022
:100ED0009BCF48E050E060E070E080ED92E00E943F
:100EE000D601813039F481E090E090932B1080930B
:100EF0002A108ACF48E050E060E070E089ED92E08F
:100F00000E94D601813029F41092381010923710C7
:100F10007BCF48E050E060E070E082EE92E00E941B
:100F2000D601813009F031C181E090E09093381012
:100F30008093371069CFB6E0CB16D104E104F104F9
:100F400069F446E050E060E070E08BEE92E00E94D1
:100F5000D6018130B9F480930F1056CFE7E0CE165A
:100F6000D104E104F10409F05DC047E050E060E025
:100F700070E082EF92E00E94D601813081F41092FD
:100F80000F1042CF46E050E060E070E08AEF92E060
:100F90000E94D601813081F480931C1035CF47E048
:100FA00050E060E070E081E093E00E94D601813083
:100FB00081F410921C1028CF46E050E060E070E011
:100FC00089E093E00E94D601813081F4809329105A
:100FD0001BCF47E050E060E070E080E193E00E94CA
:100FE000D601813089F4109229100ECF46E050E0EE
:100FF00060E070E088E193E00E94D601813009F062
:1010000040C08093361000CF47E050E060E070E0D1
:101010008FE193E00E94D601813009F07AC01092EE
:101020003610F2CEF3E0CF16D104E104F104A9F4B6
:1010300043E050E060E070E080E393E00E94D6017E
:10104000813009F06AC110920F1010921C1010929A
:1010500029101092361080E011C025E0C216D1048C
:10106000E104F10409F08AC045E050E060E070E07E
:1010700087E293E00E94D601813069F40E94A30EBA
:10108000C3CE46E050E060E070E08DE293E00E9465
:10109000D601813001F344E050E060E070E087E881
:1010A00093E00E94D601813009F041C1F894E090AC
:1010B000FF0FF09000107894E11452E0F50608F06C
:1010C00033C120E032E0C9018E199F097C0144E060
:1010D00050E060E070E088E292E00E946B0266E619
:1010E00087EE9BE00E9456016AE387EE9BE00E9438
:1010F0005601970150E040E029833A834B835C839B
:10110000CA01B7010E94EA1020E030E44CE950E443
:1011100062CD47E050E060E070E084E393E00E943D
:10112000D601813009F0B7CF4BE050E060E070E0CD
:101130008CE192E00E946B024FE050E15A834983B8
:1011400003E410E1A981BA818C916DE2813041F410
:10115000E981FA818781908563E4892B09F066E54E
:1011600087EE9BE00E94560129813A81235F3F4F21
:101170003A8329830217130729F752CD38E0C316A3
:10118000D104E104F10408F4C1C048E050E060E09B
:1011900070E08CE393E00E94D601813089F4B701BE
:1011A000A60148505109610971098CEA93E00E9437
:1011B0008601262F61E0822F972F0E94F30D24CE07
:1011C00048E050E060E070E085E493E00E94D601E2
:1011D000813069F4B701A6014850510961097109CC
:1011E0008CEA93E00E948601262F62E0E4CF48E07B
:1011F00050E060E070E08EE493E00E94D601813020
:1012000069F4B701A60148505109610971098CEAD6
:1012100093E00E948601262F63E0CDCF48E050E0A6
:1012200060E070E087E593E00E94D601813069F4C8
:10123000B701A60148505109610971098CEA93E090
:101240000E948601262F64E0B6CF48E050E060E0BF
:1012500070E080E693E00E94D601813089F4B70106
:10126000A60148505109610971098CEA93E00E9476
:101270008601262F61E0822F972F0E94450EC4CD54
:1012800048E050E060E070E089E693E00E94D6011B
:10129000813069F4B701A60148505109610971090B
:1012A0008CEA93E00E948601262F62E0E4CF48E0BA
:1012B00050E060E070E082E793E00E94D601813068
:1012C00069F4B701A60148505109610971098CEA16
:1012D00093E00E948601262F63E0CDCF48E050E0E6
:1012E00060E070E08BE793E00E94D601813009F066
:1012F000D2CEB701A60148505109610971098CEAA3
:1013000093E00E948601262F64E0B5CF44E0C41626
:10131000D104E104F10408F0BECE47E050E060E003
:1013200070E082E392E0A1CB92E0F91AD0CEB7E070
:10133000CB16D104E104F104C0F047E050E060E0D6
:1013400070E084E893E00E94D6018130B1F5B701E6
:10135000A60147505109610971098BEA93E00E9487
:101360008601CB010E94970E4FCDE5E0CE16D10449
:10137000E104F10469F445E050E060E070E08CE8DD
:1013800093E00E94D601813041F60E9495003CCD49
:10139000F6E0CF16D104E104F10409F0BECF46E037
:1013A00050E060E070E08CE993E00E94D60181306B
:1013B00009F0B3CF0E94F50027CD39E0C316D10460
:1013C000E104F10409F0A9CF49E050E060E070E0E9
:1013D00082E993E00E94D601813009F09ECF1092FD
:1013E0000F1010921C101092291019CEEF92FF923C
:1013F0000F931F93CF93DF9300D00F920F92CDB72F
:10140000DEB70FEE1FE081E38D83F894D801ED90F5
:10141000FC90789444E050E060E070E08DE292E06F
:101420000E946B026D8187EE9BE00E9456016AE389
:1014300087EE9BE00E945601C701B0E0A0E08983DF
:101440009A83AB83BC83B701CD010E94EA102AE8DE
:101450003FE14BE450E469837A838B839C83698109
:101460007A818B819C810E94781125E83BEE41E8CE
:101470005FE369837A838B839C8369817A818B8123
:101480009C810E94781169837A838B839C83698114
:101490007A818B819C810E94BB1069837A838B83C4
:1014A0009C83A981BA81CD01B0E0A0E089839A83B1
:1014B000AB83BC83BC01CD010E94EF016AE087EEE3
:1014C0009BE00E9456010C5F1F4FBD81BF5FBD8333
:1014D000B53309F09ACF0F900F900F900F900F90A7
:1014E000DF91CF911F910F91FF90EF900C942D03FE
:1014F0004BE050E060E070E080E192E00E946B021F
:101500000C942D030F931F93CF93DF934FE050E084
:1015100060E070E080E092E00E946B0207EC17E070
:10152000CFE0D0E1F801819191918F01892B29F0D1
:101530008F81988566E4892B09F06DE287EE9BE048
:101540000E9456012D96F0E1C334DF0759F76AE097
:1015500087EE9BE00E945601DF91CF911F910F9182
:101560000C942D031F921FB61F9211240F931F93EB
:101570002F933F934F935F936F937F938F939F939B
:10158000AF93BF938091AE079091AF07A091B00742
:10159000B091B1070091AA071091AB072091AC0759
:1015A0003091AD07B901A8014E5E5F4F6F4F7F4F7D
:1015B0004D37510561057105C0F58A5F9E4FAF4FEC
:1015C000BF4F0091A6071091A7072091A80730915F
:1015D000A9070F5F1F4F2F4F3F4F0093A607109390
:1015E000A7072093A8073093A9078093AE0790938D
:1015F000AF07A093B007B093B1074093AA075093E9
:10160000AB076093AC077093AD07BF91AF919F910B
:101610008F917F916F915F914F913F912F911F918A
:101620000F911F901FBE1F901895B901A8014B562E
:10163000510961097109895F9E4FAF4FBF4FC1CFFB
:10164000CF93DF9300D00F92CDB7DEB72FB7F894CA
:101650008091A6079091A707A091A807B091A9072C
:1016600046B550E070E060E0A89B08C04F3F5105D0
:101670006105710519F00196A11DB11D2FBFBA2F8B
:10168000A92F982F8827840F951FA61FB71F9C018D
:10169000AD0162E0220F331F441F551F6A95D1F739
:1016A000CA01B9010F900F900F900F90DF91CF9169
:1016B0000895CF92DF92EF92FF92CF93DF9300D005
:1016C00000D0CDB7DEB76B017C010E94200B6D838B
:1016D0007E83C114D104E104F10469F426960FB6A7
:1016E000F894DEBF0FBECDBFDF91CF91FF90EF909A
:1016F000DF90CF9008950E94200B69837A838B83BB
:101700009C8389819A812D813E81821B930B883E27
:101710009340F8F28D819E8188519C4F9E838D83EA
:1017200091E0C91AD108E108F108D3CF15BC16BC65
:1017300014BC81E085BB80936E0083E085BD089575
:101740002F932FB72F932BB72F933F934F935F93E5
:101750008F939F93AF93BF93CF93DF93EF93FF93B9
:10176000CCE7D0E02881ABE7B0E09C91822F877076
:10177000392F3870832B815F8F70409178005091A2
:101780007900E82FF0E0EE0FFF1FE151F04F518399
:1017900040838E5F382F3770207E232B2883977FDE
:1017A0008870892B8C93FF91EF91DF91CF91BF913E
:1017B000AF919F918F915F914F913F912F912BBF4F
:1017C0002F912FBF2F9118959FB7F894EFEEFFE060
:1017D0002FEF3FEF2193319380E1EF30F807D1F7FE
:1017E000809164008E7F8093640080E480937C000D
:1017F00010927B008FEB80937A009FBF80917A00DC
:10180000806480937A00089590B1EFE0F0E19695BE
:10181000969521E09227917097831086AFEEBFE0F6
:101820008D919C9111979287818712968D919C91B1
:1018300013979487838790B1929596959695937018
:1018400092279170948B158A14968D919C9115977F
:10185000978B868B16968D919C911797918F808F81
:1018600096B19295969597709227917091A312A236
:1018700018968D919C91199794A383A31A968D9194
:101880009C911B9796A385A386B18695822781702C
:1018900086A717A61C968D919C911D9791AB80AB46
:1018A0001E968D919C9193AB82AB08951F93CF931D
:1018B000DF9392B188B170912910A0912A10B09154
:1018C0002B1060911C10E0911D10F0911E103091B2
:1018D0000F10409110105091111010913610C091BE
:1018E0003710D091381020E0223019F1233061F107
:1018F0002130A1F0313071F491604115510561F44E
:101900009D7F2F5F243081F792B988B9DF91CF9105
:101910001F9108959E7FF1CF9260F3CF613029F43B
:101920009061309721F49F7DECCF9F7EFACF90623B
:10193000E8CF713029F48068109721F48F7BE1CFD4
:101940008F77FACF8064DDCF113029F4886020973B
:1019500021F48B7FD6CF877FFACF8460D2CF9C01D2
:1019600092B188B12230310581F13CF42115310565
:1019700041F021303105C1F0089523303105B1F136
:10198000089520910F10213059F49160209110108A
:1019900030911110232B31F49D7F92B988B90895AD
:1019A0009E7FF4CF9260F9CF20911C10213049F432
:1019B000906120911D1030911E10232B21F49F7DEA
:1019C000ECCF9F7EF6CF9062E8CF20912910213096
:1019D00049F4806820912A1030912B10232B21F498
:1019E0008F7BDBCF8F77F6CF8064D7CF20913610F7
:1019F000213049F488602091371030913810232B22
:101A000021F48B7FCACF877FF6CF8460C6CF2FB7F4
:101A1000F89483E381B982E282B98CEC87B980E4DF
:101A200088B98FEF80930A0110920B0180E88AB980
:101A30001BB8EFE0F0E1108281E090E092838183B7
:101A40001482138216821582158697878687118ADB
:101A5000108A138A128A128E948F838F168E158E97
:101A600010A2178E17A211A610A613A612A615A6CD
:101A700014A62FBF62E070E080E090E00E94590B56
:101A80000C94040C1F921FB61F9211242F932BB796
:101A90002F933F934F935F938F939F93AF93BF93F6
:101AA000CF93DF93EF93FF93E3EBF7E0A3E4B0E191
:101AB00080E0219131912F5F3F4F3370EF012297EA
:101AC000398328834D915D9190910B01241735073F
:101AD00008F44BC081112FC09F7790930B018F5F4B
:101AE000883039F78091C3079091C40701968F77AA
:101AF00099279093C4078093C30720915310309186
:101B000054108217930720F48091B20781114BC0C3
:101B10005F98FF91EF91DF91CF91BF91AF919F912E
:101B20008F915F914F913F912F912BBF2F911F90DC
:101B30001FBE1F901895813011F49F7BCECF82304D
:101B400011F49F7DCACF833011F49F7EC6CF8430BD
:101B500011F4977FC2CF853011F49B7FBECF8630C2
:101B600011F49D7FBACF9E7FB8CF811102C09068DB
:101B7000B4CF813011F49064B0CF823011F4906210
:101B8000ACCF833011F49061A8CF843011F4986009
:101B9000A4CF853011F49460A0CF863011F4926008
:101BA0009CCF91609ACF5F9AB4CF9FB7F894E3EB44
:101BB000F7E0A3E4B0E1119211921D921D9287E02B
:101BC000E53CF807C1F71092B2071092B20082E02C
:101BD0008093B0008093B3008093700086E0809380
:101BE000B1009FBF0895CF93DF9300D00F920F9263
:101BF000CDB7DEB76D839C0150E040E029833A8386
:101C00004B835C83CA01B9010E94EA102DE531E4DF
:101C10004CE450E469837A838B839C8369817A8165
:101C20008B819C810E94491069837A838B839C837A
:101C300069817A818B819C810E94BB103D81333008
:101C4000F9F060F4313091F03230A9F00F900F903C
:101C50000F900F900F90DF91CF9108954D814430F8
:101C6000A9F77093501060934F10F0CF7093441009
:101C700060934310EBCF7093481060934710E6CF0A
:101C800070934C1060934B10E1CFCF93DF9300D053
:101C90000F920F92CDB7DEB76D839C0150E040E00C
:101CA00029833A834B835C83CA01B9010E94EA10FD
:101CB00028E93EED4AE75FE369837A838B839C835F
:101CC00069817A818B819C810E94491069837A8322
:101CD0008B839C8369817A818B819C810E94BB105C
:101CE0003D813330F9F060F4313091F03230A9F0B9
:101CF0000F900F900F900F900F90DF91CF9108955C
:101D00004D814430A9F77093521060935110F0CF79
:101D10007093461060934510EBCF70934A10609318
:101D20004910E6CF70934E1060934D10E1CF8F773E
:101D300099279093541080935310089580915310D5
:101D40009091541008958093B2070895F89483E316
:101D500081B982E282B98CEC87B980E488B98FEFCF
:101D600080930A0180930B0180E88AB91BB8279AF7
:101D70002F980E94960B0E943B0378940E94E40BDC
:101D80000E94070D0E94D50D1092C6071092C5073C
:101D90000E9410040E94040C0E94560C0E94200B0A
:101DA0006B017C018090DB079090DC07A090DD0741
:101DB000B090DE078C149D04AE04BF0408F067C029
:101DC000DC01CB0188199909AA09BB094C015D0105
:101DD0002091C5073091C60721153105C9F2C90107
:101DE0008D7F0197A9F6A091D107B091D207E0911C
:101DF000D307F091D4076091D5077091D607409131
:101E0000D7075091D807CD018E2B9F2B862B972B70
:101E1000842B952B892B09F043C090E8891696E90D
:101E2000990698E9A906B10408F4B2CFC7ECD7E047
:101E30000FE010E1BB24B394FE018A859B852296B6
:101E40002081318105962817390708F4C90199873F
:101E500088876B2D0E94F30D81E0FE01329720816F
:101E60003181232B09F480E0D8018C930E94F6097C
:101E7000B394035F1F4FB5E0BB12DECFC092DB0708
:101E8000D092DC07E092DD07F092DE0781CF8094EC
:101E90009094A094B0948C0C9D1CAE1CBF1C98CF49
:101EA0008091C7079091C807A817B907B1F480912E
:101EB000C9079091CA07E817F90779F48091CB0711
:101EC0009091CC076817790741F48091CD079091E4
:101ED000CE074817590709F444C0E0EE8E16E3E92F
:101EE0009E06E4E0AE06B10408F452CF07EC17E01A
:101EF000EFE0F0E1D8018D919D91892B91F08781E0
:101F00009085892B71F40E94820A10920F10109212
:101F10001C10109229101092361080E00E94A30E1F
:101F200033CF3D9620E1E334F20729F7C1E0F80111
:101F3000828593850E5F1F4F20813181059628177A
:101F4000390708F4C901D80119969C938E93189704
:101F50006C2F0E94F30D0E94F609CF5FC53039F750
:101F60008DCF23303105B1F41092C6071092C5070A
:101F70000FE010E1C1E06C2F90E080E00E94F30DD3
:101F8000F8011082CF5F035F1F4FC530A1F70E9499
:101F9000780AFECE8091D9079091DA072091CF0779
:101FA0003091D0072817390709F4EECEF0EA8F16E2
:101FB000F5E29F06F6E2AF06B10408F4E9CE892BFC
:101FC000A1F08091D9079091DA072091CF07309145
:101FD000D00701962817390708F4C9019093DA074A
:101FE0008093D9070E94970E49CF81E00E94A30EEB
:101FF00061E084E893E00E94450E62E084E893E0AB
:102000000E94450E63E084E893E00E94450E64E080
:1020100084E893E00E94450ED4CFA1E21A2EAA1BB9
:10202000BB1BFD010DC0AA1FBB1FEE1FFF1FA21788
:10203000B307E407F50720F0A21BB30BE40BF50B85
:10204000661F771F881F991F1A9469F7609570950E
:10205000809590959B01AC01BD01CF0108950E9430
:102060003A10A59F900DB49F900DA49F800D911DD7
:1020700011240895A29FB001B39FC001A39F700DCA
:10208000811D1124911DB29F700D811D1124911D80
:1020900008950E945D100C943E110E94371158F073
:1020A0000E94301140F029F45F3F29F00C94271171
:1020B00051110C9472110C942D110E944F1168F360
:1020C0009923B1F3552391F3951B550BBB27AA27F1
:1020D00062177307840738F09F5F5F4F220F331F2B
:1020E000441FAA1FA9F335D00E2E3AF0E0E832D0F3
:1020F00091505040E695001CCAF72BD0FE2F29D0F6
:10210000660F771F881FBB1F261737074807AB07C7
:10211000B0E809F0BB0B802DBF01FF2793585F4F3C
:102120003AF09E3F510578F00C9427110C947211EF
:102130005F3FE4F3983ED4F3869577956795B7951E
:10214000F7959F5FC9F7880F911D9695879597F929
:102150000895E1E0660F771F881FBB1F62177307A2
:102160008407BA0720F0621B730B840BBA0BEE1FB7
:1021700088F7E09508950E94571188F09F5798F0CE
:10218000B92F9927B751B0F0E1F0660F771F881F7C
:10219000991F1AF0BA95C9F714C0B13091F00E9496
:1021A0007111B1E008950C947111672F782F882771
:1021B000B85F39F0B93FCCF3869577956795B395BD
:1021C000D9F73EF490958095709561957F4F8F4F2C
:1021D0009F4F0895E89409C097FB3EF49095809531
:1021E000709561957F4F8F4F9F4F9923A9F0F92FDD
:1021F00096E9BB279395F695879577956795B7955B
:10220000F111F8CFFAF4BB0F11F460FF1BC06F5F40
:102210007F4F8F4F9F4F16C0882311F096E911C052
:10222000772321F09EE8872F762F05C0662371F073
:1022300096E8862F70E060E02AF09A95660F771F87
:10224000881FDAF7880F9695879597F9089597F97B
:102250009F6780E870E060E008959FEF80EC08954C
:1022600000240A9416161706180609060895002475
:102270000A9412161306140605060895092E0394EF
:10228000000C11F4882352F0BB0F40F4BF2B11F463
:1022900060FF04C06F5F7F4F8F4F9F4F089557FDC2
:1022A0009058440F551F59F05F3F71F04795880FC4
:1022B00097FB991F61F09F3F79F08795089512165B
:1022C00013061406551FF2CF4695F1DF08C0161607
:1022D00017061806991FF1CF8695710561050894B8
:1022E0000895E894BB2766277727CB0197F90895CF
:1022F0000E948B110C943E110E94301138F00E9404
:10230000371120F0952311F00C9427110C942D1106
:1023100011240C9472110E944F1170F3959FC1F318
:10232000950F50E0551F629FF001729FBB27F00D83
:10233000B11D639FAA27F00DB11DAA1F649F6627D8
:10234000B00DA11D661F829F2227B00DA11D621F27
:10235000739FB00DA11D621F839FA00D611D221FE1
:10236000749F3327A00D611D231F849F600D211DC5
:10237000822F762F6A2F11249F5750409AF0F1F048
:1023800088234AF0EE0FFF1FBB1F661F771F881FB1
:1023900091505040A9F79E3F510580F00C942711B1
:1023A0000C9472115F3FE4F3983ED4F386957795D1
:1023B0006795B795F795E7959F5FC1F7FE2B880F57
:0E23C000911D9695879597F90895F894FFCF93
:1023CE00242424696E73756C6661696C65643A00C9
:1023DE00242424696E73756C6F6B0A002424247098
:1023EE00737573746174650024242461002424249D
:1023FE0076002424246572720A00242424656C65F8
:10240E006374726F6E6374726C5F32303231303857
:10241E0031375F3030310A0069640070737567655B
:10242E0074763100707375676574763200707375EB
:10243E0067657476330070737567657476340070F3
:10244E007375676574613100707375676574613299
:10245E0000707375676574613300707375676574AA
:10246E00613400707375706F6C31700070737570BD
:10247E006F6C316E00707375706F6C3270007073AC
:10248E0075706F6C326E00707375706F6C33700098
:10249E00707375706F6C336E00707375706F6C3413
:1024AE007000707375706F6C346E007073756F6E34
:1024BE0031007073756F666631007073756F6E32B2
:1024CE00007073756F666632007073756F6E3300D1
:1024DE007073756F666633007073756F6E3400704F
:1024EE0073756F6666340066696C6F6E0066696C34
:1024FE006F6666007073756D6F64650070737573CB
:10250E00657476310070737573657476320070730E
:10251E0075736574763300707375736574763400F5
:10252E007073757365746131007073757365746162
:10253E0032007073757365746133007073757365F3
:10254E007461340073657466696C6100696E7375CD
:10255E006C006265616D68766F6666006265616DBE
:04256E006F6E00008C
:00000001FF
