:100000000C9472000C9493000C9493000C94930045
:100010000C9493000C9493000C9493000C94930014
:100020000C9493000C9493000C9493000C94930004
:100030000C9493000C94B8160C9493000C949300B9
:100040000C9493000C9493000C9493000C949300E4
:100050000C9493000C9493000C9493000C9428142B
:100060000C9493000C947E040C94B0040C949300B4
:100070000C9493000C9416150C9493000C9493001C
:100080000C9493000C9493000C9493000C949300A4
:100090000C9430050C9462050C9493000C9493001E
:1000A0000C9493000C9493000C9493000C94930084
:1000B0000C9493000C9493000C9493000C94930074
:1000C0000C9493000C9493000C9493000C94E20510
:1000D0000C9414060C9493000C9493000C949300CD
:1000E0000C94930011241FBECFEFD1E2DEBFCDBF31
:1000F00000E00CBF14E0A0E0B2E0ECEDF6E300E0BD
:100100000BBF02C007900D92A830B107D9F724E2C7
:10011000A8E0B4E001C01D92AD3DB207E1F70E9436
:1001200020180C946C1B0C9400000F931F93CF931A
:1001300007E914E2C1E0D8011C926C2F90E080E046
:100140000E9469176C2F85E090E00E94BB17035F47
:100150001F4FCF5FC53079F780E00E941A1890E0FA
:1001600080E00E940D1883E090E090932E0C809325
:100170002D0C82EE97E09093300C80932F0C84EE40
:1001800097E09093320C8093310C80E197E090934C
:10019000340C8093330C1092360C1092350C109264
:1001A000380C1092370C10923A0C1092390C1092B5
:1001B0003C0C10923B0C10923E0C10923D0C109295
:1001C000400C10923F0C1092420C1092410C0E9475
:1001D00096146093430C7093440C8093450C909359
:1001E000460CCF911F910F9108950F931F93CF93BA
:1001F00007E914E2C1E0D8011C926C2F90E080E086
:100200000E9469176C2F85E090E00E94BB17035F86
:100210001F4FCF5FC53079F780E00E941A1881E048
:1002200090E090932E0C80932D0C82EE97E09093AB
:10023000300C80932F0C84EE97E09093320C8093D7
:10024000310C80E197E09093340C8093330C109242
:10025000360C1092350C0E9415189093380C809330
:10026000370C10923A0C1092390C10923C0C1092F0
:100270003B0C10923E0C10923D0C1092400C1092D0
:100280003F0C1092420C1092410C0E949614609305
:10029000430C7093440C8093450C9093460C90E073
:1002A00080E0CF911F910F910C940D18CF93DF93A5
:1002B00000D00F92CDB7DEB79C0150E040E029831B
:1002C0003A834B835C83CA01B9010E94711A2AE800
:1002D0003FE14BE450E469837A838B839C8369819B
:1002E0007A818B819C810E94FF1A25E83BEE41E8D0
:1002F0005FE369837A838B839C8369817A818B81B5
:100300009C810E94FF1A69837A838B839C83698115
:100310007A818B819C810E94421ACB010F900F90B1
:100320000F900F90DF91CF910895CF93DF9300D07E
:100330000F92CDB7DEB79C018115924088F580E021
:1003400092E0DC01A21BB30B9D01C901B0E0A0E06B
:1003500089839A83AB83BC83B901CD010E94711A52
:1003600020E030E44CE950E469837A838B839C83FA
:1003700069817A818B819C810E94FF1A69837A83CB
:100380008B839C8369817A818B819C810E94421A34
:10039000CB010F900F900F900F90DF91CF910895A8
:1003A0003250D3CFFC0140815181628173818481BD
:1003B0009581A681B781481759076A077B07C9F05D
:1003C00084819581A681B7818E0F9F1FDC011896CD
:1003D0008C9144815581668177814F5F5F4F6F4F6C
:1003E0007F4F5370662777274483558366837783CF
:1003F000089580E008950F931F93FC0180819181FF
:10040000A281B38104811581268137810196A11DC6
:10041000B11D9370AA27BB2780179107A207B307C6
:10042000B9F080819181A281B3818E0F9F1FDC0181
:1004300018966C9380819181A281B3810196A11D50
:10044000B11D9370AA27BB2780839183A283B383B6
:100450001F910F910895EF92FF920F931F93CF93E7
:10046000DF937C01022F132FEB01060F171F6991F9
:10047000C7010E94FB01C017D107C9F7DF91CF91D7
:100480001F910F91FF90EF9008958F929F92AF92DE
:10049000BF92CF92DF92EF92FF92CF93DF9300D083
:1004A0000F920F92CDB7DEB76A017B01FC01198272
:1004B0001A821B821C82812C912C54018C149D0465
:1004C000AE04BF04A1F469817A818B819C810F9075
:1004D0000F900F900F900F90DF91CF91FF90EF90C2
:1004E000DF90CF90BF90AF909F908F900895219113
:1004F00020532D832A3098F4AAE0B0E029813A8174
:100500004B815C810E94B619DC01CB012D81820FE9
:10051000911DA11DB11D89839A83AB83BC838FEF8D
:10052000881A980AA80AB80AC9CF0F931F93CF93C5
:10053000DF9300D00F92CDB7DEB7FC01408151812F
:100540006281738184819581A681B781481759079B
:100550006A077B07F8F04081518162817381848151
:100560009581A681B7818A019B01081B190B2A0B73
:100570003B0B09831A832B833C8369817A818B81AE
:100580009C810F900F900F900F90DF91CF911F9152
:100590000F91089580819181A281B3814481558119
:1005A000668177819C5FAF4FBF4F8C019D01041B1B
:1005B000150B260B370BDDCFCF92DF92EF92FF9218
:1005C000CF93DF9300D000D0CDB7DEB78D839E836D
:1005D0006A017B01AD81BE814D915D916D917C91F0
:1005E000139714968D919D910D90BC91A02D481755
:1005F00059076A077B0771F480E026960FB6F894D6
:10060000DEBF0FBECDBFDF91CF91FF90EF90DF90A7
:10061000CF9008958D819E810E94950269837A838F
:100620008B839C83C616D706E806F90628F7ED816A
:10063000FE8184819581A681B7818C0D9D1DAE1DA3
:10064000BF1D6C017D01F3E0DF22EE24FF248D81CC
:100650009E818C0D9D1DDC0118968C91CECF8F92C2
:100660009F92AF92BF92CF92DF92EF92FF920F9341
:100670001F93CF93DF9300D000D000D00F92CDB75F
:10068000DEB74C018B0129833A834B835C830E9444
:1006900095026D837E838F83988729813A814B8170
:1006A0005C81621773078407950708F449C05801F5
:1006B00040E050E0BA0189819A81AB81BC81841706
:1006C0009507A607B707B9F469817A818B819C8168
:1006D0002A960FB6F894DEBF0FBECDBFDF91CF9143
:1006E0001F910F91FF90EF90DF90CF90BF90AF9050
:1006F0009F908F900895D4011496CD90DD90ED9049
:10070000FC901797C601880D991DFC012085149651
:100710008D919D910D90BC91A02D0196A11DB11DB3
:100720009370AA27BB27F40184839583A683B7839C
:10073000D5012D935D014F5F5F4F6F4F7F4FBBCF53
:1007400019821A821B821C82BFCF4F925F926F92D6
:100750007F92AF92BF92CF92DF92EF92FF920F9370
:100760001F93CF93DF93CDB7DEB72E970FB6F894D4
:10077000DEBF0FBECDBFF82EE92E4B875C876D879D
:100780007E878B859C85AD85BE85892B8A2B8B2B9F
:10079000C9F460E38F2D9E2D2E960FB6F894DEBF20
:1007A0000FBECDBFDF91CF911F910F91FF90EF90C2
:1007B000DF90CF90BF90AF907F906F905F904F9001
:1007C0000C94FB0100E0DE0111966D018AE0482ED9
:1007D000512C612C712C5601A00EB11C6B857C85AF
:1007E0008D859E85A30192010E949419605DF5019B
:1007F00060830F5F8B859C85AD85BE852B873C878D
:100800004D875E870A97A105B10528F70C0D1D2DB0
:10081000111DC016D106A9F42E960FB6F894DEBFAE
:100820000FBECDBFDF91CF911F910F91FF90EF9041
:10083000DF90CF90BF90AF907F906F905F904F9080
:100840000895D8016E918D018F2D9E2D0E94FB0180
:10085000E0CFCF92DF92EF92FF926A01FC01D901C3
:10086000C80ED91E81912D91082E000C990B2817C6
:10087000190649F4EC15FD05A9F781E0FF90EF900A
:10088000DF90CF90089580E0F9CF9FB7F894E0EC27
:10089000F0E0808180648083E1ECF0E08081886218
:1008A00080839FBF08958FB7F894EFE5F8E1108239
:1008B0001182128213821482158216821782EFE44B
:1008C000F0E1108211821282138214821582168244
:1008D000178210920D0C10920C0C27E630E030932A
:1008E000C5002093C40092E09093C00090E99093DB
:1008F000C10096E09093C2008FBF08951F920F929F
:100900000FB60F9211240BB60F922F933F934F9374
:100910005F936F937F938F939F93AF93BF93EF9367
:10092000FF936091C6008FE490E10E94FB0181E09B
:1009300090E090930D0C80930C0CFF91EF91BF9180
:10094000AF919F918F917F916F915F914F913F9167
:100950002F910F900BBE0F900FBE0F901F90189508
:100960001F920F920FB60F9211240BB60F922F9376
:100970003F934F935F936F937F938F939F93AF9327
:10098000BF93EF93FF9340915F185091601860916F
:100990006118709162188091631890916418A09109
:1009A0006518B0916618481759076A077B07C9F0A0
:1009B0008FE598E10E94D2018093C600FF91EF91EC
:1009C000BF91AF919F918F917F916F915F914F9167
:1009D0003F912F910F900BBE0F900FBE0F901F9065
:1009E00018958091C100877D8093C100E7CF9FB7A4
:1009F000F894E8ECF0E0808180648083E9ECF0E03A
:100A00008081886280839FBF08958FB7F894E7E55F
:100A1000F4E11082118212821382148215821682EE
:100A20001782EFE6F0E210821182128213821482A2
:100A300015821682178210920D0C10920C0C27E66C
:100A400030E03093CD002093CC0092E09093C8002A
:100A500090E99093C90096E09093CA008FBF0895E3
:100A60001F920F920FB60F9211240BB60F922F9375
:100A70003F934F935F936F937F938F939F93AF9326
:100A8000BF93EF93FF936091CE008FE690E20E94B8
:100A9000FB0181E090E090930B0C80930A0CFF9196
:100AA000EF91BF91AF919F918F917F916F915F91E6
:100AB0004F913F912F910F900BBE0F900FBE0F9053
:100AC0001F9018951F920F920FB60F9211240BB61C
:100AD0000F922F933F934F935F936F937F938F93D7
:100AE0009F93AF93BF93EF93FF934091571450910F
:100AF00058146091591470915A1480915B1490911C
:100B00005C14A0915D14B0915E14481759076A07F0
:100B10007B07C9F087E594E10E94D2018093CE0063
:100B2000FF91EF91BF91AF919F918F917F916F91C5
:100B30005F914F913F912F910F900BBE0F900FBE81
:100B40000F901F9018958091C900877D8093C900F0
:100B5000E7CF9FB7F894E0EDF0E080818064808378
:100B6000E1EDF0E08081886280839FBF08958FB7B8
:100B7000F894E7E4FCE0108211821282138214825E
:100B8000158216821782E7E6FCE11082118212823A
:100B90001382148215821682178210920D0C109205
:100BA0000C0C27E630E03093D5002093D40092E07F
:100BB0009093D00090E99093D10096E09093D2006A
:100BC0008FBF08951F920F920FB60F9211240BB68C
:100BD0000F922F933F934F935F936F937F938F93D6
:100BE0009F93AF93BF93EF93FF936091D60087E6F7
:100BF0009CE10E94FB0181E090E09093090C8093BE
:100C0000080CFF91EF91BF91AF919F918F917F91D0
:100C10006F915F914F913F912F910F900BBE0F906D
:100C20000FBE0F901F9018951F920F920FB60F9244
:100C300011240BB60F922F933F934F935F936F93B3
:100C40007F938F939F93AF93BF93EF93FF934091C5
:100C5000470C5091480C6091490C70914A0C80915E
:100C60004B0C90914C0CA0914D0CB0914E0C481730
:100C700059076A077B07C9F087E49CE00E94D2010C
:100C80008093D600FF91EF91BF91AF919F918F918B
:100C90007F916F915F914F913F912F910F900BBE7C
:100CA0000F900FBE0F901F9018958091D100877DF7
:100CB0008093D100E7CF0F931F93CF93DF9300D0A2
:100CC00000D0CDB7DEB78FB72091080C3091090C5A
:100CD000232B09F499C01092090C1092080C8FBFB5
:100CE00087E69CE10E94950269837A838B839C83CB
:100CF000672B682B692B09F487C087E69CE10E946B
:100D0000D2018A3069F38D3059F387E794E29E83EC
:100D10008D83F894AD81BE818D919C91119712962F
:100D20000D911C9178940E945601AC0170E060E036
:100D300087E49CE00E94A5036AE387E49CE00E94AC
:100D4000FB01C801B0E0A0E089839A83AB83BC8338
:100D5000B801CD010E94711A20E030E44CE151E469
:100D600069837A838B839C8369817A818B819C815F
:100D70000E94FF1A69837A838B839C8369817A81BD
:100D80008B819C810E94421A69837A838B839C8326
:100D9000A981BA81AD0170E060E087E49CE00E9427
:100DA000A5036AE387E49CE00E94FB01ED81FE81DC
:100DB0003496FE83ED83E758F44209F0AACF0E94EF
:100DC0001518AC0170E060E087E49CE00E94A50388
:100DD0006AE387E49CE00E94FB01F89480918724F9
:100DE0009091882478940E949501AC0170E060E0B5
:100DF00087E49CE00E94A5036AE087E49CE00E94EF
:100E0000FB010E9445046CCF26960FB6F894DEBF16
:100E10000FBECDBFDF91CF911F910F910895EF923B
:100E2000FF921F93CF93DF9387E7E82E84E2F82E9B
:100E300011E3F894F7018081918178940E94560122
:100E4000EC0124E030E040E050E062E972E08FE540
:100E500098E10E942B02612F8FE598E10E94FB012F
:100E60006AE38FE598E10E94FB01AE0170E060E06B
:100E70008FE598E10E94A5036AE08FE598E10E9462
:100E8000FB01F4E0EF0EF11C1F5F153391F6DF91CB
:100E9000CF911F91FF90EF900C944504CF93DF9377
:100EA0000E941D18882389F10E941518EC012BE07F
:100EB00030E040E050E069E372E08FE598E10E94A5
:100EC0002B02AE0170E060E08FE598E10E94A5037F
:100ED0006AE38FE598E10E94FB01F89480918724F2
:100EE0009091882478940E949501AC0170E060E0B4
:100EF0008FE598E10E94A5036AE08FE598E10E94E2
:100F0000FB01DF91CF910C9445042BE030E040E0F1
:100F100050E069E372E08FE598E10E942B0229E03E
:100F200030E040E050E06FE272E08FE598E10E942F
:100F30002B02E7CF2BE030E040E050E063E272E0CC
:100F40008FE598E10E942B020C9445042AE030E0E2
:100F500040E050E068E172E08FE598E10E942B02EA
:100F60000C9445040F931F93CF93DF932FE030E051
:100F700040E050E068E072E08FE598E10E942B02CB
:100F80000FE21CE0C7E9D4E2F801819191918F0151
:100F9000892B29F08F81988566E4892B09F06DE211
:100FA0008FE598E10E94FB012D96F4E2CB3CDF0730
:100FB00059F76AE08FE598E10E94FB01DF91CF913C
:100FC0001F910F910C94450427E030E040E050E081
:100FD00060E072E08FE598E10C942B028F929F9273
:100FE000AF92BF92CF92DF92EF92FF92CF93DF93B7
:100FF00000D00F92CDB7DEB78FE490E10E9495024A
:1010000069837A838B839C836330710581059105A5
:1010100090F50F900F900F900F90DF91CF91FF9070
:10102000EF90DF90CF90BF90AF909F908F900895FA
:101030008FE490E10E94950269837A838B839C837D
:101040006430710581059105D8F18091531090911C
:101050005410A0915510B09156100196A11DB11DCC
:101060009370AA27BB278093531090935410A0939A
:101070005510B093561040914F1050915010609100
:101080005110709152108091531090915410A09172
:101090005510B0915610481759076A077B0741F25F
:1010A0008091531090915410A0915510B09156100A
:1010B000815B9F4EDC0118968C91843209F0B8CF89
:1010C0008FE490E10E9495026530710581059105DC
:1010D00008F49FCF40E050E0BA018FE490E10E9415
:1010E000DC02843209F4BEC08FE490E10E949502D4
:1010F00069837A838B839C836530710581059105B3
:1011000008F099C08FE490E10E94950269837A8388
:101110008B839C83653071058105910508F479CF37
:101120008FE490E10E9495026B017C0183E0882EA0
:10113000912CA12CB12C8C149D04AE04BF0408F09A
:1011400068CFB501A4018FE490E10E94DC028A30EF
:1011500049F0B501A4018FE490E10E94DC028432E1
:1011600009F0A2C0B501A4018FE490E10E94DC0265
:101170008A3009F092C28091531090915410A0913E
:101180005510B09156100396A11DB11D9370AA275A
:10119000BB278093531090935410A0935510B09395
:1011A000561075016401E3E0CE1AD108E108F10898
:1011B000B501A40144505109610971098FE490E11E
:1011C0000E94DC0241E050E060E070E08D3019F0F8
:1011D00040E050E0BA01C41AD50AE60AF70AA701AE
:1011E000960168E078E08FE490E10E942F03F2E03E
:1011F000CF16D104E104F10409F05CC028E038E026
:1012000042E050E060E070E08DEB92E00E94290443
:101210002DE130E040E050E06FE972E0813031F0E4
:1012200027E030E040E050E067E972E08FE598E1C8
:101230000E942B02ACC08091531090915410A09149
:101240005510B09156100196A11DB11D9370AA279B
:10125000BB278093531090935410A0935510B093D4
:10126000561038CF41E050E060E070E08FE490E14C
:101270000E94DC02843209F037CF42E050E060E0A7
:1012800070E08FE490E10E94DC02843209F02CCF00
:1012900043E050E060E070E08FE490E10E94DC0207
:1012A000843209F421CF2ECFBFEF8B1A9B0AAB0AF1
:1012B000BB0A41CF28E0C216D104E104F10409F0D1
:1012C00024C228E038E048E050E060E070E080ECC4
:1012D00092E00E942904813011F5F89480917724DE
:1012E0009091782478940E94560189839A8324E00F
:1012F00030E040E050E062E972E08FE598E10E9462
:101300002B0261E38FE598E10E94FB016AE38FE520
:1013100098E10E94FB0189819A81AC012DC028E0EF
:1013200038E048E050E060E070E089EC92E00E9434
:101330002904813079F5F89480917B2490917C2464
:1013400078940E94560189839A8324E030E040E03B
:1013500050E062E972E08FE598E10E942B0262E3BF
:101360008FE598E10E94FB016AE38FE598E10E9416
:10137000FB01A981BA81AD0170E060E08FE598E1E1
:101380000E94A5036AE08FE598E10E94FB010E949C
:10139000450483C128E038E048E050E060E070E0B8
:1013A00082ED92E00E942904813011F5F894809139
:1013B0007F249091802478940E94560189839A8397
:1013C00024E030E040E050E062E972E08FE598E12F
:1013D0000E942B0263E38FE598E10E94FB016AE320
:1013E0008FE598E10E94FB01E981FA81AF01C4CF4A
:1013F00028E038E048E050E060E070E08BED92E0FB
:101400000E9429048130B1F4F89480918324909152
:10141000842478940E94560189839A8324E030E0E2
:1014200040E050E062E972E08FE598E10E942B0213
:1014300064E368CF28E038E048E050E060E070E026
:1014400084EE92E00E942904813009F046C0F894AD
:10145000A0917924B0917A24BA83A983789424E066
:1014600030E040E050E06DE872E08FE598E10E94E6
:101470002B0261E38FE598E10E94FB016AE38FE5AF
:1014800098E10E94FB01A981BA81CD01B0E0A0E002
:1014900089839A83AB83BC83BC01CD010E94711AFE
:1014A00020E030E44CE151E469837A838B839C83B0
:1014B00069817A818B819C810E94FF1A69837A837A
:1014C0008B839C8369817A818B819C810E94421AE3
:1014D00069837A838B839C8387CF28E038E048E058
:1014E00050E060E070E08DEE92E00E9429048130CF
:1014F000A1F4F89480917D2490917E249A8389832D
:10150000789424E030E040E050E06DE872E08FE550
:1015100098E10E942B0262E3ADCF28E038E048E07A
:1015200050E060E070E086EF92E00E942904813094
:10153000A1F4F89480918124909182249A838983E4
:10154000789424E030E040E050E06DE872E08FE510
:1015500098E10E942B0263E38DCF28E038E048E059
:1015600050E060E070E08FEF92E00E94290481304B
:10157000A1F4F89480918524909186249A8389839C
:10158000789424E030E040E050E06DE872E08FE5D0
:1015900098E10E942B0264E36DCF28E038E048E038
:1015A00050E060E070E088E093E00E942904813020
:1015B00049F4109299241092982410922E0C1092B3
:1015C0002D0C6BC028E038E048E050E060E070E0AF
:1015D00081E193E00E942904813039F481E090E0B8
:1015E0009093992480939824E8CF28E038E048E04D
:1015F00050E060E070E08AE193E00E9429048130CD
:1016000029F41092A6241092A524D7CF28E038E020
:1016100048E050E060E070E083E293E00E9429043B
:10162000813039F481E090E09093A6248093A52442
:10163000C4CF28E038E048E050E060E070E08CE2A1
:1016400093E00E942904813029F41092B32410926F
:10165000B224B3CF28E038E048E050E060E070E02A
:1016600085E393E00E942904813039F481E090E021
:101670009093B3248093B224A0CF28E038E048E0D0
:1016800050E060E070E08EE393E00E942904813036
:1016900041F51092C0241092BF24B501A4018FE43B
:1016A00090E10E94DC02843209F0B3CC80915310A7
:1016B00090915410A0915510B0915610880D991D1D
:1016C000AA1DBB1D4C015D01F3E09F22AA24BB248F
:1016D0008092531090925410A0925510B0925610D0
:1016E00098CC28E038E048E050E060E070E087E423
:1016F00093E00E942904813009F019C181E090E053
:101700009093C0248093BF24C8CFF6E0CF16D104B5
:10171000E104F10479F428E038E046E050E060E0CC
:1017200070E080E593E00E9429048130C9F4809341
:101730009724B3CF27E0C216D104E104F10409F0E5
:101740006BC028E038E047E050E060E070E087E5FB
:1017500093E00E942904813091F4109297242DCFB8
:1017600028E038E046E050E060E070E08FE593E08C
:101770000E942904813091F48093A4248ECF28E024
:1017800038E047E050E060E070E086E693E00E94D9
:101790002904813091F41092A4240FCF28E038E07E
:1017A00046E050E060E070E08EE693E00E9429049D
:1017B000813091F48093B12470CF28E038E047E085
:1017C00050E060E070E085E793E00E9429048130FA
:1017D00099F41092B124F1CE28E038E046E050E0D0
:1017E00060E070E08DE793E00E942904813009F009
:1017F0004FC08093BE2451CF28E038E047E050E04E
:1018000060E070E084E893E00E942904813009F0F0
:1018100050C01092BE2441CF83E0C816D104E10429
:10182000F104F9F428E038E043E050E060E070E0D3
:1018300085E993E00E942904813009F0F1CC1092EF
:1018400097241092A4241092B1241092BE2480E018
:101850000E941A1810922E0C10922D0C0E94E40770
:101860001CCF95E0C916D104E104F10409F058C079
:1018700028E038E045E050E060E070E08CE893E07C
:101880000E942904813009F031C10E941A1805CF45
:1018900028E038E046E050E060E070E082E993E064
:1018A0000E942904813009F021C180E00E941A18A9
:1018B00084CE28E038E047E050E060E070E089E95D
:1018C00093E00E942904813009F010C12BE030E040
:1018D00040E050E061E872E08FE598E10E942B0261
:1018E000A7E9B4E2BA83A983E981FA8180816DE234
:1018F000813049F4A981BA8117968D919C9163E456
:10190000892B09F066E58FE598E10E94FB01E981EA
:10191000FA813D96FA83E983EB5CF44229F732CDF4
:1019200088E0C816D104E104F10408F4D8C028E026
:1019300038E048E050E060E070E081EA93E00E9427
:101940002904813089F4B701A60148505109610981
:10195000710980E198E00E944502262F61E0822F04
:10196000972F0E94691729CE28E038E048E050E020
:1019700060E070E08AEA93E00E942904813069F413
:10198000B701A601485051096109710980E198E049
:101990000E944502262F62E0E2CF28E038E048E0CE
:1019A00050E060E070E083EB93E00E942904813016
:1019B00069F4B701A601485051096109710980E134
:1019C00098E00E944502262F63E0C9CF28E038E066
:1019D00048E050E060E070E08CEB93E00E94290466
:1019E000813089F4B701A601485051096109710994
:1019F00080E198E00E944502262F64E0822F972F15
:101A00000E9469174ACE28E038E048E050E060E0E4
:101A100070E085EC93E00E942904813089F4B701DD
:101A2000A601485051096109710980E198E00E94BE
:101A30004502262F61E0822F972F0E94BB17BDCD54
:101A400028E038E048E050E060E070E08EEC93E0A1
:101A50000E942904813069F4B701A6014850510958
:101A60006109710980E198E00E944502262F62E039
:101A7000E2CF28E038E048E050E060E070E087ED39
:101A800093E00E942904813069F4B701A60148500F
:101A900051096109710980E198E00E944502262FF1
:101AA00063E0C9CF28E038E048E050E060E070E053
:101AB00080EE93E00E9429048130C1F4B701A601B1
:101AC000485051096109710980E198E00E9445027E
:101AD000262F64E0822F972F0E94BB17DECD94E063
:101AE000C916D104E104F10408F49ACB28E038E0E7
:101AF00044E050E060E070E08CEE93E00E94290446
:101B00008130F9F4F8948091872490918824789416
:101B10000E9495017C0124E030E040E050E06DE857
:101B200072E08FE598E10E942B0266E68FE598E16E
:101B30000E94FB016AE38FE598E10E94FB01A70187
:101B40001BCCA7E0CA16D104E104F104D0F028E0D0
:101B500038E047E050E060E070E089EE93E00E94FA
:101B600029048130D9F5B701A6014750510961090F
:101B700071098FE098E00E944502CB010E940D1888
:101B80001CCDB5E0CB16D104E104F10481F428E0CA
:101B900038E045E050E060E070E081EF93E00E94C3
:101BA0002904813009F03CCB0E94950076CDE6E017
:101BB000CE16D104E104F10409F032CB28E038E07C
:101BC00046E050E060E070E081E094E00E9429048B
:101BD000813009F025CB0E94F5005FCD29E0C216C7
:101BE000D104E104F10409F01BCB28E038E049E01E
:101BF00050E060E070E087EF93E00E9429048130BC
:101C000009F00ECB109297241092A4241092B124C4
:101C10001092BE24D2CC8F929F92AF92BF92CF925D
:101C2000DF92EF92FF92CF93DF9300D00F92CDB768
:101C3000DEB78FE690E20E94950269837A838B83F8
:101C40009C83633071058105910590F50F900F908D
:101C50000F900F90DF91CF91FF90EF90DF90CF909A
:101C6000BF90AF909F908F9008958FE690E20E9472
:101C7000950269837A838B839C8364307105810527
:101C80009105D8F18091732090917420A0917520D6
:101C9000B09176200196A11DB11D9370AA27BB2794
:101CA0008093732090937420A0937520B093762036
:101CB00040916F205091702060917120709172203E
:101CC0008091732090917420A0917520B09176201E
:101CD000481759076A077B0741F28091732090915A
:101CE0007420A0917520B091762081599F4DDC0120
:101CF00018968C91843209F0B8CF8FE690E20E945A
:101D00009502653071058105910508F49FCF40E08B
:101D100050E0BA018FE690E20E94DC02843209F4BE
:101D2000BEC08FE690E20E94950269837A838B831E
:101D30009C83653071058105910508F099C08FE697
:101D400090E20E94950269837A838B839C8365303D
:101D500071058105910508F479CF8FE690E20E9424
:101D600095026B017C0183E0882E912CA12CB12C73
:101D70008C149D04AE04BF0408F068CFB501A40123
:101D80008FE690E20E94DC028A3049F0B501A4019E
:101D90008FE690E20E94DC02843209F0A2C0B50115
:101DA000A4018FE690E20E94DC028A3009F092C220
:101DB0008091732090917420A0917520B09176202D
:101DC0000396A11DB11D9370AA27BB278093732092
:101DD00090937420A0937520B093762075016401D0
:101DE000E3E0CE1AD108E108F108B501A40144509E
:101DF0005109610971098FE690E20E94DC0241E01D
:101E000050E060E070E08D3019F040E050E0BA0141
:101E1000C41AD50AE60AF70AA701960168E074E039
:101E20008FE690E20E942F03F2E0CF16D104E10486
:101E3000F10409F05CC028E034E042E050E060E0EA
:101E400070E08DEB92E00E9429042DE130E040E04B
:101E500050E063E672E0813031F027E030E040E0AE
:101E600050E06BE572E087E594E10E942B02ACC084
:101E70008091732090917420A0917520B09176206C
:101E80000196A11DB11D9370AA27BB2780937320D3
:101E900090937420A0937520B093762038CF41E0C2
:101EA00050E060E070E08FE690E20E94DC02843255
:101EB00009F037CF42E050E060E070E08FE690E25A
:101EC0000E94DC02843209F02CCF43E050E060E055
:101ED00070E08FE690E20E94DC02843209F421CFA8
:101EE0002ECFBFEF8B1A9B0AAB0ABB0A41CF28E06B
:101EF000C216D104E104F10409F024C228E034E060
:101F000048E050E060E070E080EC92E00E9429043C
:101F1000813011F5F8948091772490917824789409
:101F20000E94560189839A8324E030E040E050E02B
:101F300066E572E087E594E10E942B0261E387E5A4
:101F400094E10E94FB016AE387E594E10E94FB01B2
:101F500089819A81AC012DC028E034E048E050E04E
:101F600060E070E089EC92E00E942904813079F50C
:101F7000F89480917B2490917C2478940E9456015F
:101F800089839A8324E030E040E050E066E572E027
:101F900087E594E10E942B0262E387E594E10E94C9
:101FA000FB016AE387E594E10E94FB01A981BA8104
:101FB000AD0170E060E087E594E10E94A5036AE06E
:101FC00087E594E10E94FB010E94450483C128E05B
:101FD00034E048E050E060E070E082ED92E00E9482
:101FE0002904813011F5F89480917F249091802408
:101FF00078940E94560189839A8324E030E040E07F
:1020000050E066E572E087E594E10E942B0263E30D
:1020100087E594E10E94FB016AE387E594E10E9471
:10202000FB01E981FA81AF01C4CF28E034E048E048
:1020300050E060E070E08BED92E00E942904813076
:10204000B1F4F894809183249091842478940E9430
:10205000560189839A8324E030E040E050E066E551
:1020600072E087E594E10E942B0264E368CF28E0E8
:1020700034E048E050E060E070E084EE92E00E94DE
:102080002904813009F046C0F894A0917924B091D8
:102090007A24BA83A983789424E030E040E050E0C9
:1020A00061E572E087E594E10E942B0261E387E538
:1020B00094E10E94FB016AE387E594E10E94FB0141
:1020C000A981BA81CD01B0E0A0E089839A83AB8376
:1020D000BC83BC01CD010E94711A20E030E44CE1C8
:1020E00051E469837A838B839C8369817A818B81B4
:1020F0009C810E94FF1A69837A838B839C83698108
:102100007A818B819C810E94421A69837A838B83B6
:102110009C8387CF28E034E048E050E060E070E046
:102120008DEE92E00E9429048130A1F4F894809110
:102130007D2490917E249A838983789424E030E0F2
:1021400040E050E061E572E087E594E10E942B02F7
:1021500062E3ADCF28E034E048E050E060E070E0BA
:1021600086EF92E00E9429048130A1F4F8948091D6
:102170008124909182249A838983789424E030E0AA
:1021800040E050E061E572E087E594E10E942B02B7
:1021900063E38DCF28E034E048E050E060E070E099
:1021A0008FEF92E00E9429048130A1F4F89480918D
:1021B0008524909186249A838983789424E030E062
:1021C00040E050E061E572E087E594E10E942B0277
:1021D00064E36DCF28E034E048E050E060E070E078
:1021E00088E093E00E942904813049F410929924F8
:1021F0001092982410922E0C10922D0C6BC028E097
:1022000034E048E050E060E070E081E193E00E945B
:102210002904813039F481E090E0909399248093EF
:102220009824E8CF28E034E048E050E060E070E037
:102230008AE193E00E942904813029F41092A624B7
:102240001092A524D7CF28E034E048E050E060E0C9
:1022500070E083E293E00E942904813039F481E048
:1022600090E09093A6248093A524C4CF28E034E086
:1022700048E050E060E070E08CE293E00E942904C6
:10228000813029F41092B3241092B224B3CF28E005
:1022900034E048E050E060E070E085E393E00E94C5
:1022A0002904813039F481E090E09093B324809345
:1022B000B224A0CF28E034E048E050E060E070E0D5
:1022C0008EE393E00E942904813041F51092C024EE
:1022D0001092BF24B501A4018FE690E20E94DC02B7
:1022E000843209F0B3CC8091732090917420A09136
:1022F0007520B0917620880D991DAA1DBB1D4C013B
:102300005D01F3E09F22AA24BB2480927320909267
:102310007420A0927520B092762098CC28E034E00A
:1023200048E050E060E070E087E493E00E94290418
:10233000813009F019C181E090E09093C02480932E
:10234000BF24C8CFF6E0CF16D104E104F10479F43C
:1023500028E034E046E050E060E070E080E593E0A3
:102360000E9429048130C9F480939724B3CF27E0D9
:10237000C216D104E104F10409F06BC028E034E096
:1023800047E050E060E070E087E593E00E942904B8
:10239000813091F4109297242DCF28E034E046E06C
:1023A00050E060E070E08FE593E00E942904813006
:1023B00091F48093A4248ECF28E034E047E050E0ED
:1023C00060E070E086E693E00E942904813091F499
:1023D0001092A4240FCF28E034E046E050E060E003
:1023E00070E08EE693E00E942904813091F480939E
:1023F000B12470CF28E034E047E050E060E070E0C6
:1024000085E793E00E942904813099F41092B12469
:10241000F1CE28E034E046E050E060E070E08DE787
:1024200093E00E942904813009F04FC08093BE24BC
:1024300051CF28E034E047E050E060E070E084E80D
:1024400093E00E942904813009F050C01092BE240C
:1024500041CF83E0C816D104E104F104F9F428E087
:1024600034E043E050E060E070E085E993E00E94F2
:102470002904813009F0F1CC109297241092A42401
:102480001092B1241092BE2480E00E941A1810927B
:102490002E0C10922D0C0E94E4071CCF95E0C9165B
:1024A000D104E104F10409F058C028E034E045E02B
:1024B00050E060E070E08CE893E00E9429048130F5
:1024C00009F031C10E941A1805CF28E034E046E037
:1024D00050E060E070E082E993E00E9429048130DE
:1024E00009F021C180E00E941A1884CE28E034E06F
:1024F00047E050E060E070E089E993E00E94290441
:10250000813009F010C12BE030E040E050E065E49C
:1025100072E087E594E10E942B02A7E9B4E2BA8356
:10252000A983E981FA8180816DE2813049F4A98132
:10253000BA8117968D919C9163E4892B09F066E529
:1025400087E594E10E94FB01E981FA813D96FA83D7
:10255000E983EB5CF44229F732CD88E0C816D10458
:10256000E104F10408F4D8C028E034E048E050E089
:1025700060E070E081EA93E00E942904813089F4F0
:10258000B701A601485051096109710980E194E041
:102590000E944502262F61E0822F972F0E94691723
:1025A00029CE28E034E048E050E060E070E08AEABC
:1025B00093E00E942904813069F4B701A6014850D4
:1025C00051096109710980E194E00E944502262FBA
:1025D00062E0E2CF28E034E048E050E060E070E004
:1025E00083EB93E00E942904813069F4B701A601CE
:1025F000485051096109710980E194E00E94450247
:10260000262F63E0C9CF28E034E048E050E060E0E6
:1026100070E08CEB93E00E942904813089F4B701CB
:10262000A601485051096109710980E194E00E94B6
:102630004502262F64E0822F972F0E9469174ACE09
:1026400028E034E048E050E060E070E085EC93E0A2
:102650000E942904813089F4B701A601485051092C
:102660006109710980E194E00E944502262F61E032
:10267000822F972F0E94BB17BDCD28E034E048E0A1
:1026800050E060E070E08EEC93E00E94290481301D
:1026900069F4B701A601485051096109710980E147
:1026A00094E00E944502262F62E0E2CF28E034E069
:1026B00048E050E060E070E087ED93E00E9429047C
:1026C000813069F4B701A6014850510961097109C7
:1026D00080E194E00E944502262F63E0C9CF28E004
:1026E00034E048E050E060E070E080EE93E00E946B
:1026F00029048130C1F4B701A6014850510961098C
:10270000710980E194E00E944502262F64E0822F47
:10271000972F0E94BB17DECD94E0C916D104E104C7
:10272000F10408F49ACB28E034E044E050E060E0A3
:1027300070E08CEE93E00E9429048130F9F4F89463
:10274000809187249091882478940E9495017C013F
:1027500024E030E040E050E061E572E087E594E19C
:102760000E942B0266E687E594E10E94FB016AE382
:1027700087E594E10E94FB01A7011BCCA7E0CA16E4
:10278000D104E104F104D0F028E034E047E050E067
:1027900060E070E089EE93E00E9429048130D9F571
:1027A000B701A60147505109610971098FE094E012
:1027B0000E944502CB010E940D181CCDB5E0CB163E
:1027C000D104E104F10481F428E034E045E050E074
:1027D00060E070E081EF93E00E942904813009F00D
:1027E0003CCB0E94950076CDE6E0CE16D104E10404
:1027F000F10409F032CB28E034E046E050E060E03C
:1028000070E081E094E00E942904813009F025CB3A
:102810000E94F5005FCD29E0C216D104E104F10465
:1028200009F01BCB28E034E049E050E060E070E0C4
:1028300087EF93E00E942904813009F00ECB1092BB
:1028400097241092A4241092B1241092BE24D2CCCA
:102850001F921FB61F9211240F931F932F933F9324
:102860004F935F936F937F938F939F93AF93BF9398
:102870008091160C9091170CA091180CB091190C26
:102880000091120C1091130C2091140C3091150C26
:10289000B901A8014E5E5F4F6F4F7F4F4D37510515
:1028A00061057105C0F58A5F9E4FAF4FBF4F009124
:1028B0000E0C10910F0C2091100C3091110C0F5F29
:1028C0001F4F2F4F3F4F00930E0C10930F0C209370
:1028D000100C3093110C8093160C9093170CA0934E
:1028E000180CB093190C4093120C5093130C609376
:1028F000140C7093150CBF91AF919F918F917F91A4
:102900006F915F914F913F912F911F910F911F9068
:102910001FBE1F901895B901A8014B5651096109B6
:102920007109895F9E4FAF4FBF4FC1CFCF93DF93E8
:1029300000D00F92CDB7DEB72FB7F89480910E0C70
:1029400090910F0CA091100CB091110C46B550E075
:1029500070E060E0A89B08C04F3F5105610571051C
:1029600019F00196A11DB11D2FBFBA2FA92F982FC5
:102970008827840F951FA61FB71F9C01AD0162E039
:10298000220F331F441F551F6A95D1F7CA01B901A1
:102990000F900F900F900F90DF91CF910895CF92ED
:1029A000DF92EF92FF92CF93DF9300D000D0CDB7AC
:1029B000DEB76B017C010E9496146D837E83C11487
:1029C000D104E104F10469F426960FB6F894DEBF51
:1029D0000FBECDBFDF91CF91FF90EF90DF90CF90F2
:1029E00008950E94961469837A838B839C838981DE
:1029F0009A812D813E81821B930B883E9340F8F291
:102A00008D819E8188519C4F9E838D8391E0C91A50
:102A1000D108E108F108D3CF15BC16BC14BC81E085
:102A200085BB80936E0083E085BD08952F932FB7FB
:102A30002F932BB72F933F934F935F938F939F9336
:102A4000AF93BF93CF93DF93EF93FF93CCE7D0E0A7
:102A50002881ABE7B0E09C91822F8770392F3870C6
:102A6000832B815F8F704091780050917900E82F1F
:102A7000F0E0EE0FFF1FE958FB4D518340838E5F5E
:102A8000382F3770207E232B2883977F8870892BDF
:102A90008C93FF91EF91DF91CF91BF91AF919F9177
:102AA0008F915F914F913F912F912BBF2F912FBF0E
:102AB0002F9118959FB7F894E7E7F4E22FEF3FEFD7
:102AC0002193319384E2E739F807D1F780916400CC
:102AD0008E7F8093640080E480937C0010927B0062
:102AE0008FEB80937A009FBF80917A0080648093FF
:102AF0007A00089590B1E7E9F4E29695969521E081
:102B00009227917097831086A7E7B4E28D919C91EC
:102B100011979287818712968D919C911397948734
:102B2000838790B192959695969593709227917020
:102B3000948B158A14968D919C911597978B868B03
:102B400016968D919C911797918F808F96B1929543
:102B5000969597709227917091A312A218968D91D5
:102B60009C91199794A383A31A968D919C911B977E
:102B700096A385A386B186958227817086A717A61E
:102B80001C968D919C911D9791AB80AB1E968D915B
:102B90009C9193AB82AB08951F93CF93DF9392B137
:102BA00088B17091B124A091B224B091B324609106
:102BB000A424E091A524F091A6243091972440917B
:102BC0009824509199241091BE24C091BF24D09193
:102BD000C02420E0223019F1233061F12130A1F02E
:102BE000313071F491604115510561F49D7F2F5F83
:102BF000243081F792B988B9DF91CF911F91089560
:102C00009E7FF1CF9260F3CF613029F490613097CD
:102C100021F49F7DECCF9F7EFACF9062E8CF713098
:102C200029F48068109721F48F7BE1CF8F77FACF5A
:102C30008064DDCF113029F48860209721F48B7FE8
:102C4000D6CF877FFACF8460D2CF9C0192B188B172
:102C50002230310581F13CF42115310541F021305C
:102C60003105C1F0089523303105B1F10895209167
:102C70009724213059F4916020919824309199241F
:102C8000232B31F49D7F92B988B908959E7FF4CFAC
:102C90009260F9CF2091A424213049F490612091D1
:102CA000A5243091A624232B21F49F7DECCF9F7E79
:102CB000F6CF9062E8CF2091B124213049F48068AA
:102CC0002091B2243091B324232B21F48F7BDBCFCE
:102CD0008F77F6CF8064D7CF2091BE24213049F47E
:102CE00088602091BF243091C024232B21F48B7F56
:102CF000CACF877FF6CF8460C6CF2FB7F89483E31F
:102D000081B982E282B98CEC87B980E488B98FEF0F
:102D100080930A0110920B0180E88AB91BB8E7E999
:102D2000F4E2108281E090E0928381831482138226
:102D300016821582158697878687118A108A138ACC
:102D4000128A128E948F838F168E158E10A2178E74
:102D500017A211A610A613A612A615A614A62FBF79
:102D600062E070E080E090E00E94CF140C947A154D
:102D70001F921FB61F9211242F932BB72F933F93AF
:102D80004F935F938F939F93AF93BF93CF93DF93B3
:102D9000EF93FF93EBE1FCE0ABECB4E280E0219138
:102DA00031912F5F3F4F3370EF0122973983288392
:102DB0004D915D9190910B012417350708F44BC09C
:102DC00081112FC09F7790930B018F5F883039F767
:102DD00080912B0C90912C0C01968F7799279093D2
:102DE0002C0C80932B0C2091DB243091DC24821757
:102DF000930720F480911A0C81114BC05F98FF91CA
:102E0000EF91DF91CF91BF91AF919F918F915F91A2
:102E10004F913F912F912BBF2F911F901FBE1F905D
:102E20001895813011F49F7BCECF823011F49F7DB5
:102E3000CACF833011F49F7EC6CF843011F4977FC0
:102E4000C2CF853011F49B7FBECF863011F49D7FB9
:102E5000BACF9E7FB8CF811102C09068B4CF8130C5
:102E600011F49064B0CF823011F49062ACCF833013
:102E700011F49061A8CF843011F49860A4CF85300C
:102E800011F49460A0CF863011F492609CCF9160D1
:102E90009ACF5F9AB4CF9FB7F894EBE1FCE0ABEC2C
:102EA000B4E2119211921D921D928CE0ED32F8075E
:102EB000C1F710921A0C1092B20082E08093B00019
:102EC0008093B3008093700086E08093B1009FBF31
:102ED0000895CF93DF9300D00F920F92CDB7DEB756
:102EE0006D839C0150E040E029833A834B835C83EF
:102EF000CA01B9010E94711A2DE531E44CE450E495
:102F000069837A838B839C8369817A818B819C819D
:102F10000E94D01969837A838B839C8369817A812B
:102F20008B819C810E94421A3D813330F9F060F41C
:102F3000313091F03230A9F00F900F900F900F9038
:102F40000F90DF91CF9108954D814430A9F7709390
:102F5000D8246093D724F0CF7093CC246093CB24F3
:102F6000EBCF7093D0246093CF24E6CF7093D4241A
:102F70006093D324E1CFCF93DF9300D00F920F92D1
:102F8000CDB7DEB76D839C0150E040E029833A83E2
:102F90004B835C83CA01B9010E94711A28E93EED96
:102FA0004AE75FE369837A838B839C8369817A81B3
:102FB0008B819C810E94D01969837A838B839C8347
:102FC00069817A818B819C810E94421A3D813330D4
:102FD000F9F060F4313091F03230A9F00F900F9099
:102FE0000F900F900F90DF91CF9108954D81443055
:102FF000A9F77093DA246093D924F0CF7093CE248C
:103000006093CD24EBCF7093D2246093D124E6CF8C
:103010007093D6246093D524E1CF8F77992790932E
:10302000DC248093DB240C944E078091DB24909168
:10303000DC24089580931A0C089580911A0C089549
:10304000F89483E381B982E282B98CEC87B980E499
:1030500088B98FEF80930A0180930B0180E88AB9C9
:103060001BB8279A2F980E940C150E94530478943D
:103070000E945A150E947D160E944B1710922E0C2A
:1030800010922D0C0E94EE070E940B0E0E945B0610
:103090000E947A150E94CC150E9496146B017C0147
:1030A0008090430C9090440CA090450CB090460C3E
:1030B0008C149D04AE04BF0408F065C0DC01CB0194
:1030C00088199909AA09BB094C015D0120912D0CB1
:1030D00030912E0C21153105D1F1C9018D7F019759
:1030E000B1F58091410C9091420C4091370C509178
:1030F000380C4817590709F467C02130310509F029
:1031000063C0A0EC8A16A6EC9A06ADE2AA06B1044A
:10311000F0F0892B09F440C08091410C9091420C51
:103120002091370C3091380C01962817390708F494
:10313000C9019093420C8093410C0E940D18C092DB
:10314000430CD092440CE092450CF092460CAFE256
:10315000BCE0E7E9F4E28D919D91892B09F4DDC093
:1031600087819085892B09F0D8C00E94B207109200
:1031700097241092A4241092B1241092BE2480E0CF
:103180000E941A187BCF80949094A094B0948C0CD9
:103190009D1CAE1CBF1C9ACF81E00E941A1861E0F2
:1031A00084E893E00E94BB1762E084E893E00E9409
:1031B000BB1763E084E893E00E94BB1764E084E8F7
:1031C00093E00E94BB17A8CFA091390CB0913A0CA4
:1031D000E0913B0CF0913C0C60913D0C70913E0CE9
:1031E00040913F0C5091400CC0912F0CD091300C6D
:1031F000CD018E2B9F2B862B972B842B952B892BE8
:1032000091F5B0E88B16B6E99B06B8E9AB06B104B8
:1032100008F49DCFCFE2DCE007E914E2BB24B394CD
:10322000FE018A859B85229620813181059628178B
:10323000390708F4C901998788876B2D0E9469179F
:1032400081E0FE01329720813181232B09F480E057
:10325000F80180830E940F07B394035F1F4FF5E0CE
:10326000BF12DECF6CCFAC17BD07A9F48091310C33
:103270009091320CE817F90771F48091330C90911A
:10328000340C6817790739F48091350C9091360C1D
:103290004817590731F120EE821623E9920624E0FF
:1032A000A206B10408F453CF0FE21CE0C1E0F8011C
:1032B000828593850E5F1F4F2081318105962817E7
:1032C000390708F4C901D80119969C938E93189771
:1032D0006C2F0E9469170E940F07CF5FC53039F726
:1032E0002ECF10922E0C10922D0C2330310591F41C
:1032F00007E914E2C1E06C2F90E080E00E946917BA
:10330000F8011082CF5F035F1F4FC530A1F70E9405
:103310009A071DCF0E94A6071ACF3D9624E2EB3CE8
:10332000F20709F018CFAECEA1E21A2EAA1BBB1BE2
:10333000FD010DC0AA1FBB1FEE1FFF1FA217B30781
:10334000E407F50720F0A21BB30BE40BF50B661F97
:10335000771F881F991F1A9469F76095709580955B
:1033600090959B01AC01BD01CF0108950E94C11948
:10337000A59F900DB49F900DA49F800D911D1124C9
:103380000895A29FB001B39FC001A39F700D811D3E
:103390001124911DB29F700D811D1124911D08955E
:1033A0000E94E4190C94C51A0E94BE1A58F00E949B
:1033B000B71A40F029F45F3F29F00C94AE1A51116E
:1033C0000C94F91A0C94B41A0E94D61A68F3992333
:1033D000B1F3552391F3951B550BBB27AA27621711
:1033E0007307840738F09F5F5F4F220F331F441F1E
:1033F000AA1FA9F335D00E2E3AF0E0E832D0915052
:103400005040E695001CCAF72BD0FE2F29D0660F3E
:10341000771F881FBB1F261737074807AB07B0E881
:1034200009F0BB0B802DBF01FF2793585F4F3AF087
:103430009E3F510578F00C94AE1A0C94F91A5F3F38
:10344000E4F3983ED4F3869577956795B795F7950D
:103450009F5FC9F7880F911D9695879597F90895F5
:10346000E1E0660F771F881FBB1F62177307840791
:10347000BA0720F0621B730B840BBA0BEE1F88F7A0
:10348000E09508950E94DE1A88F09F5798F0B92FB2
:103490009927B751B0F0E1F0660F771F881F991F89
:1034A0001AF0BA95C9F714C0B13091F00E94F81A19
:1034B000B1E008950C94F81A672F782F8827B85F29
:1034C00039F0B93FCCF3869577956795B395D9F7E1
:1034D0003EF490958095709561957F4F8F4F9F4FEB
:1034E0000895E89409C097FB3EF4909580957095F7
:1034F00061957F4F8F4F9F4F9923A9F0F92F96E940
:10350000BB279395F695879577956795B795F111B4
:10351000F8CFFAF4BB0F11F460FF1BC06F5F7F4F51
:103520008F4F9F4F16C0882311F096E911C0772363
:1035300021F09EE8872F762F05C0662371F096E86C
:10354000862F70E060E02AF09A95660F771F881F3B
:10355000DAF7880F9695879597F9089597F99F67F9
:1035600080E870E060E008959FEF80EC089500240B
:103570000A941616170618060906089500240A94D8
:1035800012161306140605060895092E0394000C5E
:1035900011F4882352F0BB0F40F4BF2B11F460FFED
:1035A00004C06F5F7F4F8F4F9F4F089557FD905816
:1035B000440F551F59F05F3F71F04795880F97FBF7
:1035C000991F61F09F3F79F08795089512161306B1
:1035D0001406551FF2CF4695F1DF08C016161706E0
:1035E0001806991FF1CF8695710561050894089515
:1035F000E894BB2766277727CB0197F908950E94A7
:10360000121B0C94C51A0E94B71A38F00E94BE1AF9
:1036100020F0952311F00C94AE1A0C94B41A1124D6
:103620000C94F91A0E94D61A70F3959FC1F3950F66
:1036300050E0551F629FF001729FBB27F00DB11D36
:10364000639FAA27F00DB11DAA1F649F6627B00DC6
:10365000A11D661F829F2227B00DA11D621F739FAF
:10366000B00DA11D621F839FA00D611D221F749FBD
:103670003327A00D611D231F849F600D211D822F04
:10368000762F6A2F11249F5750409AF0F1F088232B
:103690004AF0EE0FFF1FBB1F661F771F881F915058
:1036A0005040A9F79E3F510580F00C94AE1A0C943F
:1036B000F91A5F3FE4F3983ED4F3869577956795C2
:1036C000B795F795E7959F5FC1F7FE2B880F911D82
:0C36D0009695879597F90895F894FFCF20
:1036DC002424246F66660A00242424696E73756C96
:1036EC006661696C65643A002424246265616D6FBF
:1036FC006E0A00242424696E73756C6F6B0A006467
:10370C00697361626C65640A0024242466696C73B5
:10371C006574613A00242424707375737461746544
:10372C00002424246100242424760024242465729B
:10373C00720A00242424656C656374726F6E637462
:10374C00726C5F32303231303831395F3030310A9F
:10375C00002424247073757374617465002424240C
:10376C00610024242476002424246572720A002427
:10377C002424656C656374726F6E6374726C5F3253
:10378C00303231303831395F3030310A0069640001
:10379C0070737567657476310070737567657476D0
:1037AC003200707375676574763300707375676576
:1037BC00747634007073756765746131007073755D
:1037CC00676574613200707375676574613300707E
:1037DC007375676574613400707375706F6C3170DC
:1037EC0000707375706F6C316E00707375706F6CE8
:1037FC00327000707375706F6C326E007073757010
:10380C006F6C337000707375706F6C336E00707307
:10381C0075706F6C347000707375706F6C346E00F3
:10382C007073756F6E31007073756F6666310070F2
:10383C0073756F6E32007073756F666632007073DD
:10384C00756F6E33007073756F66663300707375C9
:10385C006F6E34007073756F6666340066696C6FDA
:10386C006E0066696C6F6666007073756D6F64656B
:10387C00007073757365747631007073757365744D
:10388C00763200707375736574763300707375736C
:10389C006574763400707375736574613100707380
:1038AC007573657461320070737573657461330080
:1038BC0070737573657461340073657466696C61DB
:1038CC0000696E73756C006265616D68766F666613
:0838DC00006265616D6F6E0072
:00000001FF
