:100000000C948E000C94AF000C94AF000C94AF00D5
:100010000C94AF000C94AF000C94AF000C94AF00A4
:100020000C94AF000C94AF000C94AF000C94AF0094
:100030000C94AF000C948F170C94AF000C94AF008D
:100040000C94AF000C94AF000C94AF000C94AF0074
:100050000C94AF000C94AF000C94AF000C940015FE
:100060000C94AF000C94B7040C94E9040C94AF000A
:100070000C94AF000C94EE150C94AF000C94AF00F0
:100080000C94AF000C94AF000C94AF000C94AF0034
:100090000C9465050C9497050C94AF000C94AF007C
:1000A0000C94AF000C94AF000C94AF000C94AF0014
:1000B0000C94AF000C94AF000C94AF000C94AF0004
:1000C0000C94AF000C94AF000C94AF000C940C0691
:1000D0000C941F060C94AF000C94AF000C94AF006E
:1000E0000C94AF000C94F3170C9421180C94F71790
:1000F0000C942D180C94C1170C941D180C94FF1718
:100100000C9407180C9431180C9425180C94FB17B8
:100110000C9429180C9403180C94191811241FBE60
:10012000CFEFD1E2DEBFCDBF00E00CBF14E0A0E016
:10013000B2E0E6E3F9E300E00BBF02C007900D92E6
:10014000AC31B107D9F720E2ACE1B4E001C01D92B7
:10015000AB3EB207E1F70E9412190C948B1C0C9471
:1001600000000F931F93CF9302E910E2C1E0D80182
:100170001C926C2F90E080E00E945B186C2F8AE04C
:1001800090E00E94AD18035F1F4FCF5FC53079F735
:1001900080E00E940C1990E080E00E94FF1883E04C
:1001A00090E090931D0480931C0482EE97E090935E
:1001B0001F0480931E0484EE97E0909321048093A3
:1001C000200480E197E0909323048093220410920E
:1001D00025041092240410922704109226041092F1
:1001E00029041092280410922B0410922A041092D1
:1001F0002D0410922C0410922F0410922E041092B1
:100200003104109230040E946E1560933204709392
:1002100033048093340490933504CF911F910F9150
:1002200008950F931F93CF9302E910E2C1E0D80124
:100230001C926C2F90E080E00E945B186C2F8AE08B
:1002400090E00E94AD18035F1F4FCF5FC53079F774
:1002500080E00E940C1981E090E090931D0480934F
:100260001C0482EE97E090931F0480931E0484EE9A
:1002700097E0909321048093200480E197E090938D
:1002800023048093220410922504109224040E94D7
:100290000719909327048093260410922904109242
:1002A000280410922B0410922A0410922D0410920C
:1002B0002C0410922F0410922E04109231041092EC
:1002C00030040E946E15609332047093330480935F
:1002D00034049093350490E080E0CF911F910F910A
:1002E0000C94FF18CF93DF9300D00F92CDB7DEB7F9
:1002F0009C0150E040E029833A834B835C83CA0130
:10030000B9010E94891B2AE83FE14BE450E469836C
:100310007A838B839C8369817A818B819C810E9403
:10032000171C25E83BEE41E85FE369837A838B8302
:100330009C8369817A818B819C810E94171C6983CF
:100340007A838B839C8369817A818B819C810E94D3
:100350005A1BCB010F900F900F900F90DF91CF9110
:100360000895CF93DF9300D00F92CDB7DEB79C01F5
:100370008115924088F580E092E0DC01A21BB30B6E
:100380009D01C901B0E0A0E089839A83AB83BC835F
:10039000B901CD010E94891B20E030E44CE950E412
:1003A00069837A838B839C8369817A818B819C8129
:1003B0000E94171C69837A838B839C8369817A816D
:1003C0008B819C810E945A1BCB010F900F900F9044
:1003D0000F90DF91CF9108953250D3CFFC01F89464
:1003E0008FB71082118212821382148215821682B4
:1003F00017828FBF0895EF92FF920F931F93CF93B1
:10040000DF9300D00F92CDB7DEB7FC01F8942FB781
:10041000408151816281738184819581A681B781F8
:10042000481759076A077B0710F1408151816281A3
:10043000738184819581A681B7817A018B01E81A45
:10044000F90A0A0B1B0BE982FA820B831C832FBF6C
:1004500069817A818B819C810F900F900F900F9012
:10046000DF91CF911F910F91FF90EF9008958081C0
:100470009181A281B38144815581668177819C5F9E
:10048000AF4FBF4F7C018D01E41AF50A060B170B25
:10049000DACFFC01F8942FB74081518162817381DA
:1004A00084819581A681B781481759076A077B0720
:1004B000D1F084819581A681B7818E0F9F1FDC01C9
:1004C00018968C9144815581668177814F5F5F4F8B
:1004D0006F4F7F4F5370662777274483558366831A
:1004E00077832FBF089580E00895CF92DF92EF9237
:1004F000FF921F93CF93DF9300D000D0CDB7DEB72C
:100500008D839E836A017B01F8941FB7AD81BE8104
:100510004D915D916D917C91139714968D919D9164
:100520000D90BC91A02D481759076A077B0781F4ED
:1005300080E01FBF26960FB6F894DEBF0FBECDBF7A
:10054000DF91CF911F91FF90EF90DF90CF900895B2
:100550008D819E810E94FB0169837A838B839C83BA
:10056000C616D706E806F90618F7ED81FE818481E4
:100570009581A681B7818C0D9D1DAE1DBF1D937009
:10058000AA27BB27E80FF91F8085D3CF0F931F93AE
:10059000FC018A019B01F8944FB784819581A68163
:1005A000B781800F911FA21FB31F9370AA27BB278B
:1005B00084839583A683B7834FBF1F910F910895BE
:1005C000CF92DF92EF92FF92FC01F8942FB78081D7
:1005D0009181A281B381C480D580E680F7800196A5
:1005E000A11DB11D9370AA27BB278C159D05AE05D3
:1005F000BF05B9F080819181A281B3818E0F9F1FC9
:10060000DC0118966C9380819181A281B38101965F
:10061000A11DB11D9370AA27BB2780839183A2835C
:10062000B3832FBFFF90EF90DF90CF900895EF92AC
:10063000FF920F931F93CF93DF937C01022F132F11
:10064000EB01060F171F6991C7010E94E002C01756
:10065000D107C9F7DF91CF911F910F91FF90EF90D4
:1006600008958F929F92AF92BF92CF92DF92EF92B6
:10067000FF92CF93DF9300D00F920F92CDB7DEB7EA
:100680006A017B01FC0119821A821B821C82812C67
:10069000912C54018C149D04AE04BF04A1F4698113
:1006A0007A818B819C810F900F900F900F900F900B
:1006B000DF91CF91FF90EF90DF90CF90BF90AF9000
:1006C0009F908F900895219120532D832A3098F484
:1006D000AAE0B0E029813A814B815C810E94CE1A68
:1006E000DC01CB012D81820F911DA11DB11D8983DC
:1006F0009A83AB83BC838FEF881A980AA80AB80A3A
:10070000C9CF8F929F92AF92BF92CF92DF92EF921A
:10071000FF920F931F93CF93DF93CDB7DEB72E9742
:100720000FB6F894DEBF0FBECDBFF82EE92E4B8773
:100730005C876D877E878B859C85AD85BE85892B83
:100740008A2B8B2BB9F460E38F2D9E2D2E960FB63E
:10075000F894DEBF0FBECDBFDF91CF911F910F91F7
:10076000FF90EF90DF90CF90BF90AF909F908F90D1
:100770000C94E00210E08AE0882E912CA12CB12C80
:10078000DE0111966D016B857C858D859E85A501A9
:1007900094010E94A41AF601E10FF11D605D6083CF
:1007A0001F5F8B859C85AD85BE852B873C874D87DC
:1007B0005E870A97A105B10530F7F601E10FF11D3B
:1007C0008F01C016D10699F42E960FB6F894DEBFAD
:1007D0000FBECDBFDF91CF911F910F91FF90EF9092
:1007E000DF90CF90BF90AF909F908F900895D801E9
:1007F0006E918D018F2D9E2D0E94E002E2CFCF924F
:10080000DF92EF92FF926A01FC01D901C80ED91E56
:1008100081912D91082E000C990B2817190649F487
:10082000EC15FD05A9F781E0FF90EF90DF90CF90E8
:10083000089580E0F9CF4F925F926F927F928F92EE
:100840009F92AF92BF92CF92DF92EF92FF920F935F
:100850001F93CF93DF9300D000D0CDB7DEB72C012C
:10086000B62E072F69017A01F8941FB70E94FB0189
:1008700069837A838B839C836C157D058E059F0528
:1008800050F06B2C702E40E050E0BA01C416D50633
:10089000E606F706C1F41FBF26960FB6F894DEBF32
:1008A0000FBECDBFDF91CF911F910F91FF90EF90C1
:1008B000DF90CF90BF90AF909F908F907F906F9080
:1008C0005F904F900895D20114968D909D90AD90B9
:1008D000BC901797C401840D951DFC0120851496CA
:1008E0008D919D910D90BC91A02D0196A11DB11DE2
:1008F0009370AA27BB27F20184839583A683B783CD
:10090000D3012D933D014F5F5F4F6F4F7F4FBECFA0
:100910009FB7F894E0ECF0E0808180648083E1ECA4
:10092000F0E08081886280839FBF0895CF93CFB726
:10093000F89488E594E10E94EE0180E590E10E9440
:10094000EE01109265201092642087E690E090936B
:10095000C5008093C40082E08093C00080E980934A
:10096000C10086E08093C200CFBFCF9108951F924F
:100970000F920FB60F9211240BB60F922F933F9345
:100980004F935F936F937F938F939F93AF93BF9397
:10099000EF93FF936091C60080E590E10E94E00232
:1009A00081E090E09093652080936420FF91EF9127
:1009B000BF91AF919F918F917F916F915F914F9177
:1009C0003F912F910F900BBE0F900FBE0F901F9075
:1009D00018951F920F920FB60F9211240BB60F921B
:1009E0002F933F934F935F936F937F938F939F9337
:1009F000AF93BF93EF93FF93F8942FB740915814A0
:100A00005091591460915A1470915B1480915C1448
:100A100090915D14A0915E14B0915F142FBF4817A0
:100A200059076A077B07C9F088E594E10E944902EB
:100A30008093C600FF91EF91BF91AF919F918F91ED
:100A40007F916F915F914F913F912F910F900BBECE
:100A50000F900FBE0F901F90189584E28093C600F0
:100A60008091C100877D8093C100E4CF9FB7F89447
:100A7000E8ECF0E0808180648083E9ECF0E0808144
:100A8000886280839FBF0895CF93CFB7F89488E49E
:100A90009CE00E94EE0180E498E00E94EE0110923A
:100AA00063201092622087E690E09093CD008093BF
:100AB000CC0082E08093C80080E98093C90086E082
:100AC0008093CA00CFBFCF9108951F920F920FB6A7
:100AD0000F9211240BB60F922F933F934F935F9376
:100AE0006F937F938F939F93AF93BF93EF93FF93F6
:100AF0006091CE0080E498E00E94E00281E090E006
:100B00009093632080936220FF91EF91BF91AF910A
:100B10009F918F917F916F915F914F913F912F9115
:100B20000F900BBE0F900FBE0F901F9018951F9245
:100B30000F920FB60F9211240BB60F922F933F9383
:100B40004F935F936F937F938F939F93AF93BF93D5
:100B5000EF93FF93F8942FB74091480C5091490CB4
:100B600060914A0C70914B0C80914C0C90914D0C03
:100B7000A0914E0CB0914F0C2FBF481759076A0730
:100B80007B07C9F088E49CE00E9449028093CE0074
:100B9000FF91EF91BF91AF919F918F917F916F9155
:100BA0005F914F913F912F910F900BBE0F900FBE11
:100BB0000F901F9018958091C900877D8093C90080
:100BC000E7CF9FB7F894E0EDF0E080818064808308
:100BD000E1EDF0E08081886280839FBF0895CF932C
:100BE000CFB7F89488E394E00E94EE01109265205C
:100BF0001092642087E690E09093D5008093D40013
:100C000082E08093D00080E98093D10086E08093D9
:100C1000D200CFBFCF9108958F938FB78F939F93BB
:100C20008091D600813731F481E090E0909361208B
:100C3000809360209F918F918FBF8F9118951F9205
:100C40000F920FB60F9211240BB60F922F933F9372
:100C50004F935F936F937F938F939F93AF93BF93C4
:100C6000EF93FF93F8942FB74091380450913904D3
:100C700060913A0470913B0480913C0490913D0452
:100C8000A0913E04B0913F042FBF481759076A074F
:100C90007B07C9F088E394E00E9449028093D60064
:100CA000FF91EF91BF91AF919F918F917F916F9144
:100CB0005F914F913F912F910F900BBE0F900FBE00
:100CC0000F901F9018958091D100877D8093D1005F
:100CD000E7CF0F931F93CF93DF9300D000D0CDB712
:100CE000DEB78FB72091602030916120232B09F46B
:100CF00092C010926120109260208FBF82E790E234
:100D00009E838D83F894AD81BE818D919C911197C6
:100D100012960D911C9178940E947201AC0170E0C2
:100D200060E088E394E00E9481036AE388E394E052
:100D30000E94E002C801B0E0A0E089839A83AB83FF
:100D4000BC83B801CD010E94891B20E030E44CE156
:100D500051E469837A838B839C8369817A818B8157
:100D60009C810E94171C69837A838B839C83698191
:100D70007A818B819C810E945A1B69837A838B8341
:100D80009C83A981BA81AD0170E060E088E394E0C2
:100D90000E9481036AE388E394E00E94E002ED810F
:100DA000FE813496FE83ED83E258F04209F0AACF2B
:100DB0000E940719AC0170E060E088E394E00E94B3
:100DC00081036AE388E394E00E94E002F894809152
:100DD00082209091832078940E94B101AC0170E050
:100DE00060E088E394E00E9481036DE088E394E092
:100DF0000E94E0026AE088E394E00E94E002269606
:100E00000FB6F894DEBF0FBECDBFDF91CF911F911B
:100E10000F910C94E10526960FB6F894DEBF0FBE35
:100E2000CDBFDF91CF911F910F910895CF92DF92A7
:100E3000EF92FF920F931F93CF9302E710E2C1E36B
:100E4000F894F8018081918178940E9472016C017C
:100E500024E030E040E050E062E972E088E594E1AF
:100E60000E9417036C2F88E594E10E94E0026AE378
:100E700088E594E10E94E002F12CE12CB701A60183
:100E800088E594E10E9481036AE088E594E10E948C
:100E9000E00224E030E040E050E062E972E088E403
:100EA0009CE00E9417036C2F88E49CE00E94E00203
:100EB0006AE388E49CE00E94E002B701A60188E4AE
:100EC0009CE00E9481036AE088E49CE00E94E002CA
:100ED0000C5F1F4FCF5FC53309F0B2CF0E9488046B
:100EE000CF911F910F91FF90EF90DF90CF900C94D6
:100EF0003605CF92DF92EF92FF920E940F1988235E
:100F000009F458C00E9407196C012BE030E040E062
:100F100050E069E372E088E594E10E941703F12C48
:100F2000E12CB701A60188E594E10E9481036AE300
:100F300088E594E10E94E0022BE030E040E050E0E0
:100F400069E372E088E49CE00E941703B701A60100
:100F500088E49CE00E9481036AE388E49CE00E94AC
:100F6000E002F894809182209091832078940E94EE
:100F7000B1016C01F12CE12CB701AC0188E594E1E1
:100F80000E9481036AE088E594E10E94E002B701D3
:100F9000A60188E49CE00E9481036AE088E49CE06A
:100FA0000E94E0020E948804FF90EF90DF90CF90B3
:100FB0000C9436052BE030E040E050E069E372E04D
:100FC00088E594E10E94170329E030E040E050E01A
:100FD0006FE272E088E594E10E9417032BE030E0B5
:100FE00040E050E069E372E088E49CE00E9417036F
:100FF00029E030E040E050E06FE272E088E49CE0FD
:101000000E941703CFCF2BE030E040E050E063E2D6
:1010100072E088E594E10E9417030E9488042BE0A7
:1010200030E040E050E063E272E088E49CE00E943F
:1010300017030C9436052AE030E040E050E068E108
:1010400072E088E594E10E9417030E9488042AE078
:1010500030E040E050E068E172E088E49CE00E940B
:1010600017030C943605CF92DF92EF92FF920F9305
:101070001F93CF93DF932FE030E040E050E068E033
:1010800072E088E594E10E9417038EE1E82E84E087
:10109000F82EC2E9D0E28E016701F60181919191AB
:1010A0006F01892B31F0F8018781908566E4892BE7
:1010B00009F06DE288E594E10E94E002035F1F4FB2
:1010C000F0E2063C1F0749F76AE088E594E10E94D8
:1010D000E0020E9488042FE030E040E050E068E049
:1010E00072E088E49CE00E941703F70181919191DE
:1010F0007F01892B29F08F81988566E4892B09F07F
:101100006DE288E49CE00E94E0022D96F0E2C63C8D
:10111000DF0759F76AE088E49CE00E94E002DF9173
:10112000CF911F910F91FF90EF90DF90CF900C9493
:10113000360527E030E040E050E060E072E088E50E
:1011400094E10E9417030E94880427E030E040E009
:1011500050E060E072E088E49CE00E9417030C9489
:1011600036058F929F92AF92BF92CF92DF92EF920D
:10117000FF92CF93DF9300D00F92CDB7DEB780E51B
:1011800090E10E94FB0169837A838B839C836330A7
:10119000710581059105B8F40F900F900F900F9095
:1011A000DF91CF91FF90EF90DF90CF90BF90AF9005
:1011B0009F908F90089541E050E060E070E080E5FE
:1011C00090E10E94C602F8942FB7409150105091C0
:1011D0005110609152107091531080915410909161
:1011E0005510A0915610B0915710481759076A072B
:1011F0007B0779F42FBF80E590E10E94FB016983B2
:101200007A838B839C83643071058105910598F600
:1012100010C08091541090915510A0915610B0912B
:101220005710805B9F4EDC0118968C912FBF843243
:1012300011F780E590E10E94FB01653071058105A1
:10124000910508F4A9CF40E050E0BA0180E590E1B3
:101250000E947502843209F49EC080E590E10E94EC
:10126000FB01653071058105910508F08BC080E5B3
:1012700090E10E94FB0169837A838B839C836530B4
:1012800071058105910508F487CF80E590E10E9402
:10129000FB016B017C0183E0882E912CA12CB12CE9
:1012A0008C149D04AE04BF0408F076CFB501A401F0
:1012B00080E590E10E9475028A3049F0B501A401F1
:1012C00080E590E10E947502843209F086C0B50184
:1012D000A40180E590E10E9475028A3009F076C28F
:1012E00043E050E060E070E080E590E10E94C602DB
:1012F00075016401E3E0CE1AD108E108F108B501F7
:10130000A401445051096109710980E590E10E94EE
:10131000750241E050E060E070E08D3019F040E08F
:1013200050E0BA01C41AD50AE60AF70AA7019601E5
:1013300060E67CE180E590E10E941B04F2E0CF16BC
:10134000D104E104F10409F04EC020E63CE142E0A2
:1013500050E060E070E08DEB92E00E94FF032DE131
:1013600030E040E050E06FE972E0813031F027E09A
:1013700030E040E050E067E972E088E594E10E94E7
:1013800017039EC041E050E060E070E080E590E12E
:101390000E94C60258CF41E050E060E070E080E576
:1013A00090E10E947502843209F057CF42E050E08C
:1013B00060E070E080E590E10E947502843209F0FF
:1013C0004CCF43E050E060E070E080E590E10E94A7
:1013D0007502843209F441CF4ACFBFEF8B1A9B0AC2
:1013E000AB0ABB0A5DCF28E0C216D104E104F104C8
:1013F00009F01DC220E63CE148E050E060E070E00A
:1014000080EC92E00E94FF03813011F5F894809106
:1014100072209091732078940E94720189839A833C
:1014200024E030E040E050E062E972E088E594E1D9
:101430000E94170361E388E594E10E94E0026AE3F9
:1014400088E594E10E94E00289819A81AC012DC077
:1014500020E63CE148E050E060E070E089EC92E09A
:101460000E94FF03813079F5F89480917620909165
:10147000772078940E94720189839A8324E030E077
:1014800040E050E062E972E088E594E10E941703D1
:1014900062E388E594E10E94E0026AE388E594E172
:1014A0000E94E002A981BA81AD0170E060E088E5A8
:1014B00094E10E9481036AE088E594E10E94E002E1
:1014C0000E94880483C120E63CE148E050E060E0EF
:1014D00070E082ED92E00E94FF03813011F5F894F4
:1014E00080917A2090917B2078940E947201898368
:1014F0009A8324E030E040E050E062E972E088E561
:1015000094E10E94170363E388E594E10E94E002FE
:101510006AE388E594E10E94E002E981FA81AF0183
:10152000C4CF20E63CE148E050E060E070E08BEDA5
:1015300092E00E94FF038130B1F4F89480917E2004
:1015400090917F2078940E94720189839A8324E08D
:1015500030E040E050E062E972E088E594E10E940A
:10156000170364E368CF20E63CE148E050E060E028
:1015700070E084EE92E00E94FF03813009F046C0E3
:10158000F894A0917420B0917520BA83A9837894BF
:1015900024E030E040E050E06DE872E088E594E15E
:1015A0000E94170361E388E594E10E94E0026AE388
:1015B00088E594E10E94E002A981BA81CD01B0E002
:1015C000A0E089839A83AB83BC83BC01CD010E94D8
:1015D000891B20E030E44CE151E469837A838B83FA
:1015E0009C8369817A818B819C810E94171C69830D
:1015F0007A838B839C8369817A818B819C810E9411
:101600005A1B69837A838B839C8387CF20E63CE1D6
:1016100048E050E060E070E08DEE92E00E94FF0351
:101620008130A1F4F89480917820909179209A8368
:101630008983789424E030E040E050E06DE872E087
:1016400088E594E10E94170362E3ADCF20E63CE118
:1016500048E050E060E070E086EF92E00E94FF0317
:101660008130A1F4F89480917C2090917D209A8320
:101670008983789424E030E040E050E06DE872E047
:1016800088E594E10E94170363E38DCF20E63CE1F7
:1016900048E050E060E070E08FEF92E00E94FF03CE
:1016A0008130A1F4F89480918020909181209A83D8
:1016B0008983789424E030E040E050E06DE872E007
:1016C00088E594E10E94170364E36DCF20E63CE1D6
:1016D00048E050E060E070E088E093E00E94FF03A3
:1016E000813049F4109294201092932010921D049E
:1016F00010921C046BC020E63CE148E050E060E042
:1017000070E081E193E00E94FF03813039F481E0D1
:1017100090E09093942080939320E8CF20E63CE1E2
:1017200048E050E060E070E08AE193E00E94FF034F
:10173000813029F41092A1201092A020D7CF20E66A
:101740003CE148E050E060E070E083E293E00E941A
:10175000FF03813039F481E090E09093A1208093E1
:10176000A020C4CF20E63CE148E050E060E070E01B
:101770008CE293E00E94FF03813029F41092AE20A6
:101780001092AD20B3CF20E63CE148E050E060E0AD
:1017900070E085E393E00E94FF03813039F481E03B
:1017A00090E09093AE208093AD20A0CF20E63CE166
:1017B00048E050E060E070E08EE393E00E94FF03B9
:1017C000813009F51092BB201092BA20B501A40116
:1017D00080E590E10E947502843209F0DDCCB5010C
:1017E000A40180E590E10F900F900F900F90DF9192
:1017F000CF91FF90EF90DF90CF90BF90AF909F90F0
:101800008F900C94C60220E63CE148E050E060E096
:1018100070E087E493E00E94FF03813009F019C172
:1018200081E090E09093BB208093BA20CFCFF6E088
:10183000CF16D104E104F10479F420E63CE146E05E
:1018400050E060E070E080E593E00E94FF038130AB
:10185000C9F480939220BACF27E0C216D104E104E4
:10186000F10409F06BC020E63CE147E050E060E0A5
:1018700070E087E593E00E94FF03813091F41092BD
:10188000922034CF20E63CE146E050E060E070E09A
:101890008FE593E00E94FF03813091F480939F20B5
:1018A00095CF20E63CE147E050E060E070E086E65E
:1018B00093E00E94FF03813091F410929F2016CF95
:1018C00020E63CE146E050E060E070E08EE693E028
:1018D0000E94FF03813091F48093AC2077CF20E603
:1018E0003CE147E050E060E070E085E793E00E9473
:1018F000FF03813099F41092AC20F8CE20E63CE151
:1019000046E050E060E070E08DE793E00E94FF0366
:10191000813009F04FC08093B92058CF20E63CE1D8
:1019200047E050E060E070E084E893E00E94FF034D
:10193000813009F050C01092B92048CF83E0C8161A
:10194000D104E104F104F9F420E63CE143E050E085
:1019500060E070E085E993E00E94FF03813009F0C8
:1019600006CD1092922010929F201092AC201092DF
:10197000B92080E00E940C1910921D0410921C04E2
:101980000E94990823CF95E0C916D104E104F1041F
:1019900009F058C020E63CE145E050E060E070E02E
:1019A0008CE893E00E94FF03813009F031C10E946E
:1019B0000C190CCF20E63CE146E050E060E070E01E
:1019C00082E993E00E94FF03813009F021C180E0A9
:1019D0000E940C198BCE20E63CE147E050E060E02D
:1019E00070E089E993E00E94FF03813009F010C1A3
:1019F0002BE030E040E050E061E872E088E594E1FF
:101A00000E941703A2E9B0E2BA83A983E981FA81AF
:101A100080816DE2813049F4A981BA8117968D9158
:101A20009C9163E4892B09F066E588E594E10E94C6
:101A3000E002E981FA813D96FA83E983E65CF042AF
:101A400029F739CD88E0C816D104E104F10408F47F
:101A5000D8C020E63CE148E050E060E070E081EA78
:101A600093E00E94FF03813089F4B701A60148503A
:101A700051096109710988E69CE10E943103262F12
:101A800061E0822F972F0E945B1830CE20E63CE168
:101A900048E050E060E070E08AEA93E00E94FF03D3
:101AA000813069F4B701A6014850510961097109F3
:101AB00088E69CE10E943103262F62E0E2CF20E617
:101AC0003CE148E050E060E070E083EB93E00E948E
:101AD000FF03813069F4B701A6014850510961093B
:101AE000710988E69CE10E943103262F63E0C9CF8B
:101AF00020E63CE148E050E060E070E08CEB93E0F1
:101B00000E94FF03813089F4B701A60148505109B2
:101B10006109710988E69CE10E943103262F64E087
:101B2000822F972F0E945B1851CE20E63CE148E0BF
:101B300050E060E070E085EC93E00E94FF038130AC
:101B400089F4B701A601485051096109710988E675
:101B50009CE10E943103262F61E0822F972F0E9483
:101B6000AD18C4CD20E63CE148E050E060E070E014
:101B70008EEC93E00E94FF03813069F4B701A60167
:101B8000485051096109710988E69CE10E943103BE
:101B9000262F62E0E2CF20E63CE148E050E060E042
:101BA00070E087ED93E00E94FF03813069F4B70194
:101BB000A601485051096109710988E69CE10E941B
:101BC0003103262F63E0C9CF20E63CE148E050E036
:101BD00060E070E080EE93E00E94FF038130C1F48A
:101BE000B701A601485051096109710988E69CE1D5
:101BF0000E943103262F64E0822F972F0E94AD1898
:101C0000E5CD94E0C916D104E104F10408F4AFCBAA
:101C100020E63CE144E050E060E070E08CEE93E0D0
:101C20000E94FF038130F9F4F89480918220909112
:101C3000832078940E94B1017C0124E030E040E0F0
:101C400050E06DE872E088E594E10E94170366E6D3
:101C500088E594E10E94E0026AE388E594E10E944D
:101C6000E002A70122CCA7E0CA16D104E104F104E6
:101C7000D8F020E63CE147E050E060E070E089EE1B
:101C800093E00E94FF03813009F072C0B701A60102
:101C9000475051096109710987E69CE10E943103AF
:101CA000CB010E94FF1822CDB5E0CB16D104E10490
:101CB000F104C1F520E63CE145E050E060E070E071
:101CC00081EF93E00E94FF03813009F041C00E9440
:101CD000B1007CCD20E63CE149E050E060E070E0FE
:101CE00087EF93E00E94FF03813009F040CB109210
:101CF000922010929F201092AC201092B92061E0A7
:101D000090E080E00E945B1862E090E080E00E943A
:101D10005B1863E090E080E00E945B1864E090E074
:101D200080E0B1CEE6E0CE16D104E104F10439F54D
:101D300020E63CE146E050E060E070E081E094E0C5
:101D40000E94FF03813009F012CB0E9411013ECDA9
:101D500020E63CE145E050E060E070E085E194E0A1
:101D60000E94FF03813009F002CB0C9400002ECDBD
:101D7000F9E0CF16D104E104F10409F4ABCF2CE073
:101D8000C216D104E104F10409F0F1CA20E63CE1F5
:101D90004CE050E060E070E088E094E00E94FF03D7
:101DA000813009F0E4CA10923704109236040ECD47
:101DB0008F929F92AF92BF92CF92DF92EF92FF925B
:101DC000CF93DF9300D00F92CDB7DEB780E498E0D9
:101DD0000E94FB0169837A838B839C836330710546
:101DE00081059105B8F40F900F900F900F90DF913F
:101DF000CF91FF90EF90DF90CF90BF90AF909F90EA
:101E00008F90089541E050E060E070E080E498E059
:101E10000E94C602F8942FB74091400850914108A3
:101E20006091420870914308809144089091450860
:101E3000A0914608B0914708481759076A077B07E1
:101E400079F42FBF80E498E00E94FB0169837A83D4
:101E50008B839C83643071058105910598F610C0D1
:101E60008091440890914508A0914608B091470898
:101E7000805C974FDC0118968C912FBF843211F74C
:101E800080E498E00E94FB016530710581059105B1
:101E900008F4A9CF40E050E0BA0180E498E00E9445
:101EA0007502843209F49EC080E498E00E94FB0130
:101EB000653071058105910508F08BC080E498E0DC
:101EC0000E94FB0169837A838B839C836530710553
:101ED0008105910508F487CF80E498E00E94FB011A
:101EE0006B017C0183E0882E912CA12CB12C8C14E9
:101EF0009D04AE04BF0408F076CFB501A40180E4D0
:101F000098E00E9475028A3049F0B501A40180E48E
:101F100098E00E947502843209F086C0B501A401E0
:101F200080E498E00E9475028A3009F076C243E0AE
:101F300050E060E070E080E498E00E94C602750125
:101F40006401E3E0CE1AD108E108F108B501A4016B
:101F5000445051096109710980E498E00E947502BA
:101F600041E050E060E070E08D3019F040E050E07A
:101F7000BA01C41AD50AE60AF70AA701960160E673
:101F800078E180E498E00E941B04F2E0CF16D104CF
:101F9000E104F10409F04EC020E638E142E050E0EF
:101FA00060E070E08DEB92E00E94FF032DE130E0F5
:101FB00040E050E063E672E0813031F027E030E04D
:101FC00040E050E06BE572E088E49CE00E9417037B
:101FD0009EC041E050E060E070E080E498E00E9444
:101FE000C60258CF41E050E060E070E080E498E045
:101FF0000E947502843209F057CF42E050E060E061
:1020000070E080E498E00E947502843209F04CCFC1
:1020100043E050E060E070E080E498E00E947502E8
:10202000843209F441CF4ACFBFEF8B1A9B0AAB0A27
:10203000BB0A5DCF28E0C216D104E104F10409F027
:102040001DC220E638E148E050E060E070E080EC3E
:1020500092E00E94FF03813011F5F8948091722084
:102060009091732078940E94720189839A8324E06E
:1020700030E040E050E066E572E088E49CE00E94D9
:10208000170361E388E49CE00E94E0026AE388E4CD
:102090009CE00E94E00289819A81AC012DC020E67B
:1020A00038E148E050E060E070E089EC92E00E94A6
:1020B000FF03813079F5F894809176209091772014
:1020C00078940E94720189839A8324E030E040E092
:1020D00050E066E572E088E49CE00E94170362E34A
:1020E00088E49CE00E94E0026AE388E49CE00E94AD
:1020F000E002A981BA81AD0170E060E088E49CE073
:102100000E9481036AE088E49CE00E94E0020E9451
:10211000360583C120E638E148E050E060E070E039
:1021200082ED92E00E94FF03813011F5F8948091D6
:102130007A2090917B2078940E94720189839A83FF
:1021400024E030E040E050E066E572E088E49CE0A6
:102150000E94170363E388E49CE00E94E0026AE3C4
:1021600088E49CE00E94E002E981FA81AF01C4CFDB
:1021700020E638E148E050E060E070E08BED92E06E
:102180000E94FF038130B1F4F89480917E209091F9
:102190007F2078940E94720189839A8324E030E042
:1021A00040E050E066E572E088E49CE00E9417039E
:1021B00064E368CF20E638E148E050E060E070E09A
:1021C00084EE92E00E94FF03813009F046C0F8944B
:1021D000A0917420B0917520BA83A983789424E0EB
:1021E00030E040E050E061E572E088E49CE00E946D
:1021F000170361E388E49CE00E94E0026AE388E45C
:102200009CE00E94E002A981BA81CD01B0E0A0E08B
:1022100089839A83AB83BC83BC01CD010E94891B57
:1022200020E030E44CE151E469837A838B839C8322
:1022300069817A818B819C810E94171C69837A83D2
:102240008B839C8369817A818B819C810E945A1B3C
:1022500069837A838B839C8387CF20E638E148E0CB
:1022600050E060E070E08DEE92E00E94FF0381306C
:10227000A1F4F89480917820909179209A838983B1
:10228000789424E030E040E050E061E572E088E4DA
:102290009CE00E94170362E3ADCF20E638E148E0FE
:1022A00050E060E070E086EF92E00E94FF03813032
:1022B000A1F4F89480917C2090917D209A83898369
:1022C000789424E030E040E050E061E572E088E49A
:1022D0009CE00E94170363E38DCF20E638E148E0DD
:1022E00050E060E070E08FEF92E00E94FF038130E9
:1022F000A1F4F89480918020909181209A83898321
:10230000789424E030E040E050E061E572E088E459
:102310009CE00E94170364E36DCF20E638E148E0BB
:1023200050E060E070E088E093E00E94FF038130BD
:1023300049F4109294201092932010921D04109250
:102340001C046BC020E638E148E050E060E070E03B
:1023500081E193E00E94FF03813039F481E090E055
:102360009093942080939320E8CF20E638E148E0D2
:1023700050E060E070E08AE193E00E94FF0381306A
:1023800029F41092A1201092A020D7CF20E638E1A6
:1023900048E050E060E070E083E293E00E94FF03D9
:1023A000813039F481E090E09093A1208093A020C7
:1023B000C4CF20E638E148E050E060E070E08CE215
:1023C00093E00E94FF03813029F41092AE20109216
:1023D000AD20B3CF20E638E148E050E060E070E0A7
:1023E00085E393E00E94FF03813039F481E090E0BF
:1023F0009093AE208093AD20A0CF20E638E148E056
:1024000050E060E070E08EE393E00E94FF038130D3
:1024100009F51092BB201092BA20B501A40180E406
:1024200098E00E947502843209F0DDCCB501A40168
:1024300080E498E00F900F900F900F90DF91CF9174
:10244000FF90EF90DF90CF90BF90AF909F908F90D4
:102450000C94C60220E638E148E050E060E070E00D
:1024600087E493E00E94FF03813009F02DC181E0F1
:1024700090E09093BB208093BA20CFCFF6E0CF16A8
:10248000D104E104F10479F420E638E146E050E0BB
:1024900060E070E080E593E00E94FF038130C9F4C2
:1024A00080939220BACF27E0C216D104E104F10450
:1024B00009F06BC020E638E147E050E060E070E0F2
:1024C00087E593E00E94FF03813091F410929220FF
:1024D00034CF20E638E146E050E060E070E08FE580
:1024E00093E00E94FF03813091F480939F2095CF69
:1024F00020E638E147E050E060E070E086E693E0F7
:102500000E94FF03813091F410929F2016CF20E6A5
:1025100038E146E050E060E070E08EE693E00E9433
:10252000FF03813091F48093AC2077CF20E638E12F
:1025300047E050E060E070E085E793E00E94FF0331
:10254000813099F41092AC20F8CE20E638E146E0D4
:1025500050E060E070E08DE793E00E94FF0381307F
:1025600009F063C08093B92058CF20E638E147E0F6
:1025700050E060E070E084E893E00E94FF03813067
:1025800009F064C01092B92048CF83E0C816D10486
:10259000E104F10499F520E638E143E050E060E021
:1025A00070E085E993E00E94FF03813009F006CDD9
:1025B0001092922010929F201092AC201092B9207D
:1025C00061E090E080E00E945B1862E090E080E0D3
:1025D0000E945B1863E090E080E00E945B1864E07A
:1025E00090E080E00E945B1880E00E940C1910923D
:1025F0001D0410921C040E9499080FCF95E0C91683
:10260000D104E104F10409F058C020E638E145E0C6
:1026100050E060E070E08CE893E00E94FF038130BE
:1026200009F031C10E940C19F8CE20E638E146E0ED
:1026300050E060E070E082E993E00E94FF038130A7
:1026400009F021C180E00E940C1977CE20E638E124
:1026500047E050E060E070E089E993E00E94FF030A
:10266000813009F010C12BE030E040E050E065E43B
:1026700072E088E49CE00E941703A2E9B0E2BA830A
:10268000A983E981FA8180816DE2813049F4A981D1
:10269000BA8117968D919C9163E4892B09F066E5C8
:1026A00088E49CE00E94E002E981FA813D96FA8389
:1026B000E983E65CF04229F725CD88E0C816D1040D
:1026C000E104F10408F4D8C020E638E148E050E025
:1026D00060E070E081EA93E00E94FF03813089F4BA
:1026E000B701A601485051096109710988E698E1CE
:1026F0000E943103262F61E0822F972F0E945B18E2
:102700001CCE20E638E148E050E060E070E08AEA64
:1027100093E00E94FF03813069F4B701A60148509D
:1027200051096109710988E698E10E943103262F59
:1027300062E0E2CF20E638E148E050E060E070E09F
:1027400083EB93E00E94FF03813069F4B701A60197
:10275000485051096109710988E698E10E943103E6
:10276000262F63E0C9CF20E638E148E050E060E082
:1027700070E08CEB93E00E94FF03813089F4B70195
:10278000A601485051096109710988E698E10E9443
:102790003103262F64E0822F972F0E945B183DCED5
:1027A00020E638E148E050E060E070E085EC93E03E
:1027B0000E94FF03813089F4B701A60148505109F6
:1027C0006109710988E698E10E943103262F61E0D2
:1027D000822F972F0E94AD18B0CD20E638E148E057
:1027E00050E060E070E08EEC93E00E94FF038130E7
:1027F00069F4B701A601485051096109710988E6D9
:1028000098E10E943103262F62E0E2CF20E638E112
:1028100048E050E060E070E087ED93E00E94FF0345
:10282000813069F4B701A601485051096109710965
:1028300088E698E10E943103262F63E0C9CF20E6A5
:1028400038E148E050E060E070E080EE93E00E9404
:10285000FF038130C1F4B701A60148505109610955
:10286000710988E698E10E943103262F64E0822FE7
:10287000972F0E94AD18D1CD94E0C916D104E10480
:10288000F10408F49BCB20E638E144E050E060E03E
:1028900070E08CEE93E00E94FF038130F9F4F8942D
:1028A000809182209091832078940E94B1017C01D4
:1028B00024E030E040E050E061E572E088E49CE034
:1028C0000E94170366E688E49CE00E94E0026AE347
:1028D00088E49CE00E94E002A7010ECCA7E0CA16A3
:1028E000D104E104F104D8F020E638E147E050E0FB
:1028F00060E070E089EE93E00E94FF03813009F010
:102900005FC0B701A601475051096109710987E607
:1029100098E10E943103CB010E94FF180ECDB5E073
:10292000CB16D104E104F10429F520E638E145E0B5
:1029300050E060E070E081EF93E00E94FF0381309F
:1029400079F50E94B10069CD20E638E149E050E018
:1029500060E070E087EF93E00E94FF03813009F0B0
:102960002DCB1092922010929F201092AC201092AA
:10297000B920E3CCE6E0CE16D104E104F10439F548
:1029800020E638E146E050E060E070E081E094E06D
:102990000E94FF03813009F011CB0E9411013DCD4F
:1029A00020E638E145E050E060E070E085E194E049
:1029B0000E94FF03813009F001CB0C9400002DCD63
:1029C000F9E0CF16D104E104F10409F4BDCF2CE005
:1029D000C216D104E104F10409F0F0CA20E638E19E
:1029E0004CE050E060E070E088E094E00E94FF037B
:1029F000813009F0E3CA10923704109236040DCDED
:102A00001F921FB61F9211240F931F932F933F9372
:102A10004F935F936F937F938F939F93AF93BF93E6
:102A200080916E2090916F20A0917020B0917120C4
:102A300000916A2010916B2020916C2030916D20C4
:102A4000B901A8014E5E5F4F6F4F7F4F4D37510563
:102A500061057105C0F58A5F9E4FAF4FBF4F009172
:102A600066201091672020916820309169200F5FC7
:102A70001F4F2F4F3F4F00936620109367202093E6
:102A800068203093692080936E2090936F20A093EC
:102A90007020B093712040936A2050936B20609314
:102AA0006C2070936D20BF91AF919F918F917F911A
:102AB0006F915F914F913F912F911F910F911F90B7
:102AC0001FBE1F901895B901A8014B565109610905
:102AD0007109895F9E4FAF4FBF4FC1CFCF93DF9337
:102AE00000D00F92CDB7DEB72FB7F8948091662053
:102AF00090916720A0916820B091692046B550E080
:102B000070E060E0A89B08C04F3F5105610571056A
:102B100019F00196A11DB11D2FBFBA2FA92F982F13
:102B20008827840F951FA61FB71F9C01AD0162E087
:102B3000220F331F441F551F6A95D1F7CA01B901EF
:102B40000F900F900F900F90DF91CF910895CF923B
:102B5000DF92EF92FF92CF93DF9300D000D0CDB7FA
:102B6000DEB76B017C010E946E156D837E83C114FC
:102B7000D104E104F10469F426960FB6F894DEBF9F
:102B80000FBECDBFDF91CF91FF90EF90DF90CF9040
:102B900008950E946E1569837A838B839C83898153
:102BA0009A812D813E81821B930B883E9340F8F2DF
:102BB0008D819E8188519C4F9E838D8391E0C91A9F
:102BC000D108E108F108D3CF15BC16BC14BC81E0D4
:102BD00085BB80936E0083E085BD08952F932FB74A
:102BE0002F932BB72F933F934F935F938F939F9385
:102BF000AF93BF93CF93DF93EF93FF93CCE7D0E0F6
:102C00002881ABE7B0E09C91822F8770392F387014
:102C1000832B815F8F704091780050917900E82F6D
:102C2000F0E0EE0FFF1FEE58FF4D518340838E5FA3
:102C3000382F3770207E232B2883977F8870982B1E
:102C40009C93FF91EF91DF91CF91BF91AF919F91B5
:102C50008F915F914F913F912F912BBF2F912FBF5C
:102C60002F911895CF93CFB7F89440E250E06FEFD3
:102C700070E082E790E20E94841CE4E6F0E080814C
:102C80008E7F808380E480937C0010927B00EAE753
:102C9000F0E08FEB8083CFBF808180648083CF9111
:102CA000089580B1E2E9F0E28695869591E0892762
:102CB000817087831086A2E7B0E22D913C91119735
:102CC0003287218712962D913C9113973487238761
:102CD00080B1829586958695837089278170848BD3
:102CE000158A14962D913C911597378B268B169645
:102CF0002D913C911797318F208F86B182958695C3
:102D000087708927817081A312A218962D913C911A
:102D1000199734A323A31A962D913C911B9736A3A0
:102D200025A386B186958927817086A717A61C964C
:102D30008D919C911D9791AB80AB1E968D919C912E
:102D400093AB82AB08951F93CF93DF9392B188B179
:102D50007091AC20A091AD20B091AE2060919F20E9
:102D6000E091A020F091A1203091922040919320F9
:102D7000509194201091B920C091BA20D091BB20DD
:102D800020E0223019F1233061F12130A1F03130FF
:102D900071F491604115510561F49D7F2F5F2430DE
:102DA00081F792B988B9DF91CF911F9108959E7FE5
:102DB000F1CF9260F3CF613029F49061309721F424
:102DC0009F7DECCF9F7EFACF9062E8CF713029F4DF
:102DD0008068109721F48F7BE1CF8F77FACF8064E2
:102DE000DDCF113029F48860209721F48B7FD6CF76
:102DF000877FFACF8460D2CF9C0192B188B1223014
:102E0000310581F13CF42115310541F021303105C6
:102E1000C1F0089523303105B1F108952091922039
:102E2000213059F491602091932030919420232BEC
:102E300031F49D7F92B988B908959E7FF4CF926056
:102E4000F9CF20919F20213049F490612091A0205A
:102E50003091A120232B21F49F7DECCF9F7EF6CFD4
:102E60009062E8CF2091AC20213049F48068209115
:102E7000AD203091AE20232B21F48F7BDBCF8F77D9
:102E8000F6CF8064D7CF2091B920213049F48860F3
:102E90002091BA203091BB20232B21F48B7FCACF05
:102EA000877FF6CF8460C6CF2FB7F89483E381B9CC
:102EB00082E282B98CEC87B980E488B98FEF809385
:102EC0000A0110920B0180E88AB91BB8E2E9F0E22E
:102ED000108281E090E092838183148213821682B3
:102EE0001582158697878687118A108A138A128A17
:102EF000128E948F838F168E158E10A2178E17A2A6
:102F000011A610A613A612A615A614A62FBF62E03E
:102F100070E080E090E00E94A7150C9451161F927B
:102F20000F920FB60F9211240BB60F922F933F936F
:102F30004F935F938F939F93AF93BF93CF93DF9301
:102F4000EF93FF93A9EDB0E2C6ECD0E290E02D91B3
:102F50003D912F5F3F4F3370FD01329731832083C6
:102F6000499159912417350708F459C0973008F052
:102F700052C0E92FF0E08827E357F34E8F4F0C94AF
:102F8000C61A80910B018F7780930B019F5F983059
:102F9000F1F68091E9209091EA2001968F779927A8
:102FA0009093EA208093E9202091D6203091D72079
:102FB0008217930720F48091D82081115AC05F981E
:102FC000FF91EF91DF91CF91BF91AF919F918F9141
:102FD0005F914F913F912F910F900BBE0F900FBEBD
:102FE0000F901F90189580910B018F7BCDCF809112
:102FF0000B018F7DC9CF80910B018F7EC5CF809152
:103000000B01877FC1CF80910B018B7FBDCF80915A
:103010000B018D7FB9CF80910B018E7FB5CF97309B
:1030200020F5E92FF0E08827EC56F34E8F4F0C94F3
:10303000C61A80910B018068A7CF80910B01806434
:10304000A3CF80910B0180629FCF80910B018061A3
:103050009BCF80910B01886097CF80910B0184609A
:1030600093CF80910B0182608FCF80910B018160A3
:103070008BCF5F9AA5CF9FB7F89482E1E9EDF0E29C
:10308000DF01282F1D922A95E9F7E6ECF0E2DF0137
:103090001D928A95E9F71092D8201092B20082E032
:1030A0008093B0008093B3008093700086E080939B
:1030B000B1009FBF0895CF93DF9300D00F920F927E
:1030C000CDB7DEB76D839C0150E040E029833A83A1
:1030D0004B835C83CA01B9010E94891B2DE531E451
:1030E0004CE450E469837A838B839C8369817A8181
:1030F0008B819C810E94E81A69837A838B839C83ED
:1031000069817A818B819C810E945A1B3D81333079
:10311000F9F060F4313091F03230A9F00F900F9057
:103120000F900F900F90DF91CF9108954D81443013
:10313000A9F77093D3206093D220F0CF7093C7206B
:103140006093C620EBCF7093CB206093CA20E6CF6C
:103150007093CF206093CE20E1CFCF93DF9300D048
:103160000F920F92CDB7DEB76D839C0150E040E027
:1031700029833A834B835C83CA01B9010E94891B6E
:1031800028E93EED4AE75FE369837A838B839C837A
:1031900069817A818B819C810E94E81A69837A8394
:1031A0008B839C8369817A818B819C810E945A1BCD
:1031B0003D813330F9F060F4313091F03230A9F0D4
:1031C0000F900F900F900F900F90DF91CF91089577
:1031D0004D814430A9F77093D5206093D420F0CF6F
:1031E0007093C9206093C820EBCF7093CD2060937B
:1031F000CC20E6CF7093D1206093D020E1CF8F77A1
:1032000099279093D7208093D6200C9479078091AA
:10321000D6209091D72008958093D820089580914A
:10322000D8200895F89481E090E09093370480933B
:10323000360483E381B982E282B98CEC87B980E4F9
:1032400088B98FEF80930A0180930B0180E88AB9D7
:103250001BB8279A2F980E94E4150E9496040E949A
:1032600044050E94EF0578940E9432160E9454177C
:103270000E943B1810921D0410921C04C6ECD0E270
:103280000E94B1080E94D80E0E9469060E94511641
:103290000E94A3160E946E156B017C01809132047E
:1032A00090913304A0913404B09135044601570144
:1032B000881A990AAA0ABB0A8C159D05AE05BF0596
:1032C00028F021E0821A9108A108B10820911C047D
:1032D00030911D0421153105D1F1C9018D7F019770
:1032E000B1F58091300490913104409126045091C1
:1032F00027044817590709F470C02130310509F037
:103300006CC0E0E98E16E0ED9E06E3E0AE06B10487
:10331000F0F0892B09F449C0809130049091310478
:10332000209126043091270401962817390708F4C4
:10333000C90190933104809330040E94FF18C09219
:103340003204D0923304E0923404F0923504809138
:10335000360490913704892B09F492CFAEE1B4E0A2
:10336000E2E9F0E28D919D91892B09F4E7C018966E
:103370008D919C911997892B09F4E0C087819085E4
:10338000892B09F0DBC00E94330810929220109222
:103390009F201092AC201092B92080E00E940C195E
:1033A00010921D0410921C046BCF81E00E940C1936
:1033B00061E084E893E00E94AD1862E084E893E065
:1033C0000E94AD1863E084E893E00E94AD1864E0C9
:1033D00084E893E00E94AD189FCFA0912804B0919B
:1033E0002904E0912A04F0912B0460912C0470913F
:1033F0002D0440912E0450912F04CD018E2B9F2B34
:10340000862B972B842B952B892BB9F5F0E88F16FB
:10341000F6E99F06F8E9AF06B10408F498CF0EE18B
:1034200014E092E9A92E90E2B92E99249394F80120
:10343000828593850E5F1F4F208131810596281765
:10344000390708F4C901F80191878087692D0E9426
:103450005B1881E0F801329720813181232B09F438
:1034600080E0F50180830E9416079394FDE0AF0E83
:10347000B11C25E09212DBCF62CF80911E049091A7
:103480001F04A817B907A9F4809120049091210482
:10349000E817F90771F480912204909123046817CA
:1034A000790739F48091240490912504481759072D
:1034B00031F180E988168FE5980681E0A806B1040D
:1034C00008F445CF0EE114E0BB24B394F8018285E3
:1034D00093850E5F1F4F208131810596281739078C
:1034E00008F4C901F801918780876B2D0E945B1851
:1034F0000E941607B394F5E0BF12E8CF20CF1092D8
:103500001D0410921C0423303105A9F482E9E82E31
:1035100080E2F82E11E0612F90E080E00E945B18BD
:10352000F70110821F5FFDE0EF0EF11C153099F7D7
:103530000E9403080CCF0E941B0809CF3D96CE17AE
:10354000DF0709F00FCF9CCEA1E21A2EAA1BBB1BEE
:10355000FD010DC0AA1FBB1FEE1FFF1FA217B3075F
:10356000E407F50720F0A21BB30BE40BF50B661F75
:10357000771F881F991F1A9469F760957095809539
:1035800090959B01AC01BD01CF010895EE0FFF1F87
:10359000881F8BBF0790F691E02D19940E94D91ACD
:1035A000A59F900DB49F900DA49F800D911D112497
:1035B0000895A29FB001B39FC001A39F700D811D0C
:1035C0001124911DB29F700D811D1124911D08952C
:1035D0000E94FC1A0C94DD1B0E94D61B58F00E941E
:1035E000CF1B40F029F45F3F29F00C94C61B51110A
:1035F0000C94111C0C94CC1B0E94EE1B68F39923B5
:10360000B1F3552391F3951B550BBB27AA276217DE
:103610007307840738F09F5F5F4F220F331F441FEB
:10362000AA1FA9F335D00E2E3AF0E0E832D091501F
:103630005040E695001CCAF72BD0FE2F29D0660F0C
:10364000771F881FBB1F261737074807AB07B0E84F
:1036500009F0BB0B802DBF01FF2793585F4F3AF055
:103660009E3F510578F00C94C61B0C94111C5F3FD3
:10367000E4F3983ED4F3869577956795B795F795DB
:103680009F5FC9F7880F911D9695879597F90895C3
:10369000E1E0660F771F881FBB1F6217730784075F
:1036A000BA0720F0621B730B840BBA0BEE1F88F76E
:1036B000E09508950E94F61B88F09F5798F0B92F67
:1036C0009927B751B0F0E1F0660F771F881F991F57
:1036D0001AF0BA95C9F714C0B13091F00E94101CCD
:1036E000B1E008950C94101C672F782F8827B85FDD
:1036F00039F0B93FCCF3869577956795B395D9F7AF
:103700003EF490958095709561957F4F8F4F9F4FB8
:103710000895E89409C097FB3EF4909580957095C4
:1037200061957F4F8F4F9F4F9923A9F0F92F96E90D
:10373000BB279395F695879577956795B795F11182
:10374000F8CFFAF4BB0F11F460FF1BC06F5F7F4F1F
:103750008F4F9F4F16C0882311F096E911C0772331
:1037600021F09EE8872F762F05C0662371F096E83A
:10377000862F70E060E02AF09A95660F771F881F09
:10378000DAF7880F9695879597F9089597F99F67C7
:1037900080E870E060E008959FEF80EC08950024D9
:1037A0000A941616170618060906089500240A94A6
:1037B00012161306140605060895092E0394000C2C
:1037C00011F4882352F0BB0F40F4BF2B11F460FFBB
:1037D00004C06F5F7F4F8F4F9F4F089557FD9058E4
:1037E000440F551F59F05F3F71F04795880F97FBC5
:1037F000991F61F09F3F79F087950895121613067F
:103800001406551FF2CF4695F1DF08C016161706AD
:103810001806991FF1CF86957105610508940895E2
:10382000E894BB2766277727CB0197F908950E9474
:103830002A1C0C94DD1B0E94CF1B38F00E94D61B63
:1038400020F0952311F00C94C61B0C94CC1B112472
:103850000C94111C0E94EE1B70F3959FC1F3950F01
:1038600050E0551F629FF001729FBB27F00DB11D04
:10387000639FAA27F00DB11DAA1F649F6627B00D94
:10388000A11D661F829F2227B00DA11D621F739F7D
:10389000B00DA11D621F839FA00D611D221F749F8B
:1038A0003327A00D611D231F849F600D211D822FD2
:1038B000762F6A2F11249F5750409AF0F1F08823F9
:1038C0004AF0EE0FFF1FBB1F661F771F881F915026
:1038D0005040A9F79E3F510580F00C94C61B0C94F4
:1038E000111C5F3FE4F3983ED4F386957795679576
:1038F000B795F795E7959F5FC1F7FE2B880F911D50
:103900009695879597F90895DC0101C06D93415014
:103910005040E0F70895F894FFCFC117F317F71759
:10392000FB17FF170318071819181D182118251859
:0639300029182D183118C2
:103936002424246F66660A00242424696E73756C39
:103946006661696C65643A002424246265616D6F62
:103956006E0A00242424696E73756C6F6B0A00640A
:10396600697361626C65640A0024242466696C7359
:103976006574613A002424247073757374617465E8
:10398600002424246100242424760024242465723F
:10399600720A00242424656C656374726F6E637406
:1039A600726C5F32303231303831395F3030310A43
:1039B60000242424707375737461746500242424B0
:1039C600610024242476002424246572720A0024CB
:1039D6002424656C656374726F6E6374726C5F32F7
:1039E600303231303831395F3030310A00696400A5
:1039F6007073756765747631007073756765747674
:103A06003200707375676574763300707375676519
:103A16007476340070737567657461310070737500
:103A26006765746132007073756765746133007021
:103A36007375676574613400707375706F6C31707F
:103A460000707375706F6C316E00707375706F6C8B
:103A5600327000707375706F6C326E0070737570B3
:103A66006F6C337000707375706F6C336E007073AB
:103A760075706F6C347000707375706F6C346E0097
:103A86007073756F6E31007073756F666631007096
:103A960073756F6E32007073756F66663200707381
:103AA600756F6E33007073756F666633007073756D
:103AB6006F6E34007073756F6666340066696C6F7E
:103AC6006E0066696C6F6666007073756D6F64650F
:103AD60000707375736574763100707375736574F1
:103AE6007632007073757365747633007073757310
:103AF6006574763400707375736574613100707324
:103B06007573657461320070737573657461330023
:103B160070737573657461340073657466696C617E
:103B260000696E73756C006265616D68766F6666B6
:103B3600006265616D6F6E006E6F70726F746563A3
:0C3B460074696F6E007265736574000096
:00000001FF
