:100000000C9472000C9493000C9493000C94930045
:100010000C9493000C9493000C9493000C94930014
:100020000C9493000C9493000C9493000C94930004
:100030000C9493000C9413100C9493000C94930064
:100040000C9493000C9493000C9493000C949300E4
:100050000C9493000C9493000C9493000C94830DD7
:100060000C9493000C94BF030C94F1030C94930034
:100070000C9493000C94710E0C9493000C949300C8
:100080000C9493000C9493000C9493000C949300A4
:100090000C9471040C94A3040C9493000C9493009E
:1000A0000C9493000C9493000C9493000C94930084
:1000B0000C9493000C9493000C9493000C94930074
:1000C0000C9493000C9493000C9493000C942305CF
:1000D0000C9455050C9493000C9493000C9493008D
:1000E0000C94930011241FBECFEFD1E2DEBFCDBF31
:1000F00000E00CBF13E0A0E0B2E0EEE8F9E200E0BF
:100100000BBF02C007900D92AC3CB107D9F720E2BB
:10011000ACECB3E001C01D92A13AB207E1F70E9436
:100120007B110C94C5140C9400000F931F93CF9374
:100130000BE510E2C1E0D8011C926C2F90E080E04A
:100140000E94C4106C2F85E090E00E941611035F9E
:100150001F4FCF5FC53079F780E00E94751190E0A6
:1001600080E00E94681183E090E09093F207809312
:10017000F10782EE97E09093F4078093F30784EE03
:1001800097E09093F6078093F50780E197E09093CE
:10019000F8078093F7071092FA071092F907109268
:1001A000FC071092FB071092FE071092FD071092B9
:1001B00000081092FF071092020810920108109296
:1001C00004081092030810920608109205080E9475
:1001D000F10D6093070870930808809309089093C5
:1001E0000A08CF911F910F9108950F931F93CF93FA
:1001F0000BE510E2C1E0D8011C926C2F90E080E08A
:100200000E94C4106C2F85E090E00E941611035FDD
:100210001F4FCF5FC53079F780E00E94751181E0F4
:1002200090E09093F2078093F10782EE97E090932D
:10023000F4078093F30784EE97E09093F60780939A
:10024000F50780E197E09093F8078093F707109205
:10025000FA071092F9070E9470119093FC0780939F
:10026000FB071092FE071092FD07109200081092F3
:10027000FF071092020810920108109204081092D1
:10028000030810920608109205080E94F10D609371
:100290000708709308088093090890930A0890E073
:1002A00080E0CF911F910F910C946811CF93DF9351
:1002B00000D00F92CDB7DEB79C018115924088F532
:1002C00080E092E0DC01A21BB30B9D01C901B0E00C
:1002D000A0E089839A83AB83BC83B901CD010E94DE
:1002E000CA1320E030E44CE950E469837A838B83BD
:1002F0009C8369817A818B819C810E9458146983D7
:100300007A838B839C8369817A818B819C810E9413
:100310009B13CB010F900F900F900F90DF91CF9117
:1003200008953250D3CFFC014081518162817381A5
:1003300084819581A681B781481759076A077B0791
:10034000C9F084819581A681B7818E0F9F1FDC0142
:1003500018968C9144815581668177814F5F5F4FFC
:100360006F4F7F4F5370662777274483558366838B
:100370007783089580E008950F931F93FC01808197
:100380009181A281B38104811581268137810196F3
:10039000A11DB11D9370AA27BB2780179107A20743
:1003A000B307B9F080819181A281B3818E0F9F1F25
:1003B000DC0118966C9380819181A281B3810196B2
:1003C000A11DB11D9370AA27BB2780839183A283AF
:1003D000B3831F910F9108958F929F92AF92BF9216
:1003E000CF92DF92EF92FF92CF93DF9300D00F92E4
:1003F0000F92CDB7DEB76A017B01FC0119821A8228
:100400001B821C82812C912C54018C149D04AE04FF
:10041000BF04A1F469817A818B819C810F900F9038
:100420000F900F900F90DF91CF91FF90EF90DF90A2
:10043000CF90BF90AF909F908F90089521912053BF
:100440002D832A3098F4AAE0B0E029813A814B81CB
:100450005C810E940F13DC01CB012D81820F911D65
:10046000A11DB11D89839A83AB83BC838FEF881A4A
:10047000980AA80AB80AC9CF0F931F93CF93DF93A6
:1004800000D00F92CDB7DEB7FC014081518162816F
:10049000738184819581A681B781481759076A07BE
:1004A0007B07F8F04081518162817381848195815D
:1004B000A681B7818A019B01081B190B2A0B3B0BF4
:1004C00009831A832B833C8369817A818B819C8188
:1004D0000F900F900F900F90DF91CF911F910F9180
:1004E000089580819181A281B38144815581668183
:1004F00077819C5FAF4FBF4F8C019D01041B150B93
:10050000260B370BDDCF4F925F926F927F92AF92A7
:10051000BF92CF92DF92EF92FF920F931F93CF93F0
:10052000DF93CDB7DEB72E970FB6F894DEBF0FBEC0
:10053000CDBFF82EE92E4B875C876D877E878B8534
:100540009C85AD85BE85892B8A2B8B2BC9F460E3F6
:100550008F2D9E2D2E960FB6F894DEBF0FBECDBF09
:10056000DF91CF911F910F91FF90EF90DF90CF908F
:10057000BF90AF907F906F905F904F900C94BC01B4
:1005800000E0DE0111966D018AE0482E512C612CAD
:10059000712C5601A00EB11C6B857C858D859E85C6
:1005A000A30192010E94ED12605DF50160830F5F6F
:1005B0008B859C85AD85BE852B873C874D875E8767
:1005C0000A97A105B10528F70C0D1D2D111DC016A8
:1005D000D106A9F42E960FB6F894DEBF0FBECDBF9C
:1005E000DF91CF911F910F91FF90EF90DF90CF900F
:1005F000BF90AF907F906F905F904F900895D8011B
:100600006E918D018F2D9E2D0E94BC01E0CF0F9326
:100610001F938A01FC01ACECB3E0080F191F819114
:100620002D91082E000C990B2817190639F4E017A4
:10063000F107A9F781E01F910F91089580E0FBCFAA
:100640000F931F93CF93DF938A01EC01080F191FBB
:10065000699183E294E10E94BC01C017D107C1F700
:10066000DF91CF911F910F910895CF92DF92EF927A
:10067000FF92CF93DF9300D00F92CDB7DEB76B011F
:100680007C014091130C5091140C6091150C7091E9
:10069000160C8091170C9091180CA091190CB09128
:1006A0001A0C481759076A077B0761F480E00F901E
:1006B0000F900F900F90DF91CF91FF90EF90DF9010
:1006C000CF90089583E19CE00E943C0269837A8385
:1006D0008B839C83C616D706E806F90638F7809107
:1006E000170C9091180CA091190CB0911A0C8C0D4C
:1006F0009D1DAE1DBF1D6C017D0123E0D222EE24A5
:10070000FF24F601ED5EF34F8085D1CF9FB7F894BB
:10071000E0ECF0E0808180648083E1ECF0E08081B7
:10072000886280839FBF08958FB7F894E3E2F4E175
:10073000108211821282138214821582168217820D
:10074000E3E1FCE01082118212821382148215828E
:10075000168217821092D1071092D00727E630E058
:100760003093C5002093C40092E09093C00090E9BC
:100770009093C10096E09093C2008FBF08951F929E
:100780000F920FB60F9211240BB60F922F933F9337
:100790004F935F936F937F938F939F93AF93BF9389
:1007A000EF93FF936091C60083E19CE00E94BC013F
:1007B00081E090E09093D1078093D007FF91EF9173
:1007C000BF91AF919F918F917F916F915F914F9169
:1007D0003F912F910F900BBE0F900FBE0F901F9067
:1007E00018951F920F920FB60F9211240BB60F920D
:1007F0002F933F934F935F936F937F938F939F9329
:10080000AF93BF93EF93FF9340912314509124141F
:1008100060912514709126148091271490912814CA
:10082000A0912914B0912A14481759076A077B0729
:10083000C9F083E294E10E9493018093C600FF9186
:10084000EF91BF91AF919F918F917F916F915F9148
:100850004F913F912F910F900BBE0F900FBE0F90B5
:100860001F9018958091C100877D8093C100E7CFCC
:100870009FB7F894E8ECF0E0808180648083E9EC35
:10088000F0E08081886280839FBF08958FB7F894DD
:10089000EBE1F0E110821182128213821482158240
:1008A00016821782E3E3FCE1108211821282138226
:1008B00014821582168217821092D1071092D007E7
:1008C00027E630E03093CD002093CC0092E0909367
:1008D000C80090E99093C90096E09093CA008FBF3A
:1008E00008951F920F920FB60F9211240BB60F921C
:1008F0002F933F934F935F936F937F938F939F9328
:10090000AF93BF93EF93FF936091CE0083E39CE19D
:100910000E94BC0181E090E09093CF078093CE07C6
:10092000FF91EF91BF91AF919F918F917F916F91C7
:100930005F914F913F912F910F900BBE0F900FBE83
:100940000F901F9018951F920F920FB60F921124BF
:100950000BB60F922F933F934F935F936F937F93B9
:100960008F939F93AF93BF93EF93FF9340911B108F
:1009700050911C1060911D1070911E1080911F10DD
:1009800090912010A0912110B09122104817590782
:100990006A077B07C9F08BE190E10E949301809385
:1009A000CE00FF91EF91BF91AF919F918F917F9179
:1009B0006F915F914F913F912F910F900BBE0F90D0
:1009C0000FBE0F901F9018958091C900877D80936E
:1009D000C900E7CF9FB7F894E0EDF0E08081806434
:1009E0008083E1EDF0E08081886280839FBF08957D
:1009F0008FB7F894EBE0F8E0108211821282138234
:100A00001482158216821782EBE2F8E110821182BD
:100A10001282138214821582168217821092D107D5
:100A20001092D00727E630E03093D5002093D40011
:100A300092E09093D00090E99093D10096E090934B
:100A4000D2008FBF08951F920F920FB60F921124FC
:100A50000BB60F922F933F934F935F936F937F93B8
:100A60008F939F93AF93BF93EF93FF936091D600C3
:100A70008BE298E10E94BC0181E090E09093CD0769
:100A80008093CC07FF91EF91BF91AF919F918F9190
:100A90007F916F915F914F913F912F910F900BBE7E
:100AA0000F900FBE0F901F9018951F920F920FB6C8
:100AB0000F9211240BB60F922F933F934F935F9396
:100AC0006F937F938F939F93AF93BF93EF93FF9316
:100AD00040910B0850910C0860910D0870910E0820
:100AE00080910F0890911008A0911108B091120800
:100AF000481759076A077B07C9F08BE098E00E9406
:100B000093018093D600FF91EF91BF91AF919F9198
:100B10008F917F916F915F914F913F912F910F90A6
:100B20000BBE0F900FBE0F901F9018958091D100B3
:100B3000877D8093D100E7CF0F931F93CF93DF93EF
:100B400000D000D0CDB7DEB78FB72091CC07309161
:100B5000CD07232B09F4CEC01092CD071092CC07FD
:100B60008FBF8BE298E10E943C0269837A838B837A
:100B70009C83672B682B692B09F4BCC08BE298E13E
:100B80000E9493018A3069F38D3059F32BE330E2F0
:100B90003E832D83F894AD81BE818D919C911197F8
:100BA00012960D911C9178949C0150E040E02983AD
:100BB0003A834B835C83CA01B9010E94CA132AE8B5
:100BC0003FE14BE450E469837A838B839C836981A2
:100BD0007A818B819C810E94581425E83BEE41E884
:100BE0005FE369837A838B839C8369817A818B81BC
:100BF0009C810E94581469837A838B839C836981CA
:100C00007A818B819C810E949B1369837A838B8379
:100C10009C8389819A81AC0170E060E08BE098E070
:100C20000E9483026AE38BE098E00E94BC01980175
:100C300050E040E029833A834B835C83CA01B801CA
:100C40000E94CA1320E030E44CE151E469837A83C6
:100C50008B839C8369817A818B819C810E9458144B
:100C600069837A838B839C8369817A818B819C8160
:100C70000E949B1369837A838B839C8389819A81E9
:100C8000AC0170E060E08BE098E00E9483026AE3D0
:100C90008BE098E00E94BC01AD81BE811496BE83BA
:100CA000AD83AB54B04209F075CF0E947011AC0116
:100CB00070E060E08BE098E00E9483026AE38BE0E2
:100CC00098E00E94BC01F89480914B2090914C20B8
:100CD00078940E945601AC0170E060E08BE098E0EF
:100CE0000E9483026AE08BE098E00E94BC010E94AF
:100CF000860337CF26960FB6F894DEBF0FBECDBF62
:100D0000DF91CF911F910F910895EF92FF920F9372
:100D10001F93CF93DF9300D00F920F92CDB7DEB722
:100D20000BE310E281E38D83F894D801ED90FC9001
:100D3000789444E050E060E070E086E592E00E9444
:100D400020036D8183E294E10E94BC016AE383E2A7
:100D500094E10E94BC01C701B0E0A0E089839A83BE
:100D6000AB83BC83B701CD010E94CA132AE83FE1DF
:100D70004BE450E469837A838B839C8369817A8115
:100D80008B819C810E94581425E83BEE41E85FE38B
:100D900069837A838B839C8369817A818B819C812F
:100DA0000E94581469837A838B839C8369817A813A
:100DB0008B819C810E949B1369837A838B839C83A4
:100DC000A981BA81AD0170E060E083E294E10E9404
:100DD00083026AE083E294E10E94BC010C5F1F4F32
:100DE000BD81BF5FBD83B53309F09ECF0F900F90DB
:100DF0000F900F900F90DF91CF911F910F91FF9067
:100E0000EF900C948603CF93DF930E947811882390
:100E100079F10E947011EC014BE050E060E070E06D
:100E200089E392E00E942003AE0170E060E083E27B
:100E300094E10E9483026AE383E294E10E94BC0190
:100E4000F89480914B2090914C2078940E94560108
:100E5000AC0170E060E083E294E10E9483026AE00A
:100E600083E294E10E94BC01DF91CF910C94860350
:100E70004BE050E060E070E089E392E00E942003E4
:100E800049E050E060E070E08FE292E00E942003D1
:100E9000EBCF4BE050E060E070E083E292E00E9434
:100EA00020030C9486034AE050E060E070E088E1A3
:100EB00092E00E9420030C9486030F931F93CF931C
:100EC000DF934FE050E060E070E088E092E00E9445
:100ED000200303EF17E0CBE5D0E2F8018191919177
:100EE0008F01892B29F08F81988566E4892B09F081
:100EF0006DE283E294E10E94BC012D96F0E2CF38CE
:100F0000DF0759F76AE083E294E10E94BC01DF91B8
:100F1000CF911F910F910C94860347E050E060E061
:100F200070E080E092E00C942003CF92DF92EF9289
:100F3000FF920F931F93CF93DF9300D000D00F92B7
:100F40000F92CDB7DEB783E19CE00E943C026D8337
:100F50007E838F839887633071058105910590F5B5
:100F600028960FB6F894DEBF0FBECDBFDF91CF91AC
:100F70001F910F91FF90EF90DF90CF90089583E144
:100F80009CE00E943C026D837E838F83988764304F
:100F9000710581059105D8F18091170C9091180C7D
:100FA000A091190CB0911A0C0196A11DB11D93705E
:100FB000AA27BB278093170C9093180CA093190CA9
:100FC000B0931A0C4091130C5091140C6091150CB5
:100FD0007091160C8091170C9091180CA091190C1F
:100FE000B0911A0C481759076A077B0741F28091A4
:100FF000170C9091180CA091190CB0911A0C8D5EE1
:10100000934FDC0118968C91843209F0B8CF83E1BC
:101010009CE00E943C02653071058105910508F451
:101020009FCF60E070E0CB010E943503843209F469
:10103000C9C083E19CE00E943C026D837E838F8364
:101040009887653071058105910508F0A4C083E19A
:101050009CE00E943C02653071058105910508F411
:101060007FCF83E19CE00E943C026B017C0123E086
:1010700030E040E050E02D833E834F8358872D8140
:101080003E814F8158852C153D054E055F0508F0C2
:1010900067CFCA01B9010E9435038A3049F06D81DA
:1010A0007E818F8198850E943503843209F0A6C025
:1010B0006D817E818F8198850E9435038A3009F089
:1010C00096C28091170C9091180CA091190CB091B8
:1010D0001A0C0396A11DB11D9370AA27BB278093FC
:1010E000170C9093180CA093190CB0931A0CCD8088
:1010F000DE80EF80F88433E0C31AD108E108F108FC
:101100008D819E81AF81B8850497A109B109BC0189
:10111000CD010E94350341E050E060E070E08D3089
:1011200019F040E050E0BA01C41AD50AE60AF70AFD
:1011300083E19CE00E943C0269837A838B839C83D9
:101140006C157D058E059F0558F0ECECF3E040E052
:1011500050E0BA01C416D506E606F70609F05AC0F3
:1011600092E0C916D104E104F10409F07CC042E028
:1011700050E060E070E081E892E00E940703813077
:1011800009F0BAC44DE150E060E070E083E692E01F
:101190000E942003D9C08091170C9091180CA09147
:1011A000190CB0911A0C0196A11DB11D9370AA27BC
:1011B000BB278093170C9093180CA093190CB09335
:1011C0001A0C2FCF61E070E080E090E00E943503C0
:1011D000843209F02ECF62E070E080E090E00E945F
:1011E0003503843209F025CF63E070E080E090E0C1
:1011F0000E943503843209F41CCF29CF8D819E8152
:10120000AF81B8850196A11DB11D8D839E83AF83EB
:10121000B88735CF8091170C9091180CA091190CBC
:10122000B0911A0C8D5E934FDC0118962C91809131
:10123000170C9091180CA091190CB0911A0C0196F2
:10124000A11DB11D9370AA27BB278093170C909303
:10125000180CA093190CB0931A0C21934F5F5F4F99
:101260006F4F7F4F77CFB8E0CB16D104E104F10484
:1012700009F0F4C148E050E060E070E084E892E0FA
:101280000E940703813009F062C0F894E0913B208E
:10129000F0913C20FA83E983789444E050E060E0E8
:1012A00070E086E592E00E94200361E383E294E12E
:1012B0000E94BC016AE383E294E10E94BC0149817F
:1012C0005A819A0150E040E029833A834B835C8342
:1012D000CA01B9010E94CA132AE83FE14BE450E475
:1012E00069837A838B839C8369817A818B819C81DA
:1012F0000E94581425E83BEE41E85FE369837A8356
:101300008B839C8369817A818B819C810E94581494
:1013100069837A838B839C8369817A818B819C81A9
:101320000E949B1369837A838B839C8389819A8132
:10133000AC0170E060E083E294E10E9483026AE025
:1013400083E294E10E94BC010E94860350C148E000
:1013500050E060E070E08DE892E00E940703813089
:1013600091F4F894A0913F20B0914020BA83A983D2
:10137000789444E050E060E070E086E592E00E94FE
:10138000200362E393CF48E050E060E070E086E93C
:1013900092E00E940703813091F4F894A0914320D9
:1013A000B0914420BA83A983789444E050E060E08F
:1013B00070E086E592E00E94200363E377CF48E087
:1013C00050E060E070E08FE992E00E940703813016
:1013D00091F4F894A0914720B0914820BA83A98352
:1013E000789444E050E060E070E086E592E00E948E
:1013F000200364E35BCF48E050E060E070E088EAFF
:1014000092E00E940703813061F5F894A0913D209D
:10141000B0913E20BA83A983789444E050E060E024
:1014200070E081E592E00E94200361E383E294E1B1
:101430000E94BC016AE383E294E10E94BC014981FD
:101440005A819A0150E040E029833A834B835C83C0
:10145000CA01B9010E94CA1320E030E44CE151E412
:101460004DCF48E050E060E070E081EB92E00E94F8
:101470000703813091F4F894A0914120B09142206B
:10148000BA83A983789444E050E060E070E081E59D
:1014900092E00E94200362E3C9CF48E050E060E0A0
:1014A00070E08AEB92E00E940703813091F4F89497
:1014B000A0914520B0914620BA83A983789444E056
:1014C00050E060E070E081E592E00E94200363E379
:1014D000ADCF48E050E060E070E083EC92E00E9425
:1014E0000703813091F4F894A0914920B0914A20EB
:1014F000BA83A983789444E050E060E070E081E52D
:1015000092E00E94200364E391CF48E050E060E065
:1015100070E08CEC92E00E940703813049F4109255
:101520005D2010925C201092F2071092F1075FC0CC
:1015300048E050E060E070E085ED92E00E94070333
:10154000813039F481E090E090935D2080935C20BD
:10155000EACF48E050E060E070E08EED92E00E945B
:101560000703813029F410926A2010926920DBCFA2
:1015700048E050E060E070E087EE92E00E940703F0
:10158000813039F481E090E090936A208093692063
:10159000CACF48E050E060E070E080EF92E00E9447
:1015A0000703813029F41092772010927620BBCF68
:1015B00048E050E060E070E089EF92E00E940703AD
:1015C000813039F481E090E0909377208093762009
:1015D000AACF48E050E060E070E082E093E00E9433
:1015E0000703813049F510928420109283206D8189
:1015F0007E818F8198850E943503843209F0B0CCBA
:101600008091170C9091180CA091190CB0911A0CA4
:101610002D813E814F815885820F931FA41FB51FD6
:101620009370AA27BB278093170C9093180CA09354
:10163000190CB0931A0C94CC48E050E060E070E0D4
:101640008BE093E00E940703813009F001C181E043
:1016500090E09093842080938320C9CF96E0C916B0
:10166000D104E104F10469F446E050E060E070E088
:1016700084E193E00E9407038130B9F480935B20FA
:10168000B6CFA7E0CA16D104E104F10409F05DC0A9
:1016900047E050E060E070E08BE193E00E940703D8
:1016A000813081F410925B203ECF46E050E060E054
:1016B00070E083E293E00E940703813081F480931D
:1016C000682095CF47E050E060E070E08AE293E068
:1016D0000E940703813081F41092682024CF46E0F5
:1016E00050E060E070E082E393E00E940703813005
:1016F00081F4809375207BCF47E050E060E070E09C
:1017000089E393E00E940703813089F410927520E9
:101710000ACF46E050E060E070E081E493E00E9490
:101720000703813009F049C08093822060CF47E0F1
:1017300050E060E070E088E493E00E9407038130AD
:1017400009F04AC01092822052CFB3E0CB16D104E8
:10175000E104F104E9F443E050E060E070E089E581
:1017600093E00E940703813009F0C6C110925B200C
:1017700010926820109275201092822080E00E94C2
:1017800075111092F2071092F1070E948D072FCF6A
:10179000E5E0CE16D104E104F10409F052C045E0C1
:1017A00050E060E070E080E593E00E940703813044
:1017B00009F01DC10E9475111ACF46E050E060E0AB
:1017C00070E086E593E00E940703813009F00FC1C5
:1017D00080E00E947511A7CE47E050E060E070E025
:1017E0008DE593E00E940703813009F000C14BE0D2
:1017F00050E060E070E085E492E00E9420032BE579
:1018000030E23A8329830FE810E2A981BA818C91F2
:101810006DE2813041F4E981FA818781908563E44A
:10182000892B09F066E583E294E10E94BC012981DD
:101830003A81235F3F4F3A8329830217130729F721
:101840007ECD38E0C316D104E104F10408F4C8C029
:1018500048E050E060E070E085E693E00E94070316
:10186000813089F4B701A601485051096109710915
:1018700084ED93E00E94EC01262F61E0822F972FE8
:101880000E94C41050CE48E050E060E070E08EE668
:1018900093E00E940703813069F4B701A601485024
:1018A00051096109710984ED93E00E94EC01262F32
:1018B00062E0E4CF48E050E060E070E087E793E06A
:1018C0000E940703813069F4B701A601485051090D
:1018D0006109710984ED93E00E94EC01262F63E019
:1018E000CDCF48E050E060E070E080E893E00E94F7
:1018F0000703813089F4B701A601485051096109F5
:10190000710984ED93E00E94EC01262F64E0822FA0
:10191000972F0E94C4106BCE48E050E060E070E06A
:1019200089E893E00E940703813089F4B701A6019A
:10193000485051096109710984ED93E00E94EC015E
:10194000262F61E0822F972F0E941611ECCD48E0E0
:1019500050E060E070E082E993E00E94070381308C
:1019600069F4B701A601485051096109710984ED74
:1019700093E00E94EC01262F62E0E4CF48E050E0C3
:1019800060E070E08BE993E00E940703813069F426
:10199000B701A601485051096109710984ED93E02E
:1019A0000E94EC01262F63E0CDCF48E050E060E0DC
:1019B00070E084EA93E00E9407038130C1F4B7012C
:1019C000A601485051096109710984ED93E00E9414
:1019D000EC01262F64E0822F972F0E94161107CE6C
:1019E00044E0C416D104E104F10408F485C044E0E5
:1019F00050E060E070E080EB93E00E9407038130EC
:101A0000E9F4F89480914B2090914C2078940E94B6
:101A100056017C0144E050E060E070E081E592E036
:101A20000E94200366E683E294E10E94BC016AE31F
:101A300083E294E10E94BC01A7017BCC57E0C5166C
:101A4000D104E104F104C8F047E050E060E070E048
:101A50008DEA93E00E940703813009F047C0B70187
:101A6000A601475051096109710983ED93E00E9475
:101A7000EC01CB010E94681156CD85E0C816D10457
:101A8000E104F10401F545E050E060E070E085EB31
:101A900093E00E940703813079F50E949500A7CD5D
:101AA00049E050E060E070E08BEB93E00E940703B8
:101AB000813011F510925B201092682010927520F1
:101AC0001092822030CD96E0C916D104E104F104D1
:101AD00099F446E050E060E070E085EC93E00E940D
:101AE0000703813049F40E94F50081CD39E0C31627
:101AF000D104E104F104A1F247E050E060E070E0BD
:101B00008BE592E045CB1F921FB61F9211240F93D5
:101B10001F932F933F934F935F936F937F938F9375
:101B20009F93AF93BF938091DA079091DB07A091C9
:101B3000DC07B091DD070091D6071091D7072091FF
:101B4000D8073091D907B901A8014E5E5F4F6F4F9A
:101B50007F4F4D37510561057105C0F58A5F9E4F76
:101B6000AF4FBF4F0091D2071091D3072091D407F8
:101B70003091D5070F5F1F4F2F4F3F4F0093D20774
:101B80001093D3072093D4073093D5078093DA07B7
:101B90009093DB07A093DC07B093DD074093D60753
:101BA0005093D7076093D8077093D907BF91AF912F
:101BB0009F918F917F916F915F914F913F912F9165
:101BC0001F910F911F901FBE1F901895B901A8017A
:101BD0004B56510961097109895F9E4FAF4FBF4F45
:101BE000C1CFCF93DF9300D00F92CDB7DEB72FB721
:101BF000F8948091D2079091D307A091D407B09127
:101C0000D50746B550E070E060E0A89B08C04F3FA4
:101C100051056105710519F00196A11DB11D2FBF78
:101C2000BA2FA92F982F8827840F951FA61FB71F9B
:101C30009C01AD0162E0220F331F441F551F6A95BE
:101C4000D1F7CA01B9010F900F900F900F90DF915B
:101C5000CF910895CF92DF92EF92FF92CF93DF93CF
:101C600000D000D0CDB7DEB76B017C010E94F10D32
:101C70006D837E83C114D104E104F10469F42696D6
:101C80000FB6F894DEBF0FBECDBFDF91CF91FF90AE
:101C9000EF90DF90CF9008950E94F10D69837A83D1
:101CA0008B839C8389819A812D813E81821B930B3A
:101CB000883E9340F8F28D819E8188519C4F9E838F
:101CC0008D8391E0C91AD108E108F108D3CF15BC82
:101CD00016BC14BC81E085BB80936E0083E085BD9B
:101CE00008952F932FB72F932BB72F933F934F9395
:101CF0005F938F939F93AF93BF93CF93DF93EF93B4
:101D0000FF93CCE7D0E02881ABE7B0E09C91822F35
:101D10008770392F3870832B815F8F7040917800E6
:101D200050917900E82FF0E0EE0FFF1FE55CFF4DCA
:101D3000518340838E5F382F3770207E232B28837A
:101D4000977F8870892B8C93FF91EF91DF91CF91D2
:101D5000BF91AF919F918F915F914F913F912F9143
:101D60002BBF2F912FBF2F9118959FB7F894EBE3BE
:101D7000F0E22FEF3FEF2193319380E2EB35F8074C
:101D8000D1F7809164008E7F8093640080E480931B
:101D90007C0010927B008FEB80937A009FBF809134
:101DA0007A00806480937A00089590B1EBE5F0E2C8
:101DB0009695969521E09227917097831086ABE3D4
:101DC000B0E28D919C9111979287818712968D91A7
:101DD0009C9113979487838790B192959695969549
:101DE000937092279170948B158A14968D919C9183
:101DF0001597978B868B16968D919C911797918F3F
:101E0000808F96B19295969597709227917091A335
:101E100012A218968D919C91199794A383A31A9658
:101E20008D919C911B9796A385A386B18695822759
:101E3000817086A717A61C968D919C911D9791ABDA
:101E400080AB1E968D919C9193AB82AB08951F93AE
:101E5000CF93DF9392B188B170917520A0917620D5
:101E6000B091772060916820E0916920F0916A201C
:101E700030915B2040915C2050915D201091822038
:101E8000C0918320D091842020E0223019F12330AA
:101E900061F12130A1F0313071F4916041155105AB
:101EA00061F49D7F2F5F243081F792B988B9DF916B
:101EB000CF911F9108959E7FF1CF9260F3CF613053
:101EC00029F49061309721F49F7DECCF9F7EFACF6B
:101ED0009062E8CF713029F48068109721F48F7BED
:101EE000E1CF8F77FACF8064DDCF113029F488609D
:101EF000209721F48B7FD6CF877FFACF8460D2CF13
:101F00009C0192B188B12230310581F13CF4211558
:101F1000310541F021303105C1F0089523303105FC
:101F2000B1F1089520915B20213059F49160209106
:101F30005C2030915D20232B31F49D7F92B988B9CC
:101F400008959E7FF4CF9260F9CF209168202130D0
:101F500049F490612091692030916A20232B21F46B
:101F60009F7DECCF9F7EF6CF9062E8CF20917520C9
:101F7000213049F480682091762030917720232BFE
:101F800021F48F7BDBCF8F77F6CF8064D7CF209182
:101F90008220213049F48860209183203091842070
:101FA000232B21F48B7FCACF877FF6CF8460C6CFE7
:101FB0002FB7F89483E381B982E282B98CEC87B9B8
:101FC00080E488B98FEF80930A0110920B0180E8BA
:101FD0008AB91BB8EBE5F0E2108281E090E09283D1
:101FE00081831482138216821582158697878687CD
:101FF000118A108A138A128A128E948F838F168EFA
:10200000158E10A2178E17A211A610A613A612A63F
:1020100015A614A62FBF62E070E080E090E00E9459
:102020002A0E0C94D50E1F921FB61F9211242F93C7
:102030002BB72F933F934F935F938F939F93AF93C0
:10204000BF93CF93DF93EF93FF93EFEDF7E0AFE80C
:10205000B0E280E0219131912F5F3F4F3370EF016B
:102060002297398328834D915D9190910B0124171C
:10207000350708F44BC081112FC09F7790930B0157
:102080008F5F883039F78091EF079091F0070196C4
:102090008F7799279093F0078093EF0720919F20E7
:1020A0003091A0208217930720F48091DE078111E0
:1020B0004BC05F98FF91EF91DF91CF91BF91AF91AE
:1020C0009F918F915F914F913F912F912BBF2F91B6
:1020D0001F901FBE1F901895813011F49F7BCECFAB
:1020E000823011F49F7DCACF833011F49F7EC6CF1A
:1020F000843011F4977FC2CF853011F49B7FBECF1F
:10210000863011F49D7FBACF9E7FB8CF811102C077
:102110009068B4CF813011F49064B0CF823011F464
:102120009062ACCF833011F49061A8CF843011F469
:102130009860A4CF853011F49460A0CF863011F45C
:1021400092609CCF91609ACF5F9AB4CF9FB7F8947A
:10215000EFEDF7E0AFE8B0E2119211921D921D92FF
:1021600087E0E13FF807C1F71092DE071092B20056
:1021700082E08093B0008093B3008093700086E08B
:102180008093B1009FBF0895CF93DF9300D00F924B
:102190000F92CDB7DEB76D839C0150E040E02983FC
:1021A0003A834B835C83CA01B9010E94CA132DE5AF
:1021B00031E44CE450E469837A838B839C836981A6
:1021C0007A818B819C810E94291369837A838B8316
:1021D0009C8369817A818B819C810E949B133D81C4
:1021E0003330F9F060F4313091F03230A9F00F90D3
:1021F0000F900F900F900F90DF91CF9108954D8128
:102200004430A9F770939C2060939B20F0CF70938B
:10221000902060938F20EBCF709394206093932055
:10222000E6CF7093982060939720E1CFCF93DF9310
:1022300000D00F920F92CDB7DEB76D839C0150E0B6
:1022400040E029833A834B835C83CA01B9010E9431
:10225000CA1328E93EED4AE75FE369837A838B83FB
:102260009C8369817A818B819C810E942913698377
:102270007A838B839C8369817A818B819C810E9484
:102280009B133D813330F9F060F4313091F03230FE
:10229000A9F00F900F900F900F900F90DF91CF91BA
:1022A00008954D814430A9F770939E2060939D203E
:1022B000F0CF7093922060939120EBCF7093962093
:1022C00060939520E6CF70939A2060939920E1CF98
:1022D0008F7799279093A02080939F200C940307D9
:1022E00080919F209091A02008958093DE0708950B
:1022F0008091DE070895F89483E381B982E282B980
:102300008CEC87B980E488B98FEF80930A018093C1
:102310000B0180E88AB91BB8279A2F980E94670E94
:102320000E94940378940E94B50E0E94D80F0E94D8
:10233000A6101092F2071092F1070E9495070E94D2
:102340009C050E94D50E0E94270F0E94F10D6B0183
:102350007C018090070890900808A0900908B09030
:102360000A088C149D04AE04BF0408F065C0DC01AB
:10237000CB0188199909AA09BB094C015D0120917B
:10238000F1073091F20721153105D1F1C9018D7F97
:102390000197B1F580910508909106084091FB07DF
:1023A0005091FC074817590709F467C021303105DF
:1023B00009F063C0A0EC8A16A6EC9A06ADE2AA0664
:1023C000B104F0F0892B09F440C080910508909188
:1023D00006082091FB073091FC0701962817390762
:1023E00008F4C90190930608809305080E946811BB
:1023F000C0920708D0920808E0920908F0920A08F3
:10240000A3EFB7E0EBE5F0E28D919D91892B09F404
:10241000DDC087819085892B09F0D8C00E945D07B7
:1024200010925B20109268201092752010928220EA
:1024300080E00E9475117DCF80949094A094B09418
:102440008C0C9D1CAE1CBF1C9ACF81E00E947511A4
:1024500061E084E893E00E94161162E084E893E072
:102460000E94161163E084E893E00E94161164E074
:1024700084E893E00E941611A8CFA091FD07B091C7
:10248000FE07E091FF07F09100086091010870914C
:1024900002084091030850910408C091F307D091BD
:1024A000F407CD018E2B9F2B862B972B842B952BFE
:1024B000892B91F5B0E88B16B6E99B06B8E9AB0617
:1024C000B10408F49DCFC3EFD7E00BE510E2BB24C5
:1024D000B394FE018A859B852296208131810596E1
:1024E0002817390708F4C901998788876B2D0E943E
:1024F000C41081E0FE01329720813181232B09F441
:1025000080E0F80180830E948506B394035F1F4F2B
:10251000F5E0BF12DECF6CCFAC17BD07A9F48091F8
:10252000F5079091F607E817F90771F48091F7071E
:102530009091F8076817790739F48091F90790911D
:10254000FA074817590731F120EE821623E992065F
:1025500024E0A206B10408F453CF03EF17E0C1E072
:10256000F801828593850E5F1F4F2081318105968A
:102570002817390708F4C901D80119969C938E933E
:1025800018976C2F0E94C4100E948506CF5FC5303B
:1025900039F72ECF1092F2071092F1072330310550
:1025A00091F40BE510E2C1E06C2F90E080E00E9416
:1025B000C410F8011082CF5F035F1F4FC530A1F731
:1025C0000E9449071DCF0E9453071ACF3D9620E273
:1025D000EF38F20709F018CFB0CEA1E21A2EAA1BED
:1025E000BB1BFD010DC0AA1FBB1FEE1FFF1FA217C3
:1025F000B307E407F50720F0A21BB30BE40BF50BC0
:10260000661F771F881F991F1A9469F76095709548
:10261000809590959B01AC01BD01CF0108950E946A
:102620001A13A59F900DB49F900DA49F800D911D2E
:1026300011240895A29FB001B39FC001A39F700D04
:10264000811D1124911DB29F700D811D1124911DBA
:1026500008950E943D130C941E140E94171458F004
:102660000E94101440F029F45F3F29F00C940714E5
:1026700051110C9452140C940D140E942F1468F3F1
:102680009923B1F3552391F3951B550BBB27AA272B
:1026900062177307840738F09F5F5F4F220F331F65
:1026A000441FAA1FA9F335D00E2E3AF0E0E832D02D
:1026B00091505040E695001CCAF72BD0FE2F29D030
:1026C000660F771F881FBB1F261737074807AB0702
:1026D000B0E809F0BB0B802DBF01FF2793585F4F77
:1026E0003AF09E3F510578F00C9407140C94521464
:1026F0005F3FE4F3983ED4F3869577956795B79559
:10270000F7959F5FC9F7880F911D9695879597F963
:102710000895E1E0660F771F881FBB1F62177307DC
:102720008407BA0720F0621B730B840BBA0BEE1FF1
:1027300088F7E09508950E94371488F09F5798F025
:10274000B92F9927B751B0F0E1F0660F771F881FB6
:10275000991F1AF0BA95C9F714C0B13091F00E94D0
:102760005114B1E008950C945114672F782F8827E5
:10277000B85F39F0B93FCCF3869577956795B395F7
:10278000D9F73EF490958095709561957F4F8F4F66
:102790009F4F0895E89409C097FB3EF4909580956B
:1027A000709561957F4F8F4F9F4F9923A9F0F92F17
:1027B00096E9BB279395F695879577956795B79595
:1027C000F111F8CFFAF4BB0F11F460FF1BC06F5F7B
:1027D0007F4F8F4F9F4F16C0882311F096E911C08D
:1027E000772321F09EE8872F762F05C0662371F0AE
:1027F00096E8862F70E060E02AF09A95660F771FC2
:10280000881FDAF7880F9695879597F9089597F9B5
:102810009F6780E870E060E008959FEF80EC089586
:1028200000240A94161617061806090608950024AF
:102830000A9412161306140605060895092E039429
:10284000000C11F4882352F0BB0F40F4BF2B11F49D
:1028500060FF04C06F5F7F4F8F4F9F4F089557FDFC
:102860009058440F551F59F05F3F71F04795880FFE
:1028700097FB991F61F09F3F79F087950895121695
:1028800013061406551FF2CF4695F1DF08C0161641
:1028900017061806991FF1CF8695710561050894F2
:1028A0000895E894BB2766277727CB0197F9089509
:1028B0000E946B140C941E140E94101438F00E9495
:1028C000171420F0952311F00C9407140C940D1498
:1028D00011240C9452140E942F1470F3959FC1F38D
:1028E000950F50E0551F629FF001729FBB27F00DBE
:1028F000B11D639FAA27F00DB11DAA1F649F662713
:10290000B00DA11D661F829F2227B00DA11D621F61
:10291000739FB00DA11D621F839FA00D611D221F1B
:10292000749F3327A00D611D231F849F600D211DFF
:10293000822F762F6A2F11249F5750409AF0F1F082
:1029400088234AF0EE0FFF1FBB1F661F771F881FEB
:1029500091505040A9F79E3F510580F00C94071408
:102960000C9452145F3FE4F3983ED4F38695779528
:102970006795B795F795E7959F5FC1F7FE2B880F91
:0E298000911D9695879597F90895F894FFCFCD
:10298E002424246F66660A00242424696E73756CF1
:10299E006661696C65643A002424246265616D6F1A
:1029AE006E0A00242424696E73756C6F6B0A0064C2
:1029BE00697361626C65640A0024242466696C7311
:1029CE006574613A002424247073757374617465A0
:1029DE0000242424610024242476002424246572F7
:1029EE00720A00242424656C656374726F6E6374BE
:1029FE00726C5F32303231303831395F3030310AFB
:102A0E000069640070737567657476310070737554
:102A1E00676574763200707375676574763300700F
:102A2E00737567657476340070737567657461319C
:102A3E0000707375676574613200707375676574C5
:102A4E0061330070737567657461340070737570EF
:102A5E006F6C317000707375706F6C316E007073C7
:102A6E0075706F6C327000707375706F6C326E00B3
:102A7E00707375706F6C337000707375706F6C332C
:102A8E006E00707375706F6C347000707375706F4C
:102A9E006C346E007073756F6E31007073756F6687
:102AAE006631007073756F6E32007073756F666687
:102ABE0032007073756F6E33007073756F666633A8
:102ACE00007073756F6E34007073756F66663400C8
:102ADE0066696C6F6E0066696C6F66660070737502
:102AEE006D6F646500707375736574763100707305
:102AFE007573657476320070737573657476330012
:102B0E007073757365747634007073757365746164
:102B1E00310070737573657461320070737573650F
:102B2E00746133007073757365746134007365740A
:102B3E0066696C6100696E73756C006265616D68C3
:0C2B4E00766F6666006265616D6F6E0058
:00000001FF
