:100000000C9472000C9493000C9493000C94930045
:100010000C9493000C9493000C9493000C94930014
:100020000C9493000C9493000C9493000C94930004
:100030000C9493000C94700A0C9493000C9493000D
:100040000C9493000C9493000C9493000C949300E4
:100050000C9493000C9493000C9493000C943B0824
:100060000C9493000C9483020C94B1020C949300B2
:100070000C9493000C9429090C9493000C94930015
:100080000C9493000C9493000C9493000C949300A4
:100090000C9493000C9493000C9493000C94930094
:1000A0000C9493000C9493000C9493000C94930084
:1000B0000C9493000C9493000C9493000C94930074
:1000C0000C9493000C9493000C9493000C94930064
:1000D0000C9493000C9493000C9493000C94930054
:1000E0000C94930011241FBECFEFD1E2DEBFCDBF31
:1000F00000E00CBF13E0A0E0B2E0E2E5FBE100E0CD
:100100000BBF02C007900D92A834B107D9F726E0C3
:10011000A8E4B3E001C01D92A83CB207E1F70E9439
:10012000AA0B0C94A70D0C9400000F931F93FC01D5
:1001300080819181A281B3810481158126813781DB
:100140000196A11DB11D9927AA27BB2780179107EA
:10015000A207B307B9F080819181A281B3818E0F8C
:100160009F1FDC0118966C9380819181A281B381DD
:100170000196A11DB11D9927AA27BB2780839183D2
:10018000A283B3831F910F9108950F931F938A0148
:10019000FC01A8E4B3E0080F191F81912D91082EEE
:1001A000000C990B2817190639F4E017F107A9F785
:1001B00081E01F910F91089580E0FBCF8F929F9275
:1001C000AF92BF92CF92DF92EF92FF92CF93DF93E5
:1001D00000D000D0CDB7DEB76B017C0180E593E0A5
:1001E0009E838D8319821A821B821C82812C912C02
:1001F00054018C149D04AE04BF04A9F469817A8172
:100200008B819C8126960FB6F894DEBF0FBECDBFC2
:10021000DF91CF91FF90EF90DF90CF90BF90AF90A4
:100220009F908F900895AD81BE81ED91BE83AD8387
:10023000E053EA3090F4AAE0B0E029813A814B81A2
:100240005C810E94F10BDC01CB018E0F911DA11D81
:10025000B11D89839A83AB83BC839FEF891A990A66
:10026000A90AB90AC6CF8F929F92AF92BF92CF923E
:10027000DF92EF92FF920F931F93CF93DF93CDB74F
:10028000DEB72E970FB6F894DEBF0FBECDBF6B87DB
:100290007C878D879E878B859C85AD85BE85892BC8
:1002A0008A2B8B2BB9F460E38CE695E02E960FB683
:1002B000F894DEBF0FBECDBFDF91CF911F910F919C
:1002C000FF90EF90DF90CF90BF90AF909F908F9076
:1002D0000C94950000E0DE0111967D018AE0882EE5
:1002E000912CA12CB12C6701C00ED11C6B857C8593
:1002F0008D859E85A50194010E94CF0B605DF6015E
:1003000060830F5F8B859C85AD85BE852B873C8781
:100310004D875E870A97A105B10528F70E0D1F2DA1
:10032000111DE016F10699F42E960FB6F894DEBF73
:100330000FBECDBFDF91CF911F910F91FF90EF9036
:10034000DF90CF90BF90AF909F908F900895D8018D
:100350006E918D018CE695E00E949500E2CF0F939F
:100360001F93CF93DF938A01EC01080F191F699146
:100370008CE695E00E949500C017D107C1F7DF9188
:10038000CF911F910F9108950F931F93462F572FD1
:10039000BC010091640410916504209166043091C1
:1003A00067048091680490916904A0916A04B091F7
:1003B0006B04081719072A073B07B1F080916804FE
:1003C00090916904A0916A04B0916B04840F951F09
:1003D000A61FB71F9927AA27BB278C599B4FFC0143
:1003E00080851F910F91089580E0FBCF0F931F939D
:1003F000CF93DF9300D00F92CDB7DEB74091640466
:10040000509165046091660470916704809168045E
:1004100090916904A0916A04B0916B044817590740
:100420006A077B0738F1409164045091650460913C
:100430006604709167048091680490916904A091AA
:100440006A04B0916B048A019B01081B190B2A0BEB
:100450003B0B09831A832B833C8369817A818B81CF
:100460009C810F900F900F900F90DF91CF911F9173
:100470000F9108958091640490916504A0916604A1
:10048000B0916704409168045091690460916A04D6
:1004900070916B049F5FAF4FBF4F8C019D01041B98
:1004A000150B260B370BD5CFE0ECF0E08081806494
:1004B0008083E1ECF0E08081886280830895ECE63F
:1004C000F5E0108211821282138214821582168244
:1004D0001782E4E6F4E01082118212821382148201
:1004E00015821682178280E190E09093C500809378
:1004F000C40082E08093C00080E98093C10086E060
:100500008093C20008951F920F920FB60F9211248C
:100510000BB60F922F933F934F935F936F937F93FD
:100520008F939F93AF93BF93EF93FF93F894609152
:10053000C60084E694E00E9495007894FF91EF91C4
:10054000BF91AF919F918F917F916F915F914F91EB
:100550003F912F910F900BBE0F900FBE0F901F90E9
:1005600018951F921FB61F9211242F932BB72F930C
:100570004F935F936F937F938F939F93AF93BF93AB
:10058000EF93FF93F89440916C0550916D05609145
:100590006E0570916F058091700590917105A09125
:1005A0007205B0917305481759076A077B0709F46C
:1005B0004CC040916C0550916D0560916E05709135
:1005C0006F058091700590917105A0917205B091B1
:1005D000730520E0481759076A077B0711F18091DE
:1005E000700590917105A0917205B09173058459C1
:1005F0009A4FFC0120858091700590917105A09122
:100600007205B09173050196A11DB11D9927AA2706
:10061000BB278093700590937105A0937205B093EA
:1006200073052093C6007894FF91EF91BF91AF912D
:100630009F918F917F916F915F914F912F912BBFE0
:100640002F911F901FBE1F9018958091C100877D2C
:100650008093C100E8CF6F927F928F929F92AF926A
:10066000BF92CF92DF92EF92FF920F931F93CF939F
:10067000DF9300D000D00F920F92CDB7DEB70E946B
:10068000F601409164045091650460916604709194
:1006900067048091680490916904A0916A04B09104
:1006A0006B04481759076A077B0759F18091680462
:1006B00090916904A0916A04B0916B048C599B4F8E
:1006C000FC0180858432E9F40E94F60163307105F3
:1006D0008105910508F06FC028960FB6F894DEBF2B
:1006E0000FBECDBFDF91CF911F910F91FF90EF9083
:1006F000DF90CF90BF90AF909F908F907F906F9042
:1007000008950E94F6016D837E838F839887672BFF
:10071000682B692BC9F24091640450916504609183
:100720006604709167048091680490916904A091B7
:100730006A04B0916B04481759076A077B0709F4EC
:10074000A0CF8091680490916904A0916A04B0914F
:100750006B048C599B4FDC0118968C918091680436
:1007600090916904A0916A04B0916B040196A11D57
:10077000B11D9927AA27BB27809368049093690429
:10078000A0936A04B0936B047CCF8091680490912D
:100790006904A0916A04B0916B040196A11DB11D7A
:1007A0009927AA27BB278093680490936904A09394
:1007B0006A04B0936B0460E070E0CB010E94C40156
:1007C000843209F4ACC00E94F6016D837E838F836E
:1007D00098876430710581059105B8F60E94F6018D
:1007E000643071058105910508F476CF0E94F60109
:1007F0006B017C0183E090E0A0E0B0E08D839E83FC
:10080000AF83B8878D819E81AF81B8858C159D059A
:10081000AE05BF0508F496C06D817E818F819885F5
:100820000E94C4018A3009F037C280916804909117
:100830006904A0916A04B0916B040396A11DB11DD7
:100840009927AA27BB278093680490936904A093F3
:100850006A04B0936B04CD80DE80EF80F88493E06F
:10086000C91AD108E108F1088D819E81AF81B88550
:100870000497A109B10989839A83AB83BC83BC0126
:10088000CD010E94C40101E010E020E030E08D3095
:1008900019F000E010E09801C01AD10AE20AF30A48
:1008A00088E4682E83E0782E80E090E0DC01C816B2
:1008B000D906EA06FB0609F05FC0809168049091B2
:1008C0006904A0916A04B0916B04800F911FA21F6C
:1008D000B31F9927AA27BB278093680490936904C4
:1008E000A0936A04B0936B04F2E0CF16D104E10444
:1008F000F10409F081C042E050E060E070E080E384
:1009000092E00E94C500813009F0AEC34DE150E095
:1009100060E070E082E192E00E94AF01DEC061E041
:1009200070E080E090E00E94C401843209F04BCF77
:1009300062E070E080E090E00E94C401843209F03F
:1009400042CF4CCF6D817E818F8198850E94C401FA
:100950008A3009F461CF6D817E818F8198850E94F4
:10096000C401843209F458CF8D819E81AF81B8854E
:100970000196A11DB11D42CF809064049090650442
:10098000A0906604B0906704409168045091690497
:1009900060916A0470916B0484169506A606B706EA
:1009A00009F48BCF409168045091690460916A0406
:1009B00070916B044C595B4FFA01B084409168040C
:1009C0005091690460916A0470916B044F5F5F4FAE
:1009D0006F4F7F4F552766277727409368045093C2
:1009E000690460936A0470936B04F301B1923F0150
:1009F0000196A11DB11D5BCF48E0C416D104E104EE
:100A0000F10409F0DBC148E050E060E070E083E30E
:100A100092E00E94C500813009F062C0F894009114
:100A2000740610917506789444E050E060E070E040
:100A300085E092E00E94AF0161E38CE695E00E94C0
:100A400095006AE38CE695E00E949500C801B0E04D
:100A5000A0E089839A83AB83BC83B801CD010E9457
:100A6000AC0C2AE83FE14BE450E469837A838B8342
:100A70009C8369817A818B819C810E943A0D25E853
:100A80003BEE41E85FE369837A838B839C836981D2
:100A90007A818B819C810E943A0D69837A838B8352
:100AA0009C8369817A818B819C810E947D0C698302
:100AB0007A838B839C83A981BA81CD01B0E0A0E0C9
:100AC00089839A83AB83BC83BC01CD010E9433012F
:100AD0006AE08CE695E00E9495000E945402DCC01A
:100AE00048E050E060E070E08CE392E00E94C500D6
:100AF000813081F4F8940091780610917906789409
:100B000044E050E060E070E085E092E00E94AF01D8
:100B100062E393CF48E050E060E070E085E492E06B
:100B20000E94C500813081F4F89400917C061091F8
:100B30007D06789444E050E060E070E085E092E06B
:100B40000E94AF0163E379CF48E050E060E070E0DD
:100B50008EE492E00E94C500813081F4F894009107
:100B6000800610918106789444E050E060E070E0E7
:100B700085E092E00E94AF0164E35FCF48E050E07F
:100B800060E070E087E592E00E94C500813041F5A9
:100B9000F8940091760610917706789444E050E03E
:100BA00060E070E080E092E00E94AF0161E38CE6DB
:100BB00095E00E9495006AE38CE695E00E9495001E
:100BC000C801B0E0A0E089839A83AB83BC83B801FD
:100BD000CD010E94AC0C20E030E44CE151E453CF55
:100BE00048E050E060E070E080E692E00E94C500DE
:100BF000813081F4F89400917A0610917B06789404
:100C000044E050E060E070E080E092E00E94AF01DC
:100C100062E3CDCF48E050E060E070E089E692E02A
:100C20000E94C500813081F4F89400917E061091F5
:100C30007F06789444E050E060E070E080E092E06D
:100C40000E94AF0163E3B3CF48E050E060E070E0A2
:100C500082E792E00E94C500813081F4F89400910F
:100C6000820610918306789444E050E060E070E0E2
:100C700080E092E00E94AF0164E399CF48E050E049
:100C800060E070E08BE792E00E94C500813021F5C2
:100C900010928606109285066D817E818F819885DF
:100CA0000E94C401843209F017CD809168049091AC
:100CB0006904A0916A04B0916B040396A11DB11D53
:100CC0009927AA27BB278093680490936904A0936F
:100CD0006A04B0936B0400CD48E050E060E070E03F
:100CE00084E892E00E94C500813039F481E090E010
:100CF0009093860680938506CFCF48E050E060E071
:100D000070E08DE892E00E94C500813029F41092D5
:100D1000930610929206C0CF48E050E060E070E089
:100D200086E992E00E94C500813039F481E090E0CC
:100D30009093930680939206AFCF48E050E060E036
:100D400070E08FE992E00E94C500813029F4109292
:100D5000A00610929F06A0CF48E050E060E070E04F
:100D600088EA92E00E94C500813039F481E090E089
:100D70009093A00680939F068FCF48E050E060E0FC
:100D800070E081EB92E00E94C500813029F410925E
:100D9000AD061092AC0680CF48E050E060E070E015
:100DA0008AEB92E00E94C500813009F085C081E0A5
:100DB00090E09093AD068093AC066ECFB6E0CB1674
:100DC000D104E104F10469F446E050E060E070E031
:100DD00083EC92E00E94C5008130B9F480938406D0
:100DE0005BCFE7E0CE16D104E104F10409F05DC069
:100DF00047E050E060E070E08AEC92E00E94C500BD
:100E0000813081F41092840647CF46E050E060E0E4
:100E100070E082ED92E00E94C500813081F4809301
:100E200091063ACF47E050E060E070E089ED92E053
:100E30000E94C500813081F4109291062DCF46E0CA
:100E400050E060E070E081EE92E00E94C5008130E9
:100E500081F480939E0620CF47E050E060E070E090
:100E600088EE92E00E94C500813089F410929E06BF
:100E700013CF46E050E060E070E080EF92E00E9427
:100E8000C500813009F0F0C08093AB0605CF47E084
:100E900050E060E070E087EF92E00E94C500813092
:100EA00009F0E2C01092AB06F7CEF8E0CF16D104FD
:100EB000E104F10408F4D8C048E050E060E070E0DC
:100EC0008FEF92E00E94C5008130A1F4D701C601E6
:100ED0000897A109B10989839A83AB83BC83BC01BC
:100EE000CD010E94DE00262F61E0822F972F0E9405
:100EF000060BD2CE48E050E060E070E088E093E07E
:100F00000E94C500813081F4D701C6010897A1096C
:100F1000B10989839A83AB83BC83BC01CD010E9454
:100F2000DE00262F62E0E1CF48E050E060E070E0B4
:100F300081E193E00E94C500813081F4D701C601B0
:100F40000897A109B10989839A83AB83BC83BC014B
:100F5000CD010E94DE00262F63E0C7CF48E050E0BD
:100F600060E070E08AE193E00E94C500813081F486
:100F7000D701C6010897A109B10989839A83AB8378
:100F8000BC83BC01CD010E94DE00262F64E0ADCF02
:100F900048E050E060E070E083E293E00E94C5002A
:100FA0008130A1F4D701C6010897A109B10989834D
:100FB0009A83AB83BC83BC01CD010E94DE00262F47
:100FC00061E0822F972F0E94580B66CE48E050E0D8
:100FD00060E070E08CE293E00E94C500813081F413
:100FE000D701C6010897A109B10989839A83AB8308
:100FF000BC83BC01CD010E94DE00262F62E0E1CF60
:1010000048E050E060E070E085E393E00E94C500B6
:10101000813081F4D701C6010897A109B1098983FC
:101020009A83AB83BC83BC01CD010E94DE00262FD6
:1010300063E0C7CF48E050E060E070E08EE393E00B
:101040000E94C500813081F4D701C6010897A1092B
:10105000B10989839A83AB83BC83BC01CD010E9413
:10106000DE00262F64E0ADCF47E050E060E070E0A6
:101070008AE092E051CC1F921FB61F9211240F9369
:101080001F932F933F934F935F936F937F938F9310
:101090009F93AF93BF938091500490915104A0917E
:1010A0005204B091530400914C0410914D042091CE
:1010B0004E0430914F04B901A8014E5E5F4F6F4F4F
:1010C0007F4F4D37510561057105C0F58A5F9E4F11
:1010D000AF4FBF4F009148041091490420914A043A
:1010E00030914B040F5F1F4F2F4F3F4F0093480429
:1010F0001093490420934A0430934B048093500486
:1011000090935104A0935204B093530440934C0421
:1011100050934D0460934E0470934F04BF91AF9170
:101120009F918F917F916F915F914F913F912F91FF
:101130001F910F911F901FBE1F901895B901A80114
:101140004B56510961097109895F9E4FAF4FBF4FDF
:10115000C1CFCF93DF9300D00F92CDB7DEB72FB7BB
:10116000F8948091480490914904A0914A04B09168
:101170004B0446B550E070E060E0A89B08C04F3FCC
:1011800051056105710519F00196A11DB11D2FBF13
:10119000BA2FA92F982F8827840F951FA61FB71F36
:1011A0009C01AD0162E0220F331F441F551F6A9559
:1011B000D1F7CA01B9010F900F900F900F90DF91F6
:1011C000CF910895CF92DF92EF92FF92CF93DF936A
:1011D00000D000D0CDB7DEB76B017C010E94A9081A
:1011E0006D837E83C114D104E104F10469F4269671
:1011F0000FB6F894DEBF0FBECDBFDF91CF91FF9049
:10120000EF90DF90CF9008950E94A90869837A83B8
:101210008B839C8389819A812D813E81821B930BD4
:10122000883E9340F8F28D819E8188519C4F9E8329
:101230008D8391E0C91AD108E108F108D3CF15BC1C
:1012400016BC14BC81E085BB80936E0083E085BD35
:1012500008952F932FB72F932BB72F933F938F93EF
:101260009F93AF93BF93EF93FF93ACE7B0E09C9154
:101270002091780030917900E92FF0E03796E770FF
:10128000FF27EE0FFF1FEC58F94F3183208381E0D9
:10129000890F8770907E892B8C93FF91EF91BF917E
:1012A000AF919F918F913F912F912BBF2F912FBF86
:1012B0002F9118952FB7F894E4E7F6E08FEF9FEFA2
:1012C00091838083938382839583848397838683AA
:1012D000918780879387828795878487978786877A
:1012E000E4E6F0E080818E7F808380E480937C0060
:1012F00010927B00EAE7F0E08FEB80832FBF8081C4
:1013000080648083089590B1E4E8F6E09695969520
:1013100021E09227917097831086A4E7B6E08D9123
:101320009C9111979287818712968D919C9113972A
:101330009487838790B1929596959695937092270E
:101340009170948B158A14968D919C911597978B1B
:10135000868B16968D919C911797918F808F96B161
:101360009295969597709227917091A312A21896D4
:101370008D919C91199794A383A31A968D919C911A
:101380001B9796A385A386B186958227817086A731
:1013900017A61C968D919C911D9791AB80AB1E96C4
:1013A0008D919C9193AB82AB08958230910559F158
:1013B0002CF4009731F00197A9F008950397A1F15B
:1013C000089580918406813049F4109A80918506B1
:1013D00090918606892B21F4119808951098F6CFE4
:1013E000119A089580919106813049F4149A809160
:1013F000920690919306892B21F4159808951498DC
:10140000F6CF159A089580919E06813049F4479A47
:1014100080919F069091A006892B21F4469808950B
:101420004798F6CF469A08958091AB06813049F4EB
:10143000439A8091AC069091AD06892B21F4429895
:1014400008954398F6CF429A089590E080E00E9474
:10145000D50981E090E00E94D50982E090E00E94E9
:10146000D50983E090E00C94D5092FB7F89483E375
:1014700081B982E282B98CEC87B980E488B98FEFB8
:1014800080930A0110920B0180E88AB91BB8E4E846
:10149000F6E0108281E090E09283818314821382CF
:1014A00016821582158697878687118A108A138A75
:1014B000128A128E948F838F168E158E10A2178E1D
:1014C00017A211A610A613A612A615A614A62FBF22
:1014D00062E070E080E090E00E94E2080C948309F2
:1014E0001F921FB61F9211242F932BB72F933F9358
:1014F0004F935F938F939F93AF93BF93CF93DF935C
:10150000EF93FF93E4E5F4E0A8EBB6E080E02191EF
:1015100031912F5F3F4F3370EF012297398328833A
:101520004D915D9190910B0124173507A0F1811128
:1015300018C09F7790930B018F5F883041F7FF9120
:10154000EF91DF91CF91BF91AF919F918F915F917B
:101550004F913F912F912BBF2F911F901FBE1F9036
:101560001895813011F49F7BE5CF823011F49F7D77
:10157000E1CF833011F49F7EDDCF843011F4977F6B
:10158000D9CF853011F49B7FD5CF863011F49D7F64
:10159000D1CF9E7FCFCF811102C09068CBCF813059
:1015A00011F49064C7CF823011F49062C3CF8330BE
:1015B00011F49061BFCF843011F49860BBCF8530B7
:1015C00011F49460B7CF863011F49260B3CF91607C
:1015D000B1CF9FB7F894E4E5F4E0A8EBB6E0119240
:1015E00011921D921D9284E0E436F807C1F7109223
:1015F000B20082E08093B00021E02093B30080939A
:10160000700086E08093B1009FBF0895CF93DF9371
:1016100000D00F920F92CDB7DEB76D839C0150E0E2
:1016200040E029833A834B835C83CA01B9010E945D
:10163000AC0C2DE531E44CE450E469837A838B8370
:101640009C8369817A818B819C810E940B0C6983C8
:101650007A838B839C8369817A818B819C810E94B0
:101660007D0C3D813330F9F060F4313091F032304F
:10167000A9F00F900F900F900F900F90DF91CF91E6
:1016800008954D814430A9F77093C5066093C40650
:10169000F0CF7093B9066093B806EBCF7093BD0698
:1016A0006093BC06E6CF7093C1066093C006E1CF9D
:1016B000CF93DF9300D00F920F92CDB7DEB76D833B
:1016C0009C0150E040E029833A834B835C83CA014C
:1016D000B9010E94AC0C28E93EED4AE75FE369835B
:1016E0007A838B839C8369817A818B819C810E9420
:1016F0000B0C69837A838B839C8369817A818B81CC
:101700009C810E947D0C3D813330F9F060F43130D2
:1017100091F03230A9F00F900F900F900F900F9032
:10172000DF91CF9108954D814430A9F77093C7069A
:101730006093C606F0CF7093BB066093BA06EBCFFA
:101740007093BF066093BE06E6CF7093C3066093A6
:10175000C206E1CFF89483E381B982E282B98CECCE
:1017600087B980E488B98FEF80930A0180930B01D9
:1017700080E88AB91BB8279A2F980E941F090E94F7
:101780005F0278940E945A090E94350A0E94E90A71
:101790000E942B030E9483090E94250AF9CFA1E22F
:1017A0001A2EAA1BBB1BFD010DC0AA1FBB1FEE1FDB
:1017B000FF1FA217B307E407F50720F0A21BB30B26
:1017C000E40BF50B661F771F881F991F1A9469F7A2
:1017D00060957095809590959B01AC01BD01CF01FE
:1017E00008950E94FC0BA59F900DB49F900DA49F9F
:1017F000800D911D11240895A29FB001B39FC001D7
:10180000A39F700D811D1124911DB29F700D811D2C
:101810001124911D08950E941F0C0C94000D0E942C
:10182000F90C58F00E94F20C40F029F45F3F29F0C7
:101830000C94E90C51110C94340D0C94EF0C0E9493
:10184000110D68F39923B1F3552391F3951B550BB3
:10185000BB27AA2762177307840738F09F5F5F4F83
:10186000220F331F441FAA1FA9F335D00E2E3AF0C2
:10187000E0E832D091505040E695001CCAF72BD0DA
:10188000FE2F29D0660F771F881FBB1F261737072B
:101890004807AB07B0E809F0BB0B802DBF01FF275D
:1018A00093585F4F3AF09E3F510578F00C94E90C45
:1018B0000C94340D5F3FE4F3983ED4F3869577950E
:1018C0006795B795F7959F5FC9F7880F911D969516
:1018D000879597F90895E1E0660F771F881FBB1F72
:1018E000621773078407BA0720F0621B730B840B1F
:1018F000BA0BEE1F88F7E09508950E94190D88F045
:101900009F5798F0B92F9927B751B0F0E1F0660FC3
:10191000771F881F991F1AF0BA95C9F714C0B13004
:1019200091F00E94330DB1E008950C94330D672FB0
:10193000782F8827B85F39F0B93FCCF38695779533
:101940006795B395D9F73EF490958095709561951C
:101950007F4F8F4F9F4F0895E89409C097FB3EF447
:1019600090958095709561957F4F8F4F9F4F9923EC
:10197000A9F0F92F96E9BB279395F695879577956A
:101980006795B795F111F8CFFAF4BB0F11F460FF2A
:101990001BC06F5F7F4F8F4F9F4F16C0882311F082
:1019A00096E911C0772321F09EE8872F762F05C096
:1019B000662371F096E8862F70E060E02AF09A9531
:1019C000660F771F881FDAF7880F9695879597F926
:1019D000089597F99F6780E870E060E008959FEFB1
:1019E00080EC089500240A941616170618060906B6
:1019F000089500240A941216130614060506089585
:101A0000092E0394000C11F4882352F0BB0F40F40C
:101A1000BF2B11F460FF04C06F5F7F4F8F4F9F4F4C
:101A2000089557FD9058440F551F59F05F3F71F0CE
:101A30004795880F97FB991F61F09F3F79F0879535
:101A40000895121613061406551FF2CF4695F1DFBE
:101A500008C0161617061806991FF1CF869571054E
:101A6000610508940895E894BB2766277727CB0182
:101A700097F908950E944D0D0C94000D0E94F20CF0
:101A800038F00E94F90C20F0952311F00C94E90C29
:101A90000C94EF0C11240C94340D0E94110D70F372
:101AA000959FC1F3950F50E0551F629FF001729F03
:101AB000BB27F00DB11D639FAA27F00DB11DAA1F12
:101AC000649F6627B00DA11D661F829F2227B00D5F
:101AD000A11D621F739FB00DA11D621F839FA00DEA
:101AE000611D221F749F3327A00D611D231F849F3A
:101AF000600D211D822F762F6A2F11249F57504091
:101B00009AF0F1F088234AF0EE0FFF1FBB1F661F0B
:101B1000771F881F91505040A9F79E3F510580F0D4
:101B20000C94E90C0C94340D5F3FE4F3983ED4F32D
:101B3000869577956795B795F795E7959F5FC1F778
:101B4000FE2B880F911D9695879597F90895F89427
:021B5000FFCFC5
:101B5200242424610024242476002424246572721F
:101B62000A00242424656C656374726F6E63747258
:101B72006C5F32303231303730375F3030310A000B
:101B82006964007073756765747631007073756788
:101B9200657476320070737567657476330070739E
:101BA20075676574763400707375676574613100AA
:101BB20070737567657461320070737567657461FF
:101BC2003300707375676574613400707375706F7C
:101BD2006C317000707375706F6C316E007073755C
:101BE200706F6C327000707375706F6C326E007053
:101BF2007375706F6C337000707375706F6C336EC9
:101C020000707375706F6C347000707375706F6CE8
:101C1200346E007073756F6E31007073756F666627
:101C220031007073756F6E32007073756F66663255
:101C3200007073756F6E33007073756F6666330074
:101C42007073756F6E34007073756F6666340070F2
:101C5200737573657476310070737573657476325B
:101C62000070737573657476330070737573657481
:101C720076340070737573657461310070737573B7
:101C820065746132007073757365746133007073CB
:081C92007573657461340000F4
:00000001FF
