:100000000C9472000C9493000C9493000C94930045
:100010000C9493000C9493000C9493000C94930014
:100020000C9493000C9493000C9493000C94930004
:100030000C9493000C94AB0D0C9493000C949300CF
:100040000C9493000C9493000C9493000C949300E4
:100050000C9493000C9493000C9493000C941B0B41
:100060000C9493000C9466030C9498030C949300E6
:100070000C9493000C94090C0C9493000C94930032
:100080000C9493000C9493000C9493000C949300A4
:100090000C9493000C9493000C9493000C94930094
:1000A0000C9493000C9493000C9493000C94930084
:1000B0000C9493000C9493000C9493000C94930074
:1000C0000C9493000C9493000C9493000C94930064
:1000D0000C9493000C9493000C9493000C94930054
:1000E0000C94930011241FBECFEFD1E2DEBFCDBF31
:1000F00000E00CBF13E0A0E0B2E0EAEBF4E200E0C5
:100100000BBF02C007900D92AC3CB107D9F720E1BC
:10011000ACECB3E001C01D92AD37B207E1F70E942D
:10012000130F0C945B120C9400000F931F93CF934A
:1001300007E310E1C1E0D8011C926C2F90E080E051
:100140000E945C0E6C2F85E090E00E94AE0E035F73
:100150001F4FCF5FC53079F780E00E940D0F90E010
:1001600080E00E94000F83E090E09093EE07809380
:10017000ED0782EE97E09093F0078093EF0784EE0F
:1001800097E09093F2078093F10780E197E09093D6
:10019000F4078093F3071092F6071092F507109278
:1001A000F8071092F7071092FA071092F9071092C9
:1001B000FC071092FB071092FE071092FD071092A9
:1001C00000081092FF0710920208109201080E9486
:1001D000890B60930308709304088093050890933B
:1001E0000608CF911F910F9108950F931F93CF93FE
:1001F00007E310E1C1E0D8011C926C2F90E080E091
:100200000E945C0E6C2F85E090E00E94AE0E035FB2
:100210001F4FCF5FC53079F780E00E940D0F81E05E
:1002200090E09093EE078093ED0782EE97E0909335
:10023000F0078093EF0784EE97E09093F2078093A6
:10024000F10780E197E09093F4078093F307109211
:10025000F6071092F5070E94080F9093F807809315
:10026000F7071092FA071092F9071092FC07109204
:10027000FB071092FE071092FD07109200081092E3
:10028000FF0710920208109201080E94890B6093E8
:10029000030870930408809305089093060890E083
:1002A00080E0CF911F910F910C94000F0F931F933B
:1002B000FC0180819181A281B38104811581268115
:1002C00037810196A11DB11D9370AA27BB27801706
:1002D0009107A207B307B9F080819181A281B38110
:1002E0008E0F9F1FDC0118966C9380819181A281F3
:1002F000B3810196A11DB11D9370AA27BB278083EE
:100300009183A283B3831F910F9108958F929F923F
:10031000AF92BF92CF92DF92EF92FF92CF93DF9393
:1003200000D00F920F92CDB7DEB76A017B01FC01BE
:1003300019821A821B821C82812C912C54018C14EC
:100340009D04AE04BF04A1F469817A818B819C81F4
:100350000F900F900F900F900F90DF91CF91FF9023
:10036000EF90DF90CF90BF90AF909F908F900895C7
:10037000219120532D832A3098F4AAE0B0E02981FE
:100380003A814B815C810E94A510DC01CB012D815B
:10039000820F911DA11DB11D89839A83AB83BC83FC
:1003A0008FEF881A980AA80AB80AC9CF0F931F932B
:1003B0008A01FC01ACECB3E0080F191F81912D916B
:1003C000082E000C990B2817190639F4E017F107CD
:1003D000A9F781E01F910F91089580E0FBCF8F92E4
:1003E0009F92AF92BF92CF92DF92EF92FF920F93C4
:1003F0001F93CF93DF93CDB7DEB72E970FB6F89448
:10040000DEBF0FBECDBF6B877C878D879E878B85B8
:100410009C85AD85BE85892B8A2B8B2BB9F460E337
:100420008FE09CE02E960FB6F894DEBF0FBECDBFD6
:10043000DF91CF911F910F91FF90EF90DF90CF90C0
:10044000BF90AF909F908F900C94560100E0DE011A
:1004500011967D018AE0882E912CA12CB12C670188
:10046000C00ED11C6B857C858D859E85A501940170
:100470000E948310605DF60160830F5F8B859C8511
:10048000AD85BE852B873C874D875E870A97A10582
:10049000B10528F70E0D1F2D111DE016F10699F478
:1004A0002E960FB6F894DEBF0FBECDBFDF91CF9171
:1004B0001F910F91FF90EF90DF90CF90BF90AF9082
:1004C0009F908F900895D8016E918D018FE09CE0F0
:1004D0000E945601E2CF0F931F93CF93DF938A01BF
:1004E000EC01080F191F69918FE09CE00E945601F2
:1004F000C017D107C1F7DF91CF911F910F910895D8
:100500000F931F93CF93DF9300D00F92CDB7DEB739
:1005100040910708509108086091090870910A08F5
:1005200080910B0890910C08A0910D08B0910E08D5
:10053000481759076A077B0738F14091070850911F
:1005400008086091090870910A0880910B08909141
:100550000C08A0910D08B0910E088A019B01081BA0
:10056000190B2A0B3B0B09831A832B833C8369816C
:100570007A818B819C810F900F900F900F90DF916B
:10058000CF911F910F9108958091070890910808CD
:10059000A0910908B0910A0840910B0850910C08ED
:1005A00060910D0870910E089C5FAF4FBF4F8C019A
:1005B0009D01041B150B260B370BD5CFCF92DF9275
:1005C000EF92FF92CF93DF9300D00F92CDB7DEB7BB
:1005D0006B017C014091070850910808609109085F
:1005E00070910A0880910B0890910C08A0910D0859
:1005F000B0910E08481759076A077B0761F480E03D
:100600000F900F900F900F90DF91CF91FF90EF9090
:10061000DF90CF9008950E94800269837A838B8354
:100620009C83C616D706E806F90648F780910B08A2
:1006300090910C08A0910D08B0910E088C0D9D1D95
:10064000AE1DBF1D6C017D0123E0D222EE24FF24EC
:10065000F601E95FF74F8085D3CF9FB7F894E0ECC0
:10066000F0E0808180648083E1ECF0E0808188624A
:1006700080839FBF08958FB7F894EFE0FCE010826D
:100680001182128213821482158216821782E7E089
:10069000F8E010821182128213821482158216826F
:1006A00017821092CD071092CC0727E630E03093E6
:1006B000C5002093C40092E09093C00090E990930D
:1006C000C10096E09093C2008FBF08951F920F92D1
:1006D0000FB60F9211240BB60F922F933F934F93A7
:1006E0005F936F937F938F939F93AF93BF93EF939A
:1006F000FF936091C60087E098E00E94560181E078
:1007000090E09093CD078093CC07FF91EF91BF913C
:10071000AF919F918F917F916F915F914F913F9199
:100720002F910F900BBE0F900FBE0F901F9018953A
:100730001F921FB61F9211242F932BB72F934F9305
:100740005F936F937F938F939F93AF93BF93EF9339
:10075000FF9340910F0C5091100C6091110C70910F
:10076000120C8091130C9091140CA091150CB09167
:10077000160C481759076A077B0709F44BC04091CC
:100780000F0C5091100C6091110C7091120C809113
:10079000130C9091140CA091150CB091160C20E044
:1007A000481759076A077B0711F18091130C909144
:1007B000140CA091150CB091160C815F934FFC01A5
:1007C00020858091130C9091140CA091150CB09180
:1007D000160C0196A11DB11D9370AA27BB2780930B
:1007E000130C9093140CA093150CB093160C20933B
:1007F000C600FF91EF91BF91AF919F918F917F9133
:100800006F915F914F912F912BBF2F911F901FBE22
:100810001F9018958091C100877D8093C100E9CF1A
:10082000EF92FF920F931F93CF93DF9300D00F921D
:100830000F92CDB7DEB707E110E181E38D83F89425
:10084000D801ED90FC90789444E050E060E070E0D6
:1008500086E592E00E946B026D818FE09CE00E9431
:1008600056016AE38FE09CE00E945601C701B0E0A8
:10087000A0E089839A83AB83BC83B701CD010E943A
:1008800060112AE83FE14BE450E469837A838B836B
:100890009C8369817A818B819C810E94EE1125E87D
:1008A0003BEE41E85FE369837A838B839C836981B4
:1008B0007A818B819C810E94EE1169837A838B837C
:1008C0009C8369817A818B819C810E94311169832B
:1008D0007A838B839C83A981BA81CD01B0E0A0E0AB
:1008E00089839A83AB83BC83BC01CD010E94EF0155
:1008F0006AE08FE09CE00E9456010C5F1F4FBD81B3
:10090000BF5FBD83B53309F09ACF0F900F900F9062
:100910000F900F90DF91CF911F910F91FF90EF906B
:100920000C942D03CF93DF9300D00F92CDB7DEB799
:100930000E94100F882331F10E94080F89839A8347
:100940004BE050E060E070E089E392E00E946B02CF
:10095000A981BA81CD01B0E0A0E089839A83AB83FD
:10096000BC83BC01CD010E94EF016AE08FE09CE0F6
:100970000E9456010F900F900F900F90DF91CF9132
:100980000C942D034BE050E060E070E089E392E0CE
:100990000E946B0249E050E060E070E08FE292E07C
:1009A0000E946B02E7CF4BE050E060E070E083E232
:1009B00092E00E946B020C942D034AE050E060E04C
:1009C00070E088E192E00E946B020C942D030F937B
:1009D0001F93CF93DF934FE050E060E070E088E03A
:1009E00092E00E946B020FEE17E0C7E3D0E1F8013E
:1009F000819191918F01892B29F08F81988566E4EF
:100A0000892B09F06DE28FE09CE00E9456012D9643
:100A1000F0E1CB36DF0759F76AE08FE09CE00E94F7
:100A20005601DF91CF911F910F910C942D0347E058
:100A300050E060E070E080E092E00C946B02CF92B6
:100A4000DF92EF92FF920F931F93CF93DF9300D02B
:100A500000D00F920F92CDB7DEB70E9480026D8357
:100A60007E838F839887633071058105910580F5BA
:100A700028960FB6F894DEBF0FBECDBFDF91CF91A1
:100A80001F910F91FF90EF90DF90CF9008950E94FB
:100A900080026D837E838F83988764307105810522
:100AA0009105D8F180910B0890910C08A0910D0848
:100AB000B0910E080196A11DB11D9370AA27BB2706
:100AC00080930B0890930C08A0930D08B0930E0828
:100AD00040910708509108086091090870910A0830
:100AE00080910B0890910C08A0910D08B0910E0810
:100AF000481759076A077B0751F280910B089091BC
:100B00000C08A0910D08B0910E08895F974FDC0189
:100B100018968C91843209F0BACF0E948002653019
:100B200071058105910508F4A3CF60E070E0CB0169
:100B30000E94DE02843209F4C1C00E9480026D83EB
:100B40007E838F839887653071058105910508F054
:100B50009EC00E948002653071058105910508F4F0
:100B600087CF0E9480026B017C0123E030E040E0EF
:100B700050E02D833E834F8358872D813E814F81E6
:100B800058852C153D054E055F0508F071CFCA014B
:100B9000B9010E94DE028A3049F06D817E818F8129
:100BA00098850E94DE02843209F0A4C06D817E81A6
:100BB0008F8198850E94DE028A3009F098C2809168
:100BC0000B0890910C08A0910D08B0910E080396A7
:100BD000A11DB11D9370AA27BB2780930B0890938A
:100BE0000C08A0930D08B0930E08CD80DE80EF8036
:100BF000F88433E0C31AD108E108F1088D819E81A1
:100C0000AF81B8850497A109B109BC01CD010E944B
:100C1000DE0241E050E060E070E08D3019F040E02D
:100C200050E0BA01C41AD50AE60AF70A0E94800207
:100C300069837A838B839C836C157D058E059F0564
:100C400058F0ECECF3E040E050E0BA01C416D506F1
:100C5000E606F70609F05AC092E0C916D104E1048D
:100C6000F10409F07CC042E050E060E070E081E80F
:100C700092E00E94D601813009F0D6C44DE150E0E7
:100C800060E070E083E692E00E946B02DDC080913C
:100C90000B0890910C08A0910D08B0910E080196D8
:100CA000A11DB11D9370AA27BB2780930B089093B9
:100CB0000C08A0930D08B0930E0837CF61E070E0E8
:100CC00080E090E00E94DE02843209F036CF62E0DC
:100CD00070E080E090E00E94DE02843209F02DCFC7
:100CE00063E070E080E090E00E94DE02843209F46C
:100CF00024CF2FCF8D819E81AF81B8850196A11D14
:100D0000B11D8D839E83AF83B88737CF80910B0849
:100D100090910C08A0910D08B0910E08895F974F33
:100D2000DC0118962C9180910B0890910C08A091F1
:100D30000D08B0910E080196A11DB11D9370AA2750
:100D4000BB2780930B0890930C08A0930D08B093D9
:100D50000E0821934F5F5F4F6F4F7F4F77CFB8E003
:100D6000CB16D104E104F10409F0F8C148E050E0E9
:100D700060E070E084E892E00E94D601813009F0E2
:100D800066C0F894E0911710F0911810FA83E98387
:100D9000789444E050E060E070E086E592E00E94E4
:100DA0006B0261E38FE09CE00E9456016AE38FE0F2
:100DB0009CE00E94560149815A819A0150E040E02E
:100DC00029833A834B835C83CA01B9010E94601175
:100DD0002AE83FE14BE450E469837A838B839C8368
:100DE00069817A818B819C810E94EE1125E83BEE1E
:100DF00041E85FE369837A838B839C8369817A818D
:100E00008B819C810E94EE1169837A838B839C8302
:100E100069817A818B819C810E94311169837A83F7
:100E20008B839C83A981BA81CD01B0E0A0E0898346
:100E30009A83AB83BC83BC01CD010E94EF016AE0C1
:100E40008FE09CE00E9456010E942D0350C148E0B3
:100E500050E060E070E08DE892E00E94D6018130C1
:100E600091F4F894E0911B10F0911C10FA83E9833F
:100E7000789444E050E060E070E086E592E00E9403
:100E80006B0262E38FCF48E050E060E070E086E9FB
:100E900092E00E94D601813091F4F894E0911F1005
:100EA000F0912010FA83E983789444E050E060E008
:100EB00070E086E592E00E946B0263E373CF48E046
:100EC00050E060E070E08FE992E00E94D60181304E
:100ED00091F4F894E0912310F0912410FA83E983BF
:100EE000789444E050E060E070E086E592E00E9493
:100EF0006B0264E357CF48E050E060E070E088EABE
:100F000092E00E94D601813061F5F894E0911910C9
:100F1000F0911A10FA83E983789444E050E060E09D
:100F200070E081E592E00E946B0261E38FE09CE05B
:100F30000E9456016AE38FE09CE00E9456014981BD
:100F40005A819A0150E040E029833A834B835C83C5
:100F5000CA01B9010E94601120E030E44CE151E483
:100F600049CF48E050E060E070E081EB92E00E9401
:100F7000D601813091F4F894E0911D10F0911E108B
:100F8000FA83E983789444E050E060E070E081E522
:100F900092E00E946B0262E3C9CF48E050E060E05B
:100FA00070E08AEB92E00E94D601813091F4F894CF
:100FB000E0912110F0912210FA83E983789444E0C3
:100FC00050E060E070E081E592E00E946B0263E334
:100FD000ADCF48E050E060E070E083EC92E00E942A
:100FE000D601813091F4F894E0912510F09126100B
:100FF000FA83E983789444E050E060E070E081E5B2
:1010000092E00E946B0264E391CF48E050E060E020
:1010100070E08CEC92E00E94D601813049F410928D
:101020003910109238101092EE071092ED075FC041
:1010300048E050E060E070E085ED92E00E94D6016B
:10104000813039F481E090E090933910809338102A
:10105000EACF48E050E060E070E08EED92E00E9460
:10106000D601813029F41092461010924510DBCF42
:1010700048E050E060E070E087EE92E00E94D60128
:10108000813039F481E090E09093461080934510D0
:10109000CACF48E050E060E070E080EF92E00E944C
:1010A000D601813029F41092531010925210BBCF08
:1010B00048E050E060E070E089EF92E00E94D601E5
:1010C000813039F481E090E0909353108093521076
:1010D000AACF48E050E060E070E082E093E00E9438
:1010E000D601813049F51092601010925F106D8129
:1010F0007E818F8198850E94DE02843209F0B8CC0F
:1011000080910B0890910C08A0910D08B0910E08E9
:101110002D813E814F815885820F931FA41FB51FDB
:101120009370AA27BB2780930B0890930C08A09379
:101130000D08B0930E089CCC48E050E060E070E0F1
:101140008BE093E00E94D601813009F001C181E07B
:1011500090E09093601080935F10C9CFB6E0CB16FB
:10116000D104E104F10469F446E050E060E070E08D
:1011700084E193E00E94D6018130B9F48093371066
:10118000B6CFE7E0CE16D104E104F10409F05DC06A
:1011900047E050E060E070E08BE193E00E94D60110
:1011A000813081F4109237103ECF46E050E060E08D
:1011B00070E083E293E00E94D601813081F4809355
:1011C000441095CF47E050E060E070E08AE293E0A1
:1011D0000E94D601813081F41092441024CF46E061
:1011E00050E060E070E082E393E00E94D60181303D
:1011F00081F4809351107BCF47E050E060E070E0D5
:1012000089E393E00E94D601813089F41092511055
:101210000ACF46E050E060E070E081E493E00E9495
:10122000D601813009F049C080935E1060CF47E05D
:1012300050E060E070E088E493E00E94D6018130E5
:1012400009F04AC010925E1052CFF3E0CF16D104DD
:10125000E104F104E9F443E050E060E070E089E586
:1012600093E00E94D601813009F0DEC11092371060
:10127000109244101092511010925E1080E00E9463
:101280000D0F1092EE071092ED070E9417052FCF59
:1012900025E0C216D104E104F10409F052C045E092
:1012A00050E060E070E080E593E00E94D60181307C
:1012B00009F01DC10E940D0F1ACF46E050E060E01A
:1012C00070E086E593E00E94D601813009F00FC1FD
:1012D00080E00E940D0FA7CE47E050E060E070E094
:1012E0008DE593E00E94D601813009F000C14BE00A
:1012F00050E060E070E085E492E00E946B0247E31A
:1013000050E15A8349830BE610E1A981BA818C919F
:101310006DE2813041F4E981FA818781908563E44F
:10132000892B09F066E58FE09CE00E945601298137
:101330003A81235F3F4F3A8329830217130729F726
:101340007ECD38E0C316D104E104F10408F4C8C02E
:1013500048E050E060E070E085E693E00E94D6014E
:10136000813089F4B701A60148505109610971091A
:1013700084ED93E00E948601262F61E0822F972F53
:101380000E945C0E50CE48E050E060E070E08EE6D7
:1013900093E00E94D601813069F4B701A60148505C
:1013A00051096109710984ED93E00E948601262F9D
:1013B00062E0E4CF48E050E060E070E087E793E06F
:1013C0000E94D601813069F4B701A6014850510945
:1013D0006109710984ED93E00E948601262F63E084
:1013E000CDCF48E050E060E070E080E893E00E94FC
:1013F000D601813089F4B701A6014850510961092D
:10140000710984ED93E00E948601262F64E0822F0B
:10141000972F0E945C0E6BCE48E050E060E070E0D9
:1014200089E893E00E94D601813089F4B701A601D2
:10143000485051096109710984ED93E00E948601C9
:10144000262F61E0822F972F0E94AE0EECCD48E050
:1014500050E060E070E082E993E00E94D6018130C4
:1014600069F4B701A601485051096109710984ED79
:1014700093E00E948601262F62E0E4CF48E050E02E
:1014800060E070E08BE993E00E94D601813069F45E
:10149000B701A601485051096109710984ED93E033
:1014A0000E948601262F63E0CDCF48E050E060E047
:1014B00070E084EA93E00E94D6018130C1F4B70164
:1014C000A601485051096109710984ED93E00E9419
:1014D0008601262F64E0822F972F0E94AE0E07CE42
:1014E00044E0C416D104E104F10408F49DC044E0D2
:1014F00050E060E070E080EB93E00E94D601813024
:10150000A9F5F894E0902710F09028107894E11451
:1015100052E0F50640F520E032E0C9018E199F093E
:101520007C0144E050E060E070E081E592E00E94E0
:101530006B0266E68FE09CE00E9456016AE38FE052
:101540009CE00E945601970150E040E029833A83D5
:101550004B835C83CA01B7010E94601120E030E434
:101560004CE950E447CC92E0F91ADBCFB7E0CB1658
:10157000D104E104F104C8F047E050E060E070E01D
:101580008DEA93E00E94D601813009F047C0B7018F
:10159000A601475051096109710983ED93E00E944A
:1015A0008601CB010E94000F3ECDE5E0CE16D104AE
:1015B000E104F10401F545E050E060E070E085EB06
:1015C00093E00E94D601813079F50E9495008FCD7D
:1015D00049E050E060E070E08BEB93E00E94D601C0
:1015E000813011F510923710109244101092511062
:1015F00010925E1018CDF6E0CF16D104E104F1048C
:1016000099F446E050E060E070E085EC93E00E94E1
:10161000D601813049F40E94F50069CD39E0C31646
:10162000D104E104F104A1F247E050E060E070E091
:101630008BE592E029CB1F921FB61F9211240F93C6
:101640001F932F933F934F935F936F937F938F934A
:101650009F93AF93BF938091D6079091D707A091A6
:10166000D807B091D9070091D2071091D3072091E4
:10167000D4073091D507B901A8014E5E5F4F6F4F77
:101680007F4F4D37510561057105C0F58A5F9E4F4B
:10169000AF4FBF4F0091CE071091CF072091D007D9
:1016A0003091D1070F5F1F4F2F4F3F4F0093CE0751
:1016B0001093CF072093D0073093D1078093D6079C
:1016C0009093D707A093D807B093D9074093D20738
:1016D0005093D3076093D4077093D507BF91AF9110
:1016E0009F918F917F916F915F914F913F912F913A
:1016F0001F910F911F901FBE1F901895B901A8014F
:101700004B56510961097109895F9E4FAF4FBF4F19
:10171000C1CFCF93DF9300D00F92CDB7DEB72FB7F5
:10172000F8948091CE079091CF07A091D007B09107
:10173000D10746B550E070E060E0A89B08C04F3F7D
:1017400051056105710519F00196A11DB11D2FBF4D
:10175000BA2FA92F982F8827840F951FA61FB71F70
:101760009C01AD0162E0220F331F441F551F6A9593
:10177000D1F7CA01B9010F900F900F900F90DF9130
:10178000CF910895CF92DF92EF92FF92CF93DF93A4
:1017900000D000D0CDB7DEB76B017C010E94890B71
:1017A0006D837E83C114D104E104F10469F42696AB
:1017B0000FB6F894DEBF0FBECDBFDF91CF91FF9083
:1017C000EF90DF90CF9008950E94890B69837A8310
:1017D0008B839C8389819A812D813E81821B930B0F
:1017E000883E9340F8F28D819E8188519C4F9E8364
:1017F0008D8391E0C91AD108E108F108D3CF15BC57
:1018000016BC14BC81E085BB80936E0083E085BD6F
:1018100008952F932FB72F932BB72F933F934F9369
:101820005F938F939F93AF93BF93CF93DF93EF9388
:10183000FF93CCE7D0E02881ABE7B0E09C91822F0A
:101840008770392F3870832B815F8F7040917800BB
:1018500050917900E82FF0E0EE0FFF1FE95EFF4E98
:10186000518340838E5F382F3770207E232B28834F
:10187000977F8870892B8C93FF91EF91DF91CF91A7
:10188000BF91AF919F918F915F914F913F912F9118
:101890002BBF2F912FBF2F9118959FB7F894E7E199
:1018A000F0E12FEF3FEF2193319380E1E733F80729
:1018B000D1F7809164008E7F8093640080E48093F0
:1018C0007C0010927B008FEB80937A009FBF809109
:1018D0007A00806480937A00089590B1E7E3F0E1A4
:1018E0009695969521E09227917097831086A7E1AF
:1018F000B0E18D919C9111979287818712968D917D
:101900009C9113979487838790B19295969596951D
:10191000937092279170948B158A14968D919C9157
:101920001597978B868B16968D919C911797918F13
:10193000808F96B19295969597709227917091A30A
:1019400012A218968D919C91199794A383A31A962D
:101950008D919C911B9796A385A386B1869582272E
:10196000817086A717A61C968D919C911D9791ABAF
:1019700080AB1E968D919C9193AB82AB08951F9383
:10198000CF93DF9392B188B170915110A091521012
:10199000B091531060914410E0914510F0914610C1
:1019A00030913710409138105091391010915E10DD
:1019B000C0915F10D091601020E0223019F12330E7
:1019C00061F12130A1F0313071F491604115510580
:1019D00061F49D7F2F5F243081F792B988B9DF9140
:1019E000CF911F9108959E7FF1CF9260F3CF613028
:1019F00029F49061309721F49F7DECCF9F7EFACF40
:101A00009062E8CF713029F48068109721F48F7BC1
:101A1000E1CF8F77FACF8064DDCF113029F4886071
:101A2000209721F48B7FD6CF877FFACF8460D2CFE7
:101A30009C0192B188B12230310581F13CF421152D
:101A4000310541F021303105C1F0089523303105D1
:101A5000B1F1089520913710213059F4916020910F
:101A6000381030913910232B31F49D7F92B988B909
:101A700008959E7FF4CF9260F9CF209144102130D9
:101A800049F490612091451030914610232B21F4A8
:101A90009F7DECCF9F7EF6CF9062E8CF20915110D2
:101AA000213049F480682091521030915310232B3B
:101AB00021F48F7BDBCF8F77F6CF8064D7CF209157
:101AC0005E10213049F4886020915F1030916010E1
:101AD000232B21F48B7FCACF877FF6CF8460C6CFBC
:101AE0002FB7F89483E381B982E282B98CEC87B98D
:101AF00080E488B98FEF80930A0110920B0180E88F
:101B00008AB91BB8E7E3F0E1108281E090E09283AC
:101B100081831482138216821582158697878687A1
:101B2000118A108A138A128A128E948F838F168ECE
:101B3000158E10A2178E17A211A610A613A612A614
:101B400015A614A62FBF62E070E080E090E00E942E
:101B5000C20B0C946D0C1F921FB61F9211242F9371
:101B60002BB72F933F934F935F938F939F93AF9395
:101B7000BF93CF93DF93EF93FF93EBEDF7E0ABE6EB
:101B8000B0E180E0219131912F5F3F4F3370EF0141
:101B90002297398328834D915D9190910B012417F1
:101BA000350708F44BC081112FC09F7790930B012C
:101BB0008F5F883039F78091EB079091EC070196A1
:101BC0008F7799279093EC078093EB0720917B10F8
:101BD00030917C108217930720F48091DA078111ED
:101BE0004BC05F98FF91EF91DF91CF91BF91AF9183
:101BF0009F918F915F914F913F912F912BBF2F918B
:101C00001F901FBE1F901895813011F49F7BCECF7F
:101C1000823011F49F7DCACF833011F49F7EC6CFEE
:101C2000843011F4977FC2CF853011F49B7FBECFF3
:101C3000863011F49D7FBACF9E7FB8CF811102C04C
:101C40009068B4CF813011F49064B0CF823011F439
:101C50009062ACCF833011F49061A8CF843011F43E
:101C60009860A4CF853011F49460A0CF863011F431
:101C700092609CCF91609ACF5F9AB4CF9FB7F8944F
:101C8000EBEDF7E0ABE6B0E1119211921D921D92DF
:101C900087E0ED3EF807C1F71092DA071092B20024
:101CA00082E08093B0008093B3008093700086E060
:101CB0008093B1009FBF0895CF93DF9300D00F9220
:101CC0000F92CDB7DEB76D839C0150E040E02983D1
:101CD0003A834B835C83CA01B9010E9460112DE5F0
:101CE00031E44CE450E469837A838B839C8369817B
:101CF0007A818B819C810E94BF1069837A838B8358
:101D00009C8369817A818B819C810E9431113D8104
:101D10003330F9F060F4313091F03230A9F00F90A7
:101D20000F900F900F900F90DF91CF9108954D81FC
:101D30004430A9F77093781060937710F0CF7093C8
:101D40006C1060936B10EBCF7093701060936F10FA
:101D5000E6CF7093741060937310E1CFCF93DF934D
:101D600000D00F920F92CDB7DEB76D839C0150E08B
:101D700040E029833A834B835C83CA01B9010E9406
:101D8000601128E93EED4AE75FE369837A838B833C
:101D90009C8369817A818B819C810E94BF106983B9
:101DA0007A838B839C8369817A818B819C810E9459
:101DB00031113D813330F9F060F4313091F032303F
:101DC000A9F00F900F900F900F900F90DF91CF918F
:101DD00008954D814430A9F770937A10609379107B
:101DE000F0CF70936E1060936D10EBCF7093721004
:101DF00060937110E6CF7093761060937510E1CF09
:101E00008F77992790937C1080937B100C94920489
:101E100080917B1090917C1008958093DA0708954B
:101E20008091DA070895F89483E381B982E282B958
:101E30008CEC87B980E488B98FEF80930A01809396
:101E40000B0180E88AB91BB8279A2F980E94FF0BD4
:101E50000E943B0378940E944D0C0E94700D0E94DA
:101E60003E0E1092EE071092ED070E941F050E9491
:101E70006D0C0E94BF0C0E94890B6B017C0180904D
:101E8000030890900408A0900508B09006088C14F0
:101E90009D04AE04BF0408F065C0DC01CB018819C5
:101EA0009909AA09BB094C015D012091ED07309108
:101EB000EE0721153105D1F1C9018D7F0197B1F5EB
:101EC00080910108909102084091F7075091F8071E
:101ED0004817590709F467C02130310509F063C07C
:101EE000A0EC8A16A6EC9A06ADE2AA06B104F0F0C0
:101EF000892B09F440C0809101089091020820913B
:101F0000F7073091F80701962817390708F4C90137
:101F100090930208809301080E94000FC09203086A
:101F2000D0920408E0920508F0920608AFEEB7E000
:101F3000E7E3F0E18D919D91892B09F4DDC0878164
:101F40009085892B09F0D8C00E94E70410923710C1
:101F5000109244101092511010925E1080E00E9476
:101F60000D0F7FCF80949094A094B0948C0C9D1C06
:101F7000AE1CBF1C9ACF81E00E940D0F61E084E887
:101F800093E00E94AE0E62E084E893E00E94AE0E01
:101F900063E084E893E00E94AE0E64E084E893E09E
:101FA0000E94AE0EA8CFA091F907B091FA07E09178
:101FB000FB07F091FC076091FD077091FE074091CF
:101FC000FF0750910008C091EF07D091F007CD01B5
:101FD0008E2B9F2B862B972B842B952B892B91F562
:101FE000B0E88B16B6E99B06B8E9AB06B10408F475
:101FF0009DCFCFEED7E007E310E1BB24B394FE0101
:102000008A859B852296208131810596281739077C
:1020100008F4C901998788876B2D0E945C0E81E0C6
:10202000FE01329720813181232B09F480E0F801F1
:1020300080830E941004B394035F1F4FF5E0BF122A
:10204000DECF6CCFAC17BD07A9F48091F10790915A
:10205000F207E817F90771F48091F3079091F407FC
:102060006817790739F48091F5079091F6074817BA
:10207000590731F120EE821623E9920624E0A206E8
:10208000B10408F453CF0FEE17E0C1E0F8018285E8
:1020900093850E5F1F4F20813181059628173907E0
:1020A00008F4C901D80119969C938E9318976C2F48
:1020B0000E945C0E0E941004CF5FC53039F72ECF0E
:1020C0001092EE071092ED072330310591F407E3EB
:1020D00010E1C1E06C2F90E080E00E945C0EF801FE
:1020E0001082CF5F035F1F4FC530A1F70E94D3045A
:1020F0001DCF0E94DD041ACF3D9620E1EB36F2079A
:1021000009F018CFB2CEA1E21A2EAA1BBB1BFD010B
:102110000DC0AA1FBB1FEE1FFF1FA217B307E407C6
:10212000F50720F0A21BB30BE40BF50B661F771F1E
:10213000881F991F1A9469F76095709580959095FE
:102140009B01AC01BD01CF0108950E94B010A59F75
:10215000900DB49F900DA49F800D911D11240895A2
:10216000A29FB001B39FC001A39F700D811D1124D8
:10217000911DB29F700D811D1124911D08950E9423
:10218000D3100C94B4110E94AD1158F00E94A61106
:1021900040F029F45F3F29F00C949D1151110C94EB
:1021A000E8110C94A3110E94C51168F39923B1F3AF
:1021B000552391F3951B550BBB27AA27621773076D
:1021C000840738F09F5F5F4F220F331F441FAA1F01
:1021D000A9F335D00E2E3AF0E0E832D091505040BD
:1021E000E695001CCAF72BD0FE2F29D0660F771F6B
:1021F000881FBB1F261737074807AB07B0E809F051
:10220000BB0B802DBF01FF2793585F4F3AF09E3FD5
:10221000510578F00C949D110C94E8115F3FE4F3A4
:10222000983ED4F3869577956795B795F7959F5F18
:10223000C9F7880F911D9695879597F90895E1E064
:10224000660F771F881FBB1F621773078407BA07C3
:1022500020F0621B730B840BBA0BEE1F88F7E0951E
:1022600008950E94CD1188F09F5798F0B92F9927B3
:10227000B751B0F0E1F0660F771F881F991F1AF071
:10228000BA95C9F714C0B13091F00E94E711B1E0DE
:1022900008950C94E711672F782F8827B85F39F0DD
:1022A000B93FCCF3869577956795B395D9F73EF40A
:1022B00090958095709561957F4F8F4F9F4F0895B2
:1022C000E89409C097FB3EF49095809570956195D0
:1022D0007F4F8F4F9F4F9923A9F0F92F96E9BB2786
:1022E0009395F695879577956795B795F111F8CF02
:1022F000FAF4BB0F11F460FF1BC06F5F7F4F8F4F6D
:102300009F4F16C0882311F096E911C0772321F062
:102310009EE8872F762F05C0662371F096E8862FFA
:1023200070E060E02AF09A95660F771F881FDAF751
:10233000880F9695879597F9089597F99F6780E894
:1023400070E060E008959FEF80EC089500240A9407
:102350001616170618060906089500240A94121680
:102360001306140605060895092E0394000C11F4B3
:10237000882352F0BB0F40F4BF2B11F460FF04C060
:102380006F5F7F4F8F4F9F4F089557FD9058440FB9
:10239000551F59F05F3F71F04795880F97FB991FC4
:1023A00061F09F3F79F08795089512161306140681
:1023B000551FF2CF4695F1DF08C01616170618060E
:1023C000991FF1CF86957105610508940895E894E9
:1023D000BB2766277727CB0197F908950E94011242
:1023E0000C94B4110E94A61138F00E94AD1120F097
:1023F000952311F00C949D110C94A31111240C94AD
:10240000E8110E94C51170F3959FC1F3950F50E03C
:10241000551F629FF001729FBB27F00DB11D639F96
:10242000AA27F00DB11DAA1F649F6627B00DA11D3C
:10243000661F829F2227B00DA11D621F739FB00DE2
:10244000A11D621F839FA00D611D221F749F332752
:10245000A00D611D231F849F600D211D822F762FEB
:102460006A2F11249F5750409AF0F1F088234AF0C8
:10247000EE0FFF1FBB1F661F771F881F9150504034
:10248000A9F79E3F510580F00C949D110C94E81122
:102490005F3FE4F3983ED4F3869577956795B795BB
:1024A000F795E7959F5FC1F7FE2B880F911D9695D5
:0A24B000879597F90895F894FFCF7F
:1024BA002424246F66660A00242424696E73756CCA
:1024CA006661696C65643A002424246265616D6FF3
:1024DA006E0A00242424696E73756C6F6B0A00649B
:1024EA00697361626C65640A0024242466696C73EA
:1024FA006574613A00242424707375737461746579
:10250A0000242424610024242476002424246572CF
:10251A00720A00242424656C656374726F6E637496
:10252A00726C5F32303231303831395F3030310AD3
:10253A00006964007073756765747631007073752D
:10254A0067657476320070737567657476330070E8
:10255A007375676574763400707375676574613175
:10256A00007073756765746132007073756765749E
:10257A0061330070737567657461340070737570C8
:10258A006F6C317000707375706F6C316E007073A0
:10259A0075706F6C327000707375706F6C326E008C
:1025AA00707375706F6C337000707375706F6C3305
:1025BA006E00707375706F6C347000707375706F25
:1025CA006C346E007073756F6E31007073756F6660
:1025DA006631007073756F6E32007073756F666660
:1025EA0032007073756F6E33007073756F66663381
:1025FA00007073756F6E34007073756F66663400A1
:10260A0066696C6F6E0066696C6F666600707375DA
:10261A006D6F6465007073757365747631007073DD
:10262A0075736574763200707375736574763300EA
:10263A00707375736574763400707375736574613D
:10264A0031007073757365746132007073757365E8
:10265A0074613300707375736574613400736574E3
:10266A0066696C6100696E73756C006265616D689C
:0C267A00766F6666006265616D6F6E0031
:00000001FF
