:100000000C9472000C9493000C9493000C94930045
:100010000C9493000C9493000C9493000C94930014
:100020000C9493000C9493000C9493000C94930004
:100030000C9493000C942F190C9493000C9493003F
:100040000C9493000C9493000C9493000C949300E4
:100050000C9493000C9493000C9493000C94A016B1
:100060000C9493000C94A8040C94DA040C94930060
:100070000C9493000C948E170C9493000C949300A2
:100080000C9493000C9493000C9493000C949300A4
:100090000C944A050C947C050C9493000C949300EA
:1000A0000C9493000C9493000C9493000C94930084
:1000B0000C9493000C9493000C9493000C94930074
:1000C0000C9493000C9493000C9493000C94F20500
:1000D0000C9424060C9493000C9493000C949300BD
:1000E0000C94930011241FBECFEFD1E2DEBFCDBF31
:1000F00000E00CBF14E0A0E0B2E0EEE4FCE300E0BE
:100100000BBF02C007900D92A836B107D9F727E0C0
:10011000A8E6B4E001C01D92A133B207E1F70E9446
:10012000BF1A0C94251E0C940000CF93C1E06C2FD5
:1001300090E080E00E941B1A6C2F8AE090E00E9401
:100140006D1ACF5FC53099F780E00E94940960E096
:1001500070E0CB010E945D0983E090E09093690418
:100160008093680482EE97E090936B0480936A0416
:1001700084EE97E090936D0480936C048CE098E09B
:1001800090936F0480936E04109271041092700427
:1001900010927304109272041092750410927404F9
:1001A00010927704109276041092790410927804D9
:1001B00010927B0410927A0410927D0410927C04B9
:1001C0000E940E1760937E0470937F0480938004D6
:1001D00090938104CF9108951F93CF93DF930E9452
:1001E000B209162FD72FC1E06C2F90E080E00E945B
:1001F0001B1A6C2F8AE090E00E946D1ACF5FC53009
:1002000099F780E00E94940981E090E0909369045E
:100210008093680482EE97E090936B0480936A0465
:1002200084EE97E090936D0480936C048CE098E0EA
:1002300090936F0480936E04109271041092700476
:10024000812F9D2F909373048093720410927504F4
:10025000109274041092770410927604109279042C
:100260001092780410927B0410927A0410927D040C
:1002700010927C040E940E1760937E0470937F049A
:10028000809380049093810460E070E0CB01DF9163
:10029000CF911F910C945D09CF93DF9300D00F9203
:1002A000CDB7DEB79C0150E040E029833A834B8311
:1002B0005C83CA01B9010E94231D2AE83FE14BE497
:1002C00050E469837A838B839C8369817A818B81F3
:1002D0009C810E94B11D25E83BEE41E85FE3698304
:1002E0007A838B839C8369817A818B819C810E9434
:1002F000B11D69837A838B839C8369817A818B8129
:100300009C810E94F41CCB010F900F900F900F90D6
:10031000DF91CF910895FC018FB7F894108211827C
:100320001282138214821582168217828FBF08955B
:100330000F931F93FC018FB7F894008111812281E4
:10034000338144815581668177818FBF81E00417B5
:1003500015072607370709F480E01F910F910895CC
:10036000EF92FF920F931F93CF93DF9300D00F92E2
:10037000CDB7DEB7FC012FB7F8944081518162817F
:10038000738184819581A681B781481759076A07CF
:100390007B0710F140815181628173818481958155
:1003A000A681B7817A018B01E81AF90A0A0B1B0BA7
:1003B000E982FA820B831C832FBF69817A818B814A
:1003C0009C810F900F900F900F90DF91CF911F9114
:1003D0000F91FF90EF90089580819181A281B38168
:1003E0004481558166817781805C9F4FAF4FBF4FBD
:1003F0007C018D01E41AF50A060B170BD9CFFC011D
:100400002FB7F894408151816281738184819581F5
:10041000A681B781481759076A077B07D9F08481FD
:100420009581A681B7818E0F9F1FDC0118968C9154
:1004300044815581668177814F5F5F4F6F4F7F4F5A
:100440004F735527662777274483558366837783C1
:100450002FBF089580E008950F931F93FC019FB76D
:10046000F894008111812281338144815581668114
:10047000778180E0041715072607370739F0448194
:10048000558166817781E40FF51F80859FBF1F919D
:100490000F910895CF92DF92EF92FF921F93CF9327
:1004A000DF9300D000D0CDB7DEB78D839E836A0185
:1004B0007B011FB7F894AD81BE814D915D916D9127
:1004C0007C91139714968D919D910D90BC91A02DC8
:1004D000481759076A077B0781F480E01FBF2696FB
:1004E0000FB6F894DEBF0FBECDBFDF91CF911F9145
:1004F000FF90EF90DF90CF9008958D819E810E94B4
:10050000B00169837A838B839C83C616D706E8067D
:10051000F90618F7ED81FE8184819581A681B78166
:100520008C0D9D1DAE1DBF1D8F739927AA27BB275C
:10053000E80FF91F8085D2CF0F931F93FC018A012A
:100540009B014FB7F89484819581A681B781800F74
:10055000911FA21FB31F8F739927AA27BB278483DC
:100560009583A683B7834FBF1F910F910895CF92B4
:10057000DF92EF92FF92FC012FB7F8948081918176
:10058000A281B381C480D580E680F7800196A11D49
:10059000B11D8F739927AA27BB278C159D05AE0522
:1005A000BF05C1F080819181A281B3818E0F9F1F11
:1005B000DC0118966C9380819181A281B3810196B0
:1005C000A11DB11D8F739927AA27BB278083918313
:1005D000A283B3832FBFFF90EF90DF90CF90089559
:1005E0008F929F92AF92BF92CF92DF92EF92FF9243
:1005F0000F931F93CF93DF93182F092F69017A016F
:10060000EB01812C912C54018C149D04AE04BF0489
:1006100069F4DF91CF911F910F91FF90EF90DF90E0
:10062000CF90BF90AF909F908F9008956991812F48
:10063000902F0E94B7028FEF881A980AA80AB80A6A
:10064000E3CF8F929F92AF92BF92CF92DF92EF92C1
:10065000FF92CF93DF9300D00F920F92CDB7DEB70A
:100660006A017B01FC0119821A821B821C82812C87
:10067000912C54018C149D04AE04BF04A1F4698133
:100680007A818B819C810F900F900F900F900F902B
:10069000DF91CF91FF90EF90DF90CF90BF90AF9020
:1006A0009F908F900895219120532D832A3098F4A4
:1006B000AAE0B0E029813A814B815C810E94681CEC
:1006C000DC01CB012D81820F911DA11DB11D8983FC
:1006D0009A83AB83BC838FEF881A980AA80AB80A5A
:1006E000C9CF8F929F92AF92BF92CF92DF92EF923B
:1006F000FF920F931F93CF93DF93CDB7DEB72E9763
:100700000FB6F894DEBF0FBECDBFF82EE92E4B8793
:100710005C876D877E878B859C85AD85BE85892BA3
:100720008A2B8B2BB9F460E38F2D9E2D2E960FB65E
:10073000F894DEBF0FBECDBFDF91CF911F910F9117
:10074000FF90EF90DF90CF90BF90AF909F908F90F1
:100750000C94B70210E08AE0882E912CA12CB12CC9
:10076000DE0111966D016B857C858D859E85A501C9
:1007700094010E94461CF601E10FF11D605D60834B
:100780001F5F8B859C85AD85BE852B873C874D87FC
:100790005E870A97A105B10530F7F601E10FF11D5B
:1007A0008F01C016D10699F42E960FB6F894DEBFCD
:1007B0000FBECDBFDF91CF911F910F91FF90EF90B2
:1007C000DF90CF90BF90AF909F908F900895D80109
:1007D0006E918D018F2D9E2D0E94B702E2CFCF9298
:1007E000DF92EF92FF926A01FC01D901C80ED91E77
:1007F00081912D91082E000C990B2817190649F4A8
:10080000EC15FD05A9F781E0FF90EF90DF90CF9008
:10081000089580E0F9CF4F925F926F927F928F920E
:100820009F92AF92BF92CF92DF92EF92FF920F937F
:100830001F93CF93DF9300D000D0CDB7DEB72C014C
:10084000B62E072F69017A011FB7F8940E94B001F4
:1008500069837A838B839C836C157D058E059F0548
:1008600050F06B2C702E40E050E0BA01C416D50653
:10087000E606F706C1F41FBF26960FB6F894DEBF52
:100880000FBECDBFDF91CF911F910F91FF90EF90E1
:10089000DF90CF90BF90AF909F908F907F906F90A0
:1008A0005F904F900895D20114968D909D90AD90D9
:1008B000BC901797C401840D951DFC0120851496EA
:1008C0008D919D910D90BC91A02D0196A11DB11D02
:1008D0008F739927AA27BB27F20184839583A68368
:1008E000B783D3012D933D014F5F5F4F6F4F7F4F14
:1008F000BDCF9FB7F894E0ECF0E080818064808306
:10090000E1ECF0E08081886280839FBF0895CF93FF
:10091000CFB7F8948CEE95E00E948B0184EA95E0C5
:100920000E948B01109299061092980687E690E03B
:100930009093C5008093C40082E08093C00080E95A
:100940008093C10086E08093C200CFBFCF9108950D
:100950001F920F920FB60F9211240BB60F922F9386
:100960003F934F935F936F937F938F939F93AF9337
:10097000BF93EF93FF936091C60084EA95E00E94D5
:10098000B70281E090E09093990680939806FF91DA
:10099000EF91BF91AF919F918F917F916F915F91F7
:1009A0004F913F912F910F900BBE0F900FBE0F9064
:1009B0001F9018951F920F920FB60F9211240BB62D
:1009C0000F922F933F934F935F936F937F938F93E8
:1009D0009F93AF93BF93EF93FF938CEE95E00E94AC
:1009E0009801813021F58CEE95E00E94FF01809303
:1009F000C6008CEE95E00E949801813029F080912C
:100A0000C100877D8093C100FF91EF91BF91AF91AD
:100A10009F918F917F916F915F914F913F912F9116
:100A20000F900BBE0F900FBE0F901F90189584E291
:100A30008093C600E4CF9FB7F894E8ECF0E08081A3
:100A400080648083E9ECF0E08081886280839FBFCE
:100A50000895CF93CFB7F8948CE595E00E948B0171
:100A600084E195E00E948B01109297061092960601
:100A700087E690E09093CD008093CC0082E0809355
:100A8000C80080E98093C90086E08093CA00CFBF88
:100A9000CF9108951F920F920FB60F9211240BB6AB
:100AA0000F922F933F934F935F936F937F938F9307
:100AB0009F93AF93BF93EF93FF936091CE0084E138
:100AC00095E00E94B70281E090E0909397068093B2
:100AD0009606FF91EF91BF91AF919F918F917F917A
:100AE0006F915F914F913F912F910F900BBE0F909F
:100AF0000FBE0F901F9018951F920F920FB60F9276
:100B000011240BB60F922F933F934F935F936F93E4
:100B10007F938F939F93AF93BF93EF93FF938CE556
:100B200095E00E949801813061F48CE595E00E9487
:100B3000FF018093CE008CE595E00E949801813002
:100B400029F08091C900877D8093C900FF91EF91C2
:100B5000BF91AF919F918F917F916F915F914F91D5
:100B60003F912F910F900BBE0F900FBE0F901F90D3
:100B700018959FB7F894E0EDF0E080818064808361
:100B8000E1EDF0E08081886280839FBF0895CF937C
:100B900010929B0610929C0610929D0610929E0643
:100BA00010929A06CFB7F8948CEC94E00E948B01D7
:100BB00084E894E00E948B011092950610929406AE
:100BC00080E493E09093D5008093D40082E08093FA
:100BD000D00080E98093D10086E08093D200CFBF1F
:100BE000CF9108951F920F920FB60F9211240BB65A
:100BF0000F922F933F934F935F936F937F938F93B6
:100C00009F93AF93BF93EF93FF936091D60084E8D7
:100C100094E00E94B70281E090E090939506809363
:100C20009406FF91EF91BF91AF919F918F917F912A
:100C30006F915F914F913F912F910F900BBE0F904D
:100C40000FBE0F901F9018951F920F920FB60F9224
:100C500011240BB60F922F933F934F935F936F9393
:100C60007F938F939F93AF93BF93EF93FF938CECFE
:100C700094E00E949801813021F58CEC94E00E9470
:100C8000FF018093D6008CEC94E00E9498018130A3
:100C900029F08091D100877D8093D100FF91EF9161
:100CA000BF91AF919F918F917F916F915F914F9184
:100CB0003F912F910F900BBE0F900FBE0F901F9082
:100CC000189584E28093D600E4CF8F929F92AF92E2
:100CD000BF92CF92DF92EF92FF92CF93DF9300D03B
:100CE0000F92CDB7DEB784E894E00E94B001633084
:100CF00071058105910500F50F900F900F900F90F1
:100D0000DF91CF91FF90EF90DF90CF90BF90AF90A9
:100D10009F908F90089584EA95E00E94B00164301E
:100D200071058105910570F041E050E060E070E0F0
:100D300084E894E00E949C0284E894E00E942C02E3
:100D4000843249F784E894E00E94B001653071056F
:100D50008105910588F240E050E0BA0184E894E012
:100D60000E944A02843209F4D3C084E894E00E94CD
:100D7000B001653071058105910508F0C0C084E8B7
:100D800094E00E94B00169837A838B839C836530F1
:100D900071058105910508F4AFCF84E894E00E94C5
:100DA000B0014B015C0183E0C82ED12CE12CF12C69
:100DB000C814D904EA04FB0408F09ECFB701A601C9
:100DC00084E894E00E944A028A3049F0B701A60103
:100DD00084E894E00E944A02843209F0BBC0B70163
:100DE000A60184E894E00E944A028A3009F06AC0B1
:100DF00043E050E060E070E084E894E00E949C02F0
:100E00004601570193E0891A9108A108B108B7017A
:100E1000A601445051096109710984E894E00E94D7
:100E20004A0241E050E060E070E08D3019F040E0AF
:100E300050E0BA01841A950AA60AB70AA5019401DE
:100E400064E376E084E894E00E940B0464E28CEEB4
:100E500095E00E94B70264E28CEE95E00E94B70232
:100E600064E28CEE95E00E94B702A501940164E370
:100E700076E08CEE95E00E94F0026AE08CEE95E060
:100E80000E94B70264E28CE595E00E94B70264E23A
:100E90008CE595E00E94B70264E28CE595E00E9443
:100EA000B702A501940164E376E08CE595E00E9429
:100EB000F0026AE08CE595E00E94B7020E94790496
:100EC0000E941B05B701A60184E894E00E944A0233
:100ED000843209F011CFB701A60184E894E00F90A5
:100EE0000F900F900F90DF91CF91FF90EF90DF90D8
:100EF000CF90BF90AF909F908F900C949C0241E058
:100F000050E060E070E084E894E00E949C0223CF0F
:100F100041E050E060E070E084E894E00E944A0222
:100F2000843209F022CF42E050E060E070E084E8D3
:100F300094E00E944A02843209F017CF43E050E067
:100F400060E070E084E894E00E944A02843209F490
:100F50000CCF15CF8FEFC81AD80AE80AF80A28CFA5
:100F6000CF92DF92EF92FF920F931F93CF930BEAF2
:100F700016E0C1E3F894F8018081918178940E9491
:100F80004C016C0124E030E040E050E062EE72E0A1
:100F90008CEE95E00E94F0026C2F8CEE95E00E94A2
:100FA000B7026AE38CEE95E00E94B702F12CE12CC7
:100FB000B701A6018CEE95E00E9471036AE08CEE09
:100FC00095E00E94B70224E030E040E050E062EE9D
:100FD00072E08CE595E00E94F0026C2F8CE595E0C4
:100FE0000E94B7026AE38CE595E00E94B702B70160
:100FF000A6018CE595E00E9471036AE08CE595E01E
:101000000E94B7020C5F1F4FCF5FC53309F0B2CF0C
:101010000E947904CF911F910F91FF90EF90DF9084
:10102000CF900C941B05CF92DF92EF92FF928091AC
:101030009A06882309F452C0C0909B06D0909C0663
:10104000E0909D06F0909E062BE030E040E050E0FE
:1010500065EC72E08CEE95E00E94F002EE24FF2435
:10106000B701A6018CEE95E00E9471036AE38CEE55
:1010700095E00E94B702B701A6018CEE95E00E94B0
:1010800071036AE08CEE95E00E94B7022BE030E03D
:1010900040E050E065EC72E08CE595E00E94F002E3
:1010A000B701A6018CE595E00E9471036AE38CE527
:1010B00095E00E94B702B701A6018CE595E00E9479
:1010C00071036AE08CE595E00E94B7020E94790402
:1010D000FF90EF90DF90CF900C941B052BE030E059
:1010E00040E050E065EC72E08CEE95E00E94F0028A
:1010F00029E030E040E050E06BEB72E08CEE95E0F0
:101100000E94F0022BE030E040E050E065EC72E03D
:101110008CE595E00E94F00229E030E040E050E0EC
:101120006BEB72E08CE595E00E94F002CFCF2BE0F4
:1011300030E040E050E06FEA72E08CEE95E00E9413
:10114000F0020E9479042BE030E040E050E06FEACA
:1011500072E08CE595E00E94F0020C941B052AE0F9
:1011600030E040E050E064EA72E08CEE95E00E94EE
:10117000F0020E9479042AE030E040E050E064EAA6
:1011800072E08CE595E00E94F0020C941B05CF9272
:10119000DF92EF92FF920F931F93CF93DF932FE095
:1011A00030E040E050E064E972E08CEE95E00E94AF
:1011B000F0028AE6E82E84E0F82ECBECD6E08E0131
:1011C0006701F601819191916F01892B31F0F8014E
:1011D0008781908566E4892B09F06DE28CEE95E0BD
:1011E0000E94B702035F1F4FF6E00F3F1F0749F74A
:1011F0006AE08CEE95E00E94B7020E9479042FE02D
:1012000030E040E050E064E972E08CE595E00E9457
:10121000F002F701819191917F01892B29F08F8153
:10122000988566E4892B09F06DE28CE595E00E94D3
:10123000B7022D96F6E0CF3FDF0759F76AE08CE55D
:1012400095E00E94B702DF91CF911F910F91FF901F
:10125000EF90DF90CF900C941B0527E030E040E04A
:1012600050E06CE872E08CEE95E00E94F0020E9483
:10127000790427E030E040E050E06CE872E08CE573
:1012800095E00E94F0020C941B0526E030E040E05F
:1012900050E065E872E08CEC94E00E94F0020C945F
:1012A000B90527E030E040E050E06DE772E08CECFB
:1012B00094E00E94F0020C94B905CF92DF92EF9275
:1012C000FF926B017C01C0929B06D0929C06E0923B
:1012D0009D06F0929E0680919A0628E030E040E05C
:1012E00050E064E772E08823A9F08CEC94E00E945F
:1012F000F002B701A6018CEC94E00E9471036AE051
:101300008CEC94E00E94B702FF90EF90DF90CF90BA
:101310000C94B9058CEC94E00E94F00260E38CEC34
:1013200094E00E94B702EBCFCF93DF9300D00F92EF
:10133000CDB7DEB780939A0680919B0690919C066C
:10134000A0919D06B0919E0689839A83AB83BC834E
:10135000BC01CD010F900F900F900F90DF91CF91B6
:101360000C945D09CF93DF9300D00F92CDB7DEB719
:1013700080919B0690919C06A0919D06B0919E063F
:10138000BC01CD010F900F900F900F90DF91CF9186
:1013900008952BE030E040E050E068E672E08CEC2D
:1013A00094E00E94F0020C94B90528E030E040E09F
:1013B00050E06FE572E08CEC94E00E94F0020C9437
:1013C000B9052BE030E040E050E063E572E08CECE2
:1013D00094E00E94F0020C94B9052BE030E040E06C
:1013E00050E067E472E08CEC94E00E94F0020C9410
:1013F000B9050F931F93CF93DF938B01D82FC92F7C
:101400002BE030E040E050E06BE372E08CEC94E0E5
:101410000E94F002A8016D2F7C2F8CEC94E00E94BA
:1014200071036AE08CEC94E00E94B702DF91CF91E7
:101430001F910F910C94B9052FE030E040E050E08F
:101440006BE272E08CEC94E00E94F0020C94B9051F
:1014500024E130E040E050E060E072E0811106C03D
:1014600025E130E040E050E065E172E08CEC94E092
:101470000E94F0020C94B9058F929F92AF92BF9296
:10148000CF92DF92EF92FF920F931F93CF93DF9350
:1014900000D00F92CDB7DEB784EA95E00E94B0018C
:1014A000633071058105910510F50F900F900F9035
:1014B0000F90DF91CF911F910F91FF90EF90DF90F0
:1014C000CF90BF90AF909F908F90089584EA95E061
:1014D0000E94B001643071058105910570F041E012
:1014E00050E060E070E084EA95E00E949C0284EAAB
:1014F00095E00E942C02843249F784EA95E00E942C
:10150000B001653071058105910578F240E050E049
:10151000BA0184EA95E00E944A02843209F4BDC00F
:1015200084EA95E00E94B00165307105810591055E
:1015300008F0AAC084EA95E00E94B00169837A832A
:101540008B839C83653071058105910508F4ADCFCF
:1015500084EA95E00E94B0016B017C0183E0882E53
:10156000912CA12CB12C8C149D04AE04BF0408F066
:101570009CCFB501A40184EA95E00E944A028A301A
:1015800049F0B501A40184EA95E00E944A02843240
:1015900009F0A5C0B501A40184EA95E00E944A02C1
:1015A0008A3009F052C043E050E060E070E084EA25
:1015B00095E00E949C027501640193E0C91AD1086C
:1015C000E108F108B501A40144505109610971090C
:1015D00084EA95E00E944A0241E050E060E070E059
:1015E0008D3019F040E050E0BA01C41AD50AE60A7D
:1015F000F70AA701960164E776E084EA95E00E9485
:101600000B04A2E0CA16D104E104F10409F06DC094
:1016100024E736E042E050E060E070E08DE093E0E7
:101620000E94EF03813009F0D1C42DE130E040E0A9
:1016300050E06FEE72E08CEE95E00E94F0020E94A6
:1016400079040E9445090E945109B501A40184EA68
:1016500095E00E944A02843209F027CFB501A40127
:1016600084EA95E00F900F900F900F90DF91CF914B
:101670001F910F91FF90EF90DF90CF90BF90AF90B0
:101680009F908F900C949C0241E050E060E070E0ED
:1016900084EA95E00E949C0239CF41E050E060E08E
:1016A00070E084EA95E00E944A02843209F038CF63
:1016B00042E050E060E070E084EA95E00E944A0277
:1016C000843209F02DCF43E050E060E070E084EA1E
:1016D00095E00E944A02843209F422CF2BCF8FEF8B
:1016E000881A980AA80AB80A3ECFB8E0CB16D104E7
:1016F000E104F10409F001C224E736E048E050E0DB
:1017000060E070E080E193E00E94EF03813011F52A
:10171000F8948091AB069091AC0678940E944C01AD
:1017200089839A8324E030E040E050E062EE72E08A
:101730008CEE95E00E94F00261E38CEE95E00E9451
:10174000B7026AE38CEE95E00E94B702E981FA8164
:10175000AF012DC024E736E048E050E060E070E0E3
:1017600089E193E00E94EF03813079F5F89480914C
:10177000AF069091B00678940E944C0189839A83B9
:1017800024E030E040E050E062EE72E08CEE95E064
:101790000E94F00262E38CEE95E00E94B7026AE3D9
:1017A0008CEE95E00E94B70289819A81AC0170E0CD
:1017B00060E08CEE95E00E9471036AE08CEE95E0AB
:1017C0000E94B7020E94790440CF24E736E048E047
:1017D00050E060E070E082E293E00E94EF0381302D
:1017E00011F5F8948091B3069091B40678940E9414
:1017F0004C0189839A8324E030E040E050E062EEBF
:1018000072E08CEE95E00E94F00263E38CEE95E0CE
:101810000E94B7026AE38CEE95E00E94B702A981AC
:10182000BA81AD01C4CF24E736E048E050E060E083
:1018300070E08BE293E00E94EF038130B1F4F89402
:101840008091B7069091B80678940E944C018983E4
:101850009A8324E030E040E050E062EE72E08CEEEB
:1018600095E00E94F00264E368CF24E736E048E0A8
:1018700050E060E070E084E393E00E94EF03813089
:1018800009F046C0F8948091AD069091AE069A8317
:101890008983789424E030E040E050E06DED72E020
:1018A0008CEE95E00E94F00261E38CEE95E00E94E0
:1018B000B7026AE38CEE95E00E94B702A981BA8173
:1018C000CD01B0E0A0E089839A83AB83BC83BC01E7
:1018D000CD010E94231D20E030E44CE151E46983F6
:1018E0007A838B839C8369817A818B819C810E941E
:1018F000B11D69837A838B839C8369817A818B8113
:101900009C810E94F41C69837A838B839C831ECF05
:1019100024E736E048E050E060E070E08DE393E0DB
:101920000E94EF038130A1F4F8948091B106909168
:10193000B2069A838983789424E030E040E050E056
:101940006DED72E08CEE95E00E94F00262E3ADCFA7
:1019500024E736E048E050E060E070E086E493E0A1
:101960000E94EF038130A1F4F8948091B506909124
:10197000B6069A838983789424E030E040E050E012
:101980006DED72E08CEE95E00E94F00263E38DCF86
:1019900024E736E048E050E060E070E08FE493E058
:1019A0000E94EF038130A1F4F8948091B9069091E0
:1019B000BA069A838983789424E030E040E050E0CE
:1019C0006DED72E08CEE95E00E94F00264E36DCF65
:1019D00024E736E048E050E060E070E088E593E01E
:1019E0000E94EF03813049F41092CD061092CC068C
:1019F000109269041092680428CE24E736E048E08B
:101A000050E060E070E081E693E00E94EF038130F7
:101A100039F481E090E09093CD068093CC06E8CF36
:101A200024E736E048E050E060E070E08AE693E0CA
:101A30000E94EF03813029F41092DA061092D90641
:101A4000D7CF24E736E048E050E060E070E083E77D
:101A500093E00E94EF03813039F481E090E09093AD
:101A6000DA068093D906C4CF24E736E048E050E098
:101A700060E070E08CE793E00E94EF03813029F48E
:101A80001092E7061092E606B3CF24E736E048E06E
:101A900050E060E070E085E893E00E94EF03813061
:101AA00039F481E090E09093E7068093E606A0CFBA
:101AB00024E736E048E050E060E070E08EE893E034
:101AC0000E94EF03813029F41092F4061092F3067D
:101AD000BCCD24E736E048E050E060E070E087E904
:101AE00093E00E94EF03813009F0AAC081E090E00A
:101AF0009093F4068093F306A8CDF3E0CF16D104BB
:101B0000E104F10459F524E736E043E050E060E0F9
:101B100070E089EA93E00E94EF03813009F056C239
:101B200061E090E080E00E941B1A62E090E080E0BB
:101B30000E941B1A63E090E080E00E941B1A64E0A0
:101B400090E080E00E941B1A80E00E9494091092AD
:101B50006904109268040E942D0977CD85E0C816AB
:101B6000D104E104F10481F424E736E045E050E0DB
:101B700060E070E080EA93E00E94EF03813009F0BA
:101B80003EC10E94940961CD96E0C916D104E104DA
:101B9000F10489F424E736E046E050E060E070E0CC
:101BA00086EA93E00E94EF03813009F028C180E0CB
:101BB0000E9494091DCFA7E0CA16D104E104F104E4
:101BC000C1F524E736E047E050E060E070E08DEAE0
:101BD00093E00E94EF03813009F011C12BE030E067
:101BE00040E050E061ED72E08CEE95E00E94F00282
:101BF000EBECF6E0FA83E9830FEF16E0A981BA81F6
:101C00008C916DE2813041F4E981FA818781908580
:101C100063E4892B09F066E58CEE95E00E94B7023B
:101C200089819A810D969A8389830817190731F75C
:101C3000C4CD98E0C916D104E104F10408F4D8C079
:101C400024E736E048E050E060E070E085EB93E0A8
:101C50000E94EF03813089F4B701A6014850510971
:101C6000610971098CE796E00E942103262F61E04B
:101C7000822F972F0E941B1ABBCE24E736E048E044
:101C800050E060E070E08EEB93E00E94EF03813063
:101C900069F4B701A60148505109610971098CE73F
:101CA00096E00E942103262F62E0E2CF24E736E08F
:101CB00048E050E060E070E087EC93E00E94EF03C2
:101CC000813069F4B701A6014850510961097109D1
:101CD0008CE796E00E942103262F63E0C9CF24E71A
:101CE00036E048E050E060E070E080ED93E00E9474
:101CF000EF03813089F4B701A60148505109610909
:101D000071098CE796E00E942103262F64E0822F60
:101D1000972F0E941B1A99CC24E736E048E050E048
:101D200060E070E089ED93E00E94EF03813089F478
:101D3000B701A60148505109610971098CE796E085
:101D40000E942103262F61E0822F972F0E946D1A97
:101D50004FCE24E736E048E050E060E070E082EEED
:101D600093E00E94EF03813069F4B701A601485067
:101D70005109610971098CE796E00E942103262F21
:101D800062E0E2CF24E736E048E050E060E070E057
:101D90008BEE93E00E94EF03813069F4B701A60156
:101DA00048505109610971098CE796E00E942103AE
:101DB000262F63E0C9CF24E736E048E050E060E03A
:101DC00070E084EF93E00E94EF038130C1F4B7012B
:101DD000A60148505109610971098CE796E00E94FB
:101DE0002103262F64E0822F972F0E946D1A2DCC9D
:101DF000A4E0CA16D104E104F10409F088C024E784
:101E000036E044E050E060E070E080E094E00E9462
:101E1000EF03813019F40E94D50917CCB7E0CB1637
:101E2000D104E104F104D0F024E736E047E050E0CB
:101E300060E070E08DEF93E00E94EF03813009F0E5
:101E40002AC1B701A60147505109610971098BE701
:101E500096E00E9421030E945D09CACDE5E0CE16FE
:101E6000D104E104F10479F524E736E045E050E0DF
:101E700060E070E085E094E00E94EF038130C1F5FE
:101E80000E949500E2CB24E736E049E050E060E0B4
:101E900070E08BE094E00E94EF03813009F03EC0D7
:101EA00061E090E080E00E941B1A62E090E080E038
:101EB0000E941B1A63E090E080E00E941B1A64E01D
:101EC00090E080E0D7CEF6E0CF16D104E104F10433
:101ED000F1F424E736E046E050E060E070E085E1B0
:101EE00094E00E94EF038130C9F40E94EC00ADCB76
:101EF00024E736E045E050E060E070E089E294E0FD
:101F00000E94EF03813051F40C9400009ECB85E0D9
:101F1000C816D104E104F10408F444C024E736E013
:101F200045E050E060E070E08FE294E00E94EF0353
:101F3000813011F5B701A6014550510961097109B8
:101F400089E796E00E94210369837A838B839C83CF
:101F500089819A81AB81BC81892B8A2B8B2B51F093
:101F600081E00E94940969817A818B819C810E9421
:101F70005D096BCB80E0F5CF97E0C916D104E10491
:101F8000F10409F061C024E736E047E050E060E08A
:101F900070E085E394E00E94EF03813011F50E9428
:101FA000C90953CBA4E0CA16D104E104F10409F035
:101FB00052C024E736E044E050E060E070E08DE39A
:101FC00094E00E94EF03813009F425CF27E030E050
:101FD00040E050E067EE72E08CEE95E00E94F00287
:101FE000F1CB24E736E047E050E060E070E082E4C7
:101FF00094E00E94EF03813019F40E94E10925CB9F
:1020000024E736E047E050E060E070E08AE494E0E6
:102010000E94EF038130D1F60E94ED0916CBEBE070
:10202000CE16D104E104F10489F624E736E04BE052
:1020300050E060E070E08BE594E00E94EF038130B7
:1020400029F60E941C0A01CBF4E0CF16D104E1046A
:10205000F10409F4AECFB8E0CB16D104E104F104E9
:1020600008F4B4CF24E736E048E050E060E070E0E8
:1020700082E594E00E94EF03813089F6B701A60162
:1020800048505109610971098CE796E00E942103CB
:102090000E94F909DACA89E0C816D104E104F10402
:1020A00009F4F1CE9CE0C916D104E104F10409F071
:1020B00035CF24E736E04CE050E060E070E08CE1A2
:1020C00094E00E94EF03813009F028CF109283043E
:1020D0001092820480E00E94280AB7CA8F929F92D1
:1020E000AF92BF92CF92DF92EF92FF920F931F9326
:1020F000CF93DF9300D00F92CDB7DEB784E195E0A8
:102100000E94B001633071058105910510F50F90B3
:102110000F900F900F90DF91CF911F910F91FF9033
:10212000EF90DF90CF90BF90AF909F908F900895E9
:1021300084E195E00E94B00164307105810591054C
:1021400070F041E050E060E070E084E195E00E94D2
:102150009C0284E195E00E942C02843249F784E1DC
:1021600095E00E94B001653071058105910578F216
:1021700040E050E0BA0184E195E00E944A028432D6
:1021800009F4BDC084E195E00E94B001653071059D
:102190008105910508F0AAC084E195E00E94B00194
:1021A00069837A838B839C836530710581059105F2
:1021B00008F4ADCF84E195E00E94B0016B017C0191
:1021C00083E0882E912CA12CB12C8C149D04AE049C
:1021D000BF0408F09CCFB501A40184E195E00E9402
:1021E0004A028A3049F0B501A40184E195E00E94D9
:1021F0004A02843209F0A5C0B501A40184E195E04A
:102200000E944A028A3009F052C043E050E060E088
:1022100070E084E195E00E949C027501640193E006
:10222000C91AD108E108F108B501A40144505109C7
:102230006109710984E195E00E944A0241E050E0A1
:1022400060E070E08D3019F040E050E0BA01C41A4F
:10225000D50AE60AF70AA701960164E576E084E16B
:1022600095E00E940B04A2E0CA16D104E104F10437
:1022700009F06DC024E536E042E050E060E070E037
:102280008DE093E00E94EF03813009F0D1C42DE18D
:1022900030E040E050E06FEE72E08CE595E00E94A7
:1022A000F0020E941B050E9445090E945109B501D8
:1022B000A40184E195E00E944A02843209F027CF0C
:1022C000B501A40184E195E00F900F900F900F905D
:1022D000DF91CF911F910F91FF90EF90DF90CF9002
:1022E000BF90AF909F908F900C949C0241E050E083
:1022F00060E070E084E195E00E949C0239CF41E00B
:1023000050E060E070E084E195E00E944A0284328F
:1023100009F038CF42E050E060E070E084E195E001
:102320000E944A02843209F02DCF43E050E060E081
:1023300070E084E195E00E944A02843209F422CFE1
:102340002BCF8FEF881A980AA80AB80A3ECFB8E0B8
:10235000CB16D104E104F10409F001C224E536E012
:1023600048E050E060E070E080E193E00E94EF031D
:10237000813011F5F8948091AB069091AC06789479
:102380000E944C0189839A8324E030E040E050E0D1
:1023900062EE72E08CE595E00E94F00261E38CE56C
:1023A00095E00E94B7026AE38CE595E00E94B702CF
:1023B000E981FA81AF012DC024E536E048E050E024
:1023C00060E070E089E193E00E94EF03813079F5ED
:1023D000F8948091AF069091B00678940E944C01D9
:1023E00089839A8324E030E040E050E062EE72E0BE
:1023F0008CE595E00E94F00262E38CE595E00E9496
:10240000B7026AE38CE595E00E94B70289819A8160
:10241000AC0170E060E08CE595E00E9471036AE039
:102420008CE595E00E94B7020E941B0540CF24E591
:1024300036E048E050E060E070E082E293E00E9425
:10244000EF03813011F5F8948091B3069091B406B2
:1024500078940E944C0189839A8324E030E040E024
:1024600050E062EE72E08CE595E00E94F00263E3DA
:102470008CE595E00E94B7026AE38CE595E00E9446
:10248000B702A981BA81AD01C4CF24E536E048E0A6
:1024900050E060E070E08BE293E00E94EF03813057
:1024A000B1F4F8948091B7069091B80678940E94A0
:1024B0004C0189839A8324E030E040E050E062EEF2
:1024C00072E08CE595E00E94F00264E368CF24E5B9
:1024D00036E048E050E060E070E084E393E00E9482
:1024E000EF03813009F046C0F8948091AD069091D9
:1024F000AE069A838983789424E030E040E050E08F
:102500006DED72E08CE595E00E94F00261E38CE5F0
:1025100095E00E94B7026AE38CE595E00E94B7025D
:10252000A981BA81CD01B0E0A0E089839A83AB8311
:10253000BC83BC01CD010E94231D20E030E44CE1AE
:1025400051E469837A838B839C8369817A818B814F
:102550009C810E94B11D69837A838B839C836981EE
:102560007A818B819C810E94F41C69837A838B839E
:102570009C831ECF24E536E048E050E060E070E048
:102580008DE393E00E94EF038130A1F4F8948091F1
:10259000B1069091B2069A838983789424E030E062
:1025A00040E050E06DED72E08CE595E00E94F002B5
:1025B00062E3ADCF24E536E048E050E060E070E053
:1025C00086E493E00E94EF038130A1F4F8948091B7
:1025D000B5069091B6069A838983789424E030E01A
:1025E00040E050E06DED72E08CE595E00E94F00275
:1025F00063E38DCF24E536E048E050E060E070E032
:102600008FE493E00E94EF038130A1F4F89480916D
:10261000B9069091BA069A838983789424E030E0D1
:1026200040E050E06DED72E08CE595E00E94F00234
:1026300064E36DCF24E536E048E050E060E070E010
:1026400088E593E00E94EF03813049F41092CD06B3
:102650001092CC06109269041092680428CE24E5EA
:1026600036E048E050E060E070E081E693E00E94F0
:10267000EF03813039F481E090E09093CD068093B0
:10268000CC06E8CF24E536E048E050E060E070E0BA
:102690008AE693E00E94EF03813029F41092DA0673
:1026A0001092D906D7CF24E536E048E050E060E04C
:1026B00070E083E793E00E94EF03813039F481E01A
:1026C00090E09093DA068093D906C4CF24E536E0F3
:1026D00048E050E060E070E08CE793E00E94EF0398
:1026E000813029F41092E7061092E606B3CF24E574
:1026F00036E048E050E060E070E085E893E00E945A
:10270000EF03813039F481E090E09093E706809305
:10271000E606A0CF24E536E048E050E060E070E057
:102720008EE893E00E94EF03813029F41092F406C2
:102730001092F306BCCD24E536E048E050E060E0BE
:1027400070E087E993E00E94EF03813009F0AAC0AE
:1027500081E090E09093F4068093F306A8CDF3E037
:10276000CF16D104E104F10459F524E536E043E045
:1027700050E060E070E089EA93E00E94EF0381306E
:1027800009F056C261E090E080E00E941B1A62E00E
:1027900090E080E00E941B1A63E090E080E00E94DD
:1027A0001B1A64E090E080E00E941B1A80E00E9407
:1027B000940910926904109268040E942D0977CD43
:1027C00085E0C816D104E104F10481F424E536E083
:1027D00045E050E060E070E080EA93E00E94EF03A3
:1027E000813009F03EC10E94940961CD96E0C9167E
:1027F000D104E104F10489F424E536E046E050E038
:1028000060E070E086EA93E00E94EF03813009F017
:1028100028C180E00E9494091DCFA7E0CA16D10408
:10282000E104F104C1F524E536E047E050E060E062
:1028300070E08DEA93E00E94EF03813009F011C14E
:102840002BE030E040E050E061ED72E08CE595E097
:102850000E94F002EBECF6E0FA83E9830FEF16E05A
:10286000A981BA818C916DE2813041F4E981FA81CC
:102870008781908563E4892B09F066E58CE595E016
:102880000E94B70289819A810D969A8389830817DD
:10289000190731F7C4CD98E0C916D104E104F10459
:1028A00008F4D8C024E536E048E050E060E070E08D
:1028B00085EB93E00E94EF03813089F4B701A60114
:1028C00048505109610971098CE596E00E94210385
:1028D000262F61E0822F972F0E941B1ABBCE24E582
:1028E00036E048E050E060E070E08EEB93E00E945C
:1028F000EF03813069F4B701A6014850510961091D
:1029000071098CE596E00E942103262F62E0E2CF58
:1029100024E536E048E050E060E070E087EC93E0CA
:102920000E94EF03813069F4B701A60148505109B4
:10293000610971098CE596E00E942103262F63E06E
:10294000C9CF24E536E048E050E060E070E080ED7B
:1029500093E00E94EF03813089F4B701A60148504B
:102960005109610971098CE596E00E942103262F27
:1029700064E0822F972F0E941B1A99CC24E536E041
:1029800048E050E060E070E089ED93E00E94EF03E2
:10299000813089F4B701A6014850510961097109D4
:1029A0008CE596E00E942103262F61E0822F972F6D
:1029B0000E946D1A4FCE24E536E048E050E060E01A
:1029C00070E082EE93E00E94EF03813069F4B7017A
:1029D000A60148505109610971098CE596E00E94F1
:1029E0002103262F62E0E2CF24E536E048E050E004
:1029F00060E070E08BEE93E00E94EF03813069F4B9
:102A0000B701A60148505109610971098CE596E0AA
:102A10000E942103262F63E0C9CF24E536E048E079
:102A200050E060E070E084EF93E00E94EF038130BB
:102A3000C1F4B701A60148505109610971098CE53B
:102A400096E00E942103262F64E0822F972F0E9498
:102A50006D1A2DCCA4E0CA16D104E104F10409F0EA
:102A600088C024E536E044E050E060E070E080E0BB
:102A700094E00E94EF03813019F40E94D50917CC2D
:102A8000B7E0CB16D104E104F104D0F024E536E040
:102A900047E050E060E070E08DEF93E00E94EF03CC
:102AA000813009F02AC1B701A601475051096109D7
:102AB00071098BE596E00E9421030E945D09CACD51
:102AC000E5E0CE16D104E104F10479F524E536E021
:102AD00045E050E060E070E085E094E00E94EF03A4
:102AE0008130C1F50E949500E2CB24E536E049E053
:102AF00050E060E070E08BE094E00E94EF038130F2
:102B000009F03EC061E090E080E00E941B1A62E0A4
:102B100090E080E00E941B1A63E090E080E00E9459
:102B20001B1A64E090E080E0D7CEF6E0CF16D10427
:102B3000E104F104F1F424E536E046E050E060E021
:102B400070E085E194E00E94EF038130C9F40E94B7
:102B5000EC00ADCB24E536E045E050E060E070E00D
:102B600089E294E00E94EF03813051F40C9400005C
:102B70009ECB85E0C816D104E104F10408F444C0FA
:102B800024E536E045E050E060E070E08FE294E05C
:102B90000E94EF03813011F5B701A601455051099C
:102BA0006109710989E596E00E94210369837A83AE
:102BB0008B839C8389819A81AB81BC81892B8A2BF1
:102BC0008B2B51F081E00E94940969817A818B817D
:102BD0009C810E945D096BCB80E0F5CF97E0C91620
:102BE000D104E104F10409F061C024E536E047E0D6
:102BF00050E060E070E085E394E00E94EF038130F4
:102C000011F50E94C90953CBA4E0CA16D104E1040E
:102C1000F10409F052C024E536E044E050E060E001
:102C200070E08DE394E00E94EF03813009F425CF3A
:102C300027E030E040E050E067EE72E08CE595E0A0
:102C40000E94F002F1CB24E536E047E050E060E07E
:102C500070E082E494E00E94EF03813019F40E9456
:102C6000E10925CB24E536E047E050E060E070E084
:102C70008AE494E00E94EF038130D1F60E94ED09CE
:102C800016CBEBE0CE16D104E104F10489F624E57D
:102C900036E04BE050E060E070E08BE594E00E94AD
:102CA000EF03813029F60E941C0A01CBF4E0CF1615
:102CB000D104E104F10409F4AECFB8E0CB16D1049D
:102CC000E104F10408F4B4CF24E536E048E050E034
:102CD00060E070E082E594E00E94EF03813089F6C5
:102CE000B701A60148505109610971098CE596E0C8
:102CF0000E9421030E94F909DACA89E0C816D104AA
:102D0000E104F10409F4F1CE9CE0C916D104E10418
:102D1000F10409F035CF24E536E04CE050E060E006
:102D200070E08CE194E00E94EF03813009F028CF3D
:102D3000109283041092820480E00E94280AB7CA8D
:102D40001F921FB61F9211240F931F932F933F932F
:102D50004F935F936F937F938F939F93AF93BF93A3
:102D60008091A7069091A806A091A906B091AA0605
:102D70000091A3061091A4062091A5063091A60605
:102D8000B901A8014E5E5F4F6F4F7F4F4D37510520
:102D900061057105C0F58A5F9E4FAF4FBF4F00912F
:102DA0009F061091A0062091A1063091A2060F5F08
:102DB0001F4F2F4F3F4F00939F061093A006209365
:102DC000A1063093A2068093A7069093A806A0932D
:102DD000A906B093AA064093A3065093A406609355
:102DE000A5067093A606BF91AF919F918F917F9199
:102DF0006F915F914F913F912F911F910F911F9074
:102E00001FBE1F901895B901A8014B5651096109C1
:102E10007109895F9E4FAF4FBF4FC1CFCF93DF93F3
:102E200000D00F92CDB7DEB72FB7F89480919F06F0
:102E30009091A006A091A106B091A20646B550E0DF
:102E400070E060E0A89B08C04F3F51056105710527
:102E500019F00196A11DB11D2FBFBA2FA92F982FD0
:102E60008827840F951FA61FB71F9C01AD0162E044
:102E7000220F331F441F551F6A95D1F7CA01B901AC
:102E80000F900F900F900F90DF91CF910895CF92F8
:102E9000DF92EF92FF92CF93DF9300D000D0CDB7B7
:102EA000DEB76B017C010E940E176D837E83C11417
:102EB000D104E104F10469F426960FB6F894DEBF5C
:102EC0000FBECDBFDF91CF91FF90EF90DF90CF90FD
:102ED00008950E940E1769837A838B839C8389816E
:102EE0009A812D813E81821B930B883E9340F8F29C
:102EF0008D819E8188519C4F9E838D8391E0C91A5C
:102F0000D108E108F108D3CF15BC16BC14BC81E090
:102F100085BB80936E0083E085BD08952F932FB706
:102F20002F932BB72F933F934F935F938F939F9341
:102F3000AF93BF93CF93DF93EF93FF93CCE7D0E0B2
:102F40002881ABE7B0E09C91822F8770392F3870D1
:102F5000832B815F8F704091780050917900E82F2A
:102F6000F0E0EE0FFF1FE555F94F518340838E5F70
:102F7000382F3770207E232B2883977F8870982BDB
:102F80009C93FF91EF91DF91CF91BF91AF919F9172
:102F90008F915F914F913F912F912BBF2F912FBF19
:102FA0002F911895CF93CFB7F89440E250E06FEF90
:102FB00070E08BEA96E00E941E1EE4E6F0E080815D
:102FC0008E7F808380E480937C0010927B00EAE710
:102FD000F0E08FEB8083CFBF808180648083CF91CE
:102FE000089580B1EBECF6E08695869591E089270F
:102FF000817087831086ABEAB6E02D913C911197E2
:103000003287218712962D913C911397348723871D
:1030100080B1829586958695837089278170848B8F
:10302000158A14962D913C911597378B268B169601
:103030002D913C911797318F208F86B1829586957F
:1030400087708927817081A312A218962D913C91D7
:10305000199734A323A31A962D913C911B9736A35D
:1030600025A386B186958927817086A717A61C9609
:103070008D919C911D9791AB80AB1E968D919C91EB
:1030800093AB82AB08951F93CF93DF9392B188B136
:103090007091E506A091E606B091E7066091D8062A
:1030A000E091D906F091DA063091CB064091CC063A
:1030B0005091CD061091F206C091F306D091F4061E
:1030C00020E0223019F1233061F12130A1F03130BC
:1030D00071F491604115510561F49D7F2F5F24309B
:1030E00081F792B988B9DF91CF911F9108959E7FA2
:1030F000F1CF9260F3CF613029F49061309721F4E1
:103100009F7DECCF9F7EFACF9062E8CF713029F49B
:103110008068109721F48F7BE1CF8F77FACF80649E
:10312000DDCF113029F48860209721F48B7FD6CF32
:10313000877FFACF8460D2CF9C0192B188B12230D0
:10314000310581F13CF42115310541F02130310583
:10315000C1F0089523303105B1F108952091CB06D7
:10316000213059F491602091CC063091CD06232B6B
:1031700031F49D7F92B988B908959E7FF4CF926013
:10318000F9CF2091D806213049F490612091D906D9
:103190003091DA06232B21F49F7DECCF9F7EF6CF72
:1031A0009062E8CF2091E506213049F480682091B3
:1031B000E6063091E706232B21F48F7BDBCF8F7758
:1031C000F6CF8064D7CF2091F206213049F4886091
:1031D0002091F3063091F406232B21F48B7FCACF84
:1031E000877FF6CF8460C6CF2FB7F89483E381B989
:1031F00082E282B98CEC87B980E488B98FEF809342
:103200000A0110920B0180E88AB91BB8EBECF6E0DA
:10321000108281E090E0928381831482138216826F
:103220001582158697878687118A108A138A128AD3
:10323000128E948F838F168E158E10A2178E17A262
:1032400011A610A613A612A615A614A62FBF62E0FB
:1032500070E080E090E00E9447170C94F1170F9205
:103260000FB60F921F9211241F931BB71F932F931A
:103270003F934F935F936F937F938F939F93AF93FE
:10328000BF93CF93DF93EF93FF9360910F077091FC
:103290001007611588E07807D1F16F5F7F4F709359
:1032A000100760930F07E1E1F7E0A1E2B7E080E0EB
:1032B000219131912F5F3F4F3370EF012297398376
:1032C00028834D915D9190910B012417350708F4E7
:1032D0007AC0811162C09F7790930B018F5F873016
:1032E00039F7FF91EF91DF91CF91BF91AF919F910E
:1032F0008F917F916F915F914F913F912F911F918E
:103300001BBF1F911F900F900FBE0F901895AFEF2E
:10331000B6E0E1E2F7E040E05DE011E08D919D91E3
:1033200040FD38C020813181ED012297888199814B
:103330008217930710F5E901C81BD90B2D9710F0E0
:10334000C9010C9791838083842F869590E0EC01CE
:10335000CC0FDD1FCF5DD84F28813981589FE00108
:10336000599FD00D1124C553D94F232B89F01883B1
:103370004F5F3296473091F690CF2817390720F7E4
:10338000EC01C21BD30B2D97E8F2C9010C96DACFE2
:103390001882EECF91838083EBCF813011F49F7B35
:1033A0009BCF823011F49F7D97CF833011F49F7EA5
:1033B00093CF843011F4977F8FCF853011F49B7FAA
:1033C0008BCF9D7F89CF811102C0906885CF8130DE
:1033D00011F4906481CF823011F490627DCF8330FC
:1033E00011F4906179CF843011F4986075CF8530F5
:1033F00011F4946071CF92606FCF9FB7F89480E121
:10340000E1E1F7E0DF01282F1D922A95E9F7EFEFC0
:10341000F6E0DF011D928A95E9F71092B20082E092
:103420008093B0008093B3008093700086E0809317
:10343000B1009FBF0895CF93DF9300D00F920F92FA
:10344000CDB7DEB76D839C0150E040E029833A831D
:103450004B835C83CA01B9010E94231D2DE531E431
:103460004CE450E469837A838B839C8369817A81FD
:103470008B819C810E94821C69837A838B839C83CD
:1034800069817A818B819C810E94F41C3D8133305B
:10349000F9F060F4313091F03230A9F00F900F90D4
:1034A0000F900F900F90DF91CF9108954D81443090
:1034B000A9F770930C0760930B07F0CF7093000788
:1034C0006093FF06EBCF7093040760930307E6CF8A
:1034D0007093080760930707E1CFCF93DF9300D085
:1034E0000F920F92CDB7DEB76D839C0150E040E0A4
:1034F00029833A834B835C83CA01B9010E94231D4F
:1035000028E93EED4AE75FE369837A838B839C83F6
:1035100069817A818B819C810E94821C69837A8374
:103520008B839C8369817A818B819C810E94F41CAE
:103530003D813330F9F060F4313091F03230A9F050
:103540000F900F900F900F900F90DF91CF910895F3
:103550004D814430A9F770930E0760930D07F0CFAB
:103560007093020760930107EBCF70930607609397
:103570000507E6CF70930A0760930907E1CF00D0F3
:103580000F92CDB7DEB7F89481E090E0909383047A
:103590008093820483E381B982E282B98CEC87B99B
:1035A00080E488B98FEF80930A0180930B0180E853
:1035B0008AB91BB8279A2F980E9484170E94870403
:1035C0000E9429050E94C70578940E94D2170E9484
:1035D000F4180E94FD1910926904109268040E9468
:1035E0003C0A0E946E100E9465060E94F1170E941C
:1035F00043180E940E176B017C0180917E0490910C
:103600007F04A0918004B091810446015701881A7B
:10361000990AAA0ABB0A8C159D05AE05BF0528F0BC
:1036200021E0821A9108A108B10820916804309124
:1036300069042115310509F444C0C9018D7F019742
:1036400009F03FC080917C0490917D044091720408
:10365000509173044817590709F46DC021303105A2
:1036600009F069C030E9831630ED930633E0A30614
:10367000B10438F1892B09F446C080917C04909103
:103680007D04209172043091730405962817390740
:1036900008F4C90190937D0480937C049C0150E060
:1036A00040E029833A834B835C83CA01B9010E94BD
:1036B0005D09C0927E04D0927F04E0928004F09273
:1036C00081048091820490918304892B09F487CF2F
:1036D000AAE6B4E0EBECF6E08D919D91892B09F41C
:1036E000CEC018968D919C911997892B09F4C7C06B
:1036F00087819085892B09F0C2C00E94C70880E0AD
:103700000E94940968CF81E00E94940961E084E8F6
:1037100093E00E946D1A62E084E893E00E946D1AC3
:1037200063E084E893E00E946D1A64E084E893E02B
:103730000E946D1AA2CFA0917404B0917504E0911B
:103740007604F09177046091780470917904409147
:103750007A0450917B04CD018E2B9F2B862B972BC7
:10376000842B952B892B39F530E8831636E993069F
:1037700038E9A306B10408F4A4CF0AE614E041E056
:103780004983F801828593850E5F1F4F2081318127
:1037900005962817390708F4C901F8019187808731
:1037A00069810E941B1A0E94B007F981FF5FF983AB
:1037B000F53039F77ECF80916A0490916B04A81799
:1037C000B907A9F480916C0490916D04E817F9078A
:1037D00071F480916E0490916F046817790739F441
:1037E00080917004909171044817590739F120EACB
:1037F00082162BEB92062DE0A206B10408F461CFED
:103800000AE614E031E03983F801828593850E5F82
:103810001F4F2081318105962817390708F4C90107
:10382000F8019187808769810E941B1A0E94B00766
:10383000F981FF5FF983F53039F73BCF10926904C6
:103840001092680423303105B9F461E090E080E023
:103850000E941B1A62E090E080E00E941B1A63E065
:1038600090E080E00E941B1A64E090E080E00E94FB
:103870001B1A0E94970825CF0E94AF0822CF3D96C1
:1038800026E0EF3FF20709F027CFA9CEA1E21A2EDA
:10389000AA1BBB1BFD010DC0AA1FBB1FEE1FFF1FF4
:1038A000A217B307E407F50720F0A21BB30BE40B44
:1038B000F50B661F771F881F991F1A9469F760958B
:1038C0007095809590959B01AC01BD01CF01089545
:1038D0000E94731CA59F900DB49F900DA49F800D16
:1038E000911D11240895A29FB001B39FC001A39F11
:1038F000700D811D1124911DB29F700D811D112429
:10390000911D08950E94961C0C94771D0E94701DB5
:1039100058F00E94691D40F029F45F3F29F00C9493
:10392000601D51110C94AB1D0C94661D0E94881DE6
:1039300068F39923B1F3552391F3951B550BBB27DE
:10394000AA2762177307840738F09F5F5F4F220F23
:10395000331F441FAA1FA9F335D00E2E3AF0E0E81A
:1039600032D091505040E695001CCAF72BD0FE2F64
:1039700029D0660F771F881FBB1F261737074807F8
:10398000AB07B0E809F0BB0B802DBF01FF279358B0
:103990005F4F3AF09E3F510578F00C94601D0C94F7
:1039A000AB1D5F3FE4F3983ED4F38695779567951A
:1039B000B795F7959F5FC9F7880F911D96958795E5
:1039C00097F90895E1E0660F771F881FBB1F621704
:1039D00073078407BA0720F0621B730B840BBA0BC2
:1039E000EE1F88F7E09508950E94901D88F09F577C
:1039F00098F0B92F9927B751B0F0E1F0660F771F13
:103A0000881F991F1AF0BA95C9F714C0B13091F008
:103A10000E94AA1DB1E008950C94AA1D672F782F6B
:103A20008827B85F39F0B93FCCF3869577956795CD
:103A3000B395D9F73EF490958095709561957F4F39
:103A40008F4F9F4F0895E89409C097FB3EF49095DF
:103A50008095709561957F4F8F4F9F4F9923A9F067
:103A6000F92F96E9BB279395F695879577956795F6
:103A7000B795F111F8CFFAF4BB0F11F460FF1BC03A
:103A80006F5F7F4F8F4F9F4F16C0882311F096E9CD
:103A900011C0772321F09EE8872F762F05C066237B
:103AA00071F096E8862F70E060E02AF09A95660F34
:103AB000771F881FDAF7880F9695879597F90895ED
:103AC00097F99F6780E870E060E008959FEF80ECD1
:103AD000089500240A941616170618060906089574
:103AE00000240A9412161306140605060895092EDA
:103AF0000394000C11F4882352F0BB0F40F4BF2B49
:103B000011F460FF04C06F5F7F4F8F4F9F4F089588
:103B100057FD9058440F551F59F05F3F71F047957E
:103B2000880F97FB991F61F09F3F79F08795089563
:103B3000121613061406551FF2CF4695F1DF08C082
:103B4000161617061806991FF1CF8695710561059F
:103B500008940895E894BB2766277727CB0197F947
:103B600008950E94C41D0C94771D0E94691D38F0B1
:103B70000E94701D20F0952311F00C94601D0C9490
:103B8000661D11240C94AB1D0E94881D70F3959F37
:103B9000C1F3950F50E0551F629FF001729FBB2744
:103BA000F00DB11D639FAA27F00DB11DAA1F649FE0
:103BB0006627B00DA11D661F829F2227B00DA11D93
:103BC000621F739FB00DA11D621F839FA00D611D19
:103BD000221F749F3327A00D611D231F849F600D3A
:103BE000211D822F762F6A2F11249F5750409AF063
:103BF000F1F088234AF0EE0FFF1FBB1F661F771FEF
:103C0000881F91505040A9F79E3F510580F00C94B9
:103C1000601D0C94AB1D5F3FE4F3983ED4F3869592
:103C200077956795B795F795E7959F5FC1F7FE2B59
:103C3000880F911D9695879597F90895DC0101C02D
:0E3C40006D9341505040E0F70895F894FFCF87
:103C4E00242424656E61626C6570726F7465637492
:103C5E00696F6E0A0024242464697361626C657056
:103C6E00726F74656374696F6E0A00242424616434
:103C7E006363616C73746F72650A0024242461643B
:103C8E006363616C683A0024242461646363616C2D
:103C9E00300A00242424676574616463300A0024AA
:103CAE002424676574610A0024242467657473658F
:103CBE0074610A00242424736574613A0024242458
:103CCE007665720A0024242469640A002424246F71
:103CDE0066660A00242424696E73756C6661696CCD
:103CEE0065643A002424246265616D6F6E0A0024B7
:103CFE002424696E73756C6F6B0A0064697361625C
:103D0E006C65640A0024242466696C736574613AD8
:103D1E000024242470737573746174650024242444
:103D2E00610024242476002424246572720A00245F
:103D3E002424656C656374726F6E6374726C5F328B
:103D4E00303232313131315F3030310A0069640046
:103D5E007073756765747631007073756765747608
:103D6E0032007073756765747633007073756765AE
:103D7E007476340070737567657461310070737595
:103D8E0067657461320070737567657461330070B6
:103D9E007375676574613400707375706F6C317014
:103DAE0000707375706F6C316E00707375706F6C20
:103DBE00327000707375706F6C326E007073757048
:103DCE006F6C337000707375706F6C336E00707340
:103DDE0075706F6C347000707375706F6C346E002C
:103DEE0066696C6F6E0066696C6F666600707375DF
:103DFE006D6F6465007073757365747631007073E2
:103E0E0075736574763200707375736574763300EE
:103E1E007073757365747634007073757365746141
:103E2E0031007073757365746132007073757365EC
:103E3E0074613300707375736574613400736574E7
:103E4E0066696C6100696E73756C006265616D68A0
:103E5E00766F6666006265616D6F6E006E6F707272
:103E6E006F74656374696F6E007265736574007349
:103E7E006574613A00676574736574610067657493
:103E8E006100676574616463300061646363616CD3
:103E9E00300061646363616C683A006164636361FE
:083EAE006C73746F7265000073
:00000001FF
