:100000000C9472000C9493000C9493000C94930045
:100010000C9493000C9493000C9493000C94930014
:100020000C9493000C9493000C9493000C94930004
:100030000C9493000C94B5200C9493000C949300B2
:100040000C9493000C9493000C9493000C949300E4
:100050000C9493000C9493000C9493000C94261E23
:100060000C9493000C94EA040C941C050C949300DB
:100070000C9493000C94141F0C9493000C94930014
:100080000C9493000C9493000C9493000C949300A4
:100090000C948C050C94BE050C9493000C94930066
:1000A0000C9493000C9493000C9493000C94930084
:1000B0000C9493000C9493000C9493000C94930074
:1000C0000C9493000C9493000C9493000C943406BD
:1000D0000C9466060C9493000C9493000C9493007B
:1000E0000C94930011241FBECFEFD1E2DEBFCDBF31
:1000F00000E00CBF16E0A0E0B2E0E2E8FDE400E0C2
:100100000BBF02C007900D92A833B107D9F729E0C1
:10011000A8E3B6E001C01D92A834B207E1F70E943F
:10012000E5220C94BF260C940000CF93C1E06C2F05
:1001300090E080E00E94A121CF5FC530C1F760E070
:1001400080912409909125090E94552260E08091B8
:100150002809909129090E94552260E080912C097C
:1001600090912D090E94552260E080913009909174
:1001700031090E94552280E00E94D60960E070E0BB
:10018000CB010E949F0983E090E090933906809311
:100190003806809104099091050990933B0680935D
:1001A0003A06809108099091090990933D06809341
:1001B0003C0680910C0990910D0990933F06809325
:1001C0003E06809110099091110990934106809309
:1001D0004006109243061092420610924506109275
:1001E0004406109247061092460610924906109255
:1001F000480610924B0610924A0610924D06109235
:100200004C060E94941E60934E0670934F06809396
:10021000500690935106CF9108951F93CF93DF938B
:100220000E94F409162FD72FC1E06C2F90E080E0D8
:100230000E94A121CF5FC530C1F760E08091140911
:10024000909115090E94552261E0809118099091C2
:1002500019090E94552262E080911C0990911D09A4
:100260000E94552263E080912009909121090E940B
:10027000552280E00E94D60981E090E090933906F3
:1002800080933806809104099091050990933B066C
:1002900080933A06809108099091090990933D0650
:1002A00080933C0680910C0990910D0990933F0634
:1002B00080933E0680911009909111099093410618
:1002C00080934006812F9D2F909343068093420692
:1002D0001092450610924406109247061092460668
:1002E000109249061092480610924B0610924A0648
:1002F00010924D0610924C060E94941E60934E067A
:1003000070934F06809350069093510660E070E022
:10031000CB01DF91CF911F910C949F09CF93DF9375
:1003200000D00F92CDB7DEB79C0150E040E02983AA
:100330003A834B835C83CA01B9010E9495252AE860
:100340003FE14BE450E469837A838B839C8369812A
:100350007A818B819C810E94232625E83BEE41E82F
:100360005FE369837A838B839C8369817A818B8144
:100370009C810E94232669837A838B839C83698175
:100380007A818B819C810E946625CB010F900F9012
:100390000F900F90DF91CF910895FC018FB7F894E3
:1003A00010821182128213821482158216821782A1
:1003B0008FBF08950F931F93FC018FB7F8940081AE
:1003C00011812281338144815581668177818FBF7C
:1003D00081E0041715072607370709F480E01F910D
:1003E0000F910895EF92FF920F931F93CF93DF9396
:1003F00000D00F92CDB7DEB7FC012FB7F894408143
:1004000051816281738184819581A681B78148176A
:1004100059076A077B0710F140815181628173811E
:1004200084819581A681B7817A018B01E81AF90A46
:100430000A0B1B0BE982FA820B831C832FBF698195
:100440007A818B819C810F900F900F900F90DF919C
:10045000CF911F910F91FF90EF900895808191812E
:10046000A281B3814481558166817781805C9F4FF1
:10047000AF4FBF4F7C018D01E41AF50A060B170B35
:10048000D9CFFC012FB7F8944081518162817381EB
:1004900084819581A681B781481759076A077B0730
:1004A000D9F084819581A681B7818E0F9F1FDC01D1
:1004B00018968C9144815581668177814F5F5F4F9B
:1004C0006F4F7F4F4F735527662777274483558398
:1004D000668377832FBF089580E008950F931F935D
:1004E000FC019FB7F89400811181228133814481FE
:1004F00055816681778180E0041715072607370745
:1005000039F04481558166817781E40FF51F80853C
:100510009FBF1F910F910895CF92DF92EF92FF92AC
:100520001F93CF93DF9300D000D0CDB7DEB78D837C
:100530009E836A017B011FB7F894AD81BE814D9106
:100540005D916D917C91139714968D919D910D9075
:10055000BC91A02D481759076A077B0781F480E0FA
:100560001FBF26960FB6F894DEBF0FBECDBFDF913A
:10057000CF911F91FF90EF90DF90CF9008958D81E4
:100580009E810E94F20169837A838B839C83C616C5
:10059000D706E806F90618F7ED81FE81848195817A
:1005A000A681B7818C0D9D1DAE1DBF1D8F73992730
:1005B000AA27BB27E80FF91F8085D2CF0F931F937F
:1005C000FC018A019B014FB7F89484819581A68133
:1005D000B781800F911FA21FB31F8F739927AA277E
:1005E000BB2784839583A683B7834FBF1F910F9149
:1005F0000895CF92DF92EF92FF92FC012FB7F8940B
:1006000080819181A281B381C480D580E680F7800A
:100610000196A11DB11D8F739927AA27BB278C15A1
:100620009D05AE05BF05C1F080819181A281B38196
:100630008E0F9F1FDC0118966C9380819181A2819F
:10064000B3810196A11DB11D8F739927AA27BB27DE
:1006500080839183A283B3832FBFFF90EF90DF90BD
:10066000CF9008958F929F92AF92BF92CF92DF92D8
:10067000EF92FF920F931F93CF93DF93182F092FC1
:1006800069017A01EB01812C912C54018C149D0499
:10069000AE04BF0469F4DF91CF911F910F91FF90D9
:1006A000EF90DF90CF90BF90AF909F908F90089584
:1006B0006991812F902F0E94F9028FEF881A980A72
:1006C000A80AB80AE3CF8F929F92AF92BF92CF92BF
:1006D000DF92EF92FF92CF93DF9300D00F920F92B1
:1006E000CDB7DEB76A017B01FC0119821A821B8239
:1006F0001C82812C912C54018C149D04AE04BF04E7
:10070000A1F469817A818B819C810F900F900F9069
:100710000F900F90DF91CF91FF90EF90DF90CF90EF
:10072000BF90AF909F908F900895219120532D837B
:100730002A3098F4AAE0B0E029813A814B815C81AB
:100740000E94DA24DC01CB012D81820F911DA11DB5
:10075000B11D89839A83AB83BC838FEF881A980A73
:10076000A80AB80AC9CF8F929F92AF92BF92CF9238
:10077000DF92EF92FF920F931F93CF93DF93CDB74A
:10078000DEB72E970FB6F894DEBF0FBECDBFF82EA2
:10079000E92E4B875C876D877E878B859C85AD8531
:1007A000BE85892B8A2B8B2BB9F460E38F2D9E2D70
:1007B0002E960FB6F894DEBF0FBECDBFDF91CF915E
:1007C0001F910F91FF90EF90DF90CF90BF90AF906F
:1007D0009F908F900C94F90210E08AE0882E912C63
:1007E000A12CB12CDE0111966D016B857C858D8568
:1007F0009E85A50194010E94B824F601E10FF11D28
:10080000605D60831F5F8B859C85AD85BE852B8772
:100810003C874D875E870A97A105B10530F7F60141
:10082000E10FF11D8F01C016D10699F42E960FB677
:10083000F894DEBF0FBECDBFDF91CF911F910F9116
:10084000FF90EF90DF90CF90BF90AF909F908F90F0
:100850000895D8016E918D018F2D9E2D0E94F90271
:10086000E2CFCF92DF92EF92FF926A01FC01D901B1
:10087000C80ED91E81912D91082E000C990B2817B6
:10088000190649F4EC15FD05A9F781E0FF90EF90FA
:10089000DF90CF90089580E0F9CF4F925F926F92F2
:1008A0007F928F929F92AF92BF92CF92DF92EF9200
:1008B000FF920F931F93CF93DF9300D000D0CDB75B
:1008C000DEB72C01B62E072F69017A011FB7F89405
:1008D0000E94F20169837A838B839C836C157D056A
:1008E0008E059F0550F06B2C702E40E050E0BA0151
:1008F000C416D506E606F706C1F41FBF26960FB646
:10090000F894DEBF0FBECDBFDF91CF911F910F9145
:10091000FF90EF90DF90CF90BF90AF909F908F901F
:100920007F906F905F904F900895D20114968D90B4
:100930009D90AD90BC901797C401840D951DFC014E
:10094000208514968D919D910D90BC91A02D0196BE
:10095000A11DB11D8F739927AA27BB27F20184839C
:100960009583A683B783D3012D933D014F5F5F4FDE
:100970006F4F7F4FBDCF9FB7F894E0ECF0E08081E0
:1009800080648083E1ECF0E08081886280839FBF97
:100990000895CF93CFB7F8948CEB97E00E94CD01E8
:1009A00084E797E00E94CD011092690810926808D0
:1009B00087E690E09093C5008093C40082E0809326
:1009C000C00080E98093C10086E08093C200CFBF61
:1009D000CF9108951F920F920FB60F9211240BB66C
:1009E0000F922F933F934F935F936F937F938F93C8
:1009F0009F93AF93BF93EF93FF936091C60084E7FB
:100A000097E00E94F90281E090E09093690880935A
:100A10006808FF91EF91BF91AF919F918F917F9166
:100A20006F915F914F913F912F910F900BBE0F905F
:100A30000FBE0F901F9018951F920F920FB60F9236
:100A400011240BB60F922F933F934F935F936F93A5
:100A50007F938F939F93AF93BF93EF93FF938CEB11
:100A600097E00E94DA01813021F58CEB97E00E943B
:100A700041028093C6008CEB97E00E94DA0181303E
:100A800029F08091C100877D8093C100FF91EF9193
:100A9000BF91AF919F918F917F916F915F914F9196
:100AA0003F912F910F900BBE0F900FBE0F901F9094
:100AB000189584E28093C600E4CF9FB7F894E8ECE1
:100AC000F0E0808180648083E9ECF0E080818862DE
:100AD00080839FBF0895CF93CFB7F8948CE297E0BF
:100AE0000E94CD0184EE96E00E94CD01109267082D
:100AF0001092660887E690E09093CD008093CC003A
:100B000082E08093C80080E98093C90086E08093EA
:100B1000CA00CFBFCF9108951F920F920FB60F92C8
:100B200011240BB60F922F933F934F935F936F93C4
:100B30007F938F939F93AF93BF93EF93FF936091B6
:100B4000CE0084EE96E00E94F90281E090E090935E
:100B5000670880936608FF91EF91BF91AF919F91D5
:100B60008F917F916F915F914F913F912F910F9056
:100B70000BBE0F900FBE0F901F9018951F920F92F3
:100B80000FB60F9211240BB60F922F933F934F93F2
:100B90005F936F937F938F939F93AF93BF93EF93E5
:100BA000FF938CE297E00E94DA01813061F48CE2DD
:100BB00097E00E9441028093CE008CE297E00E9471
:100BC000DA01813029F08091C900877D8093C900C6
:100BD000FF91EF91BF91AF919F918F917F916F9115
:100BE0005F914F913F912F910F900BBE0F900FBED1
:100BF0000F901F9018959FB7F894E0EDF0E080817A
:100C000080648083E1EDF0E08081886280839FBF13
:100C10000895CF9310926B0810926C0810926D0893
:100C200010926E0810926A08CFB7F8948CE996E09B
:100C30000E94CD0184E596E00E94CD0110926508E6
:100C40001092640880E493E09093D5008093D400E0
:100C500082E08093D00080E98093D10086E0809389
:100C6000D200CFBFCF9108951F920F920FB60F926F
:100C700011240BB60F922F933F934F935F936F9373
:100C80007F938F939F93AF93BF93EF93FF93609165
:100C9000D60084E596E00E94F90281E090E090930E
:100CA000650880936408FF91EF91BF91AF919F9188
:100CB0008F917F916F915F914F913F912F910F9005
:100CC0000BBE0F900FBE0F901F9018951F920F92A2
:100CD0000FB60F9211240BB60F922F933F934F93A1
:100CE0005F936F937F938F939F93AF93BF93EF9394
:100CF000FF938CE996E00E94DA01813021F58CE9BE
:100D000096E00E9441028093D6008CE996E00E9412
:100D1000DA01813029F08091D100877D8093D10064
:100D2000FF91EF91BF91AF919F918F917F916F91C3
:100D30005F914F913F912F910F900BBE0F900FBE7F
:100D40000F901F90189584E28093D600E4CF8F9285
:100D50009F92AF92BF92CF92DF92EF92FF92CF938A
:100D6000DF9300D00F92CDB7DEB784E596E00E9406
:100D7000F201633071058105910500F50F900F9028
:100D80000F900F90DF91CF91FF90EF90DF90CF9079
:100D9000BF90AF909F908F90089584E797E00E9456
:100DA000F201643071058105910570F041E050E079
:100DB00060E070E084E596E00E94DE0284E596E063
:100DC0000E946E02843249F784E596E00E94F201A7
:100DD000653071058105910588F240E050E0BA0167
:100DE00084E596E00E948C02843209F4D3C084E545
:100DF00096E00E94F201653071058105910508F0C9
:100E0000C0C084E596E00E94F20169837A838B83F7
:100E10009C83653071058105910508F4AFCF84E5A9
:100E200096E00E94F2014B015C0183E0C82ED12CB8
:100E3000E12CF12CC814D904EA04FB0408F09ECF7D
:100E4000B701A60184E596E00E948C028A3049F041
:100E5000B701A60184E596E00E948C02843209F075
:100E6000BBC0B701A60184E596E00E948C028A30DF
:100E700009F06AC043E050E060E070E084E596E08D
:100E80000E94DE024601570193E0891A9108A108E9
:100E9000B108B701A601445051096109710984E5FF
:100EA00096E00E948C0241E050E060E070E08D30FE
:100EB00019F040E050E0BA01841A950AA60AB70A70
:100EC000A501940164E078E084E596E00E944D0479
:100ED00064E28CEB97E00E94F90264E28CEB97E00D
:100EE0000E94F90264E28CEB97E00E94F902A501EE
:100EF000940164E078E08CEB97E00E9432036AE0B2
:100F00008CEB97E00E94F90264E28CE297E00E9489
:100F1000F90264E28CE297E00E94F90264E28CE25A
:100F200097E00E94F902A501940164E078E08CE268
:100F300097E00E9432036AE08CE297E00E94F90297
:100F40000E94BB040E945D05B701A60184E596E0FE
:100F50000E948C02843209F011CFB701A60184E50A
:100F600096E00F900F900F900F90DF91CF91FF9030
:100F7000EF90DF90CF90BF90AF909F908F900C94A8
:100F8000DE0241E050E060E070E084E596E00E941F
:100F9000DE0223CF41E050E060E070E084E596E0BF
:100FA0000E948C02843209F022CF42E050E060E0DF
:100FB00070E084E596E00E948C02843209F017CF3D
:100FC00043E050E060E070E084E596E00E948C022F
:100FD000843209F40CCF15CF8FEFC81AD80AE80A6B
:100FE000F80A28CFCF92DF92EF92FF920F931F93D0
:100FF000CF930BE718E0C1E3F894F8018081918169
:1010000078940E948E016C0124E030E040E050E0D2
:1010100069E273E08CEB97E00E9432036C2F8CEB5B
:1010200097E00E94F9026AE38CEB97E00E94F902D4
:10103000F12CE12CB701A6018CEB97E00E94B303E1
:101040006AE08CEB97E00E94F90224E030E040E097
:1010500050E069E273E08CE297E00E9432036C2F6B
:101060008CE297E00E94F9026AE38CE297E00E942A
:10107000F902B701A6018CE297E00E94B3036AE08F
:101080008CE297E00E94F9020C5F1F4FCF5FC533DF
:1010900009F0B2CF0E94BB04CF911F910F91FF9036
:1010A000EF90DF90CF900C945D05CF92DF92EF929E
:1010B000FF9280916A08882309F452C0C0906B089F
:1010C000D0906C08E0906D08F0906E082BE030E056
:1010D00040E050E065EC72E08CEB97E00E94320358
:1010E000EE24FF24B701A6018CEB97E00E94B30326
:1010F0006AE38CEB97E00E94F902B701A6018CEB42
:1011000097E00E94B3036AE08CEB97E00E94F9023B
:101110002BE030E040E050E065EC72E08CE297E0DC
:101120000E943203B701A6018CE297E00E94B3034C
:101130006AE38CE297E00E94F902B701A6018CE213
:1011400097E00E94B3036AE08CE297E00E94F90204
:101150000E94BB04FF90EF90DF90CF900C945D0550
:101160002BE030E040E050E065EC72E08CEB97E083
:101170000E94320329E030E040E050E06BEB72E087
:101180008CEB97E00E9432032BE030E040E050E02F
:1011900065EC72E08CE297E00E94320329E030E0D7
:1011A00040E050E06BEB72E08CE297E00E9432038B
:1011B000CFCF2BE030E040E050E06FEA72E08CEB04
:1011C00097E00E9432030E94BB042BE030E040E035
:1011D00050E06FEA72E08CE297E00E9432030C94D8
:1011E0005D052AE030E040E050E064EA72E08CEB1C
:1011F00097E00E9432030E94BB042AE030E040E006
:1012000050E064EA72E08CE297E00E9432030C94B2
:101210005D05CF92DF92EF92FF920F931F93CF93D2
:10122000DF932FE030E040E050E064E972E08CEBC7
:1012300097E00E9432038AE3E82E86E0F82ECBE99D
:10124000D8E08E016701F601819191916F01892BA0
:1012500031F0F8018781908566E4892B09F06DE211
:101260008CEB97E00E94F902035F1F4FF8E00F3C00
:101270001F0749F76AE08CEB97E00E94F9020E9491
:10128000BB042FE030E040E050E064E972E08CE223
:1012900097E00E943203F701819191917F01892BA0
:1012A00029F08F81988566E4892B09F06DE28CE244
:1012B00097E00E94F9022D96F8E0CF3CDF0759F73E
:1012C0006AE08CE297E00E94F902DF91CF911F91D2
:1012D0000F91FF90EF90DF90CF900C945D0527E089
:1012E00030E040E050E06CE872E08CEB97E00E9468
:1012F00032030E94BB0427E030E040E050E06CE89D
:1013000072E08CE297E00E9432030C945D0526E0C7
:1013100030E040E050E065E872E08CE996E00E9441
:1013200032030C94FB0527E030E040E050E06DE72D
:1013300072E08CE996E00E9432030C94FB05CF9298
:10134000DF92EF92FF926B017C01C0926B08D0920A
:101350006C08E0926D08F0926E0880916A0828E0AF
:1013600030E040E050E064E772E08823A9F08CE9C7
:1013700096E00E943203B701A6018CE996E00E9434
:10138000B3036AE08CE996E00E94F902FF90EF90C7
:10139000DF90CF900C94FB058CE996E00E9432031D
:1013A00060E38CE996E00E94F902EBCFCF93DF93E4
:1013B00000D00F92CDB7DEB780936A0880916B089A
:1013C00090916C08A0916D08B0916E0889839A8302
:1013D000AB83BC83BC01CD010F900F900F900F9099
:1013E000DF91CF910C949F09CF93DF9300D00F92A0
:1013F000CDB7DEB780916B0890916C08A0916D0815
:10140000B0916E08BC01CD010F900F900F900F901E
:10141000DF91CF9108952BE030E040E050E068E6A6
:1014200072E08CE996E00E9432030C94FB0528E000
:1014300030E040E050E06FE572E08CE996E00E9419
:1014400032030C94FB052BE030E040E050E063E514
:1014500072E08CE996E00E9432030C94FB052BE0CD
:1014600030E040E050E067E472E08CE996E00E94F2
:1014700032030C94FB050F931F93CF93DF938B01E3
:10148000D82FC92F2BE030E040E050E06BE372E052
:101490008CE996E00E943203A8016D2F7C2F8CE925
:1014A00096E00E94B3036AE08CE996E00E94F9029C
:1014B000DF91CF911F910F910C94FB052FE030E04D
:1014C00040E050E06BE272E08CE996E00E9432036B
:1014D0000C94FB0524E130E040E050E060E072E075
:1014E000811106C025E130E040E050E065E172E0A6
:1014F0008CE996E00E9432030C94FB058F929F9238
:10150000AF92BF92CF92DF92EF92FF920F931F9311
:10151000CF93DF9300D00F92CDB7DEB784E797E08B
:101520000E94F201633071058105910510F50F905D
:101530000F900F900F90DF91CF911F910F91FF901F
:10154000EF90DF90CF90BF90AF909F908F900895D5
:1015500084E797E00E94F2016430710581059105EE
:1015600070F041E050E060E070E084E797E00E94B6
:10157000DE0284E797E00E946E02843249F784E736
:1015800097E00E94F201653071058105910578F2BE
:1015900040E050E0BA0184E797E00E948C02843278
:1015A00009F4BDC084E797E00E94F201653071053F
:1015B0008105910508F0AAC084E797E00E94F20136
:1015C00069837A838B839C836530710581059105DE
:1015D00008F4ADCF84E797E00E94F2016B017C0133
:1015E00083E0882E912CA12CB12C8C149D04AE0488
:1015F000BF0408F09CCFB501A40184E797E00E94E6
:101600008C028A3049F0B501A40184E797E00E947A
:101610008C02843209F0A5C0B501A40184E797E0EB
:101620000E948C028A3009F052C043E050E060E032
:1016300070E084E797E00E94DE027501640193E0A8
:10164000C91AD108E108F108B501A40144505109B3
:101650006109710984E797E00E948C0241E050E043
:1016600060E070E08D3019F040E050E0BA01C41A3B
:10167000D50AE60AF70AA701960164E478E084E750
:1016800097E00E944D04A2E0CA16D104E104F104DF
:1016900009F06DC024E438E042E050E060E070E022
:1016A0008BE993E00E943104813009F0D2C42DE12E
:1016B00030E040E050E066E373E08CEB97E00E949E
:1016C00032030E94BB040E9487090E949309B5015E
:1016D000A40184E797E00E948C02843209F027CFAE
:1016E000B501A40184E797E00F900F900F900F9041
:1016F000DF91CF911F910F91FF90EF90DF90CF90EE
:10170000BF90AF909F908F900C94DE0241E050E02C
:1017100060E070E084E797E00E94DE0239CF41E0AC
:1017200050E060E070E084E797E00E948C02843231
:1017300009F038CF42E050E060E070E084E797E0E5
:101740000E948C02843209F02DCF43E050E060E02B
:1017500070E084E797E00E948C02843209F422CF83
:101760002BCF8FEF881A980AA80AB80A3ECFB8E0A4
:10177000CB16D104E104F10409F0FAC124E438E005
:1017800048E050E060E070E08EE993E00E943104B0
:10179000813011F5F89480917B0890917C087894C1
:1017A0000E948E0189839A8324E030E040E050E07B
:1017B00069E273E08CEB97E00E94320361E38CEB0B
:1017C00097E00E94F9026AE38CEB97E00E94F9022D
:1017D000E981FA81AF012DC024E438E048E050E00F
:1017E00060E070E087EA93E00E943104813041F5C7
:1017F000F89480917F089091800878940E948E01DF
:1018000089839A8324E030E040E050E069E273E0AD
:101810008CEB97E00E94320362E38CEB97E00E942E
:10182000F9026AE38CEB97E00E94F90289819A81C0
:10183000AC0170E060E08CEB97E00E94B30334C22F
:1018400024E438E048E050E060E070E080EB93E0B2
:101850000E943104813011F5F894809183089091B1
:10186000840878940E948E0189839A8324E030E072
:1018700040E050E069E273E08CEB97E00E943203B5
:1018800063E38CEB97E00E94F9026AE38CEB97E04C
:101890000E94F902A981BA81AD01CBCF24E438E0DE
:1018A00048E050E060E070E089EB93E00E94310492
:1018B0008130B1F4F89480918708909188087894E9
:1018C0000E948E0189839A8324E030E040E050E05A
:1018D00069E273E08CEB97E00E94320364E36FCF20
:1018E00024E438E048E050E060E070E082EC93E00F
:1018F0000E943104813009F046C0F89480917D083F
:1019000090917E089A838983789424E030E040E0C7
:1019100050E064E273E08CEB97E00E94320361E3F5
:101920008CEB97E00E94F9026AE38CEB97E00E944F
:10193000F902A981BA81CD01B0E0A0E089839A8340
:10194000AB83BC83BC01CD010E94952520E030E42F
:101950004CE151E469837A838B839C8369817A812A
:101960008B819C810E94232669837A838B839C834D
:1019700069817A818B819C810E94662569837A8343
:101980008B839C8325CF24E438E048E050E060E07E
:1019900070E08BEC93E00E9431048130A1F4F89464
:1019A00080918108909182089A838983789424E0B9
:1019B00030E040E050E064E273E08CEB97E00E949E
:1019C000320362E3ADCF24E438E048E050E060E069
:1019D00070E084ED93E00E9431048130A1F4F8942A
:1019E00080918508909186089A838983789424E071
:1019F00030E040E050E064E273E08CEB97E00E945E
:101A0000320363E38DCF24E438E048E050E060E047
:101A100070E08DED93E00E9431048130A1F4F894E0
:101A20008091890890918A089A838983789424E028
:101A300030E040E050E064E273E08CEB97E00E941D
:101A4000320364E36DCF24E438E048E050E060E026
:101A500070E086EE93E00E943104813049F41092E8
:101A60009D0810929C0810923906109238062FCECD
:101A700024E438E048E050E060E070E08FEE93E06E
:101A80000E943104813039F481E090E090939D0808
:101A900080939C08E8CF24E438E048E050E060E020
:101AA00070E088EF93E00E943104813029F41092B5
:101AB000AA081092A908D7CF24E438E048E050E003
:101AC00060E070E081E094E00E943104813039F4FC
:101AD00081E090E09093AA088093A908C4CF24E401
:101AE00038E048E050E060E070E08AE094E00E9476
:101AF0003104813029F41092B7081092B608B3CFA0
:101B000024E438E048E050E060E070E083E194E0F5
:101B10000E943104813039F481E090E09093B7085D
:101B20008093B608A0CF24E438E048E050E060E0BD
:101B300070E08CE194E00E943104813029F410922D
:101B4000C4081092C308C3CD24E438E048E050E054
:101B500060E070E085E294E00E943104813009F099
:101B6000B2C081E090E09093C4088093C308AFCDE9
:101B7000F3E0CF16D104E104F10459F524E438E090
:101B800043E050E060E070E087E394E00E943104BD
:101B9000813009F05EC261E090E080E00E94A12106
:101BA00062E090E080E00E94A12163E090E080E0AC
:101BB0000E94A12164E090E080E00E94A12180E0E9
:101BC0000E94D60910923906109238060E946F09B9
:101BD0007ECD85E0C816D104E104F10481F424E44B
:101BE00038E045E050E060E070E08EE294E00E9472
:101BF0003104813009F046C10E94D60968CD96E0D3
:101C0000C916D104E104F10489F424E438E046E083
:101C100050E060E070E084E394E00E9431048130A1
:101C200009F030C180E00E94D6091DCFA7E0CA1696
:101C3000D104E104F10409F03FC024E438E047E0B6
:101C400050E060E070E08BE394E00E94310481306A
:101C500009F018C12BE030E040E050E068E173E0AB
:101C60008CEB97E00E943203EBE9F8E0FA83E9831A
:101C70000FEC18E0A981BA818C916DE2813041F4BA
:101C8000E981FA818781908563E4892B09F066E513
:101C90008CEB97E00E94F90289819A810D969A83D4
:101CA00089830817190731F76AE08CEB97E00E94E7
:101CB000F9020E94BB040BCD98E0C916D104E104DF
:101CC000F10408F4D8C024E438E048E050E060E0D3
:101CD00070E083E494E00E943104813089F4B7011C
:101CE000A60148505109610971098CE498E00E94ED
:101CF0006303262F61E0822F972F0E94A121B3CE8C
:101D000024E438E048E050E060E070E08CE494E0E7
:101D10000E943104813069F4B701A601485051098D
:101D2000610971098CE498E00E946303262F62E048
:101D3000E2CF24E438E048E050E060E070E085E580
:101D400094E00E943104813069F4B701A601485043
:101D50005109610971098CE498E00E946303262F00
:101D600063E0C9CF24E438E048E050E060E070E090
:101D70008EE594E00E943104813089F4B701A60118
:101D800048505109610971098CE498E00E9463038D
:101D9000262F64E0822F972F0E94A12198CC24E463
:101DA00038E048E050E060E070E087E694E00E94B0
:101DB0003104813089F4B701A60148505109610905
:101DC00071098CE498E00E946303262F61E0822F62
:101DD000972F0E94552247CE24E438E048E050E097
:101DE00060E070E080E794E00E943104813069F4A3
:101DF000B701A60148505109610971098CE498E0C6
:101E00000E946303262F62E0E2CF24E438E048E03A
:101E100050E060E070E089E794E00E943104813096
:101E200069F4B701A60148505109610971098CE4B0
:101E300098E00E946303262F63E0C9CF24E438E0D2
:101E400048E050E060E070E082E894E00E943104F5
:101E50008130C1F4B701A6014850510961097109E7
:101E60008CE498E00E946303262F64E0822F972F72
:101E70000E9455222CCCA4E0CA16D104E104F1043E
:101E800009F088C024E438E044E050E060E070E00D
:101E900086E196E00E943104813019F40E94170A0D
:101EA00016CCB7E0CB16D104E104F104D0F024E461
:101EB00038E047E050E060E070E08BE894E00E949A
:101EC0003104813009F0D9C4B701A6014750510946
:101ED000610971098BE498E00E9463030E949F09E5
:101EE000C2CDE5E0CE16D104E104F10479F524E495
:101EF00038E045E050E060E070E083E994E00E9463
:101F000031048130C1F50E949500E1CB24E438E032
:101F100049E050E060E070E089E994E00E9431041B
:101F2000813009F03EC061E090E080E00E94A12194
:101F300062E090E080E00E94A12163E090E080E018
:101F40000E94A12164E090E080E0D7CEF6E0CF16B9
:101F5000D104E104F104F1F424E438E046E050E077
:101F600060E070E083EA94E00E9431048130C9F4BB
:101F70000E940D01ACCB24E438E045E050E060E085
:101F800070E087EB94E00E943104813051F40C94AE
:101F900000009DCB85E0C816D104E104F10408F4EB
:101FA00044C024E438E045E050E060E070E08DEBB0
:101FB00094E00E943104813011F5B701A60145502B
:101FC00051096109710989E498E00E9463036983FA
:101FD0007A838B839C8389819A81AB81BC81892B95
:101FE0008A2B8B2B51F081E00E94D60969817A817E
:101FF0008B819C810E949F096ACB80E0F5CF97E09E
:10200000C916D104E104F10409F00EC424E438E057
:1020100047E050E060E070E083EC94E00E9431041F
:10202000813011F50E940B0A52CBA4E0CA16D104EC
:10203000E104F10409F0FFC324E438E044E050E097
:1020400060E070E08BEC94E00E943104813009F490
:1020500025CF27E030E040E050E06EE273E08CEB0B
:1020600097E00E94320325CE24E438E047E050E0B8
:1020700060E070E080ED94E00E943104813019F45A
:102080000E94230A24CB24E438E047E050E060E0DB
:1020900070E088ED94E00E9431048130D1F60E9416
:1020A0002F0A15CBEBE0CE16D104E104F10479F44C
:1020B00024E438E04BE050E060E070E089EE94E02A
:1020C0000E943104813029F60E945E0A00CBFCE0B8
:1020D000CF16D104E104F10409F075C024E438E01E
:1020E0004CE050E060E070E085EF94E00E94310445
:1020F000813089F447E050E060E070E08FE498E0E0
:102100000E94630360930409709305098093060994
:1021100090930709DCCA24E438E04CE050E060E02A
:1021200070E082E095E00E943104813089F447E05C
:1021300050E060E070E08FE498E00E9463036093F9
:1021400008097093090980930A0990930B09BFCA83
:1021500024E438E04CE050E060E070E08FE095E08F
:102160000E943104813089F447E050E060E070E083
:102170008FE498E00E94630360930C0970930D094B
:1021800080930E0990930F09A2CA24E438E04CE032
:1021900050E060E070E08CE195E00E943104813015
:1021A00009F01FC247E050E060E070E08FE498E083
:1021B0000E946303609310097093110980931209C0
:1021C0009093130984CA8AE0C816D104E104F1048B
:1021D00009F058C024E438E04AE050E060E070E0E4
:1021E00089E295E00E943104813009F032CF2BE082
:1021F00030E040E050E06CE073E08CEB97E00E9450
:1022000032036AE38CEB97E00E94F90240910409E3
:102210005091050960910609709107098CEB97E0D0
:102220000E94B3036AE38CEB97E00E94F9024091AD
:1022300008095091090960910A0970910B098CEB0A
:1022400097E00E94B3036AE38CEB97E00E94F902E7
:1022500040910C0950910D0960910E0970910F0980
:102260008CEB97E00E94B3036AE38CEB97E00E944B
:10227000F902409110095091110960911209709171
:102280001309D9CA9EE0C916D104E104F10409F08A
:1022900075C024E438E04EE050E060E070E084E394
:1022A00095E00E943104813089F449E050E060E01B
:1022B00070E08FE498E00E946303609314097093C8
:1022C0001509809316099093170901CA24E438E090
:1022D0004EE050E060E070E083E495E00E9431045D
:1022E000813089F449E050E060E070E08FE498E0EC
:1022F0000E946303609318097093190980931A0967
:1023000090931B09E4C924E438E04EE050E060E01B
:1023100070E082E595E00E943104813089F449E063
:1023200050E060E070E08FE498E00E946303609307
:102330001C0970931D0980931E0990931F09C7C93A
:1023400024E438E04EE050E060E070E081E695E0A3
:102350000E943104813009F0ECC049E050E060E0B7
:1023600070E08FE498E00E9463036093200970930B
:1023700021098093220990932309A9C9ADE0CA16C7
:10238000D104E104F10409F058C024E438E04DE040
:1023900050E060E070E080E795E00E943104813019
:1023A00009F057CE2DE030E040E050E06EEF72E0F3
:1023B0008CEB97E00E9432036AE38CEB97E00E947B
:1023C000F902409114095091150960911609709114
:1023D00017098CEB97E00E94B3036AE38CEB97E05C
:1023E0000E94F902409118095091190960911A0947
:1023F00070911B098CEB97E00E94B3036AE38CEBAE
:1024000097E00E94F90240911C0950911D096091CA
:102410001E0970911F098CEB97E00E94B3036AE3D9
:102420008CEB97E00E94F90240912009509121091C
:102430006091220970912309FEC9BFE0CB16D10437
:10244000E104F10409F03EC124E438E04FE050E03B
:1024500060E070E08EE795E00E943104813089F4FD
:102460004AE050E060E070E08FE498E00E9463038F
:102470006093240970932509809326099093270976
:1024800026C924E438E04FE050E060E070E08EE8D8
:1024900095E00E943104813089F44AE050E060E028
:1024A00070E08FE498E00E946303609328097093C2
:1024B000290980932A0990932B0909C924E438E05B
:1024C0004FE050E060E070E08EE995E00E9431045A
:1024D000813089F44AE050E060E070E08FE498E0F9
:1024E0000E94630360932C0970932D0980932E0939
:1024F00090932F09ECC824E438E04FE050E060E00E
:1025000070E08EEA95E00E943104813009F025C127
:102510004AE050E060E070E08FE498E00E946303DE
:102520006093300970933109809332099093330995
:10253000CEC824E438E04EE050E060E070E08EEB7E
:1025400095E00E943104813009F068C02EE030E04F
:1025500040E050E06FEE72E08CEB97E00E943203B7
:102560006AE38CEB97E00E94F902409124095091B4
:10257000250960912609709127098CEB97E00E944C
:10258000B3036AE38CEB97E00E94F90240912809BB
:102590005091290960912A0970912B098CEB97E0E1
:1025A0000E94B3036AE38CEB97E00E94F90240912A
:1025B0002C0950912D0960912E0970912F098CEBF7
:1025C00097E00E94B3036AE38CEB97E00E94F90264
:1025D000409130095091310960913209709133096D
:1025E0002AC924E438E04CE050E060E070E08DEC73
:1025F00095E00E943104813079F547E050E060E0D9
:1026000070E08FE498E00E94630360933409709354
:102610003509809336099093370959C824E438E086
:102620004EE050E060E070E08AED95E00E943104F9
:10263000813009F00ECD49E050E060E070E08FE4B9
:1026400098E00E946303609338097093390980937E
:102650003A0990933B093BC824E438E04CE050E051
:1026600060E070E089EE95E00E943104813009F06D
:1026700093C02CE030E040E050E062EE72E08CEB82
:1026800097E00E9432036AE38CEB97E00E94F90224
:10269000409134095091350960913609709137099C
:1026A0008CEB97E00E94B3036AE38CEB97E00E9407
:1026B000F902409138095091390960913A097091B5
:1026C0003B09B9C8E0E1CE16D104E104F104F9F404
:1026D00024E438E040E150E060E070E086EF95E00F
:1026E0000E943104813009F0B4CC4BE050E060E04E
:1026F00070E08FE498E00E94630360933C0970935C
:102700003D0980933E0990933F090C94670BF3E1D8
:10271000CF16D104E104F10409F09BCC24E438E0A5
:1027200043E150E060E070E087E096E00E94310411
:10273000813009F08ECC4EE050E060E070E08FE434
:1027400098E00E9463036093440970934509809365
:102750004609909347090C94670B24E438E04FE056
:1027600050E060E070E08BE196E00E94310481303F
:1027700009F06FCC4AE050E060E070E08FE498E050
:102780000E9463036093400970934109809342095A
:10279000909343090C94670B24E438E04CE050E03C
:1027A00060E070E08BE296E00E943104813009F035
:1027B00050CC20E130E040E050E061ED72E08CEB85
:1027C00097E00E9432036AE38CEB97E00E94F902E3
:1027D00040913C0950913D0960913E0970913F093B
:1027E0008CEB97E00E94B3036AE38CEB97E00E94C6
:1027F000F902409144095091450960914609709150
:1028000047098CEB97E00E94B3036AE38CEB97E0F7
:102810000E94F9024091400950914109609142099A
:10282000709143090C941B0C84E0C816D104E10498
:10283000F10409F401CCB8E0CB16D104E104F104B1
:1028400008F445CC24E438E048E050E060E070E073
:1028500080EE94E00E943104813009F023CCB7016E
:10286000A60148505109610971098CE498E00E9461
:1028700063030E943B0A0C94670B99E0C916D104CC
:10288000E104F10409F442CBACE0CA16D104E1043E
:10289000F10409F086CB24E438E04CE050E060E03D
:1028A00070E08AEA94E00E943104813009F079CB2B
:1028B000109253061092520680E00E946A0A0C940D
:1028C000670B8F929F92AF92BF92CF92DF92EF925F
:1028D000FF920F931F93CF93DF9300D00F92CDB74A
:1028E000DEB784EE96E00E94F20163307105810547
:1028F000910510F50F900F900F900F90DF91CF91F1
:102900001F910F91FF90EF90DF90CF90BF90AF900D
:102910009F908F90089584EE96E00E94F2016430BB
:1029200071058105910570F041E050E060E070E0D4
:1029300084EE96E00E94DE0284EE96E00E946E0233
:10294000843249F784EE96E00E94F2016530710509
:102950008105910578F240E050E0BA0184EE96E0FE
:102960000E948C02843209F4BDC084EE96E00E947D
:10297000F201653071058105910508F0AAC084EE69
:1029800096E00E94F20169837A838B839C83653091
:1029900071058105910508F4ADCF84EE96E00E94A3
:1029A000F2016B017C0183E0882E912CA12CB12CCB
:1029B0008C149D04AE04BF0408F09CCFB501A401A3
:1029C00084EE96E00E948C028A3049F0B501A401A1
:1029D00084EE96E00E948C02843209F0A5C0B50115
:1029E000A40184EE96E00E948C028A3009F052C065
:1029F00043E050E060E070E084EE96E00E94DE028A
:102A00007501640193E0C91AD108E108F108B50124
:102A1000A401445051096109710984EE96E00E94B5
:102A20008C0241E050E060E070E08D3019F040E051
:102A300050E0BA01C41AD50AE60AF70AA7019601BE
:102A400064E278E084EE96E00E944D04A2E0CA16AB
:102A5000D104E104F10409F06DC024E238E042E061
:102A600050E060E070E08BE993E00E943104813037
:102A700009F0D2C42DE130E040E050E066E373E0BD
:102A80008CE297E00E9432030E945D050E94870954
:102A90000E949309B501A40184EE96E00E948C0285
:102AA000843209F027CFB501A40184EE96E00F909F
:102AB0000F900F900F90DF91CF911F910F91FF908A
:102AC000EF90DF90CF90BF90AF909F908F900C943D
:102AD000DE0241E050E060E070E084EE96E00E94AB
:102AE000DE0239CF41E050E060E070E084EE96E035
:102AF0000E948C02843209F038CF42E050E060E05E
:102B000070E084EE96E00E948C02843209F02DCFB2
:102B100043E050E060E070E084EE96E00E948C02BA
:102B2000843209F422CF2BCF8FEF881A980AA80A93
:102B3000B80A3ECFB8E0CB16D104E104F10409F0A5
:102B4000FAC124E238E048E050E060E070E08EE94D
:102B500093E00E943104813011F5F89480917B0854
:102B600090917C0878940E948E0189839A8324E056
:102B700030E040E050E069E273E08CE297E00E94D0
:102B8000320361E38CE297E00E94F9026AE38CE28F
:102B900097E00E94F902E981FA81AF012DC024E299
:102BA00038E048E050E060E070E087EA93E00E949F
:102BB0003104813041F5F89480917F08909180082C
:102BC00078940E948E0189839A8324E030E040E06B
:102BD00050E069E273E08CE297E00E94320362E326
:102BE0008CE297E00E94F9026AE38CE297E00E948F
:102BF000F90289819A81AC0170E060E08CE297E093
:102C00000E94B30334C224E238E048E050E060E0C0
:102C100070E080EB93E00E943104813011F5F8946C
:102C2000809183089091840878940E948E01898312
:102C30009A8324E030E040E050E069E273E08CE207
:102C400097E00E94320363E38CE297E00E94F9026E
:102C50006AE38CE297E00E94F902A981BA81AD0192
:102C6000CBCF24E238E048E050E060E070E089EB50
:102C700093E00E9431048130B1F4F8948091870888
:102C80009091880878940E948E0189839A8324E029
:102C900030E040E050E069E273E08CE297E00E94AF
:102CA000320364E36FCF24E238E048E050E060E0B4
:102CB00070E082EC93E00E943104813009F046C05C
:102CC000F89480917D0890917E089A838983789406
:102CD00024E030E040E050E064E273E08CE297E012
:102CE0000E94320361E38CE297E00E94F9026AE3FA
:102CF0008CE297E00E94F902A981BA81CD01B0E08F
:102D0000A0E089839A83AB83BC83BC01CD010E9480
:102D1000952520E030E44CE151E469837A838B838C
:102D20009C8369817A818B819C810E94232669839F
:102D30007A838B839C8369817A818B819C810E94B9
:102D4000662569837A838B839C8325CF24E238E0D0
:102D500048E050E060E070E08BEC93E00E943104CA
:102D60008130A1F4F89480918108909182089A832F
:102D70008983789424E030E040E050E064E273E03E
:102D80008CE297E00E94320362E3ADCF24E238E0A8
:102D900048E050E060E070E084ED93E00E94310490
:102DA0008130A1F4F89480918508909186089A83E7
:102DB0008983789424E030E040E050E064E273E0FE
:102DC0008CE297E00E94320363E38DCF24E238E087
:102DD00048E050E060E070E08DED93E00E94310447
:102DE0008130A1F4F8948091890890918A089A839F
:102DF0008983789424E030E040E050E064E273E0BE
:102E00008CE297E00E94320364E36DCF24E238E065
:102E100048E050E060E070E086EE93E00E9431040C
:102E2000813049F410929D0810929C081092390646
:102E3000109238062FCE24E238E048E050E060E0FF
:102E400070E08FEE93E00E943104813039F481E02C
:102E500090E090939D0880939C08E8CF24E238E0AE
:102E600048E050E060E070E088EF93E00E943104B9
:102E7000813029F41092AA081092A908D7CF24E231
:102E800038E048E050E060E070E081E094E00E94CB
:102E90003104813039F481E090E09093AA08809366
:102EA000A908C4CF24E238E048E050E060E070E0D8
:102EB0008AE094E00E943104813029F41092B7082E
:102EC0001092B608B3CF24E238E048E050E060E06A
:102ED00070E083E194E00E943104813039F481E0B4
:102EE00090E09093B7088093B608A0CF24E238E032
:102EF00048E050E060E070E08CE194E00E94310432
:102F0000813029F41092C4081092C308C3CD24E282
:102F100038E048E050E060E070E085E294E00E9434
:102F20003104813009F0B2C081E090E09093C40890
:102F30008093C308AFCDF3E0CF16D104E104F104D0
:102F400059F524E238E043E050E060E070E087E3C8
:102F500094E00E943104813009F05EC261E090E0AB
:102F600080E00E94A12162E090E080E00E94A12127
:102F700063E090E080E00E94A12164E090E080E0C6
:102F80000E94A12180E00E94D60910923906109279
:102F900038060E946F097ECD85E0C816D104E10491
:102FA000F10481F424E238E045E050E060E070E0B4
:102FB0008EE294E00E943104813009F046C10E9403
:102FC000D60968CD96E0C916D104E104F10489F46C
:102FD00024E238E046E050E060E070E084E394E012
:102FE0000E943104813009F030C180E00E94D6098E
:102FF0001DCFA7E0CA16D104E104F10409F03FC0D7
:1030000024E238E047E050E060E070E08BE394E0D9
:103010000E943104813009F018C12BE030E040E01B
:1030200050E068E173E08CE297E00E943203EBE944
:10303000F8E0FA83E9830FEC18E0A981BA818C915A
:103040006DE2813041F4E981FA818781908563E402
:10305000892B09F066E58CE297E00E94F9028981EC
:103060009A810D969A8389830817190731F76AE0C8
:103070008CE297E00E94F9020E945D050BCD98E07A
:10308000C916D104E104F10408F4D8C024E238E000
:1030900048E050E060E070E083E494E00E94310496
:1030A000813089F4B701A6014850510961097109BD
:1030B0008CE298E00E946303262F61E0822F972F15
:1030C0000E94A121B3CE24E238E048E050E060E065
:1030D00070E08CE494E00E943104813069F4B7011F
:1030E000A60148505109610971098CE298E00E94DB
:1030F0006303262F62E0E2CF24E238E048E050E0AC
:1031000060E070E085E594E00E943104813069F46C
:10311000B701A60148505109610971098CE298E094
:103120000E946303262F63E0C9CF24E238E048E021
:1031300050E060E070E08EE594E00E943104813060
:1031400089F4B701A60148505109610971098CE25F
:1031500098E00E946303262F64E0822F972F0E943D
:10316000A12198CC24E238E048E050E060E070E033
:1031700087E694E00E943104813089F4B701A6010A
:1031800048505109610971098CE298E00E9463037B
:10319000262F61E0822F972F0E94552247CE24E2EE
:1031A00038E048E050E060E070E080E794E00E94A2
:1031B0003104813069F4B701A60148505109610911
:1031C00071098CE298E00E946303262F62E0E2CF4F
:1031D00024E238E048E050E060E070E089E794E005
:1031E0000E943104813069F4B701A60148505109A9
:1031F000610971098CE298E00E946303262F63E065
:10320000C9CF24E238E048E050E060E070E082E8B6
:1032100094E00E9431048130C1F4B701A601485006
:103220005109610971098CE298E00E946303262F1D
:1032300064E0822F972F0E9455222CCCA4E0CA165E
:10324000D104E104F10409F088C024E238E044E04C
:1032500050E060E070E086E196E00E943104813049
:1032600019F40E94170A16CCB7E0CB16D104E1047A
:10327000F104D0F024E238E047E050E060E070E094
:103280008BE894E00E943104813009F0BBC4B7019F
:10329000A60147505109610971098BE298E00E942B
:1032A00063030E949F09C2CDE5E0CE16D104E1047C
:1032B000F10479F524E238E045E050E060E070E0A8
:1032C00083E994E00E9431048130C1F50E949500A9
:1032D000E1CB24E238E049E050E060E070E089E9C9
:1032E00094E00E943104813009F03EC061E090E03A
:1032F00080E00E94A12162E090E080E00E94A12194
:1033000063E090E080E00E94A12164E090E080E032
:10331000D7CEF6E0CF16D104E104F104F1F424E2B3
:1033200038E046E050E060E070E083EA94E00E941C
:1033300031048130C9F40E940D01ACCB24E238E0A5
:1033400045E050E060E070E087EB94E00E943104DB
:10335000813051F40C9400009DCB85E0C816D10457
:10336000E104F10408F444C024E238E045E050E010
:1033700060E070E08DEB94E00E943104813011F543
:10338000B701A601455051096109710989E298E028
:103390000E94630369837A838B839C8389819A81EA
:1033A000AB81BC81892B8A2B8B2B51F081E00E9451
:1033B000D60969817A818B819C810E949F096ACBA1
:1033C00080E0F5CF97E0C916D104E104F10409F0DB
:1033D000F0C324E238E047E050E060E070E083ECC6
:1033E00094E00E943104813011F50E940B0A52CB07
:1033F000A4E0CA16D104E104F10409F0E1C324E217
:1034000038E044E050E060E070E08BEC94E00E9433
:103410003104813009F425CF27E030E040E050E06E
:103420006EE273E08CE297E00E94320325CE24E244
:1034300038E047E050E060E070E080ED94E00E940A
:103440003104813019F40E94230A24CB24E238E0AD
:1034500047E050E060E070E088ED94E00E943104C5
:103460008130D1F60E942F0A15CBEBE0CE16D104A5
:10347000E104F10479F424E238E04BE050E060E04C
:1034800070E089EE94E00E943104813029F60E94B8
:103490005E0A00CBFCE0CF16D104E104F10409F090
:1034A00058C024E238E04CE050E060E070E082E098
:1034B00095E00E943104813089F447E050E060E0FB
:1034C00070E08FE298E00E946303609308097093B4
:1034D000090980930A0990930B09DCCA24E238E0B9
:1034E0004CE050E060E070E08FE095E00E94310435
:1034F000813089F447E050E060E070E08FE298E0CE
:103500000E94630360930C0970930D0980930E0968
:1035100090930F09BFCA24E238E04CE050E060E02D
:1035200070E08CE195E00E943104813009F01FC207
:1035300047E050E060E070E08FE298E00E946303B3
:1035400060931009709311098093120990931309E5
:10355000A1CA8AE0C816D104E104F10409F058C0F8
:1035600024E238E04AE050E060E070E089E295E073
:103570000E943104813009F04FCF2BE030E040E071
:1035800050E06CE073E08CE297E00E9432036AE363
:103590008CE297E00E94F9024091040950910509DC
:1035A00060910609709107098CE297E00E94B303CD
:1035B0006AE38CE297E00E94F90240910809509179
:1035C000090960910A0970910B098CE297E00E9449
:1035D000B3036AE38CE297E00E94F90240910C0980
:1035E00050910D0960910E0970910F098CE297E0DE
:1035F0000E94B3036AE38CE297E00E94F9024091D3
:103600001009509111096091120970911309F6CABD
:103610009EE0C916D104E104F10409F075C024E26A
:1036200038E04EE050E060E070E084E395E00E9416
:103630003104813089F449E050E060E070E08FE2CD
:1036400098E00E94630360931409709315098093B6
:103650001609909317091ECA24E238E04EE050E0A4
:1036600060E070E083E495E00E943104813089F4E9
:1036700049E050E060E070E08FE298E00E94630370
:10368000609318097093190980931A0990931B0984
:1036900001CA24E238E04EE050E060E070E082E5EC
:1036A00095E00E943104813089F449E050E060E007
:1036B00070E08FE298E00E94630360931C097093AE
:1036C0001D0980931E0990931F09E4C924E238E084
:1036D0004EE050E060E070E081E695E00E94310449
:1036E000813009F0ECC049E050E060E070E08FE22A
:1036F00098E00E94630360932009709321098093EE
:10370000220990932309C6C9ADE0CA16D104E10489
:10371000F10409F058C024E238E04DE050E060E0E8
:1037200070E080E795E00E943104813009F074CEAA
:103730002DE030E040E050E06EEF72E08CE297E088
:103740000E9432036AE38CE297E00E94F902409102
:1037500014095091150960911609709117098CE2AE
:1037600097E00E94B3036AE38CE297E00E94F902BB
:10377000409118095091190960911A0970911B091B
:103780008CE297E00E94B3036AE38CE297E00E9428
:10379000F90240911C0950911D0960911E09709118
:1037A0001F098CE297E00E94B3036AE38CE297E082
:1037B0000E94F9024091200950912109609122094B
:1037C000709123091BCABFE0CB16D104E104F104B8
:1037D00009F03EC124E238E04FE050E060E070E0E4
:1037E0008EE795E00E943104813089F44AE050E090
:1037F00060E070E08FE298E00E9463036093240928
:1038000070932509809326099093270943C924E2E0
:1038100038E04FE050E060E070E08EE895E00E9414
:103820003104813089F44AE050E060E070E08FE2DA
:1038300098E00E946303609328097093290980939C
:103840002A0990932B0926C924E238E04FE050E082
:1038500060E070E08EE995E00E943104813089F4E7
:103860004AE050E060E070E08FE298E00E9463037D
:1038700060932C0970932D0980932E0990932F0942
:1038800009C924E238E04FE050E060E070E08EEAE1
:1038900095E00E943104813009F025C14AE050E0F2
:1038A00060E070E08FE298E00E946303609330096B
:1038B000709331098093320990933309EBC824E265
:1038C00038E04EE050E060E070E08EEB95E00E9462
:1038D0003104813009F068C02EE030E040E050E073
:1038E0006FEE72E08CE297E00E9432036AE38CE2B2
:1038F00097E00E94F90240912409509125096091B6
:103900002609709127098CE297E00E94B3036AE3CD
:103910008CE297E00E94F902409128095091290910
:1039200060912A0970912B098CE297E00E94B30301
:103930006AE38CE297E00E94F90240912C095091D1
:103940002D0960912E0970912F098CE297E00E9459
:10395000B3036AE38CE297E00E94F90240913009D8
:1039600050913109609132097091330947C924E2BD
:1039700038E04CE050E060E070E08DEC95E00E94B3
:103980003104813079F547E050E060E070E08FE28B
:1039900098E00E9463036093340970933509809323
:1039A00036099093370976C824E238E04EE050E0BB
:1039B00060E070E08AED95E00E943104813009F00A
:1039C0002BCD49E050E060E070E08FE298E00E948B
:1039D0006303609338097093390980933A0990938F
:1039E0003B0958C824E238E04CE050E060E070E069
:1039F00089EE95E00E943104813009F093C02CE0FB
:103A000030E040E050E062EE72E08CE297E00E942D
:103A100032036AE38CE297E00E94F9024091340994
:103A20005091350960913609709137098CE297E021
:103A30000E94B3036AE38CE297E00E94F90240918E
:103A400038095091390960913A0970913B09D6C8FB
:103A5000E0E1CE16D104E104F104F9F424E238E007
:103A600040E150E060E070E086EF95E00E943104B4
:103A7000813009F0D1CC4BE050E060E070E08FE2A3
:103A800098E00E94630360933C0970933D09809322
:103A90003E0990933F090C944A15F3E1CF16D104E7
:103AA000E104F10409F0B8CC24E238E043E150E04D
:103AB00060E070E087E096E00E943104813009F018
:103AC000ABCC4EE050E060E070E08FE298E00E9406
:103AD000630360934409709345098093460990936A
:103AE00047090C944A1524E238E04FE050E060E0CA
:103AF00070E08BE196E00E943104813009F08CCCBB
:103B00004AE050E060E070E08FE298E00E946303DA
:103B1000609340097093410980934209909343094F
:103B20000C944A1524E238E04CE050E060E070E08C
:103B30008BE296E00E943104813009F06DCC20E1E7
:103B400030E040E050E061ED72E08CE297E00E94EE
:103B500032036AE38CE297E00E94F90240913C094B
:103B600050913D0960913E0970913F098CE297E0C8
:103B70000E94B3036AE38CE297E00E94F90240914D
:103B800044095091450960914609709147098CE2BA
:103B900097E00E94B3036AE38CE297E00E94F90287
:103BA0004091400950914109609142097091430947
:103BB00025C884E0C816D104E104F10409F41FCC3F
:103BC000B8E0CB16D104E104F10408F463CC24E29C
:103BD00038E048E050E060E070E080EE94E00E9461
:103BE0003104813009F041CCB701A6014850510998
:103BF000610971098CE298E00E9463030E943B0A0C
:103C00000C944A1599E0C916D104E104F10409F4B1
:103C100060CBACE0CA16D104E104F10409F0A4CBF6
:103C200024E238E04CE050E060E070E08AEA94E0A2
:103C30000E943104813009F097CB10925306109204
:103C4000520680E00E946A0A0C944A151F921FB621
:103C50001F9211240F931F932F933F934F935F93C2
:103C60006F937F938F939F93AF93BF9380917708C8
:103C700090917808A0917908B0917A080091730822
:103C8000109174082091750830917608B901A80147
:103C90004E5E5F4F6F4F7F4F4D3751056105710588
:103CA000C0F58A5F9E4FAF4FBF4F00916F081091D4
:103CB000700820917108309172080F5F1F4F2F4FCD
:103CC0003F4F00936F081093700820937108309352
:103CD00072088093770890937808A0937908B0933E
:103CE0007A08409373085093740860937508709332
:103CF0007608BF91AF919F918F917F916F915F9166
:103D00004F913F912F911F910F911F901FBE1F90B8
:103D10001895B901A8014B56510961097109895FCC
:103D20009E4FAF4FBF4FC1CFCF93DF9300D00F92C5
:103D3000CDB7DEB72FB7F89480916F0890917008D7
:103D4000A0917108B091720846B550E070E060E053
:103D5000A89B08C04F3F51056105710519F00196F8
:103D6000A11DB11D2FBFBA2FA92F982F8827840F0F
:103D7000951FA61FB71F9C01AD0162E0220F331FE4
:103D8000441F551F6A95D1F7CA01B9010F900F90D2
:103D90000F900F90DF91CF910895CF92DF92EF9225
:103DA000FF92CF93DF9300D000D0CDB7DEB76B0189
:103DB0007C010E94941E6D837E83C114D104E104B2
:103DC000F10469F426960FB6F894DEBF0FBECDBF9E
:103DD000DF91CF91FF90EF90DF90CF9008950E94F8
:103DE000941E69837A838B839C8389819A812D8138
:103DF0003E81821B930B883E9340F8F28D819E8119
:103E000088519C4F9E838D8391E0C91AD108E108A7
:103E1000F108D3CF15BC16BC14BC81E085BB8093E0
:103E20006E0083E085BD08952F932FB72F932BB796
:103E30002F933F934F935F938F939F93AF93BF9332
:103E4000CF93DF93EF93FF93CCE7D0E02881ABE7EC
:103E5000B0E09C91822F8770392F3870832B815F5F
:103E60008F704091780050917900E82FF0E0EE0FCC
:103E7000FF1FE558F74F518340838E5F382F37700F
:103E8000207E232B2883977F8870982B9C93FF910B
:103E9000EF91DF91CF91BF91AF919F918F915F9102
:103EA0004F913F912F912BBF2F912FBF2F9118959D
:103EB000CF93CFB7F89440E250E06FEF70E08BE71C
:103EC00098E00E949026E4E6F0E080818E7F808377
:103ED00080E480937C0010927B00EAE7F0E08FEBB7
:103EE0008083CFBF808180648083CF91089580B12B
:103EF000EBE9F8E08695869591E0892781708783C4
:103F00001086ABE7B8E02D913C911197328721875D
:103F100012962D913C9113973487238780B1829517
:103F200086958695837089278170848B158A14966F
:103F30002D913C911597378B268B16962D913C91A0
:103F40001797318F208F86B1829586958770892744
:103F5000817081A312A218962D913C91199734A3D8
:103F600023A31A962D913C911B9736A325A386B1C6
:103F700086958927817086A717A61C968D919C919E
:103F80001D9791AB80AB1E968D919C9193AB82ABAC
:103F900008951F93CF93DF9392B188B17091B508C4
:103FA000A091B608B091B7086091A808E091A9085F
:103FB000F091AA0830919B0840919C0850919D086F
:103FC0001091C208C091C308D091C40820E02230EB
:103FD00019F1233061F12130A1F0313071F4916099
:103FE0004115510561F49D7F2F5F243081F792B90F
:103FF00088B9DF91CF911F9108959E7FF1CF926094
:10400000F3CF613029F49061309721F49F7DECCF9C
:104010009F7EFACF9062E8CF713029F480681097C4
:1040200021F48F7BE1CF8F77FACF8064DDCF113021
:1040300029F48860209721F48B7FD6CF877FFACF31
:104040008460D2CF9C0192B188B12230310581F1D8
:104050003CF42115310541F021303105C1F00895BE
:1040600023303105B1F1089520919B08213059F496
:10407000916020919C0830919D08232B31F49D7F05
:1040800092B988B908959E7FF4CF9260F9CF2091BC
:10409000A808213049F490612091A9083091AA081C
:1040A000232B21F49F7DECCF9F7EF6CF9062E8CF4B
:1040B0002091B508213049F480682091B6083091EC
:1040C000B708232B21F48F7BDBCF8F77F6CF80646B
:1040D000D7CF2091C208213049F488602091C308CD
:1040E0003091C408232B21F48B7FCACF877FF6CF72
:1040F0008460C6CF2FB7F89483E381B982E282B996
:104100008CEC87B980E488B98FEF80930A01109214
:104110000B0180E88AB91BB8EBE9F8E0108281E076
:1041200090E0928381831482138216821582158611
:1041300097878687118A108A138A128A128E948F23
:10414000838F168E158E10A2178E17A211A610A699
:1041500013A612A615A614A62FBF62E070E080E099
:1041600090E00E94CD1E0C94771F0F920FB60F9215
:104170001F9211241F931BB71F932F933F934F93AD
:104180005F936F937F938F939F93AF93BF93CF93DF
:10419000DF93EF93FF936091DF087091E008611562
:1041A00088E07807D1F16F5F7F4F7093E0086093EC
:1041B000DF08E1EEF8E0A1EFB8E080E02191319175
:1041C0002F5F3F4F3370EF012297398328834D9142
:1041D0005D9190910B012417350708F47AC0811185
:1041E00062C09F7790930B018F5F873039F7FF9103
:1041F000EF91DF91CF91BF91AF919F918F917F917F
:104200006F915F914F913F912F911F911BBF1F9114
:104210001F900F900FBE0F901895AFECB8E0E1EF34
:10422000F8E040E05DE011E08D919D9140FD38C0E7
:1042300020813181ED01229788819981821793072E
:1042400010F5E901C81BD90B2D9710F0C9010C9787
:1042500091838083842F869590E0EC01CC0FDD1F45
:10426000CF50D74F28813981589FE001599FD00DF9
:104270001124C556D74F232B89F018834F5F3296F0
:10428000473091F690CF2817390720F7EC01C21B71
:10429000D30B2D97E8F2C9010C96DACF1882EECF36
:1042A00091838083EBCF813011F49F7B9BCF823051
:1042B00011F49F7D97CF833011F49F7E93CF84308C
:1042C00011F4977F8FCF853011F49B7F8BCF9D7F2B
:1042D00089CF811102C0906885CF813011F490643C
:1042E00081CF823011F490627DCF833011F49061E0
:1042F00079CF843011F4986075CF853011F49460D3
:1043000071CF92606FCF9FB7F89480E1E1EEF8E053
:10431000DF01282F1D922A95E9F7EFECF8E0DF0185
:104320001D928A95E9F71092B20082E08093B00066
:104330008093B3008093700086E08093B1009FBFAC
:104340000895CF93DF9300D00F92CDB7DEB76330DF
:1043500009F484C060F4613099F1623009F457C007
:104360000F900F900F900F90DF91CF9108956430D0
:10437000B9F7B0E0A0E089839A83AB83BC83BC012A
:10438000CD010E9495252DE531E44CE450E469838C
:104390007A838B839C8369817A818B819C810E9443
:1043A000F42469837A838B839C8369817A818B81EE
:1043B0009C810E9466257093DC086093DB08D0CF57
:1043C000B0E0A0E089839A83AB83BC83BC01CD01BC
:1043D0000E94952527E633EF4AE350E469837A8308
:1043E0008B839C8369817A818B819C810E94F424D8
:1043F00069837A838B839C8369817A818B819C8199
:104400000E9466257093D0086093CF08A9CFB0E0D2
:10441000A0E089839A83AB83BC83BC01CD010E9459
:10442000952526E93FEE48E450E469837A838B833F
:104430009C8369817A818B819C810E94F4246983A9
:104440007A838B839C8369817A818B819C810E9492
:1044500066257093D4086093D30882CFB0E0A0E0C3
:1044600089839A83AB83BC83BC01CD010E949525CF
:104470002DE832ED48E450E469837A838B839C8392
:1044800069817A818B819C810E94F42469837A837B
:104490008B839C8369817A818B819C810E946625B4
:1044A0007093D8086093D7085BCFCF93DF9300D089
:1044B0000F920F92CDB7DEB76D839C0150E040E0C4
:1044C00029833A834B835C83CA01B9010E949525F5
:1044D00028E93EED4AE75FE369837A838B839C8317
:1044E00069817A818B819C810E94F42469837A831B
:1044F0008B839C8369817A818B819C810E94662554
:104500003D813330F9F060F4313091F03230A9F070
:104510000F900F900F900F900F90DF91CF91089513
:104520004D814430A9F77093DE086093DD08F0CF29
:104530007093D2086093D108EBCF7093D608609344
:10454000D508E6CF7093DA086093D908E1CF1092CE
:104550000109E1E0F9E080E09191892799E0E834F0
:10456000F907D1F78093010947E450E070E060E07B
:1045700081E099E00C94A72687E4E4E5F3E0A1E06C
:10458000B9E001900D928A95E1F70C94A72247E4D7
:1045900050E070E060E081E099E00E949726E1E061
:1045A000F9E080E09191282F892739E0E834F3077A
:1045B000C9F7921307C080910209909103098535CC
:1045C0009A4A11F00C94BC22089500D00F92CDB7F6
:1045D000DEB7F89481E090E0909353068093520602
:1045E00083E381B982E282B98CEC87B980E488B92F
:1045F0008FEF80930A0180930B0180E88AB91BB882
:10460000279A2F980E940A1F0E94C7220E94C9045D
:104610000E946B050E94090678940E94581F0E9410
:104620007A200E94832110923906109238060E9447
:104630007E0A0E9461140E94A7060E94771F0E94B2
:10464000C91F0E94941E6B017C0180914E069091BF
:104650004F06A0915006B091510646015701881AA5
:10466000990AAA0ABB0A8C159D05AE05BF0528F05C
:1046700021E0821A9108A108B108209138063091F2
:1046800039062115310509F47DC0C9018D7F0197D7
:1046900009F078C080914C0690914D0640914206F9
:1046A000509143064817590709F48EC0213031054F
:1046B00009F08AC04091440950914509609146092A
:1046C0007091470984169506A606B70608F45AC0E5
:1046D000892BF9F481E00E94D60960E080911409E9
:1046E000909115090E94552261E0809118099091DE
:1046F00019090E94552262E080911C0990911D09C0
:104700000E94552263E080912009909121090E9426
:10471000552220914C0630914D0640913809509118
:10472000390960913A0970913B0980914206909154
:104730004306B0E0A0E04A015B01820E931EA11C7B
:10474000B11C89829A82AB82BC8288159905AA0520
:10475000BB0520F489839A83AB83BC83A980BA808C
:10476000B0924D06A0924C0669817A818B819C8122
:104770000E949F09C0924E06D0924F06E0925006CA
:10478000F09251068091520690915306892B09F4BC
:104790004ECFAAE3B6E0EBE9F8E08D919D91892B2D
:1047A00009F4DCC018968D919C911997892B09F416
:1047B000D5C087819085892B09F0D0C00E94090956
:1047C00080E00E94D6092FCFA0914406B091450603
:1047D000E0914606F09147066091480670914906BF
:1047E00040914A0650914B06CD018E2B9F2B862B74
:1047F000972B842B952B892BD1F580914009909193
:104800004109A0914209B091430988169906AA0668
:10481000BB0608F4B7CF0AE316E0BB24B394F80153
:10482000228533850E5F1F4F8091340990913509A1
:10483000A0913609B09137094081518170E060E064
:10484000820F931FA11DB11D481759076A077B07E7
:1048500008F4CA01F801918780876B2D0E94A1217D
:104860000E94F207B394F5E0BF12D9CF83CF8091B5
:104870003A0690913B06A817B907A9F480913C0627
:1048800090913D06E817F90771F480913E069091EA
:104890003F066817790739F48091400690914106E8
:1048A00048175907D1F180913C0990913D09A09199
:1048B0003E09B0913F0988169906AA06BB0608F47E
:1048C00061CF0AE316E0BB24B394F8012285338557
:1048D0000E5F1F4F8091340990913509A0913609E0
:1048E000B09137094081518170E060E0820F931FE1
:1048F000A11DB11D481759076A077B0708F4CA01B3
:10490000F801918780876B2D0E94A1210E94F207F8
:10491000B394F5E0BF12D9CF2DCF10923906109283
:10492000380623303105B9F461E090E080E00E9460
:10493000A12162E090E080E00E94A12163E090E08C
:1049400080E00E94A12164E090E080E00E94A1212B
:104950000E94D90817CF0E94F10814CF3D968FEC22
:10496000882E88E0982E8E169F0609F016CF5FCE0F
:10497000A1E21A2EAA1BBB1BFD010DC0AA1FBB1F63
:10498000EE1FFF1FA217B307E407F50720F0A21BD5
:10499000B30BE40BF50B661F771F881F991F1A9442
:1049A00069F760957095809590959B01AC01BD016C
:1049B000CF0108950E94E524A59F900DB49F900D0E
:1049C000A49F800D911D11240895A29FB001B39F53
:1049D000C001A39F700D811D1124911DB29F700D08
:1049E000811D1124911D08950E9408250C94E9252C
:1049F0000E94E22558F00E94DB2540F029F45F3F39
:104A000029F00C94D22551110C941D260C94D82514
:104A10000E94FA2568F39923B1F3552391F3951B6E
:104A2000550BBB27AA2762177307840738F09F5FCF
:104A30005F4F220F331F441FAA1FA9F335D00E2E3C
:104A40003AF0E0E832D091505040E695001CCAF7A9
:104A50002BD0FE2F29D0660F771F881FBB1F26176C
:104A600037074807AB07B0E809F0BB0B802DBF0143
:104A7000FF2793585F4F3AF09E3F510578F00C9412
:104A8000D2250C941D265F3FE4F3983ED4F386951F
:104A900077956795B795F7959F5FC9F7880F911D33
:104AA0009695879597F90895E1E0660F771F881F1F
:104AB000BB1F621773078407BA0720F0621B730BD2
:104AC000840BBA0BEE1F88F7E09508950E9402262A
:104AD00088F09F5798F0B92F9927B751B0F0E1F0BF
:104AE000660F771F881F991F1AF0BA95C9F714C06F
:104AF000B13091F00E941C26B1E008950C941C2660
:104B0000672F782F8827B85F39F0B93FCCF38695A7
:104B100077956795B395D9F73EF490958095709504
:104B200061957F4F8F4F9F4F0895E89409C097FB81
:104B30003EF490958095709561957F4F8F4F9F4F74
:104B40009923A9F0F92F96E9BB279395F6958795B8
:104B500077956795B795F111F8CFFAF4BB0F11F47B
:104B600060FF1BC06F5F7F4F8F4F9F4F16C0882322
:104B700011F096E911C0772321F09EE8872F762F58
:104B800005C0662371F096E8862F70E060E02AF099
:104B90009A95660F771F881FDAF7880F9695879585
:104BA00097F9089597F99F6780E870E060E00895AD
:104BB0009FEF80EC089500240A9416161706180635
:104BC0000906089500240A94121613061406050611
:104BD0000895092E0394000C11F4882352F0BB0FA2
:104BE00040F4BF2B11F460FF04C06F5F7F4F8F4F05
:104BF0009F4F089557FD9058440F551F59F05F3F40
:104C000071F04795880F97FB991F61F09F3F79F0EE
:104C100087950895121613061406551FF2CF469570
:104C2000F1DF08C0161617061806991FF1CF8695F2
:104C30007105610508940895E894BB2766277727D6
:104C4000CB0197F908950E9436260C94E9250E941D
:104C5000DB2538F00E94E22520F0952311F00C941A
:104C6000D2250C94D82511240C941D260E94FA25D7
:104C700070F3959FC1F3950F50E0551F629FF001AF
:104C8000729FBB27F00DB11D639FAA27F00DB11DC8
:104C9000AA1F649F6627B00DA11D661F829F222751
:104CA000B00DA11D621F739FB00DA11D621F839FD8
:104CB000A00D611D221F749F3327A00D611D231FAE
:104CC000849F600D211D822F762F6A2F11249F57FC
:104CD00050409AF0F1F088234AF0EE0FFF1FBB1FFF
:104CE000661F771F881F91505040A9F79E3F5105BE
:104CF00080F00C94D2250C941D265F3FE4F3983E7F
:104D0000D4F3869577956795B795F795E7959F5F67
:104D1000C1F7FE2B880F911D9695879597F90895F9
:104D2000DC0101C06D9341505040E0F70895DC0173
:104D3000CB01FC01F999FECF06C0F2BDE1BDF89AA6
:104D4000319600B40D9241505040B8F70895DC01FF
:104D5000CB0103C02D910E94B22641505040D0F7A4
:104D60000895262FF999FECF1FBA92BD81BD20BDAF
:104D70000FB6F894FA9AF99A0FBE01960895F8942E
:024D8000FFCF63
:104D8200242424656E61626C6570726F746563744D
:104D9200696F6E0A0024242464697361626C657011
:104DA200726F74656374696F6E0A002424246164EF
:104DB2006363616C73746F72650A002424246164F6
:104DC2006363616C683A0024242461646363616CE8
:104DD200300A00242424676574616463300A002465
:104DE2002424676574610A0024242467657473654A
:104DF20074610A00242424736574613A0024242413
:104E02007665720A0024242469640A002424246F2B
:104E120066660A00242424696E73756C6661696C87
:104E220065643A002424246265616D6F6E0A002471
:104E32002424696E73756C6F6B0A00646973616216
:104E42006C65640A0024242466696C736574613A93
:104E52000024242472616D706475726174696F6ECE
:104E6200730024242472616D70737465707300245E
:104E72002424696E73756C6375726C696D002424E9
:104E8200246265616D6375726C696D0024242476F9
:104E9200746172676574730024242470737573746B
:104EA20061746500242424610024242476002424CF
:104EB200246572720A00242424656C656374726F1F
:104EC2006E6374726C5F32303232313132395F303C
:104ED20030320A000055AAD0070000E4070000BCE7
:104EE2000700000000000084030000840300008427
:104EF2000300000A0000000A0000000A0000000A85
:104F02000000000A0000000500000005000000A0EB
:104F1200BB0D008096980090D00300696400707306
:104F220075676574763100707375676574763200E3
:104F32007073756765747633007073756765747620
:104F420034007073756765746131007073756765DD
:104F520074613200707375676574613300707375C4
:104F6200676574613400707375706F6C31700070B6
:104F72007375706F6C316E00707375706F6C327018
:104F820000707375706F6C326E00707375706F6C39
:104F9200337000707375706F6C336E007073757060
:104FA2006F6C347000707375706F6C346E0066696C
:104FB2006C6F6E0066696C6F6666007073756D6FFC
:104FC2006465007073757365747631007073757300
:104FD200657476320070737573657476330070731E
:104FE200757365747634007073757365746131001E
:104FF2007073757365746132007073757365746173
:105002003300707375736574613400736574666917
:105012006C6100696E73756C006265616D68766FB4
:105022006666006265616D6F6E006E6F70726F749E
:10503200656374696F6E007265736574007365747D
:10504200613A006765747365746100676574610035
:10505200676574616463300061646363616C30002E
:1050620061646363616C683A0061646363616C7379
:10507200746F7265007365747674617267657476B5
:105082006B0073657476746172676574767700730A
:10509200657476746172676574766600736574769A
:1050A20074617267657476610067657476746172A3
:1050B200676574007365746265616D6375726C69AE
:1050C2006D6B007365746265616D6375726C696D99
:1050D20077007365746265616D6375726C696D6684
:1050E200007365746265616D6375726C696D6100F0
:1050F2006765746265616D6375726C696D00736575
:1051020074696E73756C6375726C696D6B0073652F
:1051120074696E73756C6375726C696D7700736513
:1051220074696E73756C6375726C696D6600736514
:1051320074696E73756C6375726C696D6100676515
:1051420074696E73756C6375726C696D00736574E6
:105152007374657073697A657600736574737465C8
:105162007073697A65696C610067657473746570E0
:1051720073697A6573007365746475726174696FBB
:105182006E737465707600736574647572617469A8
:105192006F6E7374657066696C61007365746475B3
:1051A200726174696F6E696E6974006765746475A3
:0851B200726174696F6E7300F5
:00000001FF
