:100000000C9472000C9493000C9493000C94930045
:100010000C9493000C9493000C9493000C94930014
:100020000C9493000C9493000C9493000C94930004
:100030000C9493000C945A240C9493000C94930009
:100040000C9493000C9493000C9493000C949300E4
:100050000C9493000C9493000C9493000C94CB217B
:100060000C9493000C94B6070C94E8070C9493003E
:100070000C9493000C94B9220C9493000C9493006C
:100080000C9493000C9493000C9493000C949300A4
:100090000C9458080C948A080C9493000C949300C8
:1000A0000C9493000C9493000C9493000C94930084
:1000B0000C9493000C9493000C9493000C94930074
:1000C0000C9493000C9493000C9493000C940009EE
:1000D0000C9432090C9493000C9493000C949300AC
:1000E0000C94930011241FBECFEFD1E2DEBFCDBF31
:1000F00000E00CBF16E0A0E0B2E0EEE2F6E500E0C2
:100100000BBF02C007900D92AC3CB107D9F72AE0B3
:10011000ACECB6E001C01D92AC34B207E1F70E942E
:10012000CE260C94152B0C940000CF93C1E06C2FBD
:1001300090E080E00E944625CF5FC530C1F761E0C6
:100140008091BC099091BD090E94222662E08091B5
:10015000B8099091B9090E94222663E08091C009F4
:100160009091C1090E94222664E08091C409909177
:10017000C5090E94222680E00E94A70C60E070E082
:10018000CB010E94700C83E090E09093CD068093A9
:10019000CC0680919C0990919D099093D106809303
:1001A000D00680919809909199099093CF068093F9
:1001B000CE068091A0099091A1099093D3068093D7
:1001C000D2068091A4099091A5099093D5068093B9
:1001D000D4061092D7061092D6061092D906109225
:1001E000D8061092DB061092DA061092DD06109205
:1001F000DC061092DF061092DE061092E1061092E5
:10020000E0060E9439226093E2067093E306809331
:10021000E4069093E506CF9108951F93CF93DF9363
:100220000E94C50C162FD72FC1E06C2F90E080E004
:100230000E944625CF5FC530C1F761E08091AC09CF
:100240009091AD090E94222662E08091A8099091C8
:10025000A9090E94222663E08091B0099091B1091A
:100260000E94222664E08091B4099091B5090E9411
:10027000222680E00E94A70C81E090E09093CD06BA
:100280008093CC0680919C0990919D099093D10612
:100290008093D00680919809909199099093CF0608
:1002A0008093CE068091A0099091A1099093D306E6
:1002B0008093D2068091A4099091A5099093D506C8
:1002C0008093D406812F9D2F9093D7068093D606D6
:1002D0001092D9061092D8061092DB061092DA0618
:1002E0001092DD061092DC061092DF061092DE06F8
:1002F0001092E1061092E0060E9439226093E20615
:100300007093E3068093E4069093E50660E070E066
:10031000CB01DF91CF911F910C94700C0F931F9321
:10032000CF93DF9300D000D0CDB7DEB76150770B0D
:10033000660F771F2EE0269FA001279F500D1124E6
:100340008A010B56164F4452564F5E834D839C01D3
:1003500050E040E029833A834B835C83CA01B901B2
:100360000E94EB29ED81FE81208131814281538100
:1003700069837A838B839C8369817A818B819C8159
:100380000E94792AF801E55BFF4F2081318142818B
:10039000538169837A838B839C8369817A818B8182
:1003A0009C810E94DE2869837A838B839C83698188
:1003B0007A818B819C810E94BC29CB0126960FB645
:1003C000F894DEBF0FBECDBFDF91CF911F910F918B
:1003D00008950F931F93CF93DF9300D000D0CDB734
:1003E000DEB76150770B660F771F6F5F7F4F2EE090
:1003F000269FA001279F500D11248A010B56164FEE
:100400004452564F5E834D839C0150E040E0298367
:100410003A834B835C83CA01B9010E94EB29ED81C9
:10042000FE81208131814281538169837A838B836C
:100430009C8369817A818B819C810E94792AF80151
:10044000E55BFF4F208131814281538169837A834B
:100450008B839C8369817A818B819C810E94DE28B9
:1004600069837A838B839C8369817A818B819C8168
:100470000E94BC29CB0126960FB6F894DEBF0FBEB2
:10048000CDBFDF91CF911F910F910895FC018FB7E0
:10049000F8941082118212821382148215821682BD
:1004A00017828FBF08950F931F93FC018FB7F894A5
:1004B0000081118122813381448155816681778158
:1004C0008FBF81E0041715072607370709F480E07E
:1004D0001F910F910895EF92FF920F931F93CF9367
:1004E000DF9300D00F92CDB7DEB7FC012FB7F894A1
:1004F000408151816281738184819581A681B78118
:10050000481759076A077B0710F1408151816281C2
:10051000738184819581A681B7817A018B01E81A64
:10052000F90A0A0B1B0BE982FA820B831C832FBF8B
:1005300069817A818B819C810F900F900F900F9031
:10054000DF91CF911F910F91FF90EF9008958081DF
:100550009181A281B3814481558166817781805CDC
:100560009F4FAF4FBF4F7C018D01E41AF50A060B78
:10057000170BD9CFFC012FB7F894408151816281CC
:10058000738184819581A681B781481759076A07CD
:100590007B07D9F084819581A681B7818E0F9F1F3B
:1005A000DC0118968C9144815581668177814F5F7B
:1005B0005F4F6F4F7F4F4F735527662777274483D1
:1005C0005583668377832FBF089580E008950F9346
:1005D0001F93FC019FB7F894008111812281338120
:1005E000448155816681778180E0041715072607CD
:1005F000370739F04481558166817781E40FF51F13
:1006000080859FBF1F910F910895CF92DF92EF9247
:10061000FF921F93CF93DF9300D000D0CDB7DEB70A
:100620008D839E836A017B011FB7F894AD81BE81E3
:100630004D915D916D917C91139714968D919D9143
:100640000D90BC91A02D481759076A077B0781F4CC
:1006500080E01FBF26960FB6F894DEBF0FBECDBF59
:10066000DF91CF911F91FF90EF90DF90CF90089591
:100670008D819E810E946B0269837A838B839C8328
:10068000C616D706E806F90618F7ED81FE818481C3
:100690009581A681B7818C0D9D1DAE1DBF1D8F73E9
:1006A0009927AA27BB27E80FF91F8085D2CF0F9380
:1006B0001F93FC018A019B014FB7F89484819581B7
:1006C000A681B781800F911FA21FB31F8F73992737
:1006D000AA27BB2784839583A683B7834FBF1F9127
:1006E0000F910895CF92DF92EF92FF92FC012FB706
:1006F000F89480819181A281B381C480D580E68005
:10070000F7800196A11DB11D8F739927AA27BB27DA
:100710008C159D05AE05BF05C1F080819181A28138
:10072000B3818E0F9F1FDC0118966C93808191819D
:10073000A281B3810196A11DB11D8F739927AA27AC
:10074000BB2780839183A283B3832FBFFF90EF9059
:10075000DF90CF9008958F929F92AF92BF92CF92E9
:10076000DF92EF92FF920F931F93CF93DF93182F97
:10077000092F69017A01EB01812C912C54018C1411
:100780009D04AE04BF0469F4DF91CF911F910F91D6
:10079000FF90EF90DF90CF90BF90AF909F908F90A1
:1007A00008956991812F902F0E9472038FEF881A0C
:1007B000980AA80AB80AE3CF8F929F92AF92BF928D
:1007C000CF92DF92EF92FF92CF93DF9300D00F9200
:1007D0000F92CDB7DEB76A017B01FC0119821A8244
:1007E0001B821C82812C912C54018C149D04AE041C
:1007F000BF04A1F469817A818B819C810F900F9055
:100800000F900F900F90DF91CF91FF90EF90DF90BE
:10081000CF90BF90AF909F908F90089521912053DB
:100820002D832A3098F4AAE0B0E029813A814B81E7
:100830005C810E94C328DC01CB012D81820F911DB8
:10084000A11DB11D89839A83AB83BC838FEF881A66
:10085000980AA80AB80AC9CFAF92BF92CF92DF9286
:10086000EF92FF920F931F93CF93DF93CDB7DEB735
:100870002E970FB6F894DEBF0FBECDBF6091320940
:1008800070913309E0910F09F0911009409113091B
:1008900050911409209117093091180980911B0972
:1008A00090911C096115710509F5F093E509E09334
:1008B000E4095093010A4093000A30931D0A2093E3
:1008C0001C0A9093390A8093380A2E960FB6F89432
:1008D000DEBF0FBECDBFDF91CF911F910F91FF9073
:1008E000EF90DF90CF90BF90AF900895F093E7091D
:1008F000E093E6097093E9096093E8095093030ACD
:100900004093020A40913F09509140095093050AD3
:100910004093040A30931F0A20931E0A20914C0929
:1009200030914D093093210A2093200A90933B0A7D
:1009300080933A0A8091590990915A0990933D0AFF
:1009400080933C0A2CED39E03E832D83AD81BE813E
:1009500018968D919C919C0150E040E029833A8348
:100960004B835C83CA01B9010E94EB297B018C0196
:10097000AD81BE811C968D919C919C0150E040E020
:1009800029833A834B835C83CA01B9010E94EB2916
:100990005B016C01AD81BE811A968D919C919C0189
:1009A00050E040E029833A834B835C83CA01B9015C
:1009B0000E94EB299701A80169837A838B839C832A
:1009C00069817A818B819C810E94DD289B01AC0129
:1009D000A982BA82CB82DC8269817A818B819C81F7
:1009E0000E944A295B016C016983BA828B83DC8295
:1009F00069817A818B819C810E94BC2969837A8379
:100A00008B839C83A981BA81CD01B0E0A0E089836A
:100A10009A83AB83BC83BC01CD010E94EB296F8319
:100A2000788789879A87ED81FE81608371838283CD
:100A300093839501A601E982FA820B831C83698165
:100A40007A818B819C810E94792A69837A838B8346
:100A50009C8369817A818B819C810E94BC296983F6
:100A60007A838B839C8349815A819A0150E040E0CC
:100A700029833A834B835C83CA01B9010E94EB2925
:100A80006B877C878D879E87AD81BE8114966D9321
:100A90007D938D939C9317975C96BE83AD83AC54E6
:100AA000BA4009F053CF11CF8F929F92AF92BF926D
:100AB000CF92DF92EF92FF920F931F93CF93DF932A
:100AC000CDB7DEB72E970FB6F894DEBF0FBECDBF01
:100AD000F82EE92E4B875C876D877E878B859C85FA
:100AE000AD85BE85892B8A2B8B2BB9F460E38F2DC6
:100AF0009E2D2E960FB6F894DEBF0FBECDBFDF91B0
:100B0000CF911F910F91FF90EF90DF90CF90BF900A
:100B1000AF909F908F900C94720310E08AE0882E23
:100B2000912CA12CB12CDE0111966D016B857C8579
:100B30008D859E85A50194010E94A128F601E10FF3
:100B4000F11D605D60831F5F8B859C85AD85BE85D3
:100B50002B873C874D875E870A97A105B10530F743
:100B6000F601E10FF11D8F01C016D10699F42E9602
:100B70000FB6F894DEBF0FBECDBFDF91CF911F91AE
:100B80000F91FF90EF90DF90CF90BF90AF909F902C
:100B90008F900895D8016E918D018F2D9E2D0E940A
:100BA0007203E2CFCF92DF92EF92FF926A01FC01D3
:100BB000D901C80ED91E81912D91082E000C990BD8
:100BC0002817190649F4EC15FD05A9F781E0FF90F7
:100BD000EF90DF90CF90089580E0F9CFAF92BF9271
:100BE000CF92DF92EF92FF920F931F93CF93DF93F9
:100BF000CDB7DEB72E970FB6F894DEBF0FBECDBFD0
:100C000060910F09709110094091130950911409D6
:100C1000209117093091180980911B0990911C09A6
:100C2000E0913209F0913309EF2B09F57093F30944
:100C30006093F20950930F0A40930E0A30932B0AE7
:100C400020932A0A9093470A8093460A2E960FB65D
:100C5000F894DEBF0FBECDBFDF91CF911F910F91F2
:100C6000FF90EF90DF90CF90BF90AF90089570937A
:100C7000F5096093F4096091340970913509709316
:100C8000F7096093F6095093110A4093100A4091B6
:100C90004109509142095093130A4093120A30932C
:100CA0002D0A20932C0A20914E0930914F09309340
:100CB0002F0A20932E0A9093490A8093480A809124
:100CC0005B0990915C0990934B0A80934A0A2AEE43
:100CD00039E03E832D83AD81BE8118968D919C9124
:100CE0009C0150E040E029833A834B835C83CA0136
:100CF000B9010E94EB297B018C01AD81BE811C965C
:100D00008D919C919C0150E040E029833A834B8374
:100D10005C83CA01B9010E94EB295B016C01AD81C2
:100D2000BE811A968D919C919C0150E040E02983F0
:100D30003A834B835C83CA01B9010E94EB29970176
:100D4000A80169837A838B839C8369817A818B81F3
:100D50009C810E94DD289B01AC01A982BA82CB82D2
:100D6000DC8269817A818B819C810E944A295B01A6
:100D70006C016983BA828B83DC8269817A818B8181
:100D80009C810E94BC2969837A838B839C83A9817F
:100D9000BA81CD01B0E0A0E089839A83AB83BC83A4
:100DA000BC01CD010E94EB296F83788789879A87E0
:100DB000ED81FE8160837183828393839501A60117
:100DC000E982FA820B831C8369817A818B819C8101
:100DD0000E94792A69837A838B839C8369817A81D3
:100DE0008B819C810E94BC2969837A838B839C833D
:100DF00049815A819A0150E040E029833A834B832C
:100E00005C83CA01B9010E94EB296B877C878D87BF
:100E10009E87AD81BE8114966D937D938D939C9337
:100E200017975C96BE83AD83AA55BA4009F053CF9D
:100E30000DCF4F925F926F927F928F929F92AF925F
:100E4000BF92CF92DF92EF92FF920F931F93CF93B7
:100E5000DF9300D000D0CDB7DEB72C01B62E072F20
:100E600069017A011FB7F8940E946B0269837A8343
:100E70008B839C836C157D058E059F0550F06B2C34
:100E8000702E40E050E0BA01C416D506E606F7061B
:100E9000C1F41FBF26960FB6F894DEBF0FBECDBFBC
:100EA000DF91CF911F910F91FF90EF90DF90CF9046
:100EB000BF90AF909F908F907F906F905F904F907A
:100EC0000895D20114968D909D90AD90BC90179787
:100ED000C401840D951DFC01208514968D919D9172
:100EE0000D90BC91A02D0196A11DB11D8F73992766
:100EF000AA27BB27F20184839583A683B783D301F6
:100F00002D933D014F5F5F4F6F4F7F4FBDCF9FB719
:100F1000F894E0ECF0E0808180648083E1ECF0E024
:100F20008081886280839FBF0895CF93CFB7F89464
:100F300080E598E00E94460288E098E00E94460220
:100F40001092FD081092FC0887E690E09093C5008F
:100F50008093C40082E08093C00080E98093C10048
:100F600086E08093C200CFBFCF9108951F920F9269
:100F70000FB60F9211240BB60F922F933F934F93FE
:100F80005F936F937F938F939F93AF93BF93EF93F1
:100F9000FF936091C60088E098E00E94720381E0B0
:100FA00090E09093FD088093FC08FF91EF91BF9132
:100FB000AF919F918F917F916F915F914F913F91F1
:100FC0002F910F900BBE0F900FBE0F901F90189592
:100FD0001F920F920FB60F9211240BB60F922F9300
:100FE0003F934F935F936F937F938F939F93AF93B1
:100FF000BF93EF93FF9380E598E00E945302813006
:1010000021F580E598E00E94BA028093C60080E551
:1010100098E00E945302813029F08091C100877DC1
:101020008093C100FF91EF91BF91AF919F918F91FC
:101030007F916F915F914F913F912F910F900BBED8
:101040000F900FBE0F901F90189584E28093C600FA
:10105000E4CF9FB7F894E8ECF0E08081806480836F
:10106000E9ECF0E08081886280839FBF0895CF9390
:10107000CFB7F89480EC97E00E94460288E797E0AB
:101080000E9446021092FB081092FA0887E690E050
:101090009093CD008093CC0082E08093C80080E9DB
:1010A0008093C90086E08093CA00CFBFCF91089596
:1010B0001F920F920FB60F9211240BB60F922F931F
:1010C0003F934F935F936F937F938F939F93AF93D0
:1010D000BF93EF93FF936091CE0088E797E00E9463
:1010E000720381E090E09093FB088093FA08FF91EF
:1010F000EF91BF91AF919F918F917F916F915F9190
:101100004F913F912F910F900BBE0F900FBE0F90FC
:101110001F9018951F920F920FB60F9211240BB6C5
:101120000F922F933F934F935F936F937F938F9380
:101130009F93AF93BF93EF93FF9380EC97E00E9450
:101140005302813061F480EC97E00E94BA028093F0
:10115000CE0080EC97E00E945302813029F080910C
:10116000C900877D8093C900FF91EF91BF91AF9136
:101170009F918F917F916F915F914F913F912F91AF
:101180000F900BBE0F900FBE0F901F9018959FB73A
:10119000F894E0EDF0E0808180648083E1EDF0E0A0
:1011A0008081886280839FBF0895CF931092FF084B
:1011B0001092000910920109109202091092FE0883
:1011C000CFB7F89480E397E00E94460288EE96E05D
:1011D0000E9446021092F9081092F80880E493E009
:1011E0009093D5008093D40082E08093D00080E972
:1011F0008093D10086E08093D200CFBFCF91089535
:101200001F920F920FB60F9211240BB60F922F93CD
:101210003F934F935F936F937F938F939F93AF937E
:10122000BF93EF93FF936091D60088EE96E00E9403
:10123000720381E090E09093F9088093F808FF91A1
:10124000EF91BF91AF919F918F917F916F915F913E
:101250004F913F912F910F900BBE0F900FBE0F90AB
:101260001F9018951F920F920FB60F9211240BB674
:101270000F922F933F934F935F936F937F938F932F
:101280009F93AF93BF93EF93FF9380E397E00E9408
:101290005302813021F580E397E00E94BA028093E7
:1012A000D60080E397E00E945302813029F08091BC
:1012B000D100877D8093D100FF91EF91BF91AF91D5
:1012C0009F918F917F916F915F914F913F912F915E
:1012D0000F900BBE0F900FBE0F901F90189584E2D9
:1012E0008093D600E4CF8F929F92AF92BF92CF921D
:1012F000DF92EF92FF92CF93DF9300D00F92CDB7A2
:10130000DEB788EE96E00E946B02633071058105BE
:10131000910500F50F900F900F900F90DF91CF91F6
:10132000FF90EF90DF90CF90BF90AF909F908F9005
:10133000089588E098E00E946B0264307105810591
:10134000910570F041E050E060E070E088EE96E0DA
:101350000E94570388EE96E00E94E702843249F724
:1013600088EE96E00E946B0265307105810591055B
:1013700088F240E050E0BA0188EE96E00E94050352
:10138000843209F4D3C088EE96E00E946B02653087
:1013900071058105910508F0C0C088EE96E00E94B5
:1013A0006B0269837A838B839C8365307105810529
:1013B000910508F4AFCF88EE96E00E946B024B01D6
:1013C0005C0183E0C82ED12CE12CF12CC814D90487
:1013D000EA04FB0408F09ECFB701A60188EE96E070
:1013E0000E9405038A3049F0B701A60188EE96E015
:1013F0000E940503843209F0BBC0B701A60188EE44
:1014000096E00E9405038A3009F06AC043E050E08C
:1014100060E070E088EE96E00E94570346015701B5
:1014200093E0891A9108A108B108B701A6014450B8
:1014300051096109710988EE96E00E94050341E0B7
:1014400050E060E070E08D3019F040E050E0BA010B
:10145000841A950AA60AB70AA501940168E978E0FA
:1014600088EE96E00E94190764E280E598E00E9409
:10147000720364E280E598E00E94720364E280E512
:1014800098E00E947203A501940168E978E080E584
:1014900098E00E94AB036AE080E598E00E94720346
:1014A00064E280EC97E00E94720364E280EC97E0D3
:1014B0000E94720364E280EC97E00E947203A5012F
:1014C000940168E978E080EC97E00E94AB036AE061
:1014D00080EC97E00E9472030E9487070E9429080F
:1014E000B701A60188EE96E00E940503843209F058
:1014F00011CFB701A60188EE96E00F900F900F90E4
:101500000F90DF91CF91FF90EF90DF90CF90BF9041
:10151000AF909F908F900C94570341E050E060E0B3
:1015200070E088EE96E00E94570323CF41E050E040
:1015300060E070E088EE96E00E940503843209F0D6
:1015400022CF42E050E060E070E088EE96E00E943A
:101550000503843209F017CF43E050E060E070E00B
:1015600088EE96E00E940503843209F40CCF15CF73
:101570008FEFC81AD80AE80AF80A28CFCF92DF926C
:10158000EF92FF920F931F93CF93DF930FE019E039
:10159000C1E0F894F8018081918178946C2F0E94C9
:1015A0008E016C0124E030E040E050E069E273E03D
:1015B00080E598E00E94AB03D0E3DC0F6D2F80E55F
:1015C00098E00E9472036AE380E598E00E9472034B
:1015D000F12CE12CB701A60180E598E00E945405AA
:1015E0006AE080E598E00E94720324E030E040E089
:1015F00050E069E273E080EC97E00E94AB036D2F4E
:1016000080EC97E00E9472036AE380EC97E00E940E
:101610007203B701A60180EC97E00E9454056AE0CE
:1016200080EC97E00E9472030C5F1F4FCF5FC530C4
:1016300009F0AFCF0E948707DF91CF911F910F91E3
:10164000FF90EF90DF90CF900C942908CF92DF921B
:10165000EF92FF928091FE08882309F452C0C09057
:10166000FF08D0900009E0900109F09002092BE0FA
:1016700030E040E050E065EC72E080E598E00E94E8
:10168000AB03EE24FF24B701A60180E598E00E9499
:1016900054056AE380E598E00E947203B701A60151
:1016A00080E598E00E9454056AE080E598E00E9499
:1016B00072032BE030E040E050E065EC72E080EC3B
:1016C00097E00E94AB03B701A60180EC97E00E946F
:1016D00054056AE380EC97E00E947203B701A6010B
:1016E00080EC97E00E9454056AE080EC97E00E944D
:1016F00072030E948707FF90EF90DF90CF900C94C9
:1017000029082BE030E040E050E065EC72E080E535
:1017100098E00E94AB0329E030E040E050E06BEB42
:1017200072E080E598E00E94AB032BE030E040E0FF
:1017300050E065EC72E080EC97E00E94AB0329E09A
:1017400030E040E050E06BEB72E080EC97E00E940C
:10175000AB03CFCF2BE030E040E050E06FEA72E027
:1017600080E598E00E94AB030E9487072BE030E001
:1017700040E050E06FEA72E080EC97E00E94AB033B
:101780000C9429082AE030E040E050E064EA72E07E
:1017900080E598E00E94AB030E9487072AE030E0D2
:1017A00040E050E064EA72E080EC97E00E94AB0316
:1017B0000C942908CF92DF92EF92FF920F931F9320
:1017C000CF93DF932FE030E040E050E064E972E037
:1017D00080E598E00E94AB038EECE82E86E0F82EC0
:1017E000CFE2D9E08E016701F601819191916F01FD
:1017F000892B31F0F8018781908566E4892B09F007
:101800006DE280E598E00E947203035F1F4FF9E0EC
:1018100003361F0749F76AE080E598E00E947203EB
:101820000E9487072FE030E040E050E064E972E07A
:1018300080EC97E00E94AB03F701819191917F01C9
:10184000892B29F08F81988566E4892B09F06DE258
:1018500080EC97E00E9472032D96F9E0C336DF0713
:1018600059F76AE080EC97E00E947203DF91CF9114
:101870001F910F91FF90EF90DF90CF900C9429086B
:1018800027E030E040E050E06CE872E080E598E06E
:101890000E94AB030E94870727E030E040E050E061
:1018A0006CE872E080EC97E00E94AB030C9429088E
:1018B00026E030E040E050E065E872E080E397E049
:1018C0000E94AB030C94C70827E030E040E050E0F2
:1018D0006DE772E080E397E00E94AB030C94C708C9
:1018E000CF92DF92EF92FF926B017C01C092FF08D2
:1018F000D0920009E0920109F09202098091FE085D
:1019000028E030E040E050E064E772E08823A9F08E
:1019100080E397E00E94AB03B701A60180E397E064
:101920000E9454056AE080E397E00E947203FF90F2
:10193000EF90DF90CF900C94C70880E397E00E946F
:10194000AB0360E380E397E00E947203EBCFCF9399
:10195000DF9300D00F92CDB7DEB78093FE08809161
:10196000FF0890910009A0910109B09102098983B3
:101970009A83AB83BC83BC01CD010F900F900F9075
:101980000F90DF91CF910C94700CCF93DF9300D028
:101990000F92CDB7DEB78091FF0890910009A0911A
:1019A0000109B0910209BC01CD010F900F900F9079
:1019B0000F90DF91CF9108952BE030E040E050E0B0
:1019C00068E672E080E397E00E94AB030C94C708DE
:1019D00028E030E040E050E06FE572E080E397E01F
:1019E0000E94AB030C94C7082BE030E040E050E0CD
:1019F00063E572E080E397E00E94AB030C94C708B4
:101A00002BE030E040E050E067E472E080E397E0F4
:101A10000E94AB030C94C7080F931F93CF93DF93DF
:101A20008B01D82FC92F2BE030E040E050E06BE372
:101A300072E080E397E00E94AB03A8016D2F7C2F3A
:101A400080E397E00E9454056AE080E397E00E94FB
:101A50007203DF91CF911F910F910C94C7082FE073
:101A600030E040E050E06BE272E080E397E00E94FB
:101A7000AB030C94C70824E130E040E050E060E0A4
:101A800072E0811106C025E130E040E050E065E100
:101A900072E080E397E00E94AB030C94C7088F923A
:101AA0009F92AF92BF92CF92DF92EF92FF920F93ED
:101AB0001F93CF93DF9300D00F92CDB7DEB788E0AE
:101AC00098E00E946B02633071058105910510F565
:101AD0000F900F900F900F90DF91CF911F910F916A
:101AE000FF90EF90DF90CF90BF90AF909F908F903E
:101AF000089588E098E00E946B02643071058105CA
:101B0000910570F041E050E060E070E088E098E01E
:101B10000E94570388E098E00E94E702843249F768
:101B200088E098E00E946B0265307105810591059F
:101B300078F240E050E0BA0188E098E00E940503A6
:101B4000843209F4BDC088E098E00E946B026530E1
:101B500071058105910508F0AAC088E098E00E940F
:101B60006B0269837A838B839C8365307105810561
:101B7000910508F4ADCF88E098E00E946B026B01FC
:101B80007C0183E0882E912CA12CB12C8C149D0417
:101B9000AE04BF0408F09CCFB501A40188E098E032
:101BA0000E9405038A3049F0B501A40188E098E05D
:101BB0000E940503843209F0A5C0B501A40188E0A4
:101BC00098E00E9405038A3009F052C043E050E0DB
:101BD00060E070E088E098E00E94570375016401BE
:101BE00093E0C91AD108E108F108B501A4014450F5
:101BF00051096109710988E098E00E94050341E0FC
:101C000050E060E070E08D3019F040E050E0BA0143
:101C1000C41AD50AE60AF70AA701960168ED78E02A
:101C200088E098E00E941907A2E0CA16D104E104F6
:101C3000F10409F06DC028ED38E042E050E060E0CA
:101C400070E08BE094E00E94D205813009F0AFC4CF
:101C50002DE130E040E050E066E373E080E598E09D
:101C60000E94AB030E9487070E94580C0E94640CDC
:101C7000B501A40188E098E00E940503843209F0D0
:101C800027CFB501A40188E098E00F900F900F9046
:101C90000F90DF91CF911F910F91FF90EF90DF9008
:101CA000CF90BF90AF909F908F900C94570341E0DE
:101CB00050E060E070E088E098E00E94570339CF80
:101CC00041E050E060E070E088E098E00E940503A9
:101CD000843209F038CF42E050E060E070E088E004
:101CE00098E00E940503843209F02DCF43E050E0D4
:101CF00060E070E088E098E00E940503843209F417
:101D000022CF2BCF8FEF881A980AA80AB80A3ECFA5
:101D1000B8E0CB16D104E104F10409F0D7C128EDF5
:101D200038E048E050E060E070E08EE094E00E942F
:101D3000D205813049F5F89480910F0990911009EE
:101D4000789461E00E948E0189839A8324E030E0D8
:101D500040E050E069E273E080E598E00E94AB0368
:101D600061E380E598E00E9472036AE380E598E011
:101D70000E947203E981FA81AF0170E060E080E5C2
:101D800098E00E9454053EC228ED38E048E050E05B
:101D900060E070E087E194E00E94D205813019F59F
:101DA000F8948091130990911409789462E00E944C
:101DB0008E0189839A8324E030E040E050E069E2BC
:101DC00073E080E598E00E94AB0362E380E598E071
:101DD0000E9472036AE380E598E00E9472038981A1
:101DE0009A81AC01CACF28ED38E048E050E060E0CD
:101DF00070E080E294E00E94D205813019F5F894F9
:101E00008091170990911809789463E00E948E01DF
:101E100089839A8324E030E040E050E069E273E097
:101E200080E598E00E94AB0363E380E598E00E94C0
:101E300072036AE380E598E00E947203A981BA8187
:101E4000AD019BCF28ED38E048E050E060E070E065
:101E500089E294E00E94D2058130B9F4F89480912F
:101E60001B0990911C09789464E00E948E0189837B
:101E70009A8324E030E040E050E069E273E080E5DE
:101E800098E00E94AB0364E36CCF28ED38E048E0B3
:101E900050E060E070E082E394E00E94D20581307F
:101EA000B9F4F8948091110990911209789461E045
:101EB0000E94E90189839A8324E030E040E050E009
:101EC00064E273E080E598E00E94AB0361E37ECFBB
:101ED00028ED38E048E050E060E070E08BE394E00B
:101EE0000E94D2058130B9F4F8948091150990913F
:101EF0001609789462E00E94E90189839A8324E0BC
:101F000030E040E050E064E273E080E598E00E9459
:101F1000AB0362E38ACF28ED38E048E050E060E0B0
:101F200070E084E494E00E94D2058130B9F4F89422
:101F30008091190990911A09789463E00E94E9014F
:101F400089839A8324E030E040E050E064E273E06B
:101F500080E598E00E94AB0363E303CF28ED38E00F
:101F600048E050E060E070E08DE494E00E94D2052B
:101F70008130B9F4F89480911D0990911E097894EC
:101F800064E00E94E90189839A8324E030E040E024
:101F900050E064E273E080E598E00E94AB0364E304
:101FA00015CF28ED38E048E050E060E070E086E5CD
:101FB00094E00E94D205813049F4109231091092C8
:101FC00030091092CD061092CC0652CE28ED38E0A2
:101FD00048E050E060E070E08FE594E00E94D205B8
:101FE000813039F481E090E0909331098093300999
:101FF000E8CF28ED38E048E050E060E070E088E6A7
:1020000094E00E94D205813029F410923E0910928A
:102010003D09D7CF28ED38E048E050E060E070E0BF
:1020200081E794E00E94D205813039F481E090E0AC
:1020300090933E0980933D09C4CF28ED38E048E0F5
:1020400050E060E070E08AE794E00E94D2058130C1
:1020500029F410924B0910924A09B3CF28ED38E0C9
:1020600048E050E060E070E083E894E00E94D20530
:10207000813039F481E090E090934B0980934A09D4
:10208000A0CF28ED38E048E050E060E070E08CE858
:1020900094E00E94D205813029F4109258091092E0
:1020A0005709E6CD28ED38E048E050E060E070E008
:1020B00085E994E00E94D205813009F0B2C081E048
:1020C00090E09093580980935709D2CD93E0C916B8
:1020D000D104E104F10459F528ED38E043E050E083
:1020E00060E070E087EA94E00E94D205813009F058
:1020F0005EC261E090E080E00E94462562E090E0F0
:1021000080E00E94462563E090E080E00E94462542
:1021100064E090E080E00E94462580E00E94A70CE9
:102120001092CD061092CC060E94400CA1CDA5E0E5
:10213000CA16D104E104F10481F428ED38E045E049
:1021400050E060E070E08EE994E00E94D2058130BA
:1021500009F046C10E94A70C8BCDB6E0CB16D10486
:10216000E104F10489F428ED38E046E050E060E055
:1021700070E084EA94E00E94D205813009F030C119
:1021800080E00E94A70C1DCFE7E0CE16D104E10449
:10219000F10409F03FC028ED38E047E050E060E08E
:1021A00070E08BEA94E00E94D205813009F018C1FA
:1021B0002BE030E040E050E068E173E080E598E03B
:1021C0000E94AB038FE299E09A83898303E619E0CA
:1021D000A981BA818C916DE2813041F4E981FA8163
:1021E0008781908563E4892B09F066E580E598E0B6
:1021F0000E94720389819A810D969A8389830817B8
:10220000190731F76AE080E598E00E9472030E94A6
:1022100087072ECD98E0C916D104E104F10408F433
:10222000D8C028ED38E048E050E060E070E083EB93
:1022300094E00E94D205813089F4B701A60148508C
:1022400051096109710980EE98E00E94DC03262F94
:1022500061E0822F972F0E944625B3CE28ED38E00B
:1022600048E050E060E070E08CEB94E00E94D20522
:10227000813069F4B701A60148505109610971091B
:1022800080EE98E00E94DC03262F62E0E2CF28ED8A
:1022900038E048E050E060E070E085EC94E00E94B7
:1022A000D205813069F4B701A6014850510961098E
:1022B000710980EE98E00E94DC03262F63E0C9CF0D
:1022C00028ED38E048E050E060E070E08EEC94E00B
:1022D0000E94D205813089F4B701A6014850510906
:1022E0006109710980EE98E00E94DC03262F64E00A
:1022F000822F972F0E944625BBCC28ED38E048E07E
:1023000050E060E070E087ED94E00E94D2058130FB
:1023100089F4B701A601485051096109710980EE9D
:1023200098E00E94DC03262F61E0822F972F0E9405
:10233000222647CE28ED38E048E050E060E070E02B
:1023400080EE94E00E94D205813069F4B701A601C5
:10235000485051096109710980EE98E00E94DC0340
:10236000262F62E0E2CF28ED38E048E050E060E060
:1023700070E089EE94E00E94D205813069F4B701E3
:10238000A601485051096109710980EE98E00E9448
:10239000DC03262F63E0C9CF28ED38E048E050E0A9
:1023A00060E070E082EF94E00E94D2058130C1F4D9
:1023B000B701A601485051096109710980EE98E002
:1023C0000E94DC03262F64E0822F972F0E94222692
:1023D0004FCCA4E0CA16D104E104F10409F088C08E
:1023E00028ED38E044E050E060E070E086E896E0F8
:1023F0000E94D205813019F40E94E80C39CCB7E074
:10240000CB16D104E104F104D0F028ED38E047E028
:1024100050E060E070E08BEF94E00E94D2058130E4
:1024200009F057C5B701A601475051096109710963
:102430008FED98E00E94DC030E94700CC2CDE5E0B5
:10244000CE16D104E104F10479F528ED38E045E039
:1024500050E060E070E083E095E00E94D2058130BA
:10246000C1F50E94950004CC28ED38E049E050E029
:1024700060E070E089E095E00E94D205813009F0CB
:102480003EC061E090E080E00E94462562E090E07E
:1024900080E00E94462563E090E080E00E944625AF
:1024A00064E090E080E0D7CEF6E0CF16D104E104FE
:1024B000F104F1F428ED38E046E050E060E070E02F
:1024C00083E195E00E94D2058130C9F40E940D019C
:1024D000CFCB28ED38E045E050E060E070E087E2E7
:1024E00095E00E94D205813051F40C940000C0CBDD
:1024F00085E0C816D104E104F10408F444C028EDD5
:1025000038E045E050E060E070E08DE295E00E9448
:10251000D205813011F5B701A60145505109610975
:1025200071098DED98E00E94DC0369837A838B83C7
:102530009C8389819A81AB81BC81892B8A2B8B2BCF
:1025400051F081E00E94A70C69817A818B819C8186
:102550000E94700C8DCB80E0F5CF97E0C916D104B6
:10256000E104F10409F08CC428ED38E047E050E0C4
:1025700060E070E083E395E00E94D205813011F5C0
:102580000E94DC0C75CBA4E0CA16D104E104F1046E
:1025900009F07DC428ED38E044E050E060E070E0F0
:1025A0008BE395E00E94D205813009F425CF27E026
:1025B00030E040E050E06EE273E080E598E00E9499
:1025C000AB0325CE28ED38E047E050E060E070E056
:1025D00080E495E00E94D205813019F40E94F40C49
:1025E00047CB28ED38E047E050E060E070E088E459
:1025F00095E00E94D2058130D1F60E94000D38CBC3
:10260000EBE0CE16D104E104F10481F428ED38E0CA
:102610004BE050E060E070E089E595E00E94D20573
:10262000813009F004C40E942F0D22CBFCE0CF16AC
:10263000D104E104F10408F47DC028ED38E04CE059
:1026400050E060E070E085E695E00E94D2058130C0
:1026500099F4B701A6014C5051096109710984EE42
:1026600098E00E94DC036093980970939909809325
:102670009A0990939B09FCCA28ED38E04CE050E0A1
:1026800060E070E082E795E00E94D205813099F425
:10269000B701A6014C5051096109710984EE98E017
:1026A0000E94DC0360939C0970939D0980939E09AE
:1026B00090939F09DDCA28ED38E04CE050E060E0DF
:1026C00070E08FE795E00E94D205813099F4B70160
:1026D000A6014C5051096109710984EE98E00E94ED
:1026E000DC036093A0097093A1098093A2099093E1
:1026F000A309BECA28ED38E04CE050E060E070E08D
:102700008CE895E00E94D205813009F072C0B701D3
:10271000A6014C5051096109710984EE98E00E94AC
:10272000DC036093A4097093A5098093A609909394
:10273000A7099ECA8AE0C816D104E104F10409F091
:1027400059C328ED38E04AE050E060E070E089E9E4
:1027500095E00E94D205813009F029CF2BE030E0CE
:1027600040E050E06CE073E080E598E00E94AB034D
:102770006AE380E598E00E947203409198095091C5
:10278000990960919A0970919B0980E598E00E94EF
:1027900054056AE380E598E00E94720340919C0929
:1027A00050919D0960919E0970919F0980E598E084
:1027B0000E9454056AE380E598E00E94720340910C
:1027C000A0095091A1096091A2097091A30980E527
:1027D00098E00E9454056AE380E598E00E94720345
:1027E0004091A4095091A5096091A6097091A7098B
:1027F000C6CA9EE0C916D104E104F10408F47DC004
:1028000028ED38E04EE050E060E070E084EA95E0CA
:102810000E94D205813099F4B701A6014E505109AA
:102820006109710986EE98E00E94DC036093A809B3
:102830007093A9098093AA099093AB0919CA28ED4E
:1028400038E04EE050E060E070E083EB95E00E94FD
:10285000D205813099F4B701A6014E5051096109A2
:10286000710986EE98E00E94DC036093AC097093D6
:10287000AD098093AE099093AF09FAC928ED38E00D
:102880004EE050E060E070E082EC95E00E94D205FE
:10289000813099F4B701A6014E50510961097109BF
:1028A00086EE98E00E94DC036093B0097093B10952
:1028B0008093B2099093B309DBC928ED38E04EE06C
:1028C00050E060E070E081ED95E00E94D20581303B
:1028D00009F072C0B701A6014E5051096109710992
:1028E00086EE98E00E94DC036093B4097093B5090A
:1028F0008093B6099093B709BBC9ADE0CA16D1045D
:10290000E104F10409F032C128ED38E04DE050E077
:1029100060E070E080EE95E00E94D205813009F021
:1029200025C12DE030E040E050E06EEF72E080E540
:1029300098E00E94AB036AE380E598E00E9472038E
:102940004091A8095091A9096091AA097091AB0919
:1029500080E598E00E9454056AE380E598E00E94D3
:1029600072034091AC095091AD096091AE0970912C
:10297000AF0980E598E00E9454056AE380E598E09D
:102980000E9472034091B0095091B1096091B2095F
:102990007091B30980E598E00E9454056AE380E5F0
:1029A00098E00E9472034091B4095091B50960917A
:1029B000B6097091B709E3C928ED38E0BEE0CB163F
:1029C000D104E104F10409F47BC04FE050E060E081
:1029D00070E08EEE95E00E94D205813099F4B70147
:1029E000A6014F5051096109710987EE98E00E94D4
:1029F000DC036093B8097093B9098093BA09909386
:102A0000BB0936C928ED38E04FE050E060E070E0E7
:102A10008EEF95E00E94D205813099F4B701A601AE
:102A20004F5051096109710987EE98E00E94DC035B
:102A30006093BC097093BD098093BE099093BF0950
:102A400017C928ED38E04FE050E060E070E08EE01C
:102A500096E00E94D205813099F4B701A6014F504B
:102A600051096109710987EE98E00E94DC036093C7
:102A7000C0097093C1098093C2099093C309F8C833
:102A800028ED38E04FE050E060E070E08EE196E045
:102A90000E94D205813009F069C0B701A6014F50EC
:102AA00051096109710987EE98E00E94DC03609387
:102AB000C4097093C5098093C6099093C709D8C803
:102AC0004EE050E060E070E08EE296E00E94D205B9
:102AD000813009F04BC02EE030E040E050E06FEE76
:102AE00072E080E598E00E94AB036AE380E598E03D
:102AF0000E9472034091B8095091B9096091BA09D6
:102B00007091BB0980E598E00E9454056AE380E576
:102B100098E00E9472034091BC095091BD096091F8
:102B2000BE097091BF0980E598E00E9454056AE3F0
:102B300080E598E00E9472034091C0095091C1095C
:102B40006091C2097091C30980E598E00E94540524
:102B50006AE380E598E00E9472034091C4095091B5
:102B6000C5096091C6097091C70909C928ED38E007
:102B70004CE050E060E070E08DE396E00E94D2050A
:102B8000813099F4B701A6014C50510961097109CE
:102B900084EE98E00E94DC036093C8097093C90931
:102BA0008093CA099093CB0963C8EEE0CE16D10496
:102BB000E104F10400F128ED38E04EE050E060E07F
:102BC00070E08AE496E00E94D205813009F04FC09F
:102BD000B701A6014E5051096109710986EE98E0CE
:102BE0000E94DC036093CC097093CD098093CE09D9
:102BF0009093CF093DC8FCE0CF16D104E104F10465
:102C0000B1F528ED38E04CE050E060E070E089E597
:102C100096E00E94D205813009F0A4C02CE030E09B
:102C200040E050E062EE72E080E598E00E94AB0385
:102C30006AE380E598E00E9472034091C8095091D0
:102C4000C9096091CA097091CB0980E598E00E949A
:102C500054056AE380E598E00E9472034091CC0934
:102C60005091CD096091CE097091CF0988C880E15B
:102C7000C816D104E104F10408F446C028ED38E098
:102C800040E150E060E070E086E696E00E94D20508
:102C90008130A1F4B701A6014051510961097109C0
:102CA00088EE98E00E94DC036093D0097093D1090C
:102CB0008093D2099093D3090C94380E93E1C916EE
:102CC000D104E104F10430F128ED38E043E150E0B3
:102CD00060E070E087E796E00E94D2058130D1F491
:102CE000B701A60143515109610971098BEE98E0C2
:102CF0000E94DC036093D8097093D9098093DA09A4
:102D00009093DB090C94380EAFE0CA16D104E104AD
:102D1000F10409F528ED38E04FE050E060E070E0A4
:102D20008BE896E00E94D205813009F063C0B701BC
:102D3000A6014F5051096109710987EE98E00E9480
:102D4000DC036093D4097093D5098093D6099093DE
:102D5000D7090C94380EBCE0CB16D104E104F10481
:102D600009F048C028ED38E04CE050E060E070E049
:102D70008BE996E00E94D205813009F018CC20E161
:102D800030E040E050E061ED72E080E598E00E94C4
:102D9000AB036AE380E598E00E9472034091D0099A
:102DA0005091D1096091D2097091D30980E598E0E2
:102DB0000E9454056AE380E598E00E947203409106
:102DC000D8095091D9096091DA097091DB0980E541
:102DD00098E00E9454056AE380E598E00E9472033F
:102DE0004091D4095091D5096091D6097091D709C5
:102DF0000C94BF0EE8E0CE16D104E104F10489F48E
:102E000028ED38E048E050E060E070E088EA96E0C5
:102E10000E94D205813009F0CACB0E942C040C9488
:102E2000380EFBE0CF16D104E104F10489F428ED5B
:102E300038E04BE050E060E070E081EB96E00E940B
:102E4000D205813009F0B3CB0E94EE050C94380E08
:102E50008DE0C816D104E104F10409F0A8CB28EDF7
:102E600038E04DE050E060E070E08DEB96E00E94CD
:102E7000D205813009F09BCB0E9490260C94380E2D
:102E800094E0C916D104E104F10409F483CBB8E05D
:102E9000CB16D104E104F10408F4C8CB28ED38E0E6
:102EA00048E050E060E070E080E595E00E94D205E7
:102EB000813009F0A5CBB701A6014850510961093D
:102EC000710980EE98E00E94DC030E940C0D0C94C6
:102ED000380EA9E0CA16D104E104F10409F4C4CA09
:102EE000BCE0CB16D104E104F10409F008CB28EDD5
:102EF00038E04CE050E060E070E08AE195E00E944C
:102F0000D205813009F0FBCA1092E7061092E6065E
:102F100080E00E943B0D0C94380E8F929F92AF92EE
:102F2000BF92CF92DF92EF92FF920F931F93CF93B6
:102F3000DF9300D00F92CDB7DEB788E797E00E940D
:102F40006B02633071058105910510F50F900F90AC
:102F50000F900F90DF91CF911F910F91FF90EF9005
:102F6000DF90CF90BF90AF909F908F90089588E7AB
:102F700097E00E946B02643071058105910570F045
:102F800041E050E060E070E088E797E00E9457037E
:102F900088E797E00E94E702843249F788E797E0E4
:102FA0000E946B02653071058105910578F240E061
:102FB00050E0BA0188E797E00E940503843209F4E3
:102FC000BDC088E797E00E946B02653071058105FE
:102FD000910508F0AAC088E797E00E946B02698318
:102FE0007A838B839C83653071058105910508F494
:102FF000ADCF88E797E00E946B026B017C0183E014
:10300000882E912CA12CB12C8C149D04AE04BF04ED
:1030100008F09CCFB501A40188E797E00E94050362
:103020008A3049F0B501A40188E797E00E940503C2
:10303000843209F0A5C0B501A40188E797E00E9499
:1030400005038A3009F052C043E050E060E070E0D0
:1030500088E797E00E9457037501640193E0C91A5D
:10306000D108E108F108B501A401445051096109F2
:10307000710988E797E00E94050341E050E060E0B5
:1030800070E08D3019F040E050E0BA01C41AD50A62
:10309000E60AF70AA701960168EB78E088E797E06F
:1030A0000E941907A2E0CA16D104E104F10409F054
:1030B0006DC028EB38E042E050E060E070E08BE06B
:1030C00094E00E94D205813009F0AFC42DE130E0D8
:1030D00040E050E066E373E080EC97E00E94AB03D1
:1030E0000E9429080E94580C0E94640CB501A4019A
:1030F00088E797E00E940503843209F027CFB501E5
:10310000A40188E797E00F900F900F900F90DF9148
:10311000CF911F910F91FF90EF90DF90CF90BF90D4
:10312000AF909F908F900C94570341E050E060E087
:1031300070E088E797E00E94570339CF41E050E004
:1031400060E070E088E797E00E940503843209F0B0
:1031500038CF42E050E060E070E088E797E00E94FE
:103160000503843209F02DCF43E050E060E070E0C9
:1031700088E797E00E940503843209F422CF2BCF21
:103180008FEF881A980AA80AB80A3ECFB8E0CB1683
:10319000D104E104F10409F0D7C128EB38E048E09C
:1031A00050E060E070E08EE094E00E94D205813053
:1031B00049F5F89480910F0990911009789461E095
:1031C0000E948E0189839A8324E030E040E050E041
:1031D00069E273E080EC97E00E94AB0361E380EC6E
:1031E00097E00E9472036AE380EC97E00E9472030A
:1031F000E981FA81AF0170E060E080EC97E00E9425
:1032000054053EC228EB38E048E050E060E070E052
:1032100087E194E00E94D205813019F5F8948091FD
:10322000130990911409789462E00E948E018983B9
:103230009A8324E030E040E050E069E273E080EC03
:1032400097E00E94AB0362E380EC97E00E94720378
:103250006AE380EC97E00E94720389819A81AC0155
:10326000CACF28EB38E048E050E060E070E080E250
:1032700094E00E94D205813019F5F89480911709E5
:1032800090911809789463E00E948E0189839A8353
:1032900024E030E040E050E069E273E080EC97E049
:1032A0000E94AB0363E380EC97E00E9472036AE341
:1032B00080EC97E00E947203A981BA81AD019BCF97
:1032C00028EB38E048E050E060E070E089E294E00C
:1032D0000E94D2058130B9F4F89480911B09909135
:1032E0001C09789464E00E948E0189839A8324E00B
:1032F00030E040E050E069E273E080EC97E00E944B
:10330000AB0364E36CCF28EB38E048E050E060E0CA
:1033100070E082E394E00E94D2058130B9F4F89421
:103320008091110990911209789461E00E94E9015D
:1033300089839A8324E030E040E050E064E273E067
:1033400080EC97E00E94AB0361E37ECF28EB38E08E
:1033500048E050E060E070E08BE394E00E94D2052A
:103360008130B9F4F89480911509909116097894F8
:1033700062E00E94E90189839A8324E030E040E022
:1033800050E064E273E080EC97E00E94AB0362E3FC
:103390008ACF28EB38E048E050E060E070E084E459
:1033A00094E00E94D2058130B9F4F8948091190913
:1033B00090911A09789463E00E94E90189839A83C5
:1033C00024E030E040E050E064E273E080EC97E01D
:1033D0000E94AB0363E303CF28EB38E048E050E002
:1033E00060E070E08DE494E00E94D2058130B9F491
:1033F000F89480911D0990911E09789464E00E94D0
:10340000E90189839A8324E030E040E050E064E2FF
:1034100073E080EC97E00E94AB0364E315CF28EBE8
:1034200038E048E050E060E070E086E594E00E941B
:10343000D205813049F4109231091092300910926E
:10344000CD061092CC0652CE28EB38E048E050E092
:1034500060E070E08FE594E00E94D205813039F49D
:1034600081E090E09093310980933009E8CF28EB18
:1034700038E048E050E060E070E088E694E00E94C8
:10348000D205813029F410923E0910923D09D7CF20
:1034900028EB38E048E050E060E070E081E794E03D
:1034A0000E94D205813039F481E090E090933E098A
:1034B00080933D09C4CF28EB38E048E050E060E05D
:1034C00070E08AE794E00E94D205813029F41092DE
:1034D0004B0910924A09B3CF28EB38E048E050E09E
:1034E00060E070E083E894E00E94D205813039F416
:1034F00081E090E090934B0980934A09A0CF28EB9C
:1035000038E048E050E060E070E08CE894E00E9431
:10351000D205813029F41092580910925709E6CD4E
:1035200028EB38E048E050E060E070E085E994E0A6
:103530000E94D205813009F0B2C081E090E0909302
:10354000580980935709D2CD93E0C916D104E104FC
:10355000F10459F528EB38E043E050E060E070E01A
:1035600087EA94E00E94D205813009F05EC261E0F2
:1035700090E080E00E94462562E090E080E00E94BA
:10358000462563E090E080E00E94462564E090E0FC
:1035900080E00E94462580E00E94A70C1092CD0694
:1035A0001092CC060E94400CA1CDA5E0CA16D10411
:1035B000E104F10481F428EB38E045E050E060E0FC
:1035C00070E08EE994E00E94D205813009F046C196
:1035D0000E94A70C8BCDB6E0CB16D104E104F10418
:1035E00089F428EB38E046E050E060E070E084EADF
:1035F00094E00E94D205813009F030C180E00E9441
:10360000A70C1DCFE7E0CE16D104E104F10409F0C8
:103610003FC028EB38E047E050E060E070E08BEA24
:1036200094E00E94D205813009F018C12BE030E00F
:1036300040E050E068E173E080EC97E00E94AB036B
:103640008FE299E09A83898303E619E0A981BA8120
:103650008C916DE2813041F4E981FA818781908516
:1036600063E4892B09F066E580EC97E00E94720321
:1036700089819A810D969A8389830817190731F7F2
:103680006AE080EC97E00E9472030E9429082ECD28
:1036900098E0C916D104E104F10408F4D8C028EB7D
:1036A00038E048E050E060E070E083EB94E00E9496
:1036B000D205813089F4B701A6014850510961094A
:1036C000710980EC98E00E94DC03262F61E0822FD4
:1036D000972F0E944625B3CE28EB38E048E050E013
:1036E00060E070E08CEB94E00E94D205813069F4D8
:1036F000B701A601485051096109710980EC98E0B1
:103700000E94DC03262F62E0E2CF28EB38E048E09D
:1037100050E060E070E085EC94E00E94D2058130DA
:1037200069F4B701A601485051096109710980EC9B
:1037300098E00E94DC03262F63E0C9CF28EB38E035
:1037400048E050E060E070E08EEC94E00E94D2052A
:10375000813089F4B701A601485051096109710906
:1037600080EC98E00E94DC03262F64E0822F972FE4
:103770000E944625BBCC28EB38E048E050E060E0F2
:1037800070E087ED94E00E94D205813089F4B701A2
:10379000A601485051096109710980EC98E00E9426
:1037A000DC03262F61E0822F972F0E94222647CE2E
:1037B00028EB38E048E050E060E070E080EE94E014
:1037C0000E94D205813069F4B701A6014850510921
:1037D0006109710980EC98E00E94DC03262F62E009
:1037E000E2CF28EB38E048E050E060E070E089EE9E
:1037F00094E00E94D205813069F4B701A6014850D7
:1038000051096109710980EC98E00E94DC03262FC0
:1038100063E0C9CF28EB38E048E050E060E070E0BA
:1038200082EF94E00E94D2058130C1F4B701A60175
:10383000485051096109710980EC98E00E94DC034D
:10384000262F64E0822F972F0E9422264FCCA4E0DF
:10385000CA16D104E104F10409F088C028EB38E06D
:1038600044E050E060E070E086E896E00E94D20517
:10387000813019F40E94E80C39CCB7E0CB16D104A2
:10388000E104F104D0F028EB38E047E050E060E0DC
:1038900070E08BEF94E00E94D205813009F057C5AB
:1038A000B701A60147505109610971098FEB98E0F2
:1038B0000E94DC030E94700CC2CDE5E0CE16D1045C
:1038C000E104F10479F528EB38E045E050E060E0F0
:1038D00070E083E095E00E94D2058130C1F50E943E
:1038E000950004CC28EB38E049E050E060E070E05F
:1038F00089E095E00E94D205813009F03EC061E088
:1039000090E080E00E94462562E090E080E00E9426
:10391000462563E090E080E00E94462564E090E068
:1039200080E0D7CEF6E0CF16D104E104F104F1F443
:1039300028EB38E046E050E060E070E083E195E09D
:103940000E94D2058130C9F40E940D01CFCB28EB33
:1039500038E045E050E060E070E087E295E00E94EA
:10396000D205813051F40C940000C0CB85E0C8161C
:10397000D104E104F10408F444C028EB38E045E048
:1039800050E060E070E08DE295E00E94D205813069
:1039900011F5B701A60145505109610971098DEB77
:1039A00098E00E94DC0369837A838B839C838981FE
:1039B0009A81AB81BC81892B8A2B8B2B51F081E0C2
:1039C0000E94A70C69817A818B819C810E94700C76
:1039D0008DCB80E0F5CF97E0C916D104E104F10466
:1039E00009F08CC428EB38E047E050E060E070E07C
:1039F00083E395E00E94D205813011F50E94DC0C32
:103A000075CBA4E0CA16D104E104F10409F07DC429
:103A100028EB38E044E050E060E070E08BE395E0B4
:103A20000E94D205813009F425CF27E030E040E044
:103A300050E06EE273E080EC97E00E94AB0325CE8D
:103A400028EB38E047E050E060E070E080E495E08B
:103A50000E94D205813019F40E94F40C47CB28EB68
:103A600038E047E050E060E070E088E495E00E94D4
:103A7000D2058130D1F60E94000D38CBEBE0CE1696
:103A8000D104E104F10481F428EB38E04BE050E08C
:103A900060E070E089E595E00E94D205813009F090
:103AA0001CC40E942F0D22CBFCE0CF16D104E104F0
:103AB000F10408F47DC028EB38E04CE050E060E011
:103AC00070E085E695E00E94D205813099F4B70157
:103AD000A6014C5051096109710984EC98E00E94DB
:103AE000DC03609398097093990980939A099093E5
:103AF0009B09FCCA28EB38E04CE050E060E070E045
:103B000082E795E00E94D205813099F4B701A601C1
:103B10004C5051096109710984EC98E00E94DC0362
:103B200060939C0970939D0980939E0990939F09CF
:103B3000DDCA28EB38E04CE050E060E070E08FE751
:103B400095E00E94D205813099F4B701A6014C504E
:103B500051096109710984EC98E00E94DC036093CB
:103B6000A0097093A1098093A2099093A309BECAEA
:103B700028EB38E04CE050E060E070E08CE895E045
:103B80000E94D205813009F072C0B701A6014C50E5
:103B900051096109710984EC98E00E94DC0360938B
:103BA000A4097093A5098093A6099093A7099ECABA
:103BB0008AE0C816D104E104F10409F070C328EBCF
:103BC00038E04AE050E060E070E089E995E00E946A
:103BD000D205813009F029CF2BE030E040E050E001
:103BE0006CE073E080EC97E00E94AB036AE380EC4A
:103BF00097E00E9472034091980950919909609151
:103C00009A0970919B0980EC97E00E9454056AE341
:103C100080EC97E00E94720340919C0950919D09AD
:103C200060919E0970919F0980EC97E00E94540575
:103C30006AE380EC97E00E9472034091A0095091E2
:103C4000A1096091A2097091A30980EC97E00E94FC
:103C500054056AE380EC97E00E9472034091A40946
:103C60005091A5096091A6097091A709C6CA9EE066
:103C7000C916D104E104F10408F47DC028EB38E052
:103C80004EE050E060E070E084EA95E00E94D205EA
:103C9000813099F4B701A6014E50510961097109AB
:103CA00086EC98E00E94DC036093A8097093A90950
:103CB0008093AA099093AB0919CA28EB38E04EE02B
:103CC00050E060E070E083EB95E00E94D205813027
:103CD00099F4B701A6014E5051096109710986ECAA
:103CE00098E00E94DC036093AC097093AD09809367
:103CF000AE099093AF09FAC928EB38E04EE050E0E6
:103D000060E070E082EC95E00E94D205813099F489
:103D1000B701A6014E5051096109710986EC98E07E
:103D20000E94DC036093B0097093B1098093B209DB
:103D30009093B309DBC928EB38E04EE050E060E037
:103D400070E081ED95E00E94D205813009F072C0EB
:103D5000B701A6014E5051096109710986EC98E03E
:103D60000E94DC036093B4097093B5098093B6098F
:103D70009093B709BBC9ADE0CA16D104E104F104C0
:103D800009F032C128EB38E04DE050E060E070E02F
:103D900080EE95E00E94D205813009F025C12DE02A
:103DA00030E040E050E06EEF72E080EC97E00E947F
:103DB000AB036AE380EC97E00E9472034091A8098C
:103DC0005091A9096091AA097091AB0980EC97E024
:103DD0000E9454056AE380EC97E00E9472034091D0
:103DE000AC095091AD096091AE097091AF0980ECBA
:103DF00097E00E9454056AE380EC97E00E9472030A
:103E00004091B0095091B1096091B2097091B30924
:103E100080EC97E00E9454056AE380EC97E00E94F2
:103E200072034091B4095091B5096091B60970913F
:103E3000B709E3C928EB38E0BEE0CB16D104E104B2
:103E4000F10409F47BC04FE050E060E070E08EEEDA
:103E500095E00E94D205813099F4B701A6014F5038
:103E600051096109710987EC98E00E94DC036093B5
:103E7000B8097093B9098093BA099093BB0936C900
:103E800028EB38E04FE050E060E070E08EEF95E026
:103E90000E94D205813099F4B701A6014F50510913
:103EA0006109710987EC98E00E94DC036093BC090A
:103EB0007093BD098093BE099093BF0917C928EB81
:103EC00038E04FE050E060E070E08EE096E00E9465
:103ED000D205813099F4B701A6014F50510961090B
:103EE000710987EC98E00E94DC036093C00970932D
:103EF000C1098093C2099093C309F8C828EB38E040
:103F00004FE050E060E070E08EE196E00E94D20564
:103F1000813009F069C0B701A6014F50510961090C
:103F2000710987EC98E00E94DC036093C4097093E8
:103F3000C5098093C6099093C709D8C84EE050E0E0
:103F400060E070E08EE296E00E94D205813009F0D8
:103F50004BC02EE030E040E050E06FEE72E080ECCD
:103F600097E00E94AB036AE380EC97E00E94720343
:103F70004091B8095091B9096091BA097091BB0993
:103F800080EC97E00E9454056AE380EC97E00E9481
:103F900072034091BC095091BD096091BE097091B6
:103FA000BF0980EC97E00E9454056AE380EC97E03B
:103FB0000E9472034091C0095091C1096091C209E9
:103FC0007091C30980EC97E00E9454056AE380EC8D
:103FD00097E00E9472034091C4095091C509609115
:103FE000C6097091C70909C928EB38E04CE050E0D8
:103FF00060E070E08DE396E00E94D205813099F494
:10400000B701A6014C5051096109710984EC98E08F
:104010000E94DC036093C8097093C9098093CA09A0
:104020009093CB0963C8EEE0CE16D104E104F1040D
:1040300000F128EB38E04EE050E060E070E08AE408
:1040400096E00E94D205813009F04FC0B701A60169
:104050004E5051096109710986EC98E00E94DC0319
:104060006093CC097093CD098093CE099093CF09CA
:104070003DC8FCE0CF16D104E104F104B1F528EB12
:1040800038E04CE050E060E070E089E596E00E94A6
:10409000D205813009F0A4C02CE030E040E050E0CF
:1040A00062EE72E080EC97E00E94AB036AE380EC82
:1040B00097E00E9472034091C8095091C90960912C
:1040C000CA097091CB0980EC97E00E9454056AE31D
:1040D00080EC97E00E9472034091CC095091CD0989
:1040E0006091CE097091CF0988C880E1C816D104CB
:1040F000E104F10408F446C028EB38E040E150E068
:1041000060E070E086E696E00E94D2058130A1F47E
:10411000B701A601405151096109710988EC98E085
:104120000E94DC036093D0097093D1098093D20977
:104130009093D3090C94761893E1C916D104E10445
:10414000F10430F128EB38E043E150E060E070E04A
:1041500087E796E00E94D2058130D1F4B701A6012D
:1041600043515109610971098BEC98E00E94DC030D
:104170006093D8097093D9098093DA099093DB0989
:104180000C947618AFE0CA16D104E104F10409F5E5
:1041900028EB38E04FE050E060E070E08BE896E01C
:1041A0000E94D205813009F063C0B701A6014F50CB
:1041B00051096109710987EC98E00E94DC03609362
:1041C000D4097093D5098093D6099093D7090C949C
:1041D0007618BCE0CB16D104E104F10409F048C024
:1041E00028EB38E04CE050E060E070E08BE996E0CE
:1041F0000E94D205813009F018CC20E130E040E087
:1042000050E061ED72E080EC97E00E94AB036AE35E
:1042100080EC97E00E9472034091D0095091D1093F
:104220006091D2097091D30980EC97E00E94540507
:104230006AE380EC97E00E9472034091D8095091A4
:10424000D9096091DA097091DB0980EC97E00E944E
:1042500054056AE380EC97E00E9472034091D40910
:104260005091D5096091D6097091D7090C94FD1829
:10427000EDE0CE16D104E104F10489F428EB38E036
:104280004DE050E060E070E08DEB96E00E94D205DA
:10429000813009F0CACB0E9490260C947618F8E081
:1042A000CF16D104E104F10489F428EB38E048E0AA
:1042B00050E060E070E088EA96E00E94D20581302C
:1042C00009F0B3CB0E942C040C9476188BE0C8162E
:1042D000D104E104F10409F0A8CB28EB38E04BE06D
:1042E00050E060E070E081EB96E00E94D205813002
:1042F00009F09BCB0E94EE050C94761894E0C91649
:10430000D104E104F10409F483CBB8E0CB16D10465
:10431000E104F10408F4C8CB28EB38E048E050E0B1
:1043200060E070E080E595E00E94D205813009F000
:10433000A5CBB701A601485051096109710980EC6C
:1043400098E00E94DC030E940C0D0C947618A9E002
:10435000CA16D104E104F10409F4C4CABCE0CB16C6
:10436000D104E104F10409F008CB28EB38E04CE07B
:1043700050E060E070E08AE195E00E94D205813073
:1043800009F0FBCA1092E7061092E60680E00E9450
:104390003B0D0C9476181F921FB61F9211240F9399
:1043A0001F932F933F934F935F936F937F938F93BD
:1043B0009F93AF93BF9380910B0990910C09A091AB
:1043C0000D09B0910E09009107091091080920917B
:1043D000090930910A09B901A8014E5E5F4F6F4F7C
:1043E0007F4F4D37510561057105C0F58A5F9E4FBE
:1043F000AF4FBF4F009103091091040920910509A7
:10440000309106090F5F1F4F2F4F3F4F0093030955
:1044100010930409209305093093060980930B0932
:1044200090930C09A0930D09B0930E0940930709CE
:10443000509308096093090970930A09BF91AF91DD
:104440009F918F917F916F915F914F913F912F91AC
:104450001F910F911F901FBE1F901895B901A801C1
:104460004B56510961097109895F9E4FAF4FBF4F8C
:10447000C1CFCF93DF9300D00F92CDB7DEB72FB768
:10448000F8948091030990910409A0910509B091D5
:10449000060946B550E070E060E0A89B08C04F3FB9
:1044A00051056105710519F00196A11DB11D2FBFC0
:1044B000BA2FA92F982F8827840F951FA61FB71FE3
:1044C0009C01AD0162E0220F331F441F551F6A9506
:1044D000D1F7CA01B9010F900F900F900F90DF91A3
:1044E000CF910895CF92DF92EF92FF92CF93DF9317
:1044F00000D000D0CDB7DEB76B017C010E9439221D
:104500006D837E83C114D104E104F10469F426961D
:104510000FB6F894DEBF0FBECDBFDF91CF91FF90F5
:10452000EF90DF90CF9008950E94392269837A83BB
:104530008B839C8389819A812D813E81821B930B81
:10454000883E9340F8F28D819E8188519C4F9E83D6
:104550008D8391E0C91AD108E108F108D3CF15BCC9
:1045600016BC14BC81E085BB80936E0083E085BDE2
:1045700008952F932FB72F932BB72F933F934F93DC
:104580005F938F939F93AF93BF93CF93DF93EF93FB
:10459000FF93CCE7D0E02881ABE7B0E09C91822F7D
:1045A0008770392F3870832B815F8F70409178002E
:1045B00050917900E82FF0E0EE0FFF1FE15FF64F1A
:1045C000518340838E5F382F3770207E232B2883C2
:1045D000977F8870982B9C93FF91EF91DF91CF91FB
:1045E000BF91AF919F918F915F914F913F912F918B
:1045F0002BBF2F912FBF2F911895CF93CFB7F89442
:1046000040E250E06FEF70E08FE099E00E94E62A10
:10461000E4E6F0E080818E7F808380E480937C00FC
:1046200010927B00EAE7F0E08FEB8083CFBF8081C0
:1046300080648083CF91089580B1EFE2F9E08695A0
:10464000869591E08927817087831086AFE0B9E075
:104650002D913C9111973287218712962D913C9193
:1046600013973487238780B18295869586958370CA
:1046700089278170848B158A14962D913C9115970A
:10468000378B268B16962D913C911797318F208F63
:1046900086B18295869587708927817081A312A241
:1046A00018962D913C91199734A323A31A962D9116
:1046B0003C911B9736A325A386B1869589278170E7
:1046C00086A717A61C968D919C911D9791AB80ABE8
:1046D0001E968D919C9193AB82AB08951F93CF93BF
:1046E000DF9392B188B170914909A0914A09B091C4
:1046F0004B0960913C09E0913D09F0913E093091F0
:104700002F09409130095091310910915609C091FB
:104710005709D091580920E0223019F1233061F176
:104720002130A1F0313071F491604115510561F4EF
:104730009D7F2F5F243081F792B988B9DF91CF91A7
:104740001F9108959E7FF1CF9260F3CF613029F4DD
:104750009061309721F49F7DECCF9F7EFACF9062DD
:10476000E8CF713029F48068109721F48F7BE1CF76
:104770008F77FACF8064DDCF113029F488602097DD
:1047800021F48B7FD6CF877FFACF8460D2CF9C0174
:1047900092B188B12230310581F13CF42115310507
:1047A00041F021303105C1F0089523303105B1F1D8
:1047B000089520912F09213059F4916020913009FA
:1047C00030913109232B31F49D7F92B988B9089536
:1047D0009E7FF4CF9260F9CF20913C09213049F4BB
:1047E000906120913D0930913E09232B21F49F7D5A
:1047F000ECCF9F7EF6CF9062E8CF2091490921301F
:1048000049F4806820914A0930914B09232B21F407
:104810008F7BDBCF8F77F6CF8064D7CF209156097F
:10482000213049F488602091570930915809232B91
:1048300021F48B7FCACF877FF6CF8460C6CF2FB796
:10484000F89483E381B982E282B98CEC87B980E481
:1048500088B98FEF80930A0110920B0180E88AB922
:104860001BB8EFE2F9E0108281E090E0928381834F
:104870001482138216821582158697878687118A7D
:10488000108A138A128A128E948F838F168E158E39
:1048900010A2178E17A211A610A613A612A615A66F
:1048A00014A62FBF62E070E080E090E00E947222C8
:1048B0000C941C230F920FB60F921F9211241F937A
:1048C0001BB71F932F933F934F935F936F937F93E8
:1048D0008F939F93AF93BF93CF93DF93EF93FF9308
:1048E0006091730970917409611588E07807D1F1BE
:1048F0006F5F7F4F7093740960937309E5E7F9E088
:10490000A5E8B9E080E0219131912F5F3F4F3370EE
:10491000EF012297398328834D915D9190910B018E
:104920002417350708F47AC0811162C09F779093ED
:104930000B018F5F873039F7FF91EF91DF91CF91B6
:10494000BF91AF919F918F917F916F915F914F91A7
:104950003F912F911F911BBF1F911F900F900FBE72
:104960000F901895A3E6B9E0E5E8F9E040E05DE0D6
:1049700011E08D919D9140FD38C020813181ED0184
:104980002297888199818217930710F5E901C81B46
:10499000D90B2D9710F0C9010C9791838083842F38
:1049A000869590E0EC01CC0FDD1FCB57D64F2881C8
:1049B0003981589FE001599FD00D1124C15DD64F18
:1049C000232B89F018834F5F3296473091F690CFB2
:1049D0002817390720F7EC01C21BD30B2D97E8F2FB
:1049E000C9010C96DACF1882EECF91838083EBCF8A
:1049F000813011F49F7B9BCF823011F49F7D97CF44
:104A0000833011F49F7E93CF843011F4977F8FCF42
:104A1000853011F49B7F8BCF9D7F89CF811102C0A0
:104A2000906885CF813011F4906481CF823011F489
:104A300090627DCF833011F4906179CF843011F48E
:104A4000986075CF853011F4946071CF92606FCF0C
:104A50009FB7F89480E1E5E7F9E0DF01282F1D9288
:104A60002A95E9F7E3E6F9E0DF011D928A95E9F777
:104A70001092B20082E08093B0008093B3008093E4
:104A8000700086E08093B1009FBF0895CF93DF93BD
:104A900000D000D0CDB7DEB78D839E83633009F49C
:104AA000A1C070F46130F1F1623009F46BC0269658
:104AB0000FB6F894DEBF0FBECDBFDF91CF91089542
:104AC0006430A9F7AD81BE81CD01B0E0A0E089835B
:104AD0009A83AB83BC83BC01CD010E94EB292DE5F9
:104AE00031E44CE450E469837A838B839C8369814D
:104AF0007A818B819C810E944A2969837A838B8386
:104B00009C8369817A818B819C810E94BC297093EE
:104B1000700960936F098D819E8190935A098093EB
:104B20005909C5CFAD81BE81CD01B0E0A0E0898338
:104B30009A83AB83BC83BC01CD010E94EB2927E69D
:104B400033EF4AE350E469837A838B839C836981E2
:104B50007A818B819C810E944A2969837A838B8325
:104B60009C8369817A818B819C810E94BC2970938E
:104B70006409609363098D819E81909333098093CA
:104B8000320995CFAD81BE81CD01B0E0A0E089832F
:104B90009A83AB83BC83BC01CD010E94EB2926E93B
:104BA0003FEE48E450E469837A838B839C83698178
:104BB0007A818B819C810E944A2969837A838B83C5
:104BC0009C8369817A818B819C810E94BC2970932E
:104BD0006809609367098D819E8190934009809355
:104BE0003F0965CFAD81BE81CD01B0E0A0E08983F2
:104BF0009A83AB83BC83BC01CD010E94EB292DE8D5
:104C000032ED48E450E469837A838B839C83698125
:104C10007A818B819C810E944A2969837A838B8364
:104C20009C8369817A818B819C810E94BC297093CD
:104C30006C0960936B098D819E8190934D098093DF
:104C40004C0935CF1F93CF93DF9300D000D0CDB761
:104C5000DEB78D839E83162FAD81BE81CD01B0E07E
:104C6000A0E089839A83AB83BC83BC01CD010E9401
:104C7000EB2928E93EED4AE75FE369837A838B837A
:104C80009C8369817A818B819C810E944A296983F6
:104C90007A838B839C8369817A818B819C810E943A
:104CA000BC29133091F170F41130C9F0123011F1B8
:104CB00026960FB6F894DEBF0FBECDBFDF91CF9121
:104CC0001F9108951430A1F77093720960937109D0
:104CD000AD81BE81B0935C09A0935B09E9CF70936D
:104CE0006609609365098D819E8190933509809353
:104CF0003409DECF70936A0960936909AD81BE8182
:104D0000B0934209A0934109D3CF70936E09609389
:104D10006D098D819E8190934F0980934E09C8CF74
:104D200010929509E5E9F9E080E0919189279AE0F0
:104D3000EC34F907D1F78093950947EB50E070E028
:104D400060E085E999E00C94FD2A87EBE4E5F3E067
:104D5000A5E9B9E001900D928A95E1F70C949026AF
:104D600047EB50E070E060E085E999E00E94ED2AB1
:104D7000E5E9F9E080E09191282F89273AE0EC34C9
:104D8000F307C9F7921307C080919609909197098C
:104D900085359A4A11F00C94A526089500D00F92FB
:104DA000CDB7DEB7F89481E090E09093E70680936A
:104DB000E60683E381B982E282B98CEC87B980E4AC
:104DC00088B98FEF80930A0180930B0180E88AB93C
:104DD0001BB8279A2F980E94AF220E94B0260E94EB
:104DE00095070E9437080E94D50878940E94FD22FA
:104DF0000E941F240E9428251092CD061092CC06F6
:104E00000E944F0D0E948D170E9473090E941C235F
:104E10000E946E230E9439226B017C018091E20680
:104E20009091E306A091E406B091E5064601570192
:104E3000881A990AAA0ABB0A8C159D05AE05BF05FA
:104E400028F021E0821A9108A108B1082091CC062F
:104E50003091CD062115310509F47DC0C9018D7F42
:104E6000019709F078C08091E0069091E1064091A9
:104E7000D6065091D7064817590709F48EC021303D
:104E8000310509F08AC04091D8095091D909609143
:104E9000DA097091DB0984169506A606B70608F4B0
:104EA0005AC0892BF9F481E00E94A70C61E080913F
:104EB000AC099091AD090E94222662E08091A80978
:104EC0009091A9090E94222663E08091B0099091F7
:104ED000B1090E94222664E08091B4099091B5093D
:104EE0000E9422262091E0063091E1064091CC09F3
:104EF0005091CD096091CE097091CF098091D6066D
:104F00009091D706B0E0A0E04A015B01820E931EAB
:104F1000A11CB11C89829A82AB82BC82881599053A
:104F2000AA05BB0520F489839A83AB83BC83A9803F
:104F3000BA80B092E106A092E00669817A818B8105
:104F40009C810E94700CC092E206D092E306E0922F
:104F5000E406F092E5068091E6069091E706892B3B
:104F600009F44ECFAEECB6E0EFE2F9E08D919D9101
:104F7000892B09F4DCC018968D919C911997892B87
:104F800009F4D5C087819085892B09F0D0C00E9493
:104F9000DA0B80E00E94A70C2FCFA091D806B09129
:104FA000D906E091DA06F091DB066091DC0670919B
:104FB000DD064091DE065091DF06CD018E2B9F2B42
:104FC000862B972B842B952B892BD1F58091D40997
:104FD0009091D509A091D609B091D7098816990664
:104FE000AA06BB0608F4B7CF0EEC16E0BB24B394B8
:104FF000F801228533850E5F1F4F8091C80990917B
:10500000C909A091CA09B091CB094081518170E0D2
:1050100060E0820F931FA11DB11D481759076A0751
:105020007B0708F4CA01F801918780876B2D0E94E5
:1050300046250E94BE0AB394F5E0BF12D9CF83CFB4
:105040008091CE069091CF06A817B907A9F4809158
:10505000D0069091D106E817F90771F48091D20635
:105060009091D3066817790739F48091D40690910E
:10507000D50648175907D1F18091D0099091D109EF
:10508000A091D209B091D30988169906AA06BB0649
:1050900008F461CF0EEC16E0BB24B394F80122852E
:1050A00033850E5F1F4F8091C8099091C909A09167
:1050B000CA09B091CB094081518170E060E0820F54
:1050C000931FA11DB11D481759076A077B0708F4F4
:1050D000CA01F801918780876B2D0E9446250E94A6
:1050E000BE0AB394F5E0BF12D9CF2DCF1092CD06F2
:1050F0001092CC0623303105B9F461E090E080E0F5
:105100000E94462562E090E080E00E94462563E030
:1051100090E080E00E94462564E090E080E00E94FC
:1051200046250E94AA0B17CF0E94C20B14CF3D96B2
:1051300083E6882E89E0982E8E169F0609F016CFFA
:105140005FCEA1E21A2EAA1BBB1BFD010DC0AA1F38
:10515000BB1FEE1FFF1FA217B307E407F50720F0E0
:10516000A21BB30BE40BF50B661F771F881F991F5B
:105170001A9469F760957095809590959B01AC01A4
:10518000BD01CF0108950E94CE28A59F900DB49F28
:10519000900DA49F800D911D11240895A29FB00130
:1051A000B39FC001A39F700D811D1124911DB29F5B
:1051B000700D811D1124911D08955058BB27AA27F9
:1051C0000E94F5280C943F2A0E94312A38F00E9450
:1051D000382A20F039F49F3F19F426F40C942E2A33
:1051E0000EF4E095E7FB0C94282AE92F0E94502A40
:1051F00058F3BA17620773078407950720F079F40C
:10520000A6F50C94722A0EF4E0950B2EBA2FA02D61
:105210000B01B90190010C01CA01A0011124FF2763
:10522000591B99F0593F50F4503E68F11A16F0405E
:10523000A22F232F342F4427585FF3CF469537955D
:105240002795A795F0405395C9F77EF41F16BA0B22
:10525000620B730B840BBAF09150A1F0FF0FBB1FD0
:10526000661F771F881FC2F70EC0BA0F621F731F19
:10527000841F48F4879577956795B795F7959E3F76
:1052800008F0B0CF9395880F08F09927EE0F979507
:10529000879508950E945E290C943F2A0E94382A1F
:1052A00058F00E94312A40F029F45F3F29F00C9415
:1052B000282A51110C94732A0C942E2A0E94502AE9
:1052C00068F39923B1F3552391F3951B550BBB2735
:1052D000AA2762177307840738F09F5F5F4F220F7A
:1052E000331F441FAA1FA9F335D00E2E3AF0E0E871
:1052F00032D091505040E695001CCAF72BD0FE2FBB
:1053000029D0660F771F881FBB1F2617370748074E
:10531000AB07B0E809F0BB0B802DBF01FF27935806
:105320005F4F3AF09E3F510578F00C94282A0C9478
:10533000732A5F3FE4F3983ED4F38695779567959B
:10534000B795F7959F5FC9F7880F911D969587953B
:1053500097F90895E1E0660F771F881FBB1F62175A
:1053600073078407BA0720F0621B730B840BBA0B18
:10537000EE1F88F7E09508950E94582A88F09F57FD
:1053800098F0B92F9927B751B0F0E1F0660F771F69
:10539000881F991F1AF0BA95C9F714C0B13091F05F
:1053A0000E94722AB1E008950C94722A672F782F18
:1053B0008827B85F39F0B93FCCF386957795679524
:1053C000B395D9F73EF490958095709561957F4F90
:1053D0008F4F9F4F0895E89409C097FB3EF4909536
:1053E0008095709561957F4F8F4F9F4F9923A9F0BE
:1053F000F92F96E9BB279395F6958795779567954D
:10540000B795F111F8CFFAF4BB0F11F460FF1BC090
:105410006F5F7F4F8F4F9F4F16C0882311F096E923
:1054200011C0772321F09EE8872F762F05C06623D1
:1054300071F096E8862F70E060E02AF09A95660F8A
:10544000771F881FDAF7880F9695879597F9089543
:1054500097F99F6780E870E060E008959FEF80EC27
:10546000089500240A9416161706180609060895CA
:1054700000240A9412161306140605060895092E30
:105480000394000C11F4882352F0BB0F40F4BF2B9F
:1054900011F460FF04C06F5F7F4F8F4F9F4F0895DF
:1054A00057FD9058440F551F59F05F3F71F04795D5
:1054B000880F97FB991F61F09F3F79F087950895BA
:1054C000121613061406551FF2CF4695F1DF08C0D9
:1054D000161617061806991FF1CF869571056105F6
:1054E00008940895E894BB2766277727CB0197F99E
:1054F00008950E948C2A0C943F2A0E94312A38F089
:105500000E94382A20F0952311F00C94282A0C943C
:105510002E2A11240C94732A0E94502A70F3959F0E
:10552000C1F3950F50E0551F629FF001729FBB279A
:10553000F00DB11D639FAA27F00DB11DAA1F649F36
:105540006627B00DA11D661F829F2227B00DA11DE9
:10555000621F739FB00DA11D621F839FA00D611D6F
:10556000221F749F3327A00D611D231F849F600D90
:10557000211D822F762F6A2F11249F5750409AF0B9
:10558000F1F088234AF0EE0FFF1FBB1F661F771F45
:10559000881F91505040A9F79E3F510580F00C9410
:1055A000282A0C94732A5F3FE4F3983ED4F386953F
:1055B00077956795B795F795E7959F5FC1F7FE2BB0
:1055C000880F911D9695879597F90895DC0101C084
:1055D0006D9341505040E0F70895DC01CB01FC0190
:1055E000F999FECF06C0F2BDE1BDF89A319600B43C
:1055F0000D9241505040B8F70895DC01CB0103C033
:105600002D910E94082B41505040D0F70895262F2D
:10561000F999FECF1FBA92BD81BD20BD0FB6F89497
:0E562000FA9AF99A0FBE01960895F894FFCFFA
:10562E00242424656E61626C6570726F7465637498
:10563E00696F6E0A0024242464697361626C65705C
:10564E00726F74656374696F6E0A0024242461643A
:10565E006363616C73746F72650A00242424616441
:10566E006363616C683A0024242461646363616C33
:10567E00300A00242424676574616463300A0024B0
:10568E002424676574610A00242424676574736595
:10569E0074610A00242424736574613A002424245E
:1056AE007665720A0024242469640A002424246F77
:1056BE0066660A00242424696E73756C6661696CD3
:1056CE0065643A002424246265616D6F6E0A0024BD
:1056DE002424696E73756C6F6B0A00646973616262
:1056EE006C65640A0024242466696C736574613ADF
:1056FE000024242472616D706475726174696F6E1A
:10570E00730024242472616D7073746570730024A9
:10571E002424696E73756C6375726C696D00242434
:10572E00246265616D6375726C696D002424247644
:10573E0074617267657473002424247073757374B6
:10574E00617465002424246100242424760024241A
:10575E00246572720A00242424656C656374726F6A
:10576E006E6374726C5F32303232313230365F308B
:10577E0030310A000055AAD0070000E4070000BC33
:10578E000700000000000084030000840300008472
:10579E000300000A0000000A0000000A0000000AD0
:1057AE000000000A0000000500000005000000A037
:1057BE00BB0D008096980090D00300882B4E4000C1
:1057CE0000000000000000000000401C410000002E
:1057DE0000000000000000882B4E4000000000007A
:1057EE00000000000000401C41000000000000000E
:1057FE00000000882B4E400000000000000000005A
:10580E000000401C41000000000000000000008865
:10581E002B4E400000000000000000000000401C65
:10582E004100000000000000000000696400707379
:10583E0075676574763100707375676574763200BE
:10584E0070737567657476330070737567657476FB
:10585E0034007073756765746131007073756765B8
:10586E00746132007073756765746133007073759F
:10587E00676574613400707375706F6C3170007091
:10588E007375706F6C316E00707375706F6C3270F3
:10589E0000707375706F6C326E00707375706F6C14
:1058AE00337000707375706F6C336E00707375703B
:1058BE006F6C347000707375706F6C346E00666947
:1058CE006C6F6E0066696C6F6666007073756D6FD7
:1058DE0064650070737573657476310070737573DB
:1058EE0065747632007073757365747633007073F9
:1058FE0075736574763400707375736574613100F9
:10590E00707375736574613200707375736574614D
:10591E0033007073757365746134007365746669F2
:10592E006C6100696E73756C006265616D68766F8F
:10593E006666006265616D6F6E006E6F70726F7479
:10594E00656374696F6E0072657365740073657458
:10595E00613A006765747365746100676574610010
:10596E00676574616463300061646363616C300009
:10597E0061646363616C683A0061646363616C7354
:10598E00746F726500736574767461726765747690
:10599E006B007365747674617267657476770073E5
:1059AE006574767461726765747666007365747675
:1059BE00746172676574766100676574767461727E
:1059CE00676574007365746265616D6375726C6989
:1059DE006D6B007365746265616D6375726C696D74
:1059EE0077007365746265616D6375726C696D665F
:1059FE00007365746265616D6375726C696D6100CB
:105A0E006765746265616D6375726C696D0073654F
:105A1E0074696E73756C6375726C696D6B0073650A
:105A2E0074696E73756C6375726C696D77007365EE
:105A3E0074696E73756C6375726C696D66007365EF
:105A4E0074696E73756C6375726C696D61006765F0
:105A5E0074696E73756C6375726C696D00736574C1
:105A6E007374657073697A657600736574737465A3
:105A7E007073697A65696C610067657473746570BB
:105A8E0073697A6573007365746475726174696F96
:105A9E006E73746570760073657464757261746983
:105AAE006F6E7374657066696C610073657464758E
:105ABE00726174696F6E696E69740067657464757E
:105ACE00726174696F6E730063616C687670737562
